:020000040800F2
:10000000900A002035020008D11E00085D1D00087E
:10001000CD1E0008C91A00087B2F00080000000050
:10002000000000000000000000000000E5280008BB
:100030006D1B00080000000081260008E92A000866
:100040004F0200084F0200084F0200084F0200084C
:100050004F0200084F0200084F0200084F0200083C
:100060004F0200084F0200084F0200084F0200082C
:100070004F0200084F0200084F0200084F0200081C
:100080004F0200084F0200084F0200084F0200080C
:100090004F0200084F0200084F0200084F020008FC
:1000A0004F0200084F0200084F0200084F020008EC
:1000B0004F0200084F0200084D2B00084F020008B5
:1000C0004F0200084F0200084F0200084F020008CC
:1000D0004F020008692D00084F0200084F02000877
:1000E0004F0200084F0200084F02000800F002F81B
:1000F00000F090F80AA090E8000C82448344AAF132
:100100000107DA4501D100F085F8AFF2090EBAE82F
:100110000F0013F0010F18BFFB1A43F0010318473B
:1001200090470000B0470000103A24BF78C878C15B
:10013000FAD8520724BF30C830C144BF04680C60ED
:10014000704700000023002400250026103A28BF35
:1001500078C1FBD8520728BF30C148BF0B60704739
:100160006E2900F03B81702900F07D82662903F042
:100170001A85652903F01785672903F0148561291D
:1001800003F0138503681B0A28BF41F08001692929
:1001900000F0E880642900F0E580752900F0E28035
:1001A0006F2900F00B82782900F04982E92900F0DC
:1001B000A581E42900F0A281F52900F09F81EF29B3
:1001C00000F00882F82900F048820368DB0928BFA4
:1001D00041F08001632900F04987732900F04E87C0
:1001E000E32900F05987F32900F05E87002070476B
:1001F0001FB500F0ABFF04000020002102F02AFF31
:10020000401C60600020002102F00EFFE0601FBD76
:1002100010B510BD00F06CFF1146FFF7E9FF02F0CA
:10022000C9FE01F045F803B4FFF7F2FF03BC01F08B
:1002300089F800000948804709480047FEE7FEE7C3
:10024000FEE7FEE7FEE7FEE7FEE7FEE7FEE7FEE786
:1002500004480549054A064B70470000ED2A00088E
:10026000ED00000890040020900A00209006002075
:10027000900600201CB50C46064B7B446946009056
:10028000204600F0C4F804460020694600F0D2F889
:1002900020461CBDB701000070477047704770B51D
:1002A000044685690068C10601D5302600E0202695
:1002B000C00707D070BDD4E9012130469047206ABD
:1002C000401C20626D1EF6D570BD70B50446856970
:1002D0000078C00707D170BDD4E9012120209047E4
:1002E000206A401C20626D1EF6D570BD09684A0563
:1002F00001D540B27047C905FCD500B27047096806
:100300004A0501D5C0B27047C905FCD580B2704717
:1003100070B50C460546012A05D02878800600D520
:10032000EA69002302E0012305E05B1C934202D24C
:10033000E05C0028F9D1A869E618C01AA861286A0B
:10034000184428622846FFF7AAFF04E0D5E90121F6
:1003500014F8010B9047B442F8D32846FFF7B5FFD5
:1003600070BD00002DE9F041064600241068752993
:10037000314616A510D0FFF7B9FF002802DA404237
:1003800013A507E031688A0701D512A502E04907E5
:1003900004D511A5012401E0FFF7B1FF00210A22D5
:1003A00006F1240709E0B0FBF2FCB0FBF2F302FB1C
:1003B0001C00303078541846491C0028F3D12346DD
:1003C0002A463046BDE8F04100F061BA0000000066
:1003D0002D0000002B0000002000000011680268C2
:1003E000006A530501D508700AE0D30501D50880DD
:1003F00006E0130603D5C217C1E9000200E0086059
:100400000120704701694A1C02610878704700B5F5
:100410008FB0CDE901310021059105497944CDE93D
:1004200003101146684600F029F90FB000BD000026
:10043000E5FFFFFF0A6802F8010B0A607047000041
:100440002DE9FF5F15468A460446DFF8AC80F84484
:100450000027D8E900103E46CDE9001010E03AF838
:1004600016106A4602A800F023FE411C07D021782E
:10047000890603D5E269391891420DD80744761CE4
:100480002078800602D5E069B84205DDAE42E6DBA1
:100490003AF816000028E2D1A069C01BA0612046EE
:1004A000FFF7FDFED8E90010CDE90010002017E0AD
:1004B0003AF818106A4602A800F0FAFDB0F1FF3FC2
:1004C00081460BD000250DF1080B05E0D4E9012190
:1004D0001BF8050090476D1C4D45F7D308F101004E
:1004E000B0428046E4DB206A384420622046FFF7B1
:1004F000ECFEBDE8FF9F0000624300002DE9F041E3
:100500008046D21D22F007020025D2E90002F5291B
:1005100015A614D0011E72F1000106DA0023D0EBFB
:10052000030063EB020211A608E0D8F800108B0765
:1005300001D50FA602E0490701D50EA601251146F7
:10054000002408F1240704E000F05CF930323A5549
:10055000641C50EA0102F7D12B4632462146404640
:10056000BDE8F04100F093B9000000002D0000004C
:100570002B0000002000000030B4002100F1240412
:1005800008E002F00705D208303542EA4372DB0882
:100590006554491C52EA0305F3D10468002310A2F4
:1005A000250708D504F020040C4304D0C4690123B6
:1005B0000CA2641EC46130BC00F069B910B50446D9
:1005C00021461068FFF79BFE02462046BDE810401A
:1005D0000023D1E7D21D22F00701D1E90023CBE7A8
:1005E0000000000030000000F0B40D46018809054D
:1005F00002D5214C7C4402E01F4C7C440E34002187
:1006000000F1240608E002F00F071209E75D42EA54
:1006100003721B097754491C52EA0307F3D102788D
:100620000023120704D5702D06D009B1022311341E
:100630002246F0BC00F02BB901231034F8E770B566
:1006400004460D4621461068FFF759FE024629462A
:100650002046BDE870400023C6E7D21D22F0070304
:10066000D3E90023C0E70368126843F02003036066
:100670000823C3610023B7E7C44100002DE9F05F00
:10068000894604464FF0000ADFF874B1FB44C0F815
:1006900020A02046E1688847002874D0252806D08D
:1006A000D4E901219047206A401C2062F1E700262E
:1006B0005F462046E16888472028054607DB312D44
:1006C00005D2781910F8200C08B10643F1E7B007FD
:1006D00001D526F00406C4F81CA00027C4F818A011
:1006E0002A2D09D0284602F05EFC38B304EB8708B7
:1006F000303DC8F8185019E059F8041B204604EBA7
:1007000087029161E1688847012F054618D1E069A9
:10071000002820DA26F020061DE0D8F8180000EBAB
:10072000800005EB40003038C8F818002046E1682A
:100730008847054602F037FC0028EED1012F0AD089
:100740002E2D08D12046E16888477F1C0546022FE0
:1007500046F02006C4DBA069002803DA404246F0D8
:100760000106A061F00701D026F010066C2D0BD019
:10077000682D09D04C2D39D06A2D35D0742D35D047
:100780007A2D33D016E038E0E1682F4620468847BE
:10079000B842054609D16C2F26D04FF48060E1683D
:1007A000064320468847054604E06C2F1AD04FF4D4
:1007B000807006430DB3A5F14100192802D82035F9
:1007C00046F400664A462946204626604E46FFF714
:1007D000C7FC80B101280BD0F61D26F0070000F100
:1007E000080956E74020E4E78020D8E70020D6E754
:1007F00006F104094DE7284652E7206ABDE8F09F5C
:100800005441000030B5B0F10A024FEA900E71F188
:1008100000034EEA817EB0EB0E0061EB91014FEADE
:10082000101E4EEA017E10EB0E0041EB11114FEA53
:10083000102E4EEA016E10EB0E0041EB11214FEA33
:10084000104E4EEA014E10EB0E0041EB11414018E4
:1008500041F100014FEAD00040EA41704FEAD10176
:1008600010EB80054FEA810444EA907444EB0104E4
:100870006D1944EB0404521BA3414FF0000348BF21
:100880000A3200D530BD401C41F1000130BD2DE9D8
:10089000F0470D4699469246044600F12408016847
:1008A000880604D5E06921F01001216000E00120F4
:1008B000A84201DD471B00E00027A1697A1902EB7D
:1008C0000900081AA0612078C00602D42046FFF76C
:1008D000E6FC002608E0D4E901211AF8060090475A
:1008E000206A401C761C20624E45F4DB2078C0064E
:1008F0000AD52046FFF7D3FC06E0D4E901213020D9
:100900009047206A401C2062381EA7F10107F4DCE2
:1009100007E0D4E9012118F805009047206A401C3F
:100920002062281EA5F10105F3DC2046FFF7CDFC6F
:100930002078000602D50220BDE8F0870120FBE701
:1009400070472DE9FF4F0C461E464FF0FF378BB026
:10095000D2E90001DDF860800A908A46C1F30A55A9
:1009600005B93D46002108464FF00000BAF1000FDE
:1009700000F4400005DA00EB80004FF4400101EA8A
:1009800050004FEA9059B9F1010F00DDB9460A98BD
:1009900050EA4A000ED044F61050A5F2FF35454308
:1009A0002F14B8F1000F1ED07542291E1EDDC9F1AB
:1009B00000021CE0B8F1010F4FF0000001D030211F
:1009C00003E0F24305E02154401CB042FBDB30461B
:1009D0000022002121540B99C1F80880C1E90020B0
:1009E0000FB0BDE8F08FBD1B6D1CDEE74A4600DA94
:1009F000694206A800F0EEFB06AB93E8070003ABE4
:100A000083E8070050460A9900F0A3FC8DE8070030
:100A1000A0F500501F3800900398002D09DD42F228
:100A20001F014A46084403A90390684600F002FFEC
:100A300008E0A0F500504A461F3803A90390684615
:100A400000F00CFF8DE807000004000C03D04FF00D
:100A5000FF30410800E01046B8F1000F03D000223B
:100A6000009215461EE0751E05D4FFF7CBFE30320E
:100A700062556D1EF9D5B3460122084302D000220B
:100A80007F1C04E02078302801D100227F1E002A3C
:100A9000099786D01DE0112D07DAFFF7B3FE30323B
:100AA00062556D1C50EA0102F5D1084302D000984E
:100AB000C8B10EE00021681E05E0235C625C63544F
:100AC0002254401E491C8142F7DBAB46A81B401E46
:100AD0000990002004F80B000B98099AC0F80880D0
:100AE000C0E9002B7CE711264FF0000859E72DE9FB
:100AF000F04F88460446D21D22F0070191B0D1E99B
:100B00000001CDE90A0102F03AFA02460B98C00F43
:100B100001D02D2007E02068810701D52B2002E0BD
:100B2000202101EAC000032A099001D0072A05DB31
:100B300003464146204600F00DFB0BE1207880067D
:100B400001D5E06900E00620B8F1650F814606D0C6
:100B5000B8F1660F18D0B8F1670F70D131E00020FE
:100B6000B9F1110F009001DB112301E009F101033C
:100B70000AAA01A90CA8FFF7E4FEDDE90C70002623
:100B800009F10105834647E001204B4600904FF0F4
:100B900000470AAA01A90CA8FFF7D3FEDDE90DB0B2
:100BA0000C995D46002610B909F101000D18B9EB4A
:100BB000050003D4C0F1FF3609F10105A5EB0900DA
:100BC0002BE0B9F1010F01DA4FF001090020B9F172
:100BD000110F0090484601DD112300E003460AAAE8
:100BE00001A90CA8FFF7ADFEDDE90C704D4600260B
:100BF0008346207800070AD4AB4500DA5D4601A899
:100C0000012D04DD411911F8011C302907D04F4591
:100C100002DA17F1040F04DA012082460FE06D1E9C
:100C2000EEE7002F02DCED1B3E4403E0781CA842F7
:100C300000DD7D1CB81B00F1010A4FF00047207851
:100C4000000703D4AA4501DB4FF0FF3A0021B7F1BA
:100C5000004F0DF143088DF8431024D002202B23C0
:100C6000002F01DA7F422D230A21021EA0F101008C
:100C700000DC5FB197FBF1FC97FBF1F201FB1C7C00
:100C800017460CF1300C08F801CDEEE7A8F1010091
:100C900003702188090501D5452100E06521A0F1F7
:100CA000010800F8011C09980FA9A1EB0807FF1D16
:100CB00000B10120411901EBEA70A1693844081A1A
:100CC000401EA0612078C00602D42046FFF7E7FA54
:100CD000099828B1D4E901219047206A401C20627C
:100CE0002078C00622D52046FFF7D9FA1EE0002E54
:100CF00004DBB34502DD01A8805D00E03020D4E9CB
:100D000001219047206A401C2062761CAAF1010054
:100D10005FEA000A0AD100F019FAC0680168405C75
:100D2000D4E901219047206A401C2062281EA5F1C9
:100D30000105DCDC07E0D4E9012118F8010B90473C
:100D4000206A401C2062381EA7F10107F3DC204610
:100D5000FFF7BBFA032011B043E600002DE9F04F86
:100D600004460D46D21D22F0070089B0D0E900925A
:100D700048461746394602F002F90246F80F01D0FC
:100D80002D2307E02068810701D52B2302E02021D5
:100D900001EAC0038DF820300BB1012000E00020F3
:100DA000032A824601D0072A04DB2946204600F0A8
:100DB000D1F93DE12078800601D40D2500E0E569F8
:100DC000C7F30A560D2D49DA00214FEA175B084692
:100DD0004FF00000002F00F4400007DA00EB800025
:100DE0004FF4400100EBD07001EA60008115012949
:100DF00001DD4FF0FF3100224FEA850CBCF1180FE6
:100E000006D31346ACF118004FF08052C24003E005
:100E10004FF4801323FA0CF30CF10C0CBCF1200FEF
:100E200004D3ACF1200C09FA0CF001E007FA0CF045
:100E300000294FF0004801DD18B90FE00ED1404500
:100E40000CD319EB02095F4121B9404502D19F4300
:100E500029EA0209BBEB175F00D0761C2088000549
:100E600002D57B48784402E079487844193808AACA
:100E7000302302F80A30037C0AF10101002E0AF146
:100E8000020A53546A4602DC4FF0300101E04FF091
:100E900031014FF001088DF8001002D0A6F2FF36A4
:100EA00003E059EA470100D06A4E002D02DC2178A8
:100EB000090704D54FF002082E218DF80110C44611
:100EC00000210BE0C7F303433F01C35C491C6D1EC7
:100ED00002F80830052908F1010801DA002DF1DCDB
:100EE00000210CE000EB1973491C1B786D1E0829CA
:100EF00002F808304FEA091908F1010801DA002D5B
:100F0000F0DC2178890602D514E0A8F10108E0455B
:100F100005DD02EB080111F8011C3029F5D0B8F10C
:100F2000000F07DD02EB080111F8011C2E2901D189
:100F3000A8F10108002D05DD3E2102F808106D1E04
:100F400008F10108407C002E02F8080008F10108B1
:100F500004DA2D20764202F8080002E02B2002F885
:100F600008000A214FF47A70864208F101080BDB71
:100F700096FBF0F3303302F8083096FBF0F308F1FB
:100F8000010800FB136601E0642E0CDB642096FB75
:100F9000F0F3303302F8083096FBF0F308F1010863
:100FA00000FB136601E00A2E06DB96FBF1F0303001
:100FB00002F8080008F1010896FBF1F001FB10604F
:100FC000303002F80800A16908F1010808EB0502B9
:100FD00002EB0A00081AA0612078C00602D420465D
:100FE000FFF75DF9216A08AE01EB0A00206204E018
:100FF000D4E9012116F8010B9047BAF1010AF7D2A2
:101000002078C00602D52046FFF749F96E4609E070
:1010100016F8010B3E280FD0D4E901219047206A31
:10102000401C2062B8F10108F2D22046FFF74DF9CA
:1010300009B00320BDE8F08F206A2844206203E055
:10104000D4E90121302090476D1EEBD3F8E7000072
:10105000A039000002FCFFFF10B5436913B1AFF3E4
:10106000008001E0FFF754F9012010BD127800F173
:1010700024010A7000224A700122EDE711684FF046
:10108000FF32E9E710B5436913B1AFF3008001E027
:10109000FFF7D6F9012010BD128800F124018284E7
:1010A0000022C2840122EDE711684FF0FF32E9E728
:1010B00070B516460C46054600F040F8036893F8F4
:1010C0000101012806D0FF2C0FD8185D68B101205E
:1010D0002C7070BDD3F807013246214603F2071386
:1010E00003442846BDE8704018474FF0FF3070BDFC
:1010F000754600F0E3F8AE4605006946534620F019
:101100000700854618B020B5FFF7A2F8BDE82040DB
:101110004FF000064FF000074FF000084FF0000BB3
:1011200021F00701AC46ACE8C009ACE8C009ACE866
:10113000C009ACE8C0098D467047000010B500F04A
:1011400005F8001D10BD00BF0D1F000000487047CE
:10115000500400202DE9F0411F4604460326016893
:10116000072A01F4006004DB08B116A505E016A506
:1011700003E008B115A500E015A521F010002060DE
:10118000A069C01EA0610FB1401EA0612046FFF7FC
:1011900086F84FB1D4E9012138469047206A401CB7
:1011A0002062C01C206206E0206AFAE7D4E901212F
:1011B00015F8010B9047761EF8D22046FFF785F808
:1011C000BDE8F0814E414E006E616E00494E460012
:1011D000696E66002DE9F047814616468AB03348AD
:1011E00078440DC88DE80D0030487844801C03AC6D
:1011F0000DC884E80D0041F69B300844372190FB70
:10120000F1F290FBF1F5A5F1800501FB12041B3C06
:1012100002D56442012000E00020DFF890A0804663
:101220000027FA44AAF1BE0A0DE0E00709D03246D1
:10123000684607EB47010AEB810100F00FFB8DE8E0
:10124000070064107F1C002CEFD1184F7F44AC3F87
:1012500018E0E80714D007EB04100DF1180A90E825
:101260000E008AE80E00C068F04201D1981908907B
:10127000324606A903A800F0F1FA03AB83E80700A1
:101280006D10641C002DE4D132466946B8F1000FA0
:1012900003A802D000F0CEFA01E000F0DFFAC9E9BD
:1012A0000001C9F808200AB0BDE8F087B436000094
:1012B0000446AFF300802046FEF7B5FF00487047B4
:1012C000300400204FF0013C50F8042B51F8043B4F
:1012D0009A4221D1A2EB0C03934313EACC1317D10A
:1012E00050F8042B51F8043B9A4215D1A2EB0C03A1
:1012F000934313EACC130BD150F8042B51F8043B61
:101300009A4209D1A2EB0C03934313EACC13DBD02E
:101310004FF00000704700BFD01A01BAB1FA81F156
:1013200001F0180122FA01F0CB40C1F12001DBB23B
:10133000C0B2C01A2CFA01F3D11A914311EAC311B9
:10134000E6D1704701491820ABBEFEE72600020037
:1013500070475FEA400C08BF91F0000F4FEA8C2302
:101360004FEAC12243EA51514FEA1C5018BF00F521
:10137000F0404FEA300018BF41F000415FEA6C5C7A
:1013800000F02980BCF1FF3F08BF40F0804070476B
:10139000130C06BF12044FF0100C4FF0000C130E8C
:1013A00004BF12020CF1080C130F04BF12010CF160
:1013B000040C930F04BF92000CF1020CD30F04BF76
:1013C00052000CF1010C11464FF00002A0F11F0079
:1013D000A0EB0C00704711F0004F08BF704731F0D0
:1013E00000413FF4D5AF0B0C06BF09044FF0100CC1
:1013F0004FF0000C0B0E04BF09020CF1080C0B0F90
:1014000004BF09010CF1040C8B0F04BF89000CF11F
:10141000020CCB0F04BF49000CF1010CCCF12003EE
:10142000A0EB0C0022FA03F302FA0CF241EA0301EA
:1014300000F10100704720F07F4C80EA030023F0A8
:101440007F47ACEB070303F57C5300F0004003F14A
:10145000FF032DE980494FEA154B09B44FEA1443C5
:1014600025EA0B4E24EA03480FF2042606EB132765
:1014700049083E785FEA320203FB0667C7F50007BA
:1014800007FB06F64FEA54374FEAD64606F1020646
:1014900007FB066CCCF1005C4FEA1C472CEA074CBA
:1014A00007FB06F40CFB06F504EB15464FEA96160F
:1014B00034BF00204FF000404FEAD13706FB07FC55
:1014C0004FEA1C4C0CFB0BF7D21B03FB0CF761EB38
:1014D00007010CFB0EF7B0EB074072EB17420CFB59
:1014E00008F734BFA2EB0742B2EB074261EB1741AA
:1014F0004FEA0C444FEA910706FB07FC4FEA1C4CED
:101500000CFB0BF7B0EBC74072EB573203FB0CF749
:1015100034BFA2EBC742B2EBC74261EB57310CFBC1
:101520000EF7B0EBC70072EB57720CFB08F734BF35
:10153000A2EBC702B2EBC70261EB5771039F4FEA00
:10154000816141EA921104EBCC044FEAD1374FEAB2
:10155000826206FB07FC42EA90124FEA80604FEA83
:101560001C4C0CFB0BF7D21B03FB0CF761EB0701C8
:101570000CFB0EF7B0EB074072EB17420CFB08F7C1
:1015800034BFA2EB0742B2EB074261EB17414FEACF
:101590008C554FEA910704EB9C2406FB07FC4FEAAD
:1015A0001C4C0CFB0BF7B0EBC74072EB573203FB44
:1015B0000CF734BFA2EBC742B2EBC74261EB573125
:1015C0000CFB0EF7B0EBC70072EB57720CFB08F781
:1015D00034BFA2EBC702B2EBC70261EB577115EB48
:1015E0004C254FEA816141EA92114FEA82624FEA4B
:1015F000D13742EA901206FB07FC44F100044FEA9F
:1016000080604FEA1C4C0CFB0BF7D21B03FB0CF762
:1016100061EB07010CFB0EF7B0EB074072EB1742D2
:101620000CFB08F734BFA2EB0742B2EB074261EBB9
:10163000174115EB1C154FEA813141EA92414FEAFF
:10164000823242EA90424FEA80304FEA0C7644F10F
:10165000000448EA03434EEA0B484FF0000EB2EB99
:10166000080C71EB030724BF624639464EEB0E0EA1
:101670004FF0000B0018524149414BEB0B0BB2EB02
:10168000080C71EB03077BF1000B24BF624639465F
:101690004EEB0E0E4FF0000B0018524149414BEB40
:1016A0000B0BB2EB080C71EB03077BF1000B24BFB3
:1016B000624639464EEB0E0E51EA020718BF46F05D
:1016C000010616EB0E7655F1000254F1000103D528
:1016D000BDE88901BDE80088BDE88901BDE8004892
:1016E000B619524141EB0101A3F10103704780801B
:1016F0007F7E7D7C7B7A797877767675747372716C
:1017000071706F6E6E6D6C6C6B6A6A696868676623
:1017100066656464636362616160605F5F5E5E5DB5
:101720005D5C5C5B5B5A5A59595858575756565529
:1017300055555454535352525251515050504F4F8B
:101740004F4E4E4D4D4D4C4C4C4B4B4B4A4A4A49DB
:10175000494948484847474747464646454545441E
:101760004444444343434342424242414141002BAB
:1017700026D4770021D01CB54FEA370703B44FF0C9
:1017800010004FF010014FF000000FBCBDE81040FA
:101790000BF1010BBBF1010F08BF5FEA170722BF76
:1017A00012F1010211F101014FF0004143F1000378
:1017B00000F0004043EA00007047F9D35708DAE729
:1017C00046EA064613F1400F4FEA16461FDD13F1B5
:1017D000200FDFBF16430A46002120335B42C8D0EA
:1017E000C3F1200746EA064602FA07F74FEA164613
:1017F00046EA0706C3F1200722FA03F201FA07F7C7
:1018000021FA03F14FF0000342EA0702B1E746EA8A
:10181000020646EA06464FEA164646EA0106BCBFFD
:1018200046EA0646360C4FF000034FF000024FF038
:1018300000019EE72DE9C048934630B491E8380096
:1018400007C831EA400C48BF34EA430C03D5FFF720
:10185000F2FDFFF78CFFF0BCBDE800882DE9C04821
:10186000934630B491E8380007C810F0804F08BFA5
:1018700013F0804F03D100F005F8FFF778FFF0BCBC
:10188000BDE8008820F07F4780EA030023F07F4C0A
:1018900007EB0C03A3F57C5300F00040A3F1FE031B
:1018A00092F0000F00F0B38095F0000F00F0778009
:1018B0002DE901494FEA11404FEA144621EA004858
:1018C00000FB06FC24EA064708FB06F607FB08F8BF
:1018D00000FB07F718EB06484CEB164C4FEA124B8F
:1018E00018EB07484FEA15464CEB174022EA0B4E1F
:1018F0000BFB06FC25EA06470EFB06F607FB0EFE71
:101900000BFB07F71EEB064E4CEB164C4FF0000698
:101910001EEB074E4CEB174B18EB0B0840F1000089
:1019200018EB0E0B58EB000840F100008F1A4FF037
:1019300000013CBFC943661B14BFB5EB040C00217A
:101940003CBFC943F61B4FEA17444EEA8E0E27EA06
:1019500004454FEA1C4704FB07622CEA074C05FBD1
:1019600007F70CFB05F604FB0CFC16EB074642EBF5
:10197000174216EB0C4642EB1C421BEB060658EBDB
:101980000202414146EA9E0601D5BDE80189B61929
:10199000524141EB0101A3F10103BDE801894FEA86
:1019A00014454FEA114724EA054621EA074C05FB96
:1019B00007F406FB07F70CFB06F105FB0CFC11EB2B
:1019C000074144EB17444FEA124711EB0C4144EB3B
:1019D0001C4422EA074C05FB07F206FB07F70CFB49
:1019E00006F605FB0CFC16EB074642EB174216EB1E
:1019F0000C4642EB1C456A1854F1000148BF704781
:101A0000B619524141EB0101A3F10103704795F072
:101A1000000F37D04FEA11424FEA144721EA02463D
:101A200024EA074C02FB07F106FB07F70CFB06F460
:101A300002FB0CFC14EB074441EB17414FEA15473E
:101A400014EB0C4441EB1C4125EA074C02FB07F563
:101A500006FB07F70CFB06F602FB0CFC16EB074631
:101A600045EB174516EB0C4645EB1C42121951F19C
:101A7000000148BF7047B619524141EB0101A3F183
:101A8000010370474FEA14454FEA114724EA05461F
:101A900021EA074C05FB07F106FB07F70CFB06F2F2
:101AA0004FF0000605FB0CFC12EB074241EB17411F
:101AB00012EB0C4251EB1C4148BF7047921841EBAE
:101AC0000101A3F10103704700BFFEE700B585B037
:101AD0000121042000F0E6FD0121042000F0D2FDE8
:101AE00010208DF813000120ADF8100003208DF8B0
:101AF000120004A91B4800F099F828208DF8130063
:101B00000220ADF8100003208DF8120004A915483A
:101B100000F08CF84CF24F30ADF804004720ADF8DF
:101B200000000020ADF80600ADF8020069460E483E
:101B300001F09EF8012211460B4801F03BF81E20EF
:101B40008DF80C0001208DF80D008DF80E008DF839
:101B50000F0003A800F0BEF90121034801F00DF8C1
:101B600005B000BD0008014000080040704700B506
:101B7000034603E04FF47A7000F005F81800A3F173
:101B80000103F7D100BD00EBC001C9004FF0E02216
:101B90005161002191610521116100BF4FF0E021E9
:101BA000096901F480310029F8D004214FF0E022C6
:101BB0001161704710B50121174800F0CBF80121E1
:101BC000154800F0C9F81420FFF7DDFF0121124885
:101BD00000F0C0F800BF02210F4800F0B2F8002862
:101BE000F9D000200D49088000BF02210A4800F00A
:101BF000A8F80128F9D00948008809490860084672
:101C0000006801F06DFF0446064901F087FE0649B1
:101C100008600846006810BD000801402408004024
:101C20001C00002000006842180000202DE9F0414F
:101C3000024600250026002000230024002791F8FA
:101C400003C00CF00F0591F803C00CF0100CBCF1B0
:101C5000000F03D091F802C04CEA050591F800C0CE
:101C6000BCF1000F31D0146800202BE04FF0010CC4
:101C70000CFA00F3B1F800C00CEA03069E4220D132
:101C800083004FF00F0C0CFA03F7BC4305FA03FC7A
:101C90004CEA040491F803C0BCF1280F06D14FF0C0
:101CA000010C0CFA00FCC2F814C00AE091F803C061
:101CB000BCF1480F05D14FF0010C0CFA00FCC2F842
:101CC00010C0401C0828D1D31460B1F800C0BCF18A
:101CD000FF0F34DD546800202EE000F1080C4FF0B7
:101CE000010808FA0CF3B1F800C00CEA03069E42A2
:101CF00021D183004FF00F0C0CFA03F7BC4305FA17
:101D000003FC4CEA040491F803C0BCF1280F05D190
:101D100000F1080C08FA0CF8C2F8148091F803C01E
:101D2000BCF1480F07D100F1080C4FF0010808FA88
:101D30000CF8C2F81080401C0828CED35460BDE8CF
:101D4000F0810246002093680B400BB1012000E0B7
:101D500000207047416170470161704700BFFEE796
:101D600010B54FF0FF3402211E48FFF7EAFF68B9B3
:101D70000A20FFF7FCFE00BF02211A48FFF7E1FF2F
:101D80000028F9D00A20FFF7F2FE00244FF400519A
:101D90001448FFF7D6FF70B90A20FFF7E8FE00BF2E
:101DA0004FF400510F48FFF7CCFF0028F8D00A206D
:101DB000FFF7DDFE012401210B48FFF7C2FF0128D8
:101DC0000DD10A20FFF7D3FE00BF80210548FFF7A1
:101DD000B8FF0128F9D00A20FFF7C9FE0224E0B2BB
:101DE00010BD0000001001400008014008B50121AD
:101DF000102000F057FC42F20200ADF8000048202D
:101E00008DF8030069460748FFF710FF0120ADF881
:101E1000000028208DF8030069460348FFF706FFFD
:101E200008BD0000001001400008014070B50546E3
:101E30000C462646E11704EB5171C910C1F1B701F8
:101E4000C8B2002100F09CFB102141EA15100021CE
:101E500000F096FB05F00F00002100F091FB70BD33
:101E600038B518480088082803DD16480088400067
:101E700000E00F2014490988401A642148431149A1
:101E80000988072903DD0F490988490000E00F216F
:101E90000C4A1288891A90FBF1F4642C00DB64244C
:101EA000002C00DA0024C4F1640188B200F0D8FBF1
:101EB00010200323224621210090512000F0D7FA60
:101EC00038BD0000280000202400002000BFFEE7ED
:101ED0007047000070B5002100230F22C47804B3BE
:101EE000154C246804F4E064C4F5E064210AC1F1EF
:101EF0000403CA40447804FA03F18478144021436F
:101F000009010E4C0678A155047804F01F05012440
:101F1000AC4005786D11AD0005F1E025C5F8004134
:101F200009E0047804F01F050124AC40044D067854
:101F3000761145F8264070BD0CED00E000E400E0AD
:101F400080E100E002490143024A1160704700004D
:101F50000000FA050CED00E070B500240CE000254F
:101F600006E00020074901EBC5010855681CC5B211
:101F7000802DF6DB601CC4B2082CF0DB00F0C8F842
:101F800070BD0000300000202DE9F04705460C46EA
:101F900017464FF0000921462846FFF747FF7F2DDF
:101FA00001DC402C01DDBDE8F0872046E11704EBA1
:101FB0005171C910C1F10701CEB2E11704EB5171A3
:101FC000C910A4EBC10101F0FF08C8F1070101200D
:101FD000884000F0FF0957B10E4800EBC500805D56
:101FE00040EA09000B4901EBC501885509E00948A1
:101FF00000EBC500805D20EA0900064901EBC50140
:102000008855044901EBC501885D012100F0B8FA4B
:1020100000BFC8E73000002008B50121182000F0FB
:1020200041FB4020ADF8000010208DF80300032094
:102030008DF8020069463548FFF7F8FD0021AE2013
:1020400000F09EFA0021D52000F09AFA00215020DD
:1020500000F096FA0021A82000F092FA00213F201B
:1020600000F08EFA0021D32000F08AFA0021084601
:1020700000F086FA0021402000F082FA00218D2035
:1020800000F07EFA0021142000F07AFA00212020CE
:1020900000F076FA0021022000F072FA0021A1205F
:1020A00000F06EFA0021C02000F06AFA0021DA2068
:1020B00000F066FA0021122000F062FA002181206F
:1020C00000F05EFA0021EF2000F05AFA0021D9203A
:1020D00000F056FA0021F12000F052FA0021DB2036
:1020E00000F04EFA0021302000F04AFA0021A4202E
:1020F00000F046FA0021A62000F042FA0021AF20AD
:1021000000F03EFAFFF728FF08BD00000010014074
:1021100070B500241CE004F1B001C8B2002100F049
:102120002FFA0021022000F02BFA0021102000F0ED
:1021300027FA002508E0084901EBC501085D0121E7
:1021400000F01EFA681CC5B2802DF4DB601CC4B21E
:10215000082CE0DB70BD0000300000202DE9F05FAE
:1021600080460C4615461E46A346A5F12000C5B282
:1021700000273EE00C2E07D105EB45001F4901EB7F
:10218000800010F8079004E01D4800EB051010F8DF
:1021900007904FF0000A26E009F0800028B12146A0
:1021A00040460A9AFFF7F0FE09E00A9808B90120B4
:1021B00000E00020024621464046FFF7E5FE4FEAD8
:1021C00049604FEA1069601CC4B2A4EB0B00B04236
:1021D00005D15C4608F1010000F0FF0806E00AF1B5
:1021E000010000F0FF0ABAF1080FD5DB00BF781C30
:1021F000C7B2B742BEDBBDE8F09F0000AE3B0008AF
:10220000224000082DE9F05F06460C461746A2461C
:102210004FF0010B002533E01B4800EB471010F88E
:1022200005804FF0000925E008F0800028B15A46EB
:1022300021463046FFF7A8FE0AE0BBF1000F01D1AE
:10224000012000E00020024621463046FFF79CFEB8
:102250004FEA48604FEA1068601CC4B2A4EB0A0061
:10226000102803D15446701CC6B206E009F10100E3
:1022700000F0FF09B9F1080FD6DB00BF681CC5B23A
:10228000202DC9DBBDE8F09F124600082DE9F04F74
:1022900087B081468B4615461E464FF0000A002443
:1022A00000200490059000221F4B2846314600F084
:1022B0008FFF074601F0E4F88246504601F00FF91F
:1022C0002A463346CDE9000101F032FA0022174BCD
:1022D000CDE9020101F02EF9074601F0D1F80446DC
:1022E0000A2094FBF0F004900A21049801FB1040AE
:1022F000059010200123524659460090484600F0B0
:10230000B6F8012009F108010090C8B210232E226E
:102310005946FFF723FF22465946484600F07CF80D
:1023200007B0BDE8F08F00000000F03F000059400A
:1023300070B5102600250024214628460022FFF70C
:1023400061FF2146A8190122FFF75CFF2146022206
:1023500002FB0650FFF756FF2146032202FB065000
:10236000FFF750FF2146042202FB0652D0B2092299
:10237000FFF748FF2146072202FB0652D0B20A228D
:10238000FFF740FF3444214628460422FFF73AFF76
:102390002146A8190522FFF735FF2146022202FB3C
:1023A0000650FFF72FFF2146032202FB0650FFF7DE
:1023B00029FF2146042202FB0652D0B20922FFF770
:1023C00021FF2146072202FB0652D0B20A22FFF764
:1023D00019FF3444214628460622FFF713FF214601
:1023E000A8190722FFF70EFF2146022202FB065022
:1023F0000822FFF707FF2146032202FB06500922AD
:10240000FFF700FF2146072202FB0652D0B20B2243
:10241000FFF7F8FE002470BDFEB505460E461446D3
:10242000002001900290632C00DB63240A2094FBBF
:10243000F0F001900A2094FBF0F000EB8000A4EB98
:10244000400002901020009005F11001C8B2012355
:102450003146019A00F00BF81020009005F11801A8
:10246000C8B201233146029A00F001F8FEBD2DE901
:10247000FF4F81B0074691461E460E9D4FF0000A61
:10248000002439E0301B401EC1B20A2000F0C0FD1C
:10249000B9FBF0F00A21B0FBF1F201FB1208BAF12E
:1024A000000F16D1701EA04213DDB8F1000F0ED13F
:1024B0000120AB4605EBDB71491001FB0471009074
:1024C000C8B22B4620220299FFF748FE12E04FF0D7
:1024D000010A0120AB4605EBDB71491001FB0471D9
:1024E0000090C8B208F13001CAB22B460299FFF73A
:1024F00035FE00BF601CC4B2B442C3DB05B0BDE80A
:10250000F08F00002DE9F0411948008820B91948E2
:102510000088401C1749088015480088012804D10C
:1025200014480088401E134908801348008800F0B2
:10253000EDFF06460022114B00F04AFE04462246FB
:102540000B4601214920FFF7A1FE0A48008800F050
:10255000DDFF06460022094B00F03AFE0446224603
:102560000B4611214920FFF791FEBDE8F0810000E4
:1025700026000020280000202400002000005940F0
:1025800070B505460C4624B140210D48FFF7E4FB29
:1025900003E040210A48FFF7DDFB4FF48051094872
:1025A000FFF7D8FB284600F04BF94FF4805105485F
:1025B000FFF7D2FB40210248FFF7CEFB70BD0000C1
:1025C00000100140000C014000B589B0012108460F
:1025D00000F058F80121042000F064F818208DF86C
:1025E00023000820ADF8200003208DF8220008A960
:1025F0001A48FFF71BFB4FF0804000F0E4FA002080
:10260000ADF81A00ADF816006320ADF8180040F2DE
:10261000CF20ADF8140000208DF81C0005A94FF064
:10262000804000F025FB01A800F012FB6020ADF80F
:1026300004000020ADF80C000120ADF806000020D9
:10264000ADF80A0001A94FF0804000F0C3FA012163
:10265000880700F092FA09B000BD000000080140B0
:1026600010B5044621464FF0804000F0FEFA10BD40
:1026700010B5044601222146900700F0F3FA10BD80
:102680007047000029B1064AD2690243044BDA615F
:1026900004E0034AD2698243014BDA6170470000CB
:1026A0000010024029B1064A92690243044B9A6124
:1026B00004E0034A92698243014B9A61704700002B
:1026C0000010024030B500210022002400232D4DCF
:1026D0006D6805F00C0121B1042905D0082923D12A
:1026E00005E0294D056022E0274D05601FE0254DDE
:1026F0006D6805F47012234D6D6805F48034022571
:1027000005EB92421CB9214D554305600BE01D4D70
:102710006D6805F400351DB11C4D5543056002E0A0
:10272000194D5543056002E0174D056000BF00BF1D
:10273000144D6D6805F0F0010909154D6B5C0568D5
:10274000DD4045600F4D6D6805F4E061090A104DEC
:102750006B5C4568DD4085600A4D6D6805F460512D
:10276000C90A0B4D6B5C4568DD40C560054D6D6861
:1027700005F44041890B074D6B5CC568B5FBF3F56B
:10278000056130BD0010024000127A0000093D00D2
:10279000000000201000002000B587B00121880350
:1027A000FFF770FF01210820FFF77CFF4FF4604026
:1027B000ADF8040003208DF8060018208DF80700FE
:1027C00001A91D48FFF732FA4FF48050ADF804001C
:1027D00003208DF8060010208DF8070001A9164887
:1027E000FFF724FA4FF480511348FFF7B3FA0020A3
:1027F000ADF808004FF48270ADF80A000020ADF883
:102800000C000220ADF80E000120ADF810004002CF
:10281000ADF812000020ADF81400ADF81600072046
:10282000ADF8180002A9054800F03EF80121034860
:1028300000F02EF807B000BD000C01400038004049
:102840000246002105E0491CB1F5FA6F01D90020CC
:1028500070470E48008800F002000028F3D00B48B3
:10286000001D0280002105E0491CB1F5FA6F01D975
:102870000020EDE70548008800F001000028F3D0B3
:102880000248001D0088C0B2E2E70000083800409E
:1028900021B1028842F04002028004E002884FF633
:1028A000BF731A400280704710B50022028802F4FC
:1028B00041520B884C8823438C882343CC88234384
:1028C0000C8923434C8923438C892343CC8923439C
:1028D0001A430280838B4FF2FF74234083830B8A59
:1028E000038210BD7047000000B587B00121880346
:1028F000FFF7D8FE01210420FFF7D4FE18208DF841
:102900001B004FF40070ADF8180003208DF81A007A
:1029100006A92148FFF78AF948208DF81B004FF4DB
:102920008060ADF8180003208DF81A0006A91A4837
:10293000FFF77CF94FF4165002900020ADF8140018
:102940000C20ADF812000020ADF81000ADF80E001C
:10295000ADF80C0002A9114800F09AFA012240F2E9
:1029600025510E4800F06EFA4FF4A060FFF7EAFA26
:1029700025208DF8040001208DF807008DF8050052
:102980008DF8060001A8FFF7A5FA0121034800F021
:1029900016FA07B000BD00000008014000380140F1
:1029A0000FB400B59BB01DA8019002A8019A1C9914
:1029B000FDF760FC0020019002A800F013F81BB0A6
:1029C0005DF814FB10B504462146054800F0D1FA25
:1029D00000BF8021024800F0FEF90028F9D010BDA8
:1029E0000038014070B50446002504E0605DFFF743
:1029F000E9FF681CC5B2605D0028F7D170BD10B555
:102A000000F002F810BD00000CB50020019000900D
:102A10003348006840F480303149086000BF3048D6
:102A2000006800F4003000900198401C019000986C
:102A300018B90198B0F5A06FF1D12948006800F4E9
:102A4000003010B10120009001E0002000900098BB
:102A5000012843D12348006840F010002149086054
:102A60000846006820F0030008600846006840F04F
:102A7000020008601A4840681949486008464068E2
:102A800048600846406840F48060486008464068F6
:102A900020F47C1048600846406840F4E810486024
:102AA0000846006840F08070086000BF0C4800686D
:102AB00000F000700028F9D00948406820F00300B9
:102AC000074948600846406840F00200486000BF7F
:102AD0000348406800F00C000828F9D10CBD000044
:102AE00000100240002002407047000010B513485B
:102AF000006840F00100114908600846406810492C
:102B000008400E494860084600680E4908400B49D5
:102B100008600846006820F4802008600846406885
:102B200020F4FE0048604FF41F008860FFF767FF45
:102B30004FF000600449086010BD00000010024022
:102B40000000FFF8FFFFF6FE08ED00E010B50121E0
:102B5000064800F01EF820B105480088401C0449D2
:102B600008800121014800F005F810BD0008004070
:102B700014000020CA430282704721B1028842F04B
:102B80000102028004E002884FF6FE731A400280C0
:102B9000704730B50246002000230024158A05EA5C
:102BA0000103958905EA010413B10CB1012000E08D
:102BB000002030BD1AB183890B43838102E08389F1
:102BC0008B438381704701894FF6F8721140018170
:102BD0007047000070B5002200230024058C4EF6DB
:102BE000FF7635400584038C8488828B48F6FF7518
:102BF0002A404FF6FF452A400D884FF6FF7606EA39
:102C000005252A434DF6FF752B400D8906EA05354B
:102C10002B434D8806EA05352B430B4DA84202D0C5
:102C20000A4DA84208D14BF6FF752C408D894FF60E
:102C3000FF7606EA85152C4384808283CD88A0F830
:102C40004050038470BD0000002C0140003401405E
:102C50000021018041808180C18001814181818189
:102C6000C1817047018582827047A0F8401070478B
:102C7000002202881D4B98420ED01D4B98420BD06B
:102C8000B0F1804F08D01B4B984205D01A4B9842A8
:102C900002D01A4B984204D14FF68F731A404B88DA
:102CA0001A43174B984207D0164B984204D04FF660
:102CB000FF431A40CB881A4302808B8883850B8898
:102CC00003850A4B98420BD0094B984208D00E4B13
:102CD000984205D00D4B984202D00D4B984201D13D
:102CE0000B7A03860123838270470000002C014089
:102CF000003401400004004000080040000C004087
:102D00000010004000140040004001400044014019
:102D10000048014010B50B4800681E2802D1002071
:102D20000849086007480068401C064908600648D2
:102D300002880846016805A0FFF732FE09A0FFF7E8
:102D40002FFE10BD2C000020240000200D0A25328B
:102D5000643A64697374616E63653D253364636DC1
:102D6000000000000D0A000010B540F2255109488E
:102D700000F03EF801280CD1064800F0F5F80649AD
:102D8000087001200549087040F22551014800F003
:102D900007F810BD0038014020000020210000206D
:102DA00010B50022002340F66A14A14200D100BFF2
:102DB0000A1201249440A3B2DC43048010BD21B167
:102DC000828942F40052828104E082894DF6FF73C9
:102DD0001A408281704702460020B1F5007F00D181
:102DE00000BF13880B400BB1012000E000207047AA
:102DF00070B50246002400230025002040F66A1624
:102E0000B14200D100BFC1F3421501F01F030126FA
:102E100006FA03F3012D02D19689334006E0022D14
:102E200002D1168A334001E0968A33400C12012603
:102E300006FA04F41688344013B10CB1012000E006
:102E4000002070BDF0B503460024002600250020B8
:102E500040F66A17B94200D100BF1846C1F34214C8
:102E600001F01F06012707FA06F5012C01D10C30ED
:102E700004E0022C01D1103000E014301AB10768D0
:102E80002F43076002E00768AF430760F0BD000012
:102E90002DE9F04786B005460E460024A24600BF45
:102EA000A1460027B08900B100BF2F462C8A4CF6FE
:102EB000FF700440F08804432C82AC894EF6F31076
:102EC0000440B08831890843718908430443AC81C8
:102ED000AC8A4FF6FF400440B0890443AC8201A89D
:102EE000FFF7F0FB1F48874202D1DDF810A001E098
:102EF000DDF80CA0A88900F4004040B10AEBCA003C
:102F000000EB0A1031684900B0FBF1F807E00AEB6A
:102F1000CA0000EB0A1031688900B0FBF1F86420A8
:102F2000B8FBF0F004012009642101FB1089A88995
:102F300000F4004040B1322000EBC900B0FBF1F0DA
:102F400000F00700044308E0322000EB0910642180
:102F5000B0FBF1F000F00F0004432C8106B0BDE897
:102F6000F08700000038014001468888C0F308005F
:102F70007047C1F308028280704700BFFEE7490036
:102F800050EAC12018BF04204A0D18BF40F00100CC
:102F900040F2FF72B2EB515F08BF40F0020001281F
:102FA00008BF0520704730380A2801D20120704739
:102FB000002070474FF4A060FEF7C4FFFFF7ECFB62
:102FC000FFF72AF8FFF7B4F9FEF780FDFEF70EFFD2
:102FD000FFF7FAFAFFF788FC40F26710FFF748FBAB
:102FE00010E0FEF7BDFE08490880FEF7E3FD044649
:102FF00000F056FD05490880FFF784FAFEF730FF20
:10300000FFF788FEEDE700002600002024000020E6
:1030100010B50246012000E050430B00A1F101046D
:10302000E1B2F9D110BD000010B500290AD008782E
:10303000002807D005487844FEF744F9002801D05D
:10304000002010BD0248784410BD00009A1800000E
:103050009218000010B500290AD00878002807D07F
:1030600005487844FEF72EF9002801D0002010BD55
:103070000248784410BD00008A1800008218000041
:1030800010B591EA030F48BF83F0004300F1648359
:10309000841A71EB030C05D2121943EB0C03001BCD
:1030A00061EB0C01DFF824E14FEA1154A4EB135C4F
:1030B0001EEA430F18BF9EEA445F73D023EA0E0353
:1030C000DCF1200E21EA045143F4801332D322FABA
:1030D0000CFE10EB0E0023FA0CFE41EB0E01CCF1BE
:1030E000200E03FA0EFE10EB0E0051F10001B1F5B7
:1030F000801FCCF1200E32D201EB045112FA0EF2F5
:10310000BDE8104058BF7047401C38BF5FEA42021C
:1031100018BF7047002814BF20F0010041F10001E2
:103120004FEA410313F5001F38BF7047A1F1C041BA
:1031300000F0F8BA012A43EB0302ACF1200CDCF1F9
:103140001F0E32BF4FF0000E23FA0CF310EB0300FA
:1031500041EB0451B4EB115FD0D0A1EB045101F568
:10316000801149085FEA300001EB04510ED350F1A1
:10317000000038BF12FA0EFE08D1BDE81040C9E7C2
:10318000401C38BF5FEA4202CAD1C3E7BDE8104025
:103190004FEA410313F5001F38BF7047A1F1C0414A
:1031A00000F0C0BA9EEA445F08D011EA5E0FBDE8A5
:1031B000104004BF01F0004100207047BDE81040FE
:1031C00070B500F061FA00BF64FBBE3E0000E0FF96
:1031D0002DE9C04130B4DFF8A0C23CEA111418BF99
:1031E0003CEA131400F0EC8081EA03051CEA111498
:1031F00044EAD57418BF1CEA131500F0C780A4EB8D
:1032000005044FF0004545EAC12145EAC32341EAE0
:10321000505143EA525304F17F74994204F500344B
:103220004FEAC0204FEAC22208BF904200F09C80C3
:103230004FEA13650FF24016765D4FEA134506FB21
:1032400005F7C7F1807706FB07F74FEAD737A7FBEB
:1032500003687642C8F58038A7FB06CE38BFA8F1D0
:10326000010807FB08E64FF0000EA6FB028CE6FB08
:1032700003CEDCF1000CCEF1004E38BFAEF1010EF2
:10328000A6FB0C584FF000074FF00005E6FB0E8739
:10329000A1FB08C6A0FB07CE16EB0E0645F1000504
:1032A000E1FB076515F1E04E7EBFA4F580345FEACF
:1032B00046066D4116F1800745F100054FEA1727D4
:1032C0004FEA066647EA0567A6F1DE46B6F1805F7B
:1032D0004FEA15251FD9384624F0010C05EBC471BF
:1032E000BCF1FE6F01EB0C1102D8F0BCBDE800810F
:1032F00024425CBF01F5801E9EEAC47F02D4F0BC6C
:10330000BDE80081244238D4F0BCA1F1C041BDE841
:10331000004100F007BA4FEAD22242EA43524FEA94
:10332000D323A7FB02864FEAD02040EA415007FB97
:1033300003661EEA0E0F4FEAD12105FB026658BF55
:10334000A6EB0056B6EB00564FEA520E4EEAC37E8D
:1033500018EB0E0E56EB530EBDD518EB02085E416E
:103360007F1C55F10005B6E74FF480154FF00007BC
:103370004FF000064FF00008ADE7F0BC4FF0000042
:1033800001F1C04101F00041BDE8008111EA0C1FCC
:103390000CEA131500D00CE013EA0C1F00F0258096
:1033A0004FF00000F0BC81EA030101F00041BDE8EC
:1033B0000081F0BCBDE8004181EA030100F0B2B930
:1033C000F0BCBDE8004170B500F05EF9097EFC3E3E
:1033D00000F007B881EA03014FF0000001F000415E
:1033E000704781EA030100F09DB9F0BCBDE80041DF
:1033F0004FF0000021497047FFFDFBF9F7F5F4F2AB
:10340000F0EEEDEBE9E8E6E4E3E1E0DEDDDBDAD87F
:10341000D7D5D4D3D1D0CFCDCCCBCAC8C7C6C5C4DD
:10342000C2C1C0BFBEBDBCBBBAB9B8B7B6B5B4B3F4
:10343000B2B1B0AFAEADACABAAA9A8A8A7A6A5A4DF
:10344000A3A3A2A1A09F9F9E9D9C9C9B9A999998A3
:103450009797969595949393929191908F8F8E8E46
:103460008D8C8C8B8B8A89898888878786858584D3
:1034700084838382828181800000FF070000F87FBF
:103480004FEA41034FEA5353A3F58063D3F11E0380
:10349000C8BFD3F1210C0CDD4FF0004242EAC1223B
:1034A00042EA505232FA03FC8CEAE17CACEBE17068
:1034B0007047102BC4BF0020704703F5787CBCF127
:1034C000FF3F04D06FF0004282EA2100704770B5E0
:1034D00000F0DAF84992248000207047F2E710F0FB
:1034E000004248BF4042B0FA80F310FA03F10AD01C
:1034F000C3F11D0303F580634FEA415002EB035211
:1035000002EBD12170474FF000007047B0FA80F312
:1035100010FA03F10AD0C3F11D0303F580634FEAEB
:1035200041504FEA035202EBD12170474FF00000A7
:1035300070470000DFF848C170B51CEA111E1EBFBD
:103540001CEA13159EEA0C0F95EA0C0F00F06F8031
:1035500081EA030423EA4C134EEAD47E21EA4C119B
:1035600041F4801143F48013AE44A1FB024CA0FB54
:103570000365AEF17F7E361955EB0C05A1FB034CBC
:103580004CF10003A0FB021C16EB0C06654153F145
:103590000003094218BF46F0010613F4007F0BD167
:1035A0004FEA03314FEA0530340341EA155140EA4E
:1035B00016506FF003020AE04FEAC3214FEAC5201C
:1035C000F40241EA555140EA56506FF0020202EB14
:1035D0002E4201EB025585EACE710AD05FEA440C17
:1035E00018BF24F0004450F1000041F1000120EA2E
:1035F000D47040F2FE7C624500D270BDA84214BF78
:103600004FF080444FF04044002E08BF0024BEF12C
:10361000806FA8BFA1F1C041BDE8704080F28280F8
:103620004FF0000001F1C04101F0004170479EEAF7
:103630000C0F0CEA131518BF95EA0C0F06D04FF0CB
:10364000000081EA030E0EF0004170BD00F01CF88E
:103650008900013E00F007B800F009B84FEA430CBA
:103660005FEA5C5C08D081EA030100F05BB84FEAD6
:10367000410C5FEA5C5CF6D14FF0000001497047F5
:103680000000FF070000F87F0EF1020E2EF0030E7F
:103690005EF8046B364205D4012A43EB030515F5A9
:1036A000001F12D8012841EB010C1CF5001F0CD89B
:1036B0000ED14FEAD17C15F5001F0CEB4C0C0CF130
:1036C000020C08BF4CEBD37C04E04FF0080C01E087
:1036D0004FEAD37C0CEB4C0526FA05F606F00706FC
:1036E000B6F1040C06D20EEB860CBDE870404CF02F
:1036F000010C6047DFE80CF0090B02024FF00041BB
:103700004FF00000A1F5002170BD194610460128B8
:1037100051EB010418BFD4F5001484BF002001F060
:10372000004170BD0808A0F500114FEA3101704753
:1037300091EA030F10B581F000413FF5A9AC83F089
:10374000004300F009B8000010B591EA030F48BF2C
:1037500083F000433FF59CAC841A71EB030C07D255
:1037600012198CF0004C43EB0C03001B61EB0C01B5
:10377000DFF8A4E14FEA1154A4EB135C1EEA430FF7
:1037800018BF9EEA445F00F0B08023EA6E03524205
:1037900021EA0451C3EB6E0338BF5B1EDCF1200E3F
:1037A00025D322FA0CFE10EB0E0043FA0CFE41EB7F
:1037B0000E01CCF1200E03FA0EFE10EB0E0051F1BB
:1037C0000001CCF1200E29D412FA0EF201EB0451C3
:1037D000BDE8104058BF7047401C1CBFB2F1004FFD
:1037E000704700280CBF491C20F00100704712EB05
:1037F000020E43EB030218BF4FF0010E4EEA4202E5
:10380000ACF1200CDCF11E0E54D943FA0CFE10EB87
:103810000E0051F1FF31CCF11E0ED5D50EF1010E87
:1038200012FA0EFE404141EB010101EB445C5FEAFC
:103830005C5C10D910EBDE7001EB045138BFBEF1B7
:10384000004FBDE8104018BF704700280CBF491C4E
:1038500020F00100704730D24FEAD42C11F500114E
:1038600024F400641BD0B1FA81F20B3AA41AA41E0E
:10387000D2F12003914030FA03F31943904001EB59
:10388000CC71002C01EB0451BDE81040A8BF70477B
:1038900001F1C0414FF0000001F000417047B0FA63
:1038A00080F310FA03F100D110BDE41A173C48056B
:1038B000C90AE4E701EB045110BD491001EB0451C2
:1038C000BDE810404FEA300002E04FF000017047C1
:1038D0004A0008BF0042F8D0B2F5001F28BF704769
:1038E00001F000414FF0000070479EEA445F07D0AE
:1038F00011EA5E0FBDE8104004BF002100207047B0
:10390000BDE8104070B5FFF7BFFE00BF40DFF63ED8
:1039100083F00041104670470000E0FF4FF47F0C39
:103920001CEAD0121EBF1CEAD11392EA0C0F93EAD4
:103930000C0F00F0858090EA010F48BF42F48072BE
:1039400040F4000C41F400002CF07F4120F07F4057
:1039500000B58142A2EB03020FF2081CACEB504E03
:10396000C0F100009EF800E04FEA4E0E00FB0EFC96
:1039700038BF49004FEA2C1C02F5FA020CFB0EF38B
:103980004FEACE1E4FEA112C4FEAC1210EEB635EC7
:1039900042EB22420EFB0CFC4FEA1C5300FB0311CE
:1039A0004FEA112C4FEA01310EFB0CFC4FEADC4CC4
:1039B00000FB0C11C14228BF09184CEB03335DF822
:1039C00004EB10EB410143EBC250B2F57C0F38BF62
:1039D000704729D512F0F00F1CBF00F1C04000F075
:1039E00000407047008182838485868788898B8C1C
:1039F0008D8E8F919293959697999A9C9D9FA0A258
:103A0000A3A5A7A8AAACAEB0B2B3B5B7B9BCBEC0A7
:103A1000C2C5C7C9CCCED1D4D7D9DCDFE2E6E9EC48
:103A2000F0F3F7FAFE0000004FEA400C0CF1807C46
:103A3000BCF17E4F28BF7047B0F1C04000F0AEB877
:103A400090EA010F0CEAD11348BF42F4807262453C
:103A500038BF634507D213F47F0F16D080EA010008
:103A600000F00040704710B500F052F8097EFC3EAF
:103A700000F005B880EA010000F00040704780EADD
:103A8000010000F0004000F089B812F47F0F04BF7D
:103A90000248704780EA010000F080B80000C07F53
:103AA000C10DD1F19E0206DB4FEA002343F0004333
:103AB00023FA02F07047004207D54FEA4001B1F106
:103AC000FE4F02D24FF00000704710B500F020F812
:103AD00049922480002070476FEA20007047000060
:103AE00010F0004148BF4042B0FA80F310FA03F2F0
:103AF000C3F19D030BD051EAC35101EB12205306D1
:103B000038BF704700F1010008BF20F00100704786
:103B10000EF1020E2EF0030E5EF8044B244204D484
:103B20004FEA4102B2F17F4F11D84FEA4003B3F19F
:103B30007F4F0CD80ED14FEAD07CB2F17F4F0CEB07
:103B40004C0C0CF1020C08BF4CEBD17C04E04FF0A4
:103B5000080C01E04FEAD17C0CEB4C0324FA03F48F
:103B600004F00704B4F1040C06D20EEB840CBDE89B
:103B700010404CF0010C6047DFE80CF0070802022F
:103B80004FF00040A0F5800010BD0846420018BF6D
:103B9000D2F1807288BF00F0004010BDFF2141EAE1
:103BA000D050C0057047FCF7A2BFFDF7D7B80000A2
:103BB00000000000000000000000000000003F4086
:103BC0000000000000000000300040003000400015
:103BD000000009000BC03D000BC03D00090018C0EB
:103BE00024407FE0224031800000180024C01B00E8
:103BF0000D803240018003801C4027401C8007401C
:103C00000040100060000000000000000000000004
:103C1000000000001F802040402000004020204085
:103C20001F8000000000090006001F800600090038
:103C30000000040004003F800400040000000010A5
:103C40000060000000000000000004000400040008
:103C5000040004000000000000400000000000001C
:103C60000000002001C006003800400000001F8056
:103C70002040204020401F800000000010403FC036
:103C800000400000000018C021402240244018409D
:103C9000000010802040244024401B8000000200CF
:103CA0000D0011003FC0014000003C802440244032
:103CB0002440238000001F8024402440344003809F
:103CC00000003000200027C03800200000001B80CA
:103CD0002440244024401B8000001C0022C02240BD
:103CE00022401F800000000000000840000000008B
:103CF0000000000000000460000000000000000060
:103D000004000A0011002080404009000900090059
:103D100009000900000000004040208011000A0056
:103D200004001800200023402400180000001F8019
:103D30002040274029401F400000004007C03900B4
:103D40000F0001C0004020403FC0244024401B80A1
:103D500000001F8020402040204030800000204094
:103D60003FC0204020401F80000020403FC0244032
:103D70002E4030C0000020403FC024402E003000C4
:103D800000000F00108020402240338002002040BD
:103D90003FC0040004003FC02040204020403FC0FE
:103DA0002040204000000060202020203FC0200054
:103DB000200020403FC024400B0030C02040204065
:103DC0003FC020400040004000C03FC03C0003C056
:103DD0003C003FC0000020403FC00C4023003FC0DB
:103DE00020001F802040204020401F8000002040F5
:103DF0003FC024402400180000001F8021402140C3
:103E000020E01FA0000020403FC02440260019C031
:103E1000004018C02440244022403180000030007F
:103E200020403FC020403000000020003F80004084
:103E300000403F80200020003E0001C00700380005
:103E40002000380007C03C0007C0380000002040B8
:103E500039C0060039C0204000002000384007C0AB
:103E6000384020000000304021C02640384020C0AB
:103E70000000000000007FE0402040200000000023
:103E800070000C0003800040000000004020402033
:103E90007FE0000000000000200040002000000043
:103EA00000000010001000100010001000100000B2
:103EB00000004000000000000000000002800540FB
:103EC000054003C0004020003FC004400440038080
:103ED0000000000003800440044006400000000091
:103EE0000380044024403FC00040000003800540A0
:103EF000054003400000000004401FC0244024404F
:103F00002000000002E0055005500650042020402B
:103F10003FC00440040003C000400000044027C02C
:103F200000400000000000100010041027E0000016
:103F3000000020403FC00140070004C00440204072
:103F400020403FC000400040000007C0040007C000
:103F5000040003C00000044007C00440040003C084
:103F6000004000000380044004400380000004106F
:103F700007F0045004400380000000000380044068
:103F8000045007F00010044007C002400400040081
:103F90000000000006400540054004C0000000008D
:103FA00004001F800440004000000400078000401F
:103FB000044007C000400400070004C00180060060
:103FC0000400060001C0070001C006000000044014
:103FD00006C0010006C0044000000410071004E001
:103FE0000180060004000000044005C006400440B3
:103FF00000000000000004007BE040200000000002
:1040000000000000FFF000000000000040207BE006
:10401000040000000000400080004000200020005C
:104020004000000000000000000000000000000050
:1040300000000000000000001FCC000C0000000089
:104040000000000008003000600008003000600040
:104050000000022003FC1E20022003FC1E20022080
:10406000000000000E1811043FFF10840C780000BF
:1040700000000F0010840F3800C007781884007803
:10408000000000780F8410C411240E9800E400840E
:104090000008080068007000000000000000000038
:1040A000000000000000000007E018182004400293
:1040B0000000000040022004181807E00000000083
:1040C00000000240024001800FF0018002400240E7
:1040D00000000080008000800FF8008000800080D9
:1040E00000000001000D000E0000000000000000B4
:1040F00000000000008000800080008000800080C0
:1041000000800000000C000C000000000000000017
:104110000000000000060018006001800600180082
:104120002000000007F0080810041004080807F039
:1041300000000000080408041FFC00040004000044
:10414000000000000E0C10141024104411840E0CFA
:10415000000000000C1810041104110412880C70E7
:104160000000000000E00320042408241FFC0024B9
:10417000000000001F9810841104110410881070B2
:104180000000000007F0088811041104188800706E
:10419000000000001C00100010FC13001C001000A8
:1041A000000000000E3811441084108411440E38B1
:1041B000000000000700088C10441044088807F035
:1041C0000000000000000000030C030C00000000D1
:1041D00000000000000000010106000000000000D7
:1041E00000000000008001400220041008081004B4
:1041F00000000220022002200220022002200220D1
:104200000000000010040808041002200140008093
:10421000000000000E001200100C106C10800F0047
:10422000000003E00C1813E4142417C4082807D076
:1042300000000004003C03C41C40074000E4001CD4
:10424000000410041FFC1104110411040E880070F6
:10425000000003E00C1810041004100410081C10D7
:10426000000010041FFC100410041004080807F0DC
:10427000000010041FFC1104110417C410040818D6
:10428000000010041FFC1104110017C010000800EA
:10429000000003E00C181004100410441C780040C7
:1042A000000010041FFC10840080008010841FFC9C
:1042B00010040000100410041FFC1004100400007F
:1042C000000000030001100110011FFE100010008B
:1042D000000010041FFC110403801464181C100457
:1042E000000010041FFC1004000400040004000C73
:1042F000000010041FFC1F0000FC1F001FFC100426
:10430000000010041FFC0C04030000E010181FFC48
:10431000100007F00808100410041004080807F043
:10432000000010041FFC10841080108010800F000B
:10433000000007F0081810241024101C080A07F2C7
:10434000000010041FFC1104110011C011300E0CEC
:10435000000400000E1C11041084108410441C384A
:1043600000001800100010041FFC100410001800BA
:10437000000010001FF810040004000410041FF8CF
:10438000100010001E0011E0001C007013801C00C3
:1043900010001FC0103C00E01F0000E0103C1FC0D8
:1043A00000001004180C163401C001C01634180C9B
:1043B000100410001C00130400FC13041C00100067
:1043C00000000804101C1064108413041C0410184E
:1043D00000000000000000007FFE4002400240029A
:1043E0000000000030000C0003800060001C00038F
:1043F000000000004002400240027FFE000000007A
:1044000000000000000020004000400040002000AC
:104410000000000100010001000100010001000195
:1044200000010000400040002000000000000000EB
:10443000000000000098012401440144014400FCF4
:10444000000410001FFC00880104010400880070B3
:1044500000000000007000880104010401040088CD
:1044600000000000007000880104010411081FFC16
:104470000004000000F8014401440144014400C864
:1044800000000000010401040FFC110411041100DC
:104490001800000000D601290129012901C90106DF
:1044A000000010041FFC008401000100010400FC56
:1044B000000400000104190419FC000400040000B9
:1044C00000000000000300010101190119FE0000B5
:1044D000000010041FFC0024004001B4010C010482
:1044E00000000000100410041FFC00040004000081
:1044F0000000010401FC0104010001FC01040100B1
:1045000000FC010401FC008401000100010400FC26
:104510000004000000F8010401040104010400F893
:104520000000010101FF0085010401040088007002
:10453000000000000070008801040104010501FF73
:1045400000010104010401FC008401040100018058
:104550000000000000CC0124012401240124019862
:10456000000000000100010007F801040104000040
:104570000000010001F8000400040004010801FC2F
:104580000004010001800170000C00100160018036
:10459000010001F0010C003001C00030010C01F0FD
:1045A000010000000104018C00740170018C010401
:1045B0000000010101810171000E001801600180FD
:1045C000010000000184010C013401440184010C4C
:1045D0000000000000000000000001003EFC40025E
:1045E00040020000000000000000FFFF000000008B
:1045F00000000000400240023EFC010000000000FC
:1046000000000000600080008000400040002000AA
:10461000200008200620407E318000017FE2400C0F
:104620004FF040087FE400001FE20001FFFE0000A1
:1046300000000400040104017DF5555555555555FC
:1046400055FF5555555555557DF504010401040098
:10465000000000047CFC440447F844887C88000087
:104660007FFE4422442244224422442247E2400264
:1046700000002000207F20402F4021482B5CA568AF
:1046800065C825482B58214C2F422041207E200010
:10469000000048405740F55755555755F0D55F55E0
:1046A00040D511553155EA5524552A5731402140FE
:1046B0000000082008220841FFFE088009000000D1
:1046C0007FFF410141C241344908453479C20001AC
:1046D00000000000000000FF0082008200820082D3
:1046E000FF82108210821082108210FF10001000D2
:1046F0000000080030022202248228822082A08248
:1047000060FE208220822882248222022802300039
:104710000000000000007FFE0204020402080208FC
:104720000000FFFC01020202040208021002001E47
:10473000000000000000006C006C000000000000A1
:104740000000000000000000000000000000000069
:10475000000000000000000008000FF00400080046
:1047600007F00800080007F000000000000000004B
:104770000000000000043E08411041203E4000803F
:104780000100027C04820882107C200040000000AE
:104790000000000000000000000000000000000019
:1047A0000000000000000000000000000000000009
:1047B0000000000000000000000000003031323333
:1047C0003435363738394142434445464030580045
:1047D0003031323334353637383961626364656677
:1047E00040307800040000080000000000000002D3
:1047F000000100001030313233343536373839613A
:104800006263646566787000303132333435363730
:1048100038394142434445465850000002400000A8
:10482000000000A00000000005400000000000C8DB
:10483000000000000C4000000000409C0000000050
:10484000194000000020BCBE000000003440000001
:10485000BFC91B8E00000004B5400000504BCFD0F4
:104860006607E2CF010000006C4100003E8251AAC1
:10487000DFEEA73401000000D9420000DCB5A0E261
:104880003A301F97FFFFFFFFB4450000FD25A0C889
:10489000E9A3C14FFFFFFFFFFF3F000000000080C2
:1048A00000000000FF3F000000000080000000004A
:1048B000FC4900080000002030000000280100082A
:1048C0002C4A000830000020600A00004401000863
:1048D0001C00000043000000F8FFFFFF0C00000078
:1048E0000E0000000F0000002E000000100100006C
:1048F00043000000F8FFFFFF0040404040404040C0
:1049000040404141414141404040404040404040A2
:104910004040404040404040400502020202020246
:104920000202020202020202022020202020202095
:1049300020202002020202020202909090909090A9
:104940001010101010101010101010101010101067
:1049500010101010020202020202888888888888DB
:1049600008080808080808080808080808080808C7
:1049700008080808020202024000000000000000CF
:104980000000000000000000000000000000000027
:104990000000000000000000000000000000000017
:1049A0000000000000000000000000000000000007
:1049B00000000000000000000000000000000000F7
:1049C00000000000000000000000000000000000E7
:1049D00000000000000000000000000000000000D7
:1049E00000000000000000000000000000000000C7
:1049F00000000000000000000000000000000000B7
:104A00000102030401020304060708090204060860
:104A10000000000000000000000000000000000096
:0C4A200000000000080000000000000082
:04000005080000ED02
:00000001FF
