:020000040800F2
:10000000700B002061040008650200086702000808
:100010006B0200086F020008730200080000000075
:10002000000000000000000000000000770200084F
:1000300079020008000000007B0200087D02000831
:100040007B0400087B0400087B0400087B04000894
:100050007B0400087B0400087B0400087B04000884
:100060007B0400087B0400087B0400087B04000874
:100070007B0400087B0400087B0400087B04000864
:100080007B0400087B0400087B0400087B04000854
:100090007B0400087B0400087B0400087B04000844
:1000A0007B0400087B0400087B0400087B04000834
:1000B0007B0400087B0400087B0400087B04000824
:1000C0007B0400087B0400087B0400087B04000814
:1000D0007B040008372300087B0400087B04000829
:1000E0007B0400087B0400087B0400087B040008F4
:1000F0007B0400087B0400087B0400087B040008E4
:100100007B0400087B0400087B0400087B040008D3
:100110007B0400087B0400087B0400087B040008C3
:100120007B0400087B0400087B0400087B040008B3
:1001300000F002F800F03FF80AA090E8000C8244BA
:100140008344AAF10107DA4501D100F034F8AFF297
:10015000090EBAE80F0013F0010F18BFFB1A43F0A5
:1001600001031847BC460000DC460000103A24BFDB
:1001700078C878C1FAD8520724BF30C830C144BF0C
:1001800004680C607047000000230024002500264E
:10019000103A28BF78C1FBD8520728BF30C148BFEA
:1001A0000B607047752903F00780002070471FB56A
:1001B0001FBD10B510BD03F0C7F81146FFF7F7FFDC
:1001C00000F020F803F0E5F803B4FFF7F2FF03BCFA
:1001D00002F056F838B504460D4610200823224692
:1001E00000210090202002F0D3FA102008232A4694
:1001F00001460090202002F0CBFA214615A002F023
:100200009BFF38BD4FF4A06000F04AF902F006F9F8
:1002100001F0CCFF4FF4165002F041F802F0C6FB9B
:1002200002F0B8FB02F04EFF032002F006FF0021AF
:1002300041F61F4002F052FE41F61F41632002F0DA
:10024000BFF805E00548016805480068FFF7C2FFF0
:10025000F8E700000D0A25750000000000000020EE
:1002600004000020704700BFFEE700BFFEE700BFAC
:10027000FEE700BFFEE77047704770477047000019
:100280000CB50020019000906C48006840F480306C
:100290006A49086000BF6948006800F400300090B7
:1002A0000198401C0190009818B90198B0F5A06F12
:1002B000F1D16248006800F4003010B101200090D4
:1002C00001E0002000900098012843D15C480068BC
:1002D00040F010005A4908600846006820F003000A
:1002E00008600846006840F0020008605348406813
:1002F000524948600846406848600846406840F4F3
:10030000806048600846406820F47C1048600846D9
:10031000406840F4E81048600846006840F080708B
:10032000086000BF4548006800F000700028F9D060
:100330004248406820F00300404948600846406851
:1003400040F00200486000BF3C48406800F00C00EC
:100350000828F9D10CBD10B5FFF792FF10BD10B5FC
:100360003648006840F0010034490860084640689B
:10037000344908403149486008460068324908401D
:100380002E4908600846006820F48020086008466E
:10039000406820F4FE0048604FF41F008860FFF7BB
:1003A000DAFF4FF000602949086010BD10B5002148
:1003B00000200022214B5B6803F00C0121B10429CD
:1003C00006D0082928D107E0214B224C236027E0E2
:1003D0001F4B204C236023E0184B5B6803F4701024
:1003E000164B5B6803F48032022303EB904022B982
:1003F000194B4343174C23600DE0104B5B6803F42B
:10040000003323B1144B4343124C236003E0104BE1
:100410004343104C236003E00D4B0E4C236000BFA0
:1004200000BF064B5B68C3F303130C4CE15C094B44
:100430001B68CB40074C236010BD00000010024039
:10044000002002400000FFF8FFFFF6FE08ED00E08C
:1004500000127A000800002000093D000C00002076
:100460000948804709480047FEE7FEE7FEE7FEE748
:10047000FEE7FEE7FEE7FEE7FEE7FEE70448054984
:10048000054A064B704700005F0300083101000871
:1004900070050020700B00207007002070070020FE
:1004A00031490143314A1160704770B50021002382
:1004B0000F22C47804B32D4C246804F4E064C4F51E
:1004C000E064210AC1F10403CA40447804FA03F14C
:1004D0008478144021430901254C0678A1550478FD
:1004E00004F01F050124AC4005786D11AD0005F145
:1004F000E025C5F8004109E0047804F01F05012457
:10050000AC401C4D0678761145F8264070BD1A4A5D
:100510000A400243154B1B1F1A60704739B1134A3A
:10052000121D12680243114B1B1D1A6006E00F4A90
:10053000121D126882430D4B1B1D1A607047042860
:1005400008D14FF0E021096941F004014FF0E022A9
:10055000116107E04FF0E021096921F004014FF03B
:10056000E0221161704700000000FA050CED00E088
:1005700000E400E080E100E080FFFF1F10B50446CA
:10058000CC48844208D10121042000F02DFB002139
:10059000042000F029FB46E0C748844208D101212D
:1005A000082000F021FB0021082000F01DFB3AE0AC
:1005B000C248844208D10121102000F015FB00211F
:1005C000102000F011FB2EE0BD48844208D101212B
:1005D000202000F009FB0021202000F005FB22E094
:1005E000B848844208D10121402000F0FDFA0021E2
:1005F000402000F0F9FA16E0B348844208D1012106
:10060000802000F0F1FA0021802000F0EDFA0AE0ED
:10061000AE48844207D10121801500F0E5FA00219F
:10062000A01500F0E1FA10BD10B50121084600F058
:10063000DBFA0021012000F0D7FA10BD2DE9F041CE
:10064000024600250026002000230024002791F800
:1006500003C00CF00F0591F803C00CF0100CBCF1B6
:10066000000F03D091F802C04CEA050591F800C0D4
:10067000BCF1000F31D0146800202BE04FF0010CCA
:100680000CFA00F3B1F800C00CEA03069E4220D138
:1006900083004FF00F0C0CFA03F7BC4305FA03FC80
:1006A0004CEA040491F803C0BCF1280F06D14FF0C6
:1006B000010C0CFA00FCC2F814C00AE091F803C067
:1006C000BCF1480F05D14FF0010C0CFA00FCC2F848
:1006D00010C0401C0828D1D31460B1F800C0BCF190
:1006E000FF0F34DD546800202EE000F1080C4FF0BD
:1006F000010808FA0CF3B1F800C00CEA03069E42A8
:1007000021D183004FF00F0C0CFA03F7BC4305FA1C
:1007100003FC4CEA040491F803C0BCF1280F05D196
:1007200000F1080C08FA0CF8C2F8148091F803C024
:10073000BCF1480F07D100F1080C4FF0010808FA8E
:100740000CF8C2F81080401C0828CED35460BDE8D5
:10075000F0814FF6FF710180022181700421C17088
:1007600070470246002093680B400BB1012000E067
:10077000002070470146886880B27047024600201A
:10078000D3680B400BB1012000E000207047014608
:10079000C86880B2704701617047416170470AB113
:1007A000016100E041617047C16070474FF48032E1
:1007B0000A4382618161826182698269704702466F
:1007C0000020434B18684FF68073184040EA02102F
:1007D00008433F4B186070473E49C8617047F0B509
:1007E0000A46002300240021002500F00046B6F14F
:1007F000004F02D1364EF16901E0354E7168C0F309
:10080000034583B200F44016B6F5401F08D121F02D
:1008100070612F4E766826F070662D4F7E6012E074
:1008200000F48016B6F5801F06D1032606FA05F4FB
:10083000A14341F0706106E0460D360103FA06F669
:10084000B14341F0706122B1460D360103FA06F65C
:10085000314300F00046B6F1004F02D11C4EF16169
:1008600001E01B4E7160F0BD30B500228B071C0FFC
:100870000F2303FA04F2164B08338C1053F824307C
:100880009343134C08348D1044F8253023468C10C4
:1008900053F824308C07240F00FA04F423430C4C43
:1008A00008348D1044F8253030BD0A49DC31086029
:1008B0007047000000080140000C0140001001409A
:1008C0000014014000180140001C014000200140BC
:1008D0000000014000002042DF48006840F00100B5
:1008E000DD49086008464068DC490840DA4948604C
:1008F00008460068DA490840D74908600846006899
:1009000020F4802008600846406820F4FE0048601B
:100910004FF41F0088607047CF49096821F4803187
:10092000CD4A11601146096821F480211160B0F5AB
:10093000803F03D0B0F5802F0ED106E0C64909688C
:1009400041F48031C44A116007E0C349096841F4A9
:10095000A021C14A116000E000BF00BF704710B580
:1009600001460022002300204A11012A02D1BA4C7C
:10097000236806E0022A02D1B74C236A01E0B64C94
:10098000636A01F01F02012494401C400CB1012055
:1009900000E0002010BD38B50020009000240025A4
:1009A00000BF3120FFF7DBFF05460098401C009098
:1009B0000098B0F5A06F01D0002DF2D03120FFF7E4
:1009C000CEFF08B1012400E00024204638BD0146D6
:1009D0000020A14A106820F0F80040EAC100106031
:1009E0007047A04908607047024600209A4B58683B
:1009F00020F47C1042EA01031843974B586070477B
:100A000098490866704701460020934A506820F0D4
:100A100003000843506070478F48406800F00C00A6
:100A20007047014600208C4A506820F0F0000843CF
:100A30005060704701460020874A506820F4E0600B
:100A400008435060704701460020834A506820F4F4
:100A5000605040EAC1005060704729B17E4A527A26
:100A600002437D4B5A7204E07B4A527A82437A4BAE
:100A70005A7270477B49D8310860704701460020A0
:100A8000754A506820F44040084350607047002188
:100A9000714A20321170704A82F82010012802D069
:100AA00004280AD104E001216B4A2032117005E0CC
:100AB0000521694A2032117000E000BF00BF704775
:100AC0006949086070476449096A0143624A1162D2
:100AD0007047654944390860704730B500210022ED
:100AE000002400235C4D6D6805F00C0121B1042940
:100AF00005D0082923D105E05C4D056022E05B4D5F
:100B000005601FE0544D6D6805F47012524D6D681C
:100B100005F48034022505EB92421CB9544D55432F
:100B200005600BE04C4D6D6805F400351DB1504D6E
:100B30005543056002E04D4D5543056002E04B4DC5
:100B4000056000BF00BF444D6D6805F0F001090964
:100B5000484D6B5C0568DD4045603F4D6D6805F4B0
:100B6000E061090A434D6B5C4568DD4085603A4DA4
:100B70006D6805F46051C90A3E4D6B5C4568DD4007
:100B8000C560354D6D6805F44041890B3A4D6B5C8D
:100B9000C568B5FBF3F5056130BD29B12E4A526930
:100BA00002432D4B5A6104E02B4A526982432A4B7F
:100BB0005A61704729B1284A92690243264B9A61CB
:100BC00004E0254A92698243234B9A61704729B118
:100BD000214AD2690243204BDA6104E01E4AD269FD
:100BE00082431D4BDA61704729B11B4AD268024328
:100BF000194BDA6004E0184AD2688243164BDA6077
:100C0000704729B1144A12690243134B1A6104E078
:100C1000114A12698243104B1A61704712494039D8
:100C2000086070470F49C86470470B49C871704726
:100C30000948406A40F080700749486270470146A1
:100C40000020054A92680A400AB1012000E0002015
:100C50007047014988727047001002400000FFF899
:100C6000FFFFF6FE000042428004424200127A007A
:100C700000093D001C0000202C00002010B5044697
:100C8000BE48844208D101218014FFF7ADFF002146
:100C9000A014FFF7A9FF16E0B948844208D101214A
:100CA0000014FFF7AEFF00212014FFF7AAFF0AE0AF
:100CB000B448844207D10121C013FFF7A2FF0021ED
:100CC000E013FFF79EFF10BD10B50022028802F46A
:100CD00041520B884C8823438C882343CC88234380
:100CE0000C8923434C8923438C892343CC89234398
:100CF0001A430280838B4FF2FF74234083830B8A55
:100D0000038210BD2DE9F04F85B005460C464FF02B
:100D1000000902274FF000084FF0010B0026B246F1
:100D2000A88B4FF240010840A88302202884B5F820
:100D30001C90A068022801D100BF38E0A08810B93B
:100D40004FF0010B01E04FF0020B8D48854200D1BE
:100D500000E000BF6846FFF7C0FEDDF800A0E088B5
:100D6000B0F5007F0AD14FEA1A2000EB8000400066
:100D7000A168B0FBF1F0401D86B20BE04FEA4B10CA
:100D8000BAFBF0F000EB80004000A168B0FBF1F08E
:100D9000401D86B20A20B6FBF0F606F00108A6EB6D
:100DA0000800C0F34F074FF6FF7000EA0828022F33
:100DB00001DBFF2F02DD02274FF00008E08840EA48
:100DC000080038432884A088A18908436188084323
:100DD0002188084340F4006040EA0909A5F81C9006
:100DE00005B0BDE8F08F0021018041808180C18085
:100DF000018141818181C1810721018270470021E8
:100E0000018041808180C180022181600021818137
:100E1000704721B1028842F04002028004E002885B
:100E20004FF6BF731A400280704721B1828B42F4A3
:100E30008062828304E0828B4FF6FF331A40828304
:100E4000704730B5002400230C110125A540ABB23A
:100E50001AB185881D43858002E085889D43858081
:100E600030BD1AB183880B43838002E083888B43B3
:100E700083807047818170470146888970474FF6AB
:100E8000FF62914204D0028842F48072028004E042
:100E900002884FF6FF631A400280704721B18288B2
:100EA00042F00402828004E082884FF6FB731A400D
:100EB0008280704702884FF2FF731A4002800288D6
:100EC0000A4302807047018841F4805101807047D5
:100ED00021B1028842F40052028004E002884DF6FB
:100EE000FF731A400280704702460020012901D09A
:100EF000108B00E0908A70470146088A7047B1F570
:100F0000804F04D1028842F48042028004E00288CB
:100F10004BF6FF731A400280704702460020138987
:100F20000B400BB1012000E000207047CA43028152
:100F30007047F0B50246002000240023002501F090
:100F40000F070126BE40B4B20B1101269E40B3B27A
:100F5000968806EA03051689264016B10DB10120D0
:100F600000E00020F0BD10B5002201F00F040123C5
:100F7000A3409AB2D343038110BD0000003001406A
:100F800000380040003C004010B50446FE48844252
:100F900008D10121C014FFF727FE0021E014FFF75C
:100FA00023FEC4E0B4F1804F08D101210846FFF7C9
:100FB00028FE00210120FFF724FEB8E0F348844218
:100FC00008D101210220FFF71CFE00210220FFF7BB
:100FD00018FEACE0EE48844208D101210420FFF75E
:100FE00010FE00210420FFF70CFEA0E0E948844237
:100FF00008D101210820FFF704FE00210820FFF797
:1010000000FE94E0E448844208D101211020FFF75B
:10101000F8FD00211020FFF7F4FD88E0DF4884424E
:1010200008D101212020FFF7ECFD00212020FFF74F
:10103000E8FD7CE0DA48844208D101214014FFF742
:10104000D3FD00216014FFF7CFFD70E0D548844246
:1010500009D10121C804FFF7C7FD00214FF400208A
:10106000FFF7C2FD63E0D048844209D101210805A1
:10107000FFF7BAFD00214FF48010FFF7B5FD56E0F1
:10108000CA48844209D101214805FFF7ADFD00217E
:101090004FF40010FFF7A8FD49E0C548844208D18D
:1010A00001214020FFF7ADFD00214020FFF7A9FD01
:1010B0003DE0C048844208D101218020FFF7A1FD16
:1010C00000218020FFF79DFD31E0BB48844208D11C
:1010D00001218015FFF795FD0021A015FFF791FD77
:1010E00025E0B648844209D101210804FFF77CFDC0
:1010F00000214FF48030FFF777FD18E0B0488442BC
:1011000009D101214804FFF76FFD00214FF40030A1
:10111000FFF76AFD0BE0AB48844208D10121880447
:10112000FFF762FD00214FF48020FFF75DFD10BD49
:1011300000220288944B98420ED0994B98420BD0D3
:10114000B0F1804F08D0914B984205D0904B984217
:1011500002D0904B984204D14FF68F731A404B88BF
:101160001A438D4B984207D08C4B984204D04FF6CF
:10117000FF431A40CB881A4302808B8883850B88F3
:101180000385814B98420BD0854B984208D08B4BFE
:10119000984205D08A4B984202D08A4B984201D19E
:1011A0000B7A038601238382704770B500240022E6
:1011B0000023058C4FF6FE7635400584028C83882B
:1011C000048B4FF68F752C40B51E2C400D882C4398
:1011D000751E2A400D892A434D882A436A4DA8422C
:1011E0000BD06F4DA84208D0744DA84205D0744D65
:1011F000A84202D0734DA84213D14FF6F7752A408A
:101200004D892A434FF6FB752A408D882A434FF6B5
:10121000FF652B404FF6FF552B408D892B43CD8921
:101220002B4383800483CD888586028470BD70B58E
:10123000002400220023058C4FF6EF76354005840C
:10124000028C8388048B48F6FF752C404FF6FF45CF
:101250002C400D884FF6FF7606EA05252C434FF605
:10126000DF752A400D8906EA05152A434D8806EAEE
:1012700005152A43444DA84202D0494DA8421DD12C
:101280004FF67F752A404D894FF6FF7606EA051521
:101290002A434FF6BF752A408D8806EA05152A4372
:1012A0004FF6FF352B404FF2FF752B408D8906EA34
:1012B00085052B43CD8906EA85052B43838004836E
:1012C000CD880587028470BD70B5002400220023FC
:1012D000058C4FF6FF6635400584028C8388848B2D
:1012E0004FF68F752C404FF6FC752C400D882C4323
:1012F0004FF6FF552A400D894FF6FF7606EA052581
:101300002A434D8806EA05252A431F4DA84202D0EC
:10131000234DA8421DD14FF2FF752A404D894FF64B
:10132000FF7606EA05252A434FF6FF352A408D88C9
:1013300006EA05252A434EF6FF752B404DF6FF754C
:101340002B408D8906EA05152B43CD8906EA051544
:101350002B4383808483CD888587028470BD70B5DC
:10136000002200230024058C4EF6FF7635400584CC
:10137000038C8488828B48F6FF752A404FF6FF4520
:101380002A400D8820E00000002C014000040040AD
:1013900000080040000C0040001000400014004015
:1013A00000340140004C0140005001400054014015
:1013B00000180040001C0040002000400040014098
:1013C00000440140004801404FF6FF7606EA05253B
:1013D0002A434DF6FF752B400D8906EA05352B4350
:1013E0004D8806EA05352B43FA4DA84202D0FA4D46
:1013F000A84208D14BF6FF752C408D894FF6FF7639
:1014000006EA85152C4384808283CD88A0F840505D
:10141000038470BD828B4FF2FF331A408283828B2C
:101420004FF6FF7303EA01231A4382837047F0B536
:101430000C461546002200210026078C4EF6FF7C44
:1014400007EA0C070784828B018C4FF6FF7707EAC7
:10145000043640F6FF473A404FF6FF7707EA052784
:101460003A434FF6FF7707EA03373A43D94FB8427A
:101470000ED0D94FB8420BD0B0F1804F08D0D74F23
:10148000B84205D0D64FB84202D0D64FB84206D1A6
:101490004DF6FF77394046F48057394305E047F66B
:1014A000FF57394044F48057394382830184F0BDAB
:1014B000828B4FF6F3731A408283828B0A438283B6
:1014C0007047F0B50C461546002200210026078C17
:1014D0004FF6FF6C07EA0C070784828B018C4FF6EE
:1014E000FF7707EA04264FF60C773A404FF6FF776E
:1014F00007EA03172F433A43B64FB8420ED0B64F10
:10150000B8420BD0B0F1804F08D0B44FB84205D0EC
:10151000B34FB84202D0B34FB84206D14FF6FF578F
:10152000394046F48077394305E04FF2FF573940A0
:1015300044F48077394382830184F0BD028B4FF2FB
:10154000FF331A400283028B4FF6FF7303EA012335
:101550001A4302837047F0B50C461546002200215D
:101560000026078C4FF6EF7C07EA0C070784028BF6
:10157000018C4FF6FF7707EA041640F6FF473A4022
:101580004FF6FF7707EA03373A434FF6FF7707EA4C
:1015900005273A438F4FB8420ED08F4FB8420BD039
:1015A000B0F1804F08D08D4FB84205D08C4FB84273
:1015B00002D08C4FB84206D14FF6DF77394046F063
:1015C0001007394305E04FF65F77394044F01007C4
:1015D000394302830184F0BD028B4FF6F3731A4046
:1015E0000283028B0A4302837047F0B50C4615460E
:1015F00000220021068C4FF6FE773E400684028BC7
:10160000018C4FF60C7632407E1C06EA03162E4300
:101610003243704EB0420ED06F4EB0420BD0B0F19C
:10162000804F08D06D4EB04205D06D4EB04202D012
:101630006C4EB04206D14FF6FD76314044F00106C3
:10164000314305E04FF6F576314044F00106314371
:1016500002830184F0BD70B505460C465D488542A5
:101660000ED05D4885420BD0B5F1804F08D05B4865
:10167000854205D05A48854202D05A48854200D159
:1016800000E000BF208850B92389A28861882846DD
:10169000FFF7ABFFE1882846FFF79EFF25E0208893
:1016A00004280AD12389A28861882846FFF753FFBE
:1016B000E1882846FFF742FF17E0208808280AD172
:1016C0002389A28861882846FFF7FBFEE188284627
:1016D000FFF7EEFE09E02389A28861882846FFF71C
:1016E000A6FEE1882846FFF795FE70BD2DE9F04182
:1016F00005460C4600260127608808B9022600E04E
:101700000026A088012801D1022700E001272088B7
:10171000A0B92389A28861882846FFF766FFE1887F
:101720002846FFF759FF23893A4631462846FFF7F6
:1017300012FFE1882846FFF701FF13E02389A28802
:1017400061882846FFF707FFE1882846FFF7F6FE85
:1017500023893A4631462846FFF747FFE188284665
:10176000FFF73AFFBDE8F0810A884B881A438B885F
:101770001A43CB881A430B891A434B891A438B8926
:101780001A43A0F8442070474FF6FF718180002172
:101790000180C18041800172704700210180418039
:1017A0008180C180018141818181C1817047002197
:1017B00001804180012181800021C1800181704729
:1017C0000021018041808180C1800181418181812E
:1017D00070470000002C014000340140000400402C
:1017E00000080040000C004021B1028842F00102D4
:1017F000028004E002884FF6FE731A4002807047B0
:1018000031B1B0F8442042F40042A0F8442005E091
:10181000B0F84420C2F30E02A0F8442070471AB179
:1018200083890B43838102E083898B4383817047E3
:101830008182704741EA0203A0F8483070471AB12C
:1018400083890B43838102E083898B4383817047C3
:1018500001894FF6F8721140018170470A46002154
:1018600001894FF68F73194011430181704730B5DC
:1018700004460D4629462046FFF7F0FF208940F038
:101880000700208130BD2DE9F04104460D46164683
:101890001F46602D06D13B46012231462046FFF708
:1018A0005AFE05E03B46012231462046FFF79DFEE9
:1018B00029462046FFF7D2FF208940F0070020810B
:1018C000BDE8F08130B50C4600210189C9B24FF660
:1018D000FF7505EA0325154325432943018130BDE2
:1018E0002DE9F04105460E4617469846002443462A
:1018F0003A4631462846FFF7E5FF2C894FF6F87047
:10190000044044F007044FF68F70044044F0700424
:101910002C81BDE8F081F0B504460D4616461F4601
:101920003B46324629462046FFF7CCFF208940F44B
:1019300080402081F0BD0185828270470A460021E7
:1019400001884FF68F731940114301807047F0B53D
:101950000C4615461E460021002200230189028BF9
:10196000038C4FF6F877394021434FF6FC473A4055
:1019700040F201173A434FF6DD773B404FF6FF77D1
:1019800007EA06172F433B43018102830384F0BD1E
:101990000A460021018B4FF68F73194011430183D2
:1019A00070470A460021018B48F6FF7319404FF635
:1019B000FF7303EA02231943018370470A4600219B
:1019C000818B4FF68F7319401143818370470A460C
:1019D0000021818B48F6FF7319404FF6FF7303EA2D
:1019E000022319438183704721B1028842F08002AB
:1019F000028004E002884FF67F731A40028070472D
:101A000021B1828842F00402828004E082884FF68D
:101A1000FB731A408280704721B1828842F008022D
:101A2000828004E082884FF6F7731A408280704704
:101A300021B1828842F00102828004E082884FF660
:101A4000FE731A40828070470A460021018B4FF6D0
:101A5000F77319401143018370470A460021018B37
:101A60004FF2FF7319404FF6FF7303EA0223194345
:101A7000018370470A460021818B4FF6F7731940A6
:101A80001143818370470A460021818B4FF2FF7317
:101A900019404FF6FF7303EA02231943818370470D
:101AA0000A460021018B4FF6FB7319401143018355
:101AB00070470A460021018B4FF6FF3319404FF65D
:101AC000FF7303EA02231943018370470A4600218A
:101AD000818B4FF6FB7319401143818370470A468F
:101AE0000021818B4FF6FF3319404FF6FF7303EA55
:101AF00002231943818370470A460021018B4FF668
:101B00007F7319401143018370470A460021018BFE
:101B1000C1F30E014FF6FF7303EA02231943018359
:101B200070470A460021818B4FF67F73194011439D
:101B3000818370470A460021818BC1F30E014FF665
:101B4000FF7303EA02231943818370470A46002189
:101B5000018C4FF6FD7319401143018470470A460A
:101B60000021018C4FF6F77319401143018470472F
:101B70000A460021018C4FF6DF7319404FF6FF73C0
:101B800003EA02131943018470470A460021018CBD
:101B90004FF67F7319404FF6FF7303EA02131943A0
:101BA000018470470A460021018C4FF6FF5319400B
:101BB0004FF6FF7303EA02231943018470470A4674
:101BC0000021018C4FF2FF7319404FF6FF7303EAB7
:101BD00002231943018470470A460021018C4DF607
:101BE000FF7319404FF6FF7303EA02331943018470
:101BF000704730B5002301248C40A3B2048C9C4371
:101C00000484048C02FA01F5ADB22C43048430BD87
:101C100030B5002304248C40A3B2048C9C4304847C
:101C2000048C02FA01F5ADB22C43048430BD70B5CA
:101C30000346002000241846183001258D40ACB220
:101C40001D8CA5431D8409B1082909D100EB610051
:101C5000056825F0700505600568154305600EE010
:101C60000D1FC5F34E052844056825F4E0450560C1
:101C700005684FF6FF7606EA02263543056070BD1B
:101C800021B1028842F00202028004E002884FF68D
:101C9000FD731A400280704721B1028842F00402AD
:101CA000028004E002884FF6FB731A4002807047FE
:101CB00021B1828842F08002828004E082884FF65F
:101CC0007F731A408280704702884FF6F7731A407C
:101CD000028002880A430280704782884FF68F7321
:101CE0001A40828082880A438280704702894FF6B8
:101CF000F8731A40028102890A43028170470289FF
:101D00004FF67F731A40028102890A4302817047AD
:101D1000818470478185704781867047018770474D
:101D200081877047A0F84010704702884FF6FF4344
:101D30001A40028002880A43028070470146888E5A
:101D400070470146088F70470146888F70470146EB
:101D5000B1F8400070470146888C70470146088DF5
:101D6000704702460020138A0B400BB1012000E0AF
:101D700000207047CA430282704730B502460020F7
:101D800000230024158A05EA0103958905EA010468
:101D900013B10CB1012000E0002030BDCA43028223
:101DA0007047000010B50446FB48844209D1012168
:101DB0008803FEF719FF00214FF48040FEF714FF5F
:101DC00032E0F648844209D101214804FEF719FFA8
:101DD00000214FF40030FEF714FF25E0F048844264
:101DE00009D101218804FEF70CFF00214FF4802067
:101DF000FEF707FF18E0EB48844209D10121C8042F
:101E0000FEF7FFFE00214FF40020FEF7FAFE0BE084
:101E1000E548844208D101210805FEF7F2FE0021C1
:101E20004FF48010FEF7EDFE10BD2DE9F04786B0AF
:101E300005460E460024A24600BFA1460027B089F1
:101E400000B100BF2F462C8A4CF6FF700440F0888A
:101E500004432C82AC894EF6F3100440B0883189DB
:101E60000843718908430443AC81AC8A4FF6FF40B4
:101E70000440B0890443AC8201A8FEF72EFEC64898
:101E8000874202D1DDF810A001E0DDF80CA0A8899E
:101E900000F4004040B10AEBCA0000EB0A103168C0
:101EA0004900B0FBF1F807E00AEBCA0000EB0A10AA
:101EB00031688900B0FBF1F86420B8FBF0F0040150
:101EC0002009642101FB1089A88900F4004040B179
:101ED000322000EBC900B0FBF1F000F00700044332
:101EE00008E0322000EB09106421B0FBF1F000F0B3
:101EF0000F0004432C8106B0BDE8F0874FF4165163
:101F0000016000218180C18001810C21418100217B
:101F10008181704710B502460020108A4FF2FF03FE
:101F200018400B884C8823438C882343CC88234358
:101F30001843108210BD0021018041808180C18042
:101F4000704721B1828942F40052828104E0828983
:101F50004DF6FF731A4082817047F0B503460024A6
:101F600000260025002040F66A17B94200D100BFC4
:101F70001846C1F3421401F01F06012707FA06F5BF
:101F8000012C01D10C3004E0022C01D1103000E012
:101F900014301AB107682F43076002E00768AF43A7
:101FA0000760F0BD1AB1838A0B43838202E0838A03
:101FB0008B4383827047028A4FF6F0731A40028285
:101FC000028A0A430282704782894FF2FF731A40E5
:101FD000828182890A438281704721B1828942F0DD
:101FE0000202828104E082894FF6FD731A408281E9
:101FF0007047028A4FF6DF731A400282028A0A4350
:102000000282704721B1028A42F48042028204E0D7
:10201000028A4BF6FF731A4002827047C1F308022E
:102020008280704701468888C0F308007047818924
:1020300041F0010181817047028BD2B20283028B91
:1020400042EA012202837047028B02F47F4202833C
:10205000028B0A430283704721B1828A42F0200238
:10206000828204E0828A4FF6DF731A4082827047D0
:1020700021B1828A42F01002828204E0828A4FF605
:10208000EF731A408282704721B1828A42F00802BF
:10209000828204E0828A4FF6F7731A408282704788
:1020A00021B1828942F40042828103E08289C2F335
:1020B0000E028281704721B1828A42F400628282DC
:1020C00004E0828A4FF2FF731A4082827047828A4C
:1020D0004FF6FB731A408282828A0A4382827047DB
:1020E00021B1828A42F00202828204E0828A4FF6A3
:1020F000FD731A408282704702460020B1F5007FCE
:1021000000D100BF13880B400BB1012000E000207C
:10211000704701F40072B2F5007F00D100BFCA43DE
:102120000280704770B5024600240023002500207D
:1021300040F66A16B14200D100BFC1F3421501F06A
:102140001F03012606FA03F3012D02D196893340BD
:1021500006E0022D02D1168A334001E0968A334010
:102160000C12012606FA04F41688344013B10CB19F
:10217000012000E0002070BD10B50022002340F6D1
:102180006A14A14200D100BF0A1201249440A3B2F4
:10219000DC43048010BD00000038014000440040D2
:1021A00000480040004C00400050004010B56FF067
:1021B0000400FEF7C4F92E4800682E49B0FBF1F088
:1021C0002D4908700846007800EB4001C1EBC010B3
:1021D0004FF6FF7101EAC0002849088010BD014692
:1021E000254A12784A434FF0E0235A6100229A614F
:1021F0001A46126942F001021A6100BF4FF0E02254
:10220000106900F001021AB100F48032002AF5D002
:102210004FF0E022126922F001024FF0E0231A6130
:1022200000229A6170470146144A12884A434FF0CF
:10223000E0235A6100229A611A46126942F00102B3
:102240001A6100BF4FF0E022106900F001021AB1DC
:1022500000F48032002AF5D04FF0E022126922F01B
:1022600001024FF0E0231A6100229A6170470000DA
:102270000800002000127A00300000203200002008
:10228000014600BF704700BF494A128802F0400271
:10229000002AF9D0C2B2464B1B1D1A80704710B5F8
:1022A00086B00446012144F20400FEF783FC4FF49B
:1022B0000070ADF8140003208DF8160018208DF87A
:1022C000170005A93B48FEF7B9F94FF48060ADF857
:1022D000140004208DF8170005A93648FEF7AEF962
:1022E00025208DF8000003208DF801008DF80200F4
:1022F00001208DF803006846FEF7D7F8019400200E
:10230000ADF80800ADF80A00ADF80C00ADF810000B
:102310000C20ADF80E0001A92548FFF786FD01222B
:1023200040F225512248FFF718FE01212048FFF70F
:1023300008FE06B010BD10B540F225511C48FFF74D
:10234000F1FE10B31A48FFF76DFEC4B21A480088B8
:1023500000F40040C8B91848008800F4804060B11B
:102360000A2C03D000201449088020E0124800887D
:1023700040F400401049088019E00D2C06D10E48A9
:10238000008840F480400C49088010E00A4800882A
:10239000C0F30D0009490C5407480088401C064949
:1023A000088008460088C72801DD0020088010BD8D
:1023B000003801400008014038000020440000209F
:1023C0007FB505460C4601211020FEF7F3FB0020E7
:1023D000ADF80600ADF80200ADF80450ADF80040CD
:1023E00069460D48FEF7A4FE012211460A48FFF790
:1023F00016FA36208DF80C0001208DF80F008DF8AC
:102400000D0000208DF80E0003A8FEF74EF8012104
:102410000148FFF7E9F97FBD0010004008B5012130
:102420000420FEF7C7FB4FF48070ADF800001020C9
:102430008DF8030003208DF8020069460C48FEF772
:10244000FDF84FF480710A48FEF7A5F9012110202C
:10245000FEF7B0FB4FF40060ADF800006946054898
:10246000FEF7ECF84FF400610248FEF794F908BD5E
:10247000000801400010014070B505460C4624B12B
:102480004021F948FEF787F903E04021F648FEF7BE
:1024900084F94FF48051F548FEF77FF9284600F0A3
:1024A000DCFC4FF48051F148FEF775F94021EE480D
:1024B000FEF771F970BD70B500241CE004F1B001A5
:1024C000C8B20021FFF7D8FF00210220FFF7D4FF98
:1024D00000211020FFF7D0FF002508E0E44901EBC0
:1024E000C501085D0121FFF7C7FF681CC5B2802D3B
:1024F000F4DB601CC4B2082CE0DB70BD10B5002119
:102500008D20FFF7B9FF00211420FFF7B5FF002150
:10251000AF20FFF7B1FF10BD10B500218D20FFF7F0
:10252000ABFF00211020FFF7A7FF0021AE20FFF72F
:10253000A3FF10BD70B500240CE0002506E00020CC
:10254000CB4901EBC5010855681CC5B2802DF6DBEF
:10255000601CC4B2082CF0DBFFF7ADFF70BD70B596
:1025600005460C462646E11704EB5171C910C1F12E
:10257000B701C8B20021FFF77FFF102141EA151013
:102580000021FFF779FF05F00F000021FFF774FF2E
:1025900070BD2DE9F04705460C4617464FF000097F
:1025A00021462846FFF7DBFF7F2D01DC402C01DDB3
:1025B000BDE8F0872046E11704EB5171C910C1F165
:1025C0000701CEB2E11704EB5171C910A4EBC101B0
:1025D00001F0FF08C8F107010120884000F0FF0961
:1025E00057B1A34800EBC500805D40EA0900A0494F
:1025F00001EBC501885509E09D4800EBC500805DF1
:1026000020EA09009A4901EBC5018855984901EB78
:10261000C501885D0121FFF72FFF00BFC8E72DE945
:10262000F04706460F4690469946DDF820A034460E
:102630000CE03D4606E0524629462046FFF7A9FF3A
:10264000681CC5B24D45F6DD601CC4B24445F0DDE2
:10265000FFF731FFBDE8F0872DE9F05F80460C46BB
:1026600015461E46A346A5F12000C5B200273EE050
:102670000C2E07D105EB45007E4901EB800010F8D8
:10268000079004E07C4800EB051010F807904FF02D
:10269000000A26E009F0800028B1214640460A9A47
:1026A000FFF777FF09E00A9808B9012000E0002051
:1026B000024621464046FFF76CFF4FEA49604FEA69
:1026C0001069601CC4B2A4EB0B00B04205D15C469B
:1026D00008F1010000F0FF0806E00AF1010000F037
:1026E000FF0ABAF1080FD5DB00BF781CC7B2B742AA
:1026F000BEDBBDE8F09F2DE9F05F06460C461746AD
:10270000A2464FF0010B002533E05C4800EB471078
:1027100010F805804FF0000925E008F0800028B18E
:102720005A4621463046FFF734FF0AE0BBF1000F5E
:1027300001D1012000E00020024621463046FFF78B
:1027400028FF4FEA48604FEA1068601CC4B2A4EB4F
:102750000A00102803D15446701CC6B206E009F1E5
:10276000010000F0FF09B9F1080FD6DB00BF681CBB
:10277000C5B2202DC9DBBDE8F09F10B5024601208F
:1027800000E050430B00A1F10104E1B2F9D110BD0A
:102790002DE9FF4F81B0074691461E460E9D4FF032
:1027A000000A002439E0301B401EC1B20A20FFF7A6
:1027B000E4FFB9FBF0F00A21B0FBF1F201FB1208D3
:1027C000BAF1000F16D1701EA04213DDB8F1000F50
:1027D0000ED10120AB4605EBDB71491001FB047102
:1027E0000090C8B22B4620220299FFF735FF12E075
:1027F0004FF0010A0120AB4605EBDB71491001FBEC
:1028000004710090C8B208F13001CAB22B46029997
:10281000FFF722FF00BF601CC4B2B442C3DB05B0A7
:10282000BDE8F08FF8B505460E46144618E07F2D3A
:1028300003DD002506F11000C6B23F2E04DD0020A6
:1028400005460646FFF776FE012000902278102309
:1028500031462846FFF700FF05F10800C5B2641CA9
:1028600020780028E3D1F8BD00100140000C0140A1
:102870000C0100201C3C0008904000088046000825
:10288000FEB505460E461446002C26DB00200190BE
:102890000290632C00DB63240A2094FBF0F001908B
:1028A0000A2094FBF0F000EB8000A4EB40000290C3
:1028B0001020009005F11001C8B201233146019AA1
:1028C000FFF766FF1020009005F11801C8B2012340
:1028D0003146029AFFF75CFF0EE0002010232D2204
:1028E000314600902846FFF7B7FE05F10801C8B24F
:1028F00062423146FFF7C4FFFEBD2DE9F04F87B0BD
:1029000081468B4615461E464FF0000A00240020E3
:10291000049005900022634B2846314600F0ECFD00
:10292000074600F041FF8246504600F06CFF2A4601
:102930003346CDE9000101F07BF800225A4BCDE986
:10294000020100F077FF074600F02EFF04460A2040
:1029500094FBF0F004900A21049801FB10400590CC
:10296000102001235246594600904846FFF710FFB9
:10297000012009F108010090C8B210232E22594607
:10298000FFF76AFE224659464846FFF779FF07B02F
:10299000BDE8F08F10B545A200210846FFF742FFC1
:1029A00044A210210020FFF73DFF10BD08B5012112
:1029B0001820FEF7FFF84020ADF8000010208DF839
:1029C000030003208DF8020069463C48FDF736FEFF
:1029D00000F0A2F90021AE20FFF74EFD0021D52026
:1029E000FFF74AFD00215020FFF746FD0021A820F7
:1029F000FFF742FD00213F20FFF73EFD0021D320DD
:102A0000FFF73AFD00210846FFF736FD0021402080
:102A1000FFF732FD00218D20FFF72EFD002114204D
:102A2000FFF72AFD00212020FFF726FD00210220CC
:102A3000FFF722FD0021A120FFF71EFD0021C0208D
:102A4000FFF71AFD0021DA20FFF716FD0021122002
:102A5000FFF712FD00218120FFF70EFD0021EF207E
:102A6000FFF70AFD0021D920FFF706FD0021F12024
:102A7000FFF702FD0021DB20FFF7FEFC00213020E4
:102A8000FFF7FAFC0021A420FFF7F6FC0021A620A6
:102A9000FFF7F2FC0021AF20FFF7EEFCFFF74AFD45
:102AA00008BD00000000F03F0000594043563A20A6
:102AB0000000000054563A200000000000100140C1
:102AC00008B501213C20FEF775F84FF48070ADF891
:102AD000000010208DF8030003208DF802006946E5
:102AE000F148FDF7ABFD0420ADF8000010208DF893
:102AF000030003208DF802006946EC48FDF79EFDB7
:102B000042F20200ADF8000048208DF803000320D7
:102B10008DF802006946E648FDF790FD4FF48060AD
:102B2000ADF8000004208DF803006946DE48FDF78B
:102B300085FD4FF40070ADF8000003208DF8020011
:102B400018208DF803006946D748FDF777FD08BDCA
:102B500010B501210846FEF720F801218803FEF791
:102B600029F801210846FEF732F810BD08B500210A
:102B70004FF00060FDF7CBFC4FF4E060FDF790FCF8
:102B800025208DF8000000208DF801008DF802004E
:102B900001208DF803006846FDF787FC1C208DF8A6
:102BA000000000208DF8010001208DF802008DF852
:102BB00003006846FDF779FC08BD1FB54FF41650B9
:102BC00000900020ADF80400ADF80600ADF8080054
:102BD000ADF80C000C20ADF80A006946B548FFF7C7
:102BE00024F9012240F22551B248FFF7B6F901213C
:102BF000B048FFF7A6F91FBD00B587B04FF6FF70CC
:102C0000ADF814000020ADF81000ADF81600ADF8D6
:102C1000120004A94FF08040FEF78AFA0122042135
:102C20000807FEF788FE0020ADF800000120ADF88F
:102C30000200A1480088ADF806000020ADF80800A9
:102C400069464FF08040FEF7B0FA00214FF0804017
:102C5000FEF7FAFE0120ADF8020098480088ADF8B2
:102C6000060069464FF08040FEF7E1FA00214FF080
:102C70008040FEF7F2FE012206219007FEF7CFFD0D
:102C800001218807FEF7B0FD07B000BD00B587B091
:102C9000012141F20400FDF78DFFE020ADF80400B2
:102CA00003208DF8060018208DF8070001A97E4842
:102CB000FDF7C4FC1020ADF8040003208DF80600D9
:102CC00010208DF8070001A97748FDF7B7FC002018
:102CD000ADF808004FF48270ADF80A000020ADF89E
:102CE0000C000220ADF80E000120ADF810004002EB
:102CF000ADF812000020ADF81400ADF81600072062
:102D0000ADF8180002A96E48FDF7DEFF01216C48FE
:102D1000FEF77FF807B000BD00B587B0012188033A
:102D2000FDF755FF01210820FDF744FF4FF46040F7
:102D3000ADF8040003208DF8060018208DF8070078
:102D400001A96048FDF77AFC4FF48050ADF804000B
:102D500003208DF8060010208DF8070001A95948BE
:102D6000FDF76CFC4FF480515648FDF716FD00202E
:102D7000ADF808004FF48270ADF80A000020ADF8FD
:102D80000C000220ADF80E000120ADF8100040024A
:102D9000ADF812000020ADF81400ADF816000720C1
:102DA000ADF8180002A94848FDF78EFF01214648FA
:102DB000FEF72FF807B000BD30B54449B1F1807F70
:102DC00000D31DE021F07F40401E4FF0E022506113
:102DD00050170F22002807DA13071D0E3C4B00F096
:102DE0000F04241F1D5503E013071C0E394B1C5400
:102DF00000BF00204FF0E02290610720106100BF6B
:102E000030BD3548006820B133480068401E324963
:102E1000086070470246002105E0491CB1F5FA6FD1
:102E200001D9002070472648008900F002000028E0
:102E3000F3D023488281002105E0491CB1F5FA6FE7
:102E400001D90020EEE71E48008900F001000028AB
:102E5000F3D01B488089C0B2E4E70246002105E0B8
:102E6000491CB1F5FA6F01D90020704716480830A7
:102E7000008800F002000028F2D013480C300280D5
:102E8000002105E0491CB1F5FA6F01D90020ECE7FB
:102E90000D480830008800F001000028F2D00A48F0
:102EA0000C300088C0B2E0E7000801400014014087
:102EB00000100140003801403C0000203E0000208E
:102EC00000300140000C0140003800404019010072
:102ED00018ED00E000E400E04000002030B589B0CB
:102EE00005460C460121C802FDF764FE01210420BD
:102EF000FDF760FE4FF48070ADF8200018208DF8CB
:102F0000230003208DF8220008A94648FDF796FB10
:102F1000ADF81850ADF814400020ADF81A0010209C
:102F2000ADF8160005A94048FEF702F97020ADF88B
:102F300004000120ADF806000020ADF80A000220D0
:102F4000ADF80C0001A93848FEF72FF901213648E9
:102F5000FEF756FC08213448FEF776FD0121324881
:102F6000FEF742FD01213048FEF73EFC09B030BDBE
:102F700030B589B005460C4601210420FDF71AFE44
:102F80000F20ADF8200018208DF8230003208DF8C5
:102F9000220008A92348FDF751FB01210846FDF74F
:102FA00016FEADF81850ADF814400020ADF81A0028
:102FB000ADF8160005A94FF08040FEF7B9F8602083
:102FC000ADF804000120ADF806000020ADF80C00BB
:102FD00001A94FF08040FEF7E8F801A94FF08040CA
:102FE000FEF725F901A94FF08040FEF76DF901A920
:102FF0004FF08040FEF7B3F90821C806FEF724FD24
:103000000821C806FEF729FD0821C806FEF732FD93
:103010000821C806FEF737FD01218807FEF7E4FB0B
:1030200009B030BD00080140002C014001460029D4
:1030300001DA484200E00846704730B101280CD060
:10304000022812D003281ED116E00121354A116052
:103050000021354AC2F8881116E00021314A11607A
:103060000121314AC2F888110EE001212D4A116078
:103070002D4AC2F8881107E000212A4A11602A4A25
:10308000C2F8881100E000BF00BF704770B5044669
:10309000002C0BDB0020FFF7D0FF2046FFF7C6FF18
:1030A00085B229462148FEF737FE0AE00120FFF7E6
:1030B000C4FF2046FFF7BAFF85B229461B48FEF73A
:1030C0002BFE70BD08B501210420FDF773FD08201B
:1030D000ADF8000010208DF8030003208DF80200E9
:1030E00069461348FDF7AAFA08211148FDF753FB7A
:1030F00001210420FDF75EFD0420ADF80000102042
:103100008DF8030003208DF8020069460848FDF79A
:1031100095FA04210648FDF73EFB0320FFF78DFFDB
:1031200008BD00008C01214200002142002C01401A
:1031300000080140704700000FB4044910B503AA0D
:10314000029800F0D3F810BC5DF814FB34000020A6
:103150002DE9F0410E460446002020622046E16839
:10316000884730B3252805D0D4E901219047206A4B
:10317000401CF2E7E168204600278847050018D088
:10318000A5F14100192802D820354FF400673246D6
:10319000294620462760FDF705F840B1012804D0F4
:1031A000F61D26F007060836D8E7361DD6E728466E
:1031B000DAE7206ABDE8F0812DE9F04106460024F7
:1031C00010687529314616A510D0AFF3008000288D
:1031D00002DA404213A507E031688A0701D512A53B
:1031E00002E0490704D511A5012401E0AFF30080F6
:1031F00000210A2206F1240709E0B0FBF2FCB0FB33
:10320000F2F302FB1C00303078541846491C0028A9
:10321000F3D123462A463046BDE8F04100F00CB811
:10322000000000002D0000002B0000002000000026
:1032300070477047704770472DE9F0470D46994633
:103240009246044600F124080168880604D5E06926
:1032500021F01001216000E00120A84201DD471BA0
:1032600000E00027A1697A1902EB0900081AA061A1
:103270002078C00602D42046AFF30080002608E084
:10328000D4E901211AF806009047206A401C761CF8
:1032900020624E45F4DB2078C0060AD52046AFF305
:1032A000008006E0D4E9012130209047206A401CCC
:1032B0002062381EA7F10107F4DC07E0D4E9012100
:1032C00018F805009047206A401C2062281EA5F1CE
:1032D0000105F3DC2046AFF300802078000602D51C
:1032E0000220BDE8F0870120FBE70000074B70B526
:1032F0000D467B4400F011F80446284600F020F803
:1033000010B14FF0FF3070BD204670BD91EFFFFF50
:1033100001694A1C02610878704700B58FB0CDE999
:1033200001310021059105497944CDE90310114689
:103330006846FFF70DFF0FB000BD0000E5FFFFFF7F
:10334000007B00F080007047754600F029F8AE461B
:1033500005006946534620F00700854618B020B5A1
:10336000FDF78CF8BDE820404FF000064FF0000755
:103370004FF000084FF0000B21F00701AC46ACE81D
:10338000C009ACE8C009ACE8C009ACE8C0098D468A
:1033900070470446AFF300802046FCF715FF00009D
:1033A000004870470C05002010B591EA030F48BF94
:1033B00083F0004300F15083841A71EB030C05D2B3
:1033C000121943EB0C03001B61EB0C01DFF824E145
:1033D0004FEA1154A4EB135C1EEA430F18BF9EEA98
:1033E000445F73D023EA0E03DCF1200E21EA04517E
:1033F00043F4801332D322FA0CFE10EB0E0023FAB2
:103400000CFE41EB0E01CCF1200E03FA0EFE10EB88
:103410000E0051F10001B1F5801FCCF1200E32D227
:1034200001EB045112FA0EF2BDE8104058BF70478C
:10343000401C38BF5FEA420218BF7047002814BF23
:1034400020F0010041F100014FEA410313F5001F94
:1034500038BF7047A1F1C04100F0E4BA012A43EB44
:103460000302ACF1200CDCF11F0E32BF4FF0000E56
:1034700023FA0CF310EB030041EB0451B4EB115FA2
:10348000D0D0A1EB045101F5801149085FEA30006A
:1034900001EB04510ED350F1000038BF12FA0EFEBA
:1034A00008D1BDE81040C9E7401C38BF5FEA4202BE
:1034B000CAD1C3E7BDE810404FEA410313F5001F2E
:1034C00038BF7047A1F1C04100F0ACBA9EEA445F3A
:1034D00008D011EA5E0FBDE8104004BF01F00041C2
:1034E00000207047BDE8104070B500F04DFA00BFF5
:1034F00064FBBE3E0000E0FF2DE9C04130B4DFF8C0
:10350000A0C23CEA111418BF3CEA131400F0EC808E
:1035100081EA03051CEA111444EAD57418BF1CEAB9
:10352000131500F0C780A4EB05044FF0004545EAF1
:10353000C12145EAC32341EA505143EA525304F101
:103540007F74994204F500344FEAC0204FEAC2224A
:1035500008BF904200F09C804FEA13650FF24016BE
:10356000765D4FEA134506FB05F7C7F1807706FB4A
:1035700007F74FEAD737A7FB03687642C8F58038CC
:10358000A7FB06CE38BFA8F1010807FB08E64FF0FD
:10359000000EA6FB028CE6FB03CEDCF1000CCEF1A4
:1035A000004E38BFAEF1010EA6FB0C584FF00007DD
:1035B0004FF00005E6FB0E87A1FB08C6A0FB07CE77
:1035C00016EB0E0645F10005E1FB076515F1E04E2F
:1035D0007EBFA4F580345FEA46066D4116F1800790
:1035E00045F100054FEA17274FEA066647EA0567E7
:1035F000A6F1DE46B6F1805F4FEA15251FD93846A1
:1036000024F0010C05EBC471BCF1FE6F01EB0C1151
:1036100002D8F0BCBDE8008124425CBF01F5801EE9
:103620009EEAC47F02D4F0BCBDE80081244238D4B5
:10363000F0BCA1F1C041BDE8004100F0F3B94FEA90
:10364000D22242EA43524FEAD323A7FB02864FEA33
:10365000D02040EA415007FB03661EEA0E0F4FEAF6
:10366000D12105FB026658BFA6EB0056B6EB00560B
:103670004FEA520E4EEAC37E18EB0E0E56EB530E77
:10368000BDD518EB02085E417F1C55F10005B6E779
:103690004FF480154FF000074FF000064FF0000880
:1036A000ADE7F0BC4FF0000001F1C04101F0004176
:1036B000BDE8008111EA0C1F0CEA131500D00CE0E4
:1036C00013EA0C1F00F025804FF00000F0BC81EAE7
:1036D000030101F00041BDE80081F0BCBDE80041FC
:1036E00081EA030100F09EB9F0BCBDE8004170B56D
:1036F00000F04AF9097EFC3E00F007B881EA0301B8
:103700004FF0000001F00041704781EA030100F032
:1037100089B9F0BCBDE800414FF000002149704775
:10372000FFFDFBF9F7F5F4F2F0EEEDEBE9E8E6E486
:10373000E3E1E0DEDDDBDAD8D7D5D4D3D1D0CFCD0D
:10374000CCCBCAC8C7C6C5C4C2C1C0BFBEBDBCBB46
:10375000BAB9B8B7B6B5B4B3B2B1B0AFAEADACAB41
:10376000AAA9A8A8A7A6A5A4A3A3A2A1A09F9F9E1B
:103770009D9C9C9B9A9999989797969595949393CD
:10378000929191908F8F8E8E8D8C8C8B8B8A898964
:1037900088888787868585848483838282818180E7
:1037A0000000FF070000F87F4FEA41034FEA535340
:1037B000A3F58063D3F11E03C8BFD3F1210C0CDD48
:1037C0004FF0004242EAC12242EA505232FA03FC70
:1037D0008CEAE17CACEBE1707047102BC4BF002099
:1037E000704703F5787CBCF1FF3F04D06FF00042D6
:1037F00082EA2100704770B500F0C6F84992248033
:1038000000207047F2E710F0004248BF4042B0FA93
:1038100080F310FA03F10AD0C3F11D0303F58063AE
:103820004FEA415002EB035202EBD12170474FF0B7
:1038300000007047DFF848C170B51CEA111E1EBFBA
:103840001CEA13159EEA0C0F95EA0C0F00F06F802E
:1038500081EA030423EA4C134EEAD47E21EA4C1198
:1038600041F4801143F48013AE44A1FB024CA0FB51
:103870000365AEF17F7E361955EB0C05A1FB034CB9
:103880004CF10003A0FB021C16EB0C06654153F142
:103890000003094218BF46F0010613F4007F0BD164
:1038A0004FEA03314FEA0530340341EA155140EA4B
:1038B00016506FF003020AE04FEAC3214FEAC52019
:1038C000F40241EA555140EA56506FF0020202EB11
:1038D0002E4201EB025585EACE710AD05FEA440C14
:1038E00018BF24F0004450F1000041F1000120EA2B
:1038F000D47040F2FE7C624500D270BDA84214BF75
:103900004FF080444FF04044002E08BF0024BEF129
:10391000806FA8BFA1F1C041BDE8704080F28280F5
:103920004FF0000001F1C04101F0004170479EEAF4
:103930000C0F0CEA131518BF95EA0C0F06D04FF0C8
:10394000000081EA030E0EF0004170BD00F01CF88B
:103950008900013E00F007B800F009B84FEA430CB7
:103960005FEA5C5C08D081EA030100F05BB84FEAD3
:10397000410C5FEA5C5CF6D14FF0000001497047F2
:103980000000FF070000F87F0EF1020E2EF0030E7C
:103990005EF8046B364205D4012A43EB030515F5A6
:1039A000001F12D8012841EB010C1CF5001F0CD898
:1039B0000ED14FEAD17C15F5001F0CEB4C0C0CF12D
:1039C000020C08BF4CEBD37C04E04FF0080C01E084
:1039D0004FEAD37C0CEB4C0526FA05F606F00706F9
:1039E000B6F1040C06D20EEB860CBDE870404CF02C
:1039F000010C6047DFE80CF0090B02024FF00041B8
:103A00004FF00000A1F5002170BD194610460128B5
:103A100051EB010418BFD4F5001484BF002001F05D
:103A2000004170BD0808A0F500114FEA3101704750
:103A300091EA030F10B581F000413FF5BDAC83F072
:103A4000004300F009B8000010B591EA030F48BF29
:103A500083F000433FF5B0AC841A71EB030C07D23E
:103A600012198CF0004C43EB0C03001B61EB0C01B2
:103A7000DFF8A4E14FEA1154A4EB135C1EEA430FF4
:103A800018BF9EEA445F00F0B08023EA6E03524202
:103A900021EA0451C3EB6E0338BF5B1EDCF1200E3C
:103AA00025D322FA0CFE10EB0E0043FA0CFE41EB7C
:103AB0000E01CCF1200E03FA0EFE10EB0E0051F1B8
:103AC0000001CCF1200E29D412FA0EF201EB0451C0
:103AD000BDE8104058BF7047401C1CBFB2F1004FFA
:103AE000704700280CBF491C20F00100704712EB02
:103AF000020E43EB030218BF4FF0010E4EEA4202E2
:103B0000ACF1200CDCF11E0E54D943FA0CFE10EB84
:103B10000E0051F1FF31CCF11E0ED5D50EF1010E84
:103B200012FA0EFE404141EB010101EB445C5FEAF9
:103B30005C5C10D910EBDE7001EB045138BFBEF1B4
:103B4000004FBDE8104018BF704700280CBF491C4B
:103B500020F00100704730D24FEAD42C11F500114B
:103B600024F400641BD0B1FA81F20B3AA41AA41E0B
:103B7000D2F12003914030FA03F31943904001EB56
:103B8000CC71002C01EB0451BDE81040A8BF704778
:103B900001F1C0414FF0000001F000417047B0FA60
:103BA00080F310FA03F100D110BDE41A173C480568
:103BB000C90AE4E701EB045110BD491001EB0451BF
:103BC000BDE810404FEA300002E04FF000017047BE
:103BD0004A0008BF0042F8D0B2F5001F28BF704766
:103BE00001F000414FF0000070479EEA445F07D0AB
:103BF00011EA5E0FBDE8104004BF002100207047AD
:103C0000BDE8104070B5FFF7BFFE00BF40DFF63ED5
:103C100083F00041104670470000E0FF0000000004
:103C20000000000000000000000000003F40000015
:103C300000000000000030004000300040000000A4
:103C400009000BC03D000BC03D00090018C0244016
:103C50007FE0224031800000180024C01B000D804E
:103C60003240018003801C4027401C8007400040F8
:103C700010006000000000000000000000000000D4
:103C800000001F80204040200000402020401F8076
:103C900000000000090006001F8006000900000067
:103CA000040004003F8004000400000000100060D5
:103CB00000000000000000000400040004000400F4
:103CC00004000000000000400000000000000000B0
:103CD000002001C006003800400000001F80204086
:103CE000204020401F800000000010403FC00040E6
:103CF0000000000018C0214022402440184000006D
:103D000010802040244024401B80000002000D0051
:103D100011003FC0014000003C802440244024406A
:103D2000238000001F802440244034400380000092
:103D30003000200027C03800200000001B802440F5
:103D4000244024401B8000001C0022C0224022404E
:103D50001F8000000000000008400000000000007C
:103D600000000000046000000000000000000400EB
:103D70000A001100208040400900090009000900E4
:103D80000900000000004040208011000A000400EB
:103D90001800200023402400180000001F8020404D
:103DA000274029401F400000004007C039000F0095
:103DB00001C0004020403FC0244024401B80000040
:103DC0001F802040204020403080000020403FC025
:103DD000204020401F80000020403FC024402E4053
:103DE00030C0000020403FC024402E0030000000C2
:103DF0000F001080204022403380020020403FC04E
:103E0000040004003FC02040204020403FC020402C
:103E1000204000000060202020203FC02000200023
:103E200020403FC024400B0030C0204020403FC015
:103E300020400040004000C03FC03C0003C03C00A8
:103E40003FC0000020403FC00C4023003FC0200086
:103E50001F802040204020401F80000020403FC0A5
:103E600024402400180000001F802140214020E051
:103E70001FA0000020403FC02440260019C0004081
:103E800018C02440244022403180000030002040EF
:103E90003FC020403000000020003F800040004034
:103EA0003F80200020003E0001C0070038002000B5
:103EB000380007C03C0007C038000000204039C06F
:103EC000060039C0204000002000384007C03840BC
:103ED00020000000304021C02640384020C00000B3
:103EE000000000007FE04020402000000000700043
:103EF0000C000380004000000000402040207FE0D4
:103F00000000000000002000400020000000000031
:103F10000010001000100010001000100000000041
:103F20004000000000000000000002800540054045
:103F300003C0004020003FC0044004400380000054
:103F4000000003800440044006400000000003809D
:103F5000044024403FC0004000000380054005406D
:103F600003400000000004401FC024402440200003
:103F7000000002E0055005500650042020403FC0DC
:103F80000440040003C000400000044027C000407B
:103F90000000000000100010041027E000000000E6
:103FA00020403FC00140070004C0044020402040A2
:103FB0003FC000400040000007C0040007C00400EC
:103FC00003C00000044007C00440040003C00040D8
:103FD000000003800440044003800000041007F048
:103FE000045004400380000000000380044004509B
:103FF00007F00010044007C0024004000400000065
:10400000000006400540054004C000000000040018
:104010001F8004400040000004000780004004406E
:1040200007C000400400070004C00180060004002F
:10403000060001C0070001C006000000044006C0E1
:10404000010006C0044000000410071004E00180D5
:10405000060004000000044005C0064004400000C3
:104060000000000004007BE0402000000000000091
:104070000000FFF000000000000040207BE0040092
:1040800000000000400080004000200020004000B0
:104090000000000000000000000000000000000020
:1040A0000000000000001FCC000C00000000000019
:1040B00000000800300060000800300060000000D0
:1040C000022003FC1E20022003FC1E200220000010
:1040D00000000E1811043FFF10840C78000000004F
:1040E0000F0010840F3800C0077818840078000093
:1040F00000780F8410C411240E9800E40084000896
:1041000008006800700000000000000000000000CF
:1041100000000000000007E0181820044002000022
:10412000000040022004181807E000000000000012
:104130000240024001800FF0018002400240000076
:104140000080008000800FF8008000800080000068
:104150000001000D000E0000000000000000000043
:1041600000000080008000800080008000800080CF
:104170000000000C000C0000000000000000000027
:1041800000000006001800600180060018002000F2
:10419000000007F0080810041004080807F00000E9
:1041A0000000080408041FFC0004000400000000D4
:1041B00000000E0C10141024104411840E0C00008A
:1041C00000000C1810041104110412880C70000077
:1041D000000000E00320042408241FFC0024000049
:1041E00000001F9810841104110410881070000042
:1041F000000007F0088811041104188800700000FE
:1042000000001C00100010FC13001C001000000037
:1042100000000E3811441084108411440E38000040
:1042200000000700088C10441044088807F00000C4
:10423000000000000000030C030C00000000000060
:104240000000000000010106000000000000000066
:104250000000008001400220041008081004000043
:104260000220022002200220022002200220000060
:104270000000100408080410022001400080000023
:1042800000000E001200100C106C10800F000000D7
:1042900003E00C1813E4142417C4082807D0000006
:1042A0000004003C03C41C40074000E4001C000460
:1042B00010041FFC1104110411040E88007000008A
:1042C00003E00C1810041004100410081C10000067
:1042D00010041FFC100410041004080807F000006C
:1042E00010041FFC1104110417C410040818000066
:1042F00010041FFC1104110017C01000080000007A
:1043000003E00C181004100410441C780040000056
:1043100010041FFC10840080008010841FFC100417
:104320000000100410041FFC100410040000000022
:1043300000030001100110011FFE1000100000001A
:1043400010041FFC110403801464181C10040000E6
:1043500010041FFC1004000400040004000C000002
:1043600010041FFC1F0000FC1F001FFC10040000B5
:1043700010041FFC0C04030000E010181FFC1000C8
:1043800007F00808100410041004080807F00000E3
:1043900010041FFC10841080108010800F0000009B
:1043A00007F0081810241024101C080A07F2000057
:1043B00010041FFC1104110011C011300E0C000478
:1043C00000000E1C11041084108410441C380000DE
:1043D0001800100010041FFC10041000180000004A
:1043E00010001FF810040004000410041FF810004F
:1043F00010001E0011E0001C007013801C00100053
:104400001FC0103C00E01F0000E0103C1FC0000077
:104410001004180C163401C001C01634180C100416
:1044200010001C00130400FC13041C00100000000A
:104430000804101C1064108413041C0410180000DD
:104440000000000000007FFE400240024002000029
:10445000000030000C0003800060001C000300001E
:1044600000004002400240027FFE00000000000009
:10447000000000002000400040004000200000003C
:104480000001000100010001000100010001000124
:10449000000040004000200000000000000000007C
:1044A00000000098012401440144014400FC000480
:1044B00010001FFC00880104010400880070000047
:1044C000000000700088010401040104008800005D
:1044D0000000007000880104010411081FFC0004A2
:1044E000000000F8014401440144014400C80000F8
:1044F0000000010401040FFC110411041100180054
:10450000000000D601290129012901C90106000086
:1045100010041FFC008401000100010400FC0004E1
:1045200000000104190419FC00040004000000004C
:104530000000000300010101190119FE0000000044
:1045400010041FFC0024004001B4010C0104000011
:104550000000100410041FFC000400040000000010
:10456000010401FC0104010001FC0104010000FC44
:10457000010401FC008401000100010400FC0004AE
:10458000000000F8010401040104010400F8000027
:10459000010101FF00850104010400880070000092
:1045A00000000070008801040104010501FF000102
:1045B0000104010401FC00840104010001800000E9
:1045C000000000CC012401240124012401980000F2
:1045D00000000100010007F80104010400000000D0
:1045E000010001F8000400040004010801FC0004BB
:1045F000010001800170000C0010016001800100C9
:1046000001F0010C003001C00030010C01F001008C
:1046100000000104018C00740170018C0104000091
:10462000010101810171000E00180160018001008B
:1046300000000184010C013401440184010C0000DC
:10464000000000000000000001003EFC40024002AB
:104650000000000000000000FFFF0000000000005C
:104660000000400240023EFC01000000000000008B
:10467000000060008000800040004000200020001A
:1046800008200620407E318000017FE2400C4FF080
:1046900040087FE400001FE20001FFFE0000000070
:1046A0000400040104017DF555555555555555FF38
:1046B0005555555555557DF504010401040000007C
:1046C00000047CFC440447F844887C8800007FFE9A
:1046D0004422442244224422442247E24002000071
:1046E0002000207F20402F4021482B5CA56865C812
:1046F00025482B58214C2F422041207E20000000CD
:1047000048405740F55755555755F0D55F5540D55A
:1047100011553155EA5524552A57314021400000A2
:10472000082008220841FFFE0880090000007FFFE2
:10473000410141C241344908453479C200010000B9
:104740000000000000FF0082008200820082FF82E1
:10475000108210821082108210FF100010000000E2
:10476000080030022202248228822082A08260FE79
:104770002082208228822482220228023000000027
:10478000000000007FFE020402040208020800008C
:10479000FFFC01020202040208021002001E0000D7
:1047A00000000000006C006C000000000000000031
:1047B00000000000000000000000000000000000F9
:1047C00000000000000008000FF00400080007F0DF
:1047D0000800080007F000000000000000000000D2
:1047E000000000043E08411041203E4000800100CE
:1047F000027C04820882107C20004000000000003F
:1048000000000000000000000000000000000000A8
:104810000000000000000000000000000000000098
:104820004048000800000020440000006C0100081F
:1048300084480008440000202C0B00008801000878
:10484000200300000100000000A24A040000000054
:104850000000000001020304060708090000000030
:104860000102030401020304060708090204060802
:1048700000000000000000000000000000C00080F8
:044880000000000034
:0400000508000131BD
:00000001FF
