:020000040800F2
:10000000F8040020D5030008D9010008DB0100082E
:10001000DF010008E3010008E7010008000000001C
:10002000000000000000000000000000EB010008DC
:10003000ED01000800000000EF010008F1010008D8
:10004000EF030008EF030008EF030008EF030008C8
:10005000EF030008EF030008EF030008EF030008B8
:10006000EF030008EF030008EF030008EF030008A8
:10007000EF030008EF030008EF030008EF03000898
:10008000EF030008EF030008EF030008EF03000888
:10009000EF030008EF030008EF030008EF03000878
:1000A000EF030008EF030008EF030008EF03000868
:1000B000EF030008EF030008EF030008EF03000858
:1000C000EF030008EF030008EF030008EF03000848
:1000D000EF03000893100008EF030008EF03000887
:1000E000EF030008EF030008EF030008EF03000828
:1000F000EF030008EF030008EF030008EF03000818
:10010000EF030008EF030008EF030008EF03000807
:10011000EF030008EF030008EF030008EF030008F7
:10012000EF030008EF030008EF030008EF030008E7
:10013000DFF80CD000F0F2FF004800475101000842
:10014000F8040020002100E0491C8142FCD37047E4
:1001500008B50121242000F0D9FC4FF48070ADF8DF
:10016000000010208DF8030003208DF8020069467E
:10017000164800F00FFA4FF48071144800F0B7FAF7
:100180000420ADF800006946114800F003FA04218C
:100190000F4800F0ACFA17E04FF480710B4800F004
:1001A000A8FA04210A4800F0A2FA0A48FFF7CAFF99
:1001B0004FF48071054800F09AFA0421044800F0D9
:1001C00098FA0448FFF7BEFFE6E700000008014088
:1001D00000140140C0C62D00704700BFFEE700BFFD
:1001E000FEE700BFFEE700BFFEE7704770477047BD
:1001F000704700000CB50020019000906C4800682A
:1002000040F480306A49086000BF6948006800F423
:10021000003000900198401C0190009818B9019896
:10022000B0F5A06FF1D16248006800F4003010B161
:100230000120009001E0002000900098012843D1A7
:100240005C48006840F010005A49086008460068A1
:1002500020F0030008600846006840F002000860D3
:10026000534840685249486008464068486008461C
:10027000406840F4806048600846406820F47C1084
:1002800048600846406840F4E81048600846006846
:1002900040F08070086000BF4548006800F00070C2
:1002A0000028F9D04248406820F0030040494860E7
:1002B0000846406840F00200486000BF3C48406883
:1002C00000F00C000828F9D10CBD10B5FFF792FF23
:1002D00010BD10B53648006840F001003449086090
:1002E000084640683449084031494860084600687B
:1002F000324908402E4908600846006820F48020F2
:1003000008600846406820F4FE0048604FF41F0073
:100310008860FFF7DAFF4FF000602949086010BDE0
:1003200010B5002100200022214B5B6803F00C0176
:1003300021B1042906D0082928D107E0214B224CFD
:10034000236027E01F4B204C236023E0184B5B68A1
:1003500003F47010164B5B6803F48032022303EB46
:10036000904022B9194B4343174C23600DE0104BCA
:100370005B6803F4003323B1144B4343124C2360F6
:1003800003E0104B4343104C236003E00D4B0E4C35
:10039000236000BF00BF064B5B68C3F303130C4C24
:1003A000E15C094B1B68CB40074C236010BD00008B
:1003B00000100240002002400000FFF8FFFFF6FEA0
:1003C00008ED00E000127A000000002000093D0066
:1003D000040000200648804706480047FEE7FEE785
:1003E000FEE7FEE7FEE7FEE7FEE7FEE7FEE7FEE7E5
:1003F000D30200083101000831490143314A11603C
:10040000704770B5002100230F22C47804B32D4C2F
:10041000246804F4E064C4F5E064210AC1F1040333
:10042000CA40447804FA03F1847814402143090156
:10043000254C0678A155047804F01F050124AC4032
:1004400005786D11AD0005F1E025C5F8004109E022
:10045000047804F01F050124AC401C4D0678761189
:1004600045F8264070BD1A4A0A400243154B1B1F2F
:100470001A60704739B1134A121D12680243114BBA
:100480001B1D1A6006E00F4A121D126882430D4BB5
:100490001B1D1A607047042808D14FF0E02109693C
:1004A00041F004014FF0E022116107E04FF0E0213C
:1004B000096921F004014FF0E0221161704700004A
:1004C0000000FA050CED00E000E400E080E100E04F
:1004D00080FFFF1F10B50446CC48844208D101219B
:1004E000042000F02DFB0021042000F029FB46E051
:1004F000C748844208D10121082000F021FB0021D7
:10050000082000F01DFB3AE0C248844208D10121D6
:10051000102000F015FB0021102000F011FB2EE050
:10052000BD48844208D10121202000F009FB0021B0
:10053000202000F005FB22E0B848844208D10121C8
:10054000402000F0FDFA0021402000F0F9FA16E00A
:10055000B348844208D10121802000F0F1FA002143
:10056000802000F0EDFA0AE0AE48844207D1012174
:10057000801500F0E5FA0021A01500F0E1FA10BDA9
:1005800010B50121084600F0DBFA0021012000F03F
:10059000D7FA10BD2DE9F0410246002500260020C3
:1005A00000230024002791F803C00CF00F0591F8F8
:1005B00003C00CF0100CBCF1000F03D091F802C086
:1005C0004CEA050591F800C0BCF1000F31D0146869
:1005D00000202BE04FF0010C0CFA00F3B1F800C042
:1005E0000CEA03069E4220D183004FF00F0C0CFA58
:1005F00003F7BC4305FA03FC4CEA040491F803C07A
:10060000BCF1280F06D14FF0010C0CFA00FCC2F827
:1006100014C00AE091F803C0BCF1480F05D14FF0B7
:10062000010C0CFA00FCC2F810C0401C0828D1D301
:100630001460B1F800C0BCF1FF0F34DD5468002035
:100640002EE000F1080C4FF0010808FA0CF3B1F8A5
:1006500000C00CEA03069E4221D183004FF00F0C2C
:100660000CFA03F7BC4305FA03FC4CEA040491F8C6
:1006700003C0BCF1280F05D100F1080C08FA0CF8F2
:10068000C2F8148091F803C0BCF1480F07D100F103
:10069000080C4FF0010808FA0CF8C2F81080401C52
:1006A0000828CED35460BDE8F0814FF6FF71018079
:1006B000022181700421C1707047024600209368B6
:1006C0000B400BB1012000E0002070470146886814
:1006D00080B2704702460020D3680B400BB1012066
:1006E00000E0002070470146C86880B27047016191
:1006F0007047416170470AB1016100E04161704794
:10070000C16070474FF480320A4382618161826127
:1007100082698269704702460020434B18684FF691
:100720008073184040EA021008433F4B186070473E
:100730003E49C8617047F0B50A46002300240021F5
:10074000002500F00046B6F1004F02D1364EF169A7
:1007500001E0354E7168C0F3034583B200F44016E2
:10076000B6F5401F08D121F070612F4E766826F053
:1007700070662D4F7E6012E000F48016B6F5801F83
:1007800006D1032606FA05F4A14341F0706106E0A4
:10079000460D360103FA06F6B14341F0706122B10D
:1007A000460D360103FA06F6314300F00046B6F175
:1007B000004F02D11C4EF16101E01B4E7160F0BD93
:1007C00030B500228B071C0F0F2303FA04F2164BDF
:1007D00008338C1053F824309343134C08348D1095
:1007E00044F8253023468C1053F824308C07240F0E
:1007F00000FA04F423430C4C08348D1044F82530DF
:1008000030BD0A49DC310860704700000008014033
:10081000000C01400010014000140140001801408C
:10082000001C014000200140000001400000204267
:10083000DF48006840F00100DD4908600846406874
:10084000DC490840DA49486008460068DA4908404F
:10085000D74908600846006820F4802008600846F0
:10086000406820F4FE0048604FF41F008860704725
:10087000CF49096821F48031CD4A116011460968D9
:1008800021F480211160B0F5803F03D0B0F5802FB6
:100890000ED106E0C649096841F48031C44A1160AE
:1008A00007E0C349096841F4A021C14A116000E092
:1008B00000BF00BF704710B5014600220023002092
:1008C0004A11012A02D1BA4C236806E0022A02D159
:1008D000B74C236A01E0B64C636A01F01F020124A1
:1008E00094401C400CB1012000E0002010BD38B540
:1008F000002000900024002500BF3120FFF7DBFF1F
:1009000005460098401C00900098B0F5A06F01D0FB
:10091000002DF2D03120FFF7CEFF08B1012400E016
:100920000024204638BD01460020A14A106820F06E
:10093000F80040EAC10010607047A04908607047A5
:10094000024600209A4B586820F47C1042EA0103CA
:100950001843974B5860704798490866704701469E
:100960000020934A506820F003000843506070470D
:100970008F48406800F00C007047014600208C4A08
:10098000506820F0F0000843506070470146002096
:10099000874A506820F4E060084350607047014681
:1009A0000020834A506820F4605040EAC100506043
:1009B000704729B17E4A527A02437D4B5A7204E055
:1009C0007B4A527A82437A4B5A7270477B49D831BC
:1009D0000860704701460020754A506820F4404086
:1009E0000843506070470021714A20321170704AEC
:1009F00082F82010012802D004280AD104E0012145
:100A00006B4A2032117005E00521694A20321170CD
:100A100000E000BF00BF7047694908607047644943
:100A2000096A0143624A11627047654944390860A6
:100A3000704730B500210022002400235C4D6D6812
:100A400005F00C0121B1042905D0082923D105E0C6
:100A50005C4D056022E05B4D05601FE0544D6D6804
:100A600005F47012524D6D6805F48034022505EBD3
:100A700092421CB9544D554305600BE04C4D6D68D6
:100A800005F400351DB1504D5543056002E04D4D54
:100A90005543056002E04B4D056000BF00BF444D6B
:100AA0006D6805F0F0010909484D6B5C0568DD4093
:100AB00045603F4D6D6805F4E061090A434D6B5C8C
:100AC0004568DD4085603A4D6D6805F46051C90A9E
:100AD0003E4D6B5C4568DD40C560354D6D6805F485
:100AE0004041890B3A4D6B5CC568B5FBF3F5056178
:100AF00030BD29B12E4A526902432D4B5A6104E0A0
:100B00002B4A526982432A4B5A61704729B1284ABD
:100B100092690243264B9A6104E0254A9269824316
:100B2000234B9A61704729B1214AD2690243204B75
:100B3000DA6104E01E4AD26982431D4BDA617047D4
:100B400029B11B4AD2680243194BDA6004E0184A03
:100B5000D2688243164BDA60704729B1144A126991
:100B60000243134B1A6104E0114A12698243104B8D
:100B70001A61704712494039086070470F49C864CC
:100B800070470B49C87170470948406A40F080704F
:100B900007494862704701460020054A92680A40AA
:100BA0000AB1012000E000207047014988727047B7
:100BB000001002400000FFF8FFFFF6FE0000424276
:100BC0008004424200127A0000093D001400002017
:100BD0002400002010B50446FB48844209D10121BD
:100BE0008803FFF7ADFF00214FF48040FFF7A8FF17
:100BF00032E0F648844209D101214804FFF7ADFFF5
:100C000000214FF40030FFF7A8FF25E0F0488442B0
:100C100009D101218804FFF7A0FF00214FF48020B3
:100C2000FFF79BFF18E0EB48844209D10121C8047B
:100C3000FFF793FF00214FF40020FFF78EFF0BE03A
:100C4000E548844208D101210805FFF786FF00210D
:100C50004FF48010FFF781FF10BD2DE9F04786B0FB
:100C600005460E460024A24600BFA1460027B089D3
:100C700000B100BF2F462C8A4CF6FF700440F0886C
:100C800004432C82AC894EF6F3100440B0883189BD
:100C90000843718908430443AC81AC8A4FF6FF4096
:100CA0000440B0890443AC8201A8FFF7C2FEC648E5
:100CB000874202D1DDF810A001E0DDF80CA0A88980
:100CC00000F4004040B10AEBCA0000EB0A103168A2
:100CD0004900B0FBF1F807E00AEBCA0000EB0A108C
:100CE00031688900B0FBF1F86420B8FBF0F0040132
:100CF0002009642101FB1089A88900F4004040B15B
:100D0000322000EBC900B0FBF1F000F00700044313
:100D100008E0322000EB09106421B0FBF1F000F094
:100D20000F0004432C8106B0BDE8F0874FF4165144
:100D3000016000218180C18001810C21418100215D
:100D40008181704710B502460020108A4FF2FF03E0
:100D500018400B884C8823438C882343CC8823433A
:100D60001843108210BD0021018041808180C18024
:100D7000704721B1828942F40052828104E0828965
:100D80004DF6FF731A4082817047F0B50346002488
:100D900000260025002040F66A17B94200D100BFA6
:100DA0001846C1F3421401F01F06012707FA06F5A1
:100DB000012C01D10C3004E0022C01D1103000E0F4
:100DC00014301AB107682F43076002E00768AF4389
:100DD0000760F0BD1AB1838A0B43838202E0838AE5
:100DE0008B4383827047028A4FF6F0731A40028267
:100DF000028A0A430282704782894FF2FF731A40C7
:100E0000828182890A438281704721B1828942F0BE
:100E10000202828104E082894FF6FD731A408281CA
:100E20007047028A4FF6DF731A400282028A0A4331
:100E30000282704721B1028A42F48042028204E0B9
:100E4000028A4BF6FF731A4002827047C1F3080210
:100E50008280704701468888C0F308007047818906
:100E600041F0010181817047028BD2B20283028B73
:100E700042EA012202837047028B02F47F4202831E
:100E8000028B0A430283704721B1828A42F020021A
:100E9000828204E0828A4FF6DF731A4082827047B2
:100EA00021B1828A42F01002828204E0828A4FF6E7
:100EB000EF731A408282704721B1828A42F00802A1
:100EC000828204E0828A4FF6F7731A40828270476A
:100ED00021B1828942F40042828103E08289C2F317
:100EE0000E028281704721B1828A42F400628282BE
:100EF00004E0828A4FF2FF731A4082827047828A2E
:100F00004FF6FB731A408282828A0A4382827047BC
:100F100021B1828A42F00202828204E0828A4FF684
:100F2000FD731A408282704702460020B1F5007FAF
:100F300000D100BF13880B400BB1012000E000205E
:100F4000704701F40072B2F5007F00D100BFCA43C0
:100F50000280704770B5024600240023002500205F
:100F600040F66A16B14200D100BFC1F3421501F04C
:100F70001F03012606FA03F3012D02D1968933409F
:100F800006E0022D02D1168A334001E0968A3340F2
:100F90000C12012606FA04F41688344013B10CB181
:100FA000012000E0002070BD10B50022002340F6B3
:100FB0006A14A14200D100BF0A1201249440A3B2D6
:100FC000DC43048010BD00000038014000440040B4
:100FD00000480040004C004000500040014600BF67
:100FE000704700BF494A128802F04002002AF9D037
:100FF000C2B2464B1B1D1A80704710B586B004461E
:10100000012144F20400FFF781FD4FF40070ADF8B8
:10101000140003208DF8160018208DF8170005A97C
:101020003B48FFF7B7FA4FF48060ADF81400042096
:101030008DF8170005A93648FFF7ACFA25208DF882
:10104000000003208DF801008DF8020001208DF8CA
:1010500003006846FFF7D5F901940020ADF80800B9
:10106000ADF80A00ADF80C00ADF810000C20ADF89A
:101070000E0001A92548FFF7F0FD012240F225519D
:101080002248FFF782FE01212048FFF772FE06B0DA
:1010900010BD10B540F225511C48FFF75BFF10B39F
:1010A0001A48FFF7D7FEC4B21A48008800F400407F
:1010B000C8B91848008800F4804060B10A2C03D0F9
:1010C00000201449088020E01248008840F40040C5
:1010D0001049088019E00D2C06D10E48008840F414
:1010E00080400C49088010E00A480088C0F30D00D9
:1010F00009490C5407480088401C064908800846E6
:101100000088C72801DD0020088010BD003801409C
:10111000000801402C00002030000020064C074D44
:1011200006E0E06840F0010394E8070098471034B7
:10113000AC42F6D3FFF700F86011000880110008F8
:1011400002E008C8121F08C1002AFAD17047704790
:10115000002001E001C1121F002AFBD170470000EE
:10116000801100080000002030000000401100083D
:10117000B011000830000020C80400005011000821
:1011800000A24A0400000000000000000102030465
:10119000060708090000000001020304010203041D
:1011A000060708090204060800000000000000000D
:0400000508000131BD
:00000001FF
