:020000040800F2
:1000000028040020450100084D0100084F010008A8
:1000100051010008530100085501000800000000CC
:100020000000000000000000000000005701000870
:1000300059010008000000005B0100085D01000894
:100040005F0100085F0100085F0100085F01000810
:100050005F0100085F010008B90100085F010008A6
:100060005F0100085F0100085F0100085F010008F0
:100070005F0100085F0100085F0100085F010008E0
:100080005F0100085F0100085F0100085F010008D0
:100090005F0100085F0100085F0100085F010008C0
:1000A0005F0100085F0100085F0100085F010008B0
:1000B0005F0100085F0100085F0100085F010008A0
:1000C0005F0100085F0100085F0100085F01000890
:1000D0005F0100085F0100085F0100085F01000880
:1000E0005F0100085F0100085F0100085F01000870
:1000F0005F0100085F0100085F0100085F01000860
:100100005F0100085F0100085F0100085F0100084F
:100110005F0100085F0100085F0100085F0100083F
:100120005F0100085F0100085F0100085F0100082F
:10013000DFF80CD000F02EF800480047B9050008A1
:10014000280400200648804706480047FEE7FEE7EF
:10015000FEE7FEE7FEE7FEE7FEE7FEE7FEE7FEE777
:10016000250300083101000830B50B460146002088
:100170002022012409E021FA02F59D4205D303FA69
:1001800002F5491B04FA02F52844151EA2F10102EA
:10019000F1DC30BD064C074D06E0E06840F001039D
:1001A00094E8070098471034AC42F6D3FFF7C4FF39
:1001B000E00600080007000810B51A48006800F0C3
:1001C000010040B14FF08040008840F001004FF046
:1001D0008041088022E04FF08040008820F001003C
:1001E0004FF080410880012088828007808C0E4972
:1001F000086008460068AA21484342F2107190FB4B
:10020000F1F0094908600846016808A000F0BAF852
:10021000002000E0401C07498842FBDB0120064922
:10022000086010BD08080140000000202564636DCF
:1002300020202000C0C62D001404014010B500F09D
:1002400001F810BD0CB50020019000903348006803
:1002500040F480303149086000BF3048006800F445
:10026000003000900198401C0190009818B9019846
:10027000B0F5A06FF1D12948006800F4003010B14A
:100280000120009001E0002000900098012843D157
:100290002348006840F010002149086008460068C3
:1002A00020F0030008600846006840F00200086083
:1002B0001A4840681949486008464068486008463E
:1002C000406840F4806048600846406820F47C1034
:1002D00048600846406840F4E810486008460068F6
:1002E00040F08070086000BF0C48006800F00070AB
:1002F0000028F9D00948406820F003000749486009
:100300000846406840F00200486000BF034840686B
:1003100000F00C000828F9D10CBD000000100240CC
:100320000020024010B51348006840F00100114958
:10033000086008464068104908400E494860084671
:1003400000680E4908400B4908600846006820F420
:10035000802008600846406820F4FE0048604FF4A2
:100360001F008860FFF76AFF4FF0006004490860D3
:1003700010BD0000001002400000FFF8FFFFF6FE75
:1003800008ED00E00FB4054B10B503A9044A02982C
:1003900000F018F810BC5DF814FB00004D050008D3
:1003A0002400002002E008C8121F08C1002AFAD168
:1003B00070477047002001E001C1121F002AFBD1E5
:1003C000704700002DE9FF4F89B09B460446002589
:1003D00006E025280BD05A460B999047641C6D1CEB
:1003E00020780028F5D10DB02846BDE8F08F002711
:1003F000B8460122474900E0074314F8013F203B7B
:1004000002FA03F00842F7D120782E2819D114F807
:10041000010F47F004072A280ED06FF02F02207832
:10042000A0F1300109290CD808EB880102EB410149
:1004300000EB0108641CF2E70A98641C50F8048B76
:100440000A9020780028CED0642808D0692806D0E9
:1004500075281ED05A460B9990476D1C58E00A9992
:100460004FF00A0901C90A91002802DA40422D2101
:1004700002E0390504D52B218DF82010012103E07D
:10048000F90704D02021F7E78A4608AE0DE00021E5
:10049000FAE70A994FF00A0901C90A91F7E74946B4
:1004A000FFF762FE303106F8011D0028F7D1ADEBF1
:1004B000060000F12009780701D44FF00108C84573
:1004C00002DDA8EB090000E000208046002706E0DE
:1004D00008A85A46C05D0B9990476D1C7F1C574574
:1004E000F6DB04E030205A460B9990476D1CB8F1BA
:1004F0000001A8F10108F5DC05E016F8010B5A46E9
:100500000B9990476D1CB9F10001A9F10109F4DCC8
:10051000641C65E709280100411E0B4A1180472130
:10052000121F11800121084A183A11800921064A38
:100530002C3A118000BF04492C39098801F00101CF
:100540000029F8D1704700002C2C014002460E48CB
:10055000814216D10A2A0AD100BF0C48008800F057
:1005600080000028F9D00D20084B1B1D188000BF0B
:100570000648008800F080000028F9D0034B1B1DBE
:100580001A8000207047000024000020003801403D
:1005900000B50848006840F00200064908601420D1
:1005A000FFF7BAFF0348006820F002000149086025
:1005B00000BD00000C08014044F605003249886186
:1005C0000120C861314800684FF6F071884343F25A
:1005D000B04108442D490860081F006820F0FF0062
:1005E00040F03400091F0860294800684FF4165194
:1005F000B0FBF1F02749088042F20C00091D088089
:1006000025A0FFF7BFFE3248006931490861314833
:10061000006840F001002F4908602E48083000684B
:1006200040F001002B4908310860081D006840F0C7
:100630000100091D08604FF6FF704FF0804188856A
:100640004720088501208882088006200121002893
:1006500007DA0A07140E204A00F00F031B1FD454B8
:1006600003E00A07130E1D4A135400BF06200121A0
:1006700081404209920002F1E022C2F8001100BF5D
:1006800001E0FFF785FFFCE700100240040801408D
:1006900010000020083801402A2A2A2A2A2A2A2A59
:1006A0002A2A2A2A2A2A2A2A2A2A73746D33326687
:1006B000313033726374362048432D535230342A1C
:1006C0002A2A2A2A2A2A2A2A2A2A2A2A2A0A0000FE
:1006D000000001400004014018ED00E000E400E0EB
:1006E000000700080000002028000000A403000804
:1006F000280700082800002000040000B4030008B8
:1007000000000000000000000000000000000000E9
:1007100000A24A04000000000000000001020304DF
:080720000607080900000000B3
:0400000508000131BD
:00000001FF
