:020000040800F2
:10000000700B0020ED010008491500087D14000860
:100010004515000847130008832A00080000000067
:10002000000000000000000000000000A11F000808
:100030004B13000800000000311D0008B520000827
:10004000070200080702000807020008070200086C
:10005000070200080702000807020008070200085C
:10006000070200080702000807020008070200084C
:10007000070200080702000807020008070200083C
:10008000070200080702000807020008070200082C
:10009000070200080702000807020008070200081C
:1000A000070200080702000807020008070200080C
:1000B00007020008A524000807020008070200083C
:1000C00007020008070200080702000807020008EC
:1000D000070200086128000807020008070200085C
:1000E00007020008070200080702000807020008CC
:1000F00007020008070200080702000807020008BC
:1001000007020008070200080702000807020008AB
:10011000070200080702000807020008070200089B
:10012000070200080702000807020008070200088B
:1001300000F002F800F04AF80AA090E8000C8244AF
:100140008344AAF10107DA4501D100F03FF8AFF28C
:10015000090EBAE80F0013F0010F18BFFB1A43F0A5
:1001600001031847B8600000D8600000103A24BFAF
:1001700078C878C1FAD8520724BF30C830C144BF0C
:1001800004680C607047000000230024002500264E
:10019000103A28BF78C1FBD8520728BF30C148BFEA
:1001A0000B607047662903F0C487642900F04C8017
:1001B000002070471FB500F087FB040000200021DD
:1001C00002F0FAFFE0601FBD10B510BD00F094FC16
:1001D0001146FFF7EFFF02F0DBFD00F0B2FC03B4C5
:1001E000FFF7F2FF03BC02F069FC000009488047FA
:1001F00009480047FEE7FEE7FEE7FEE7FEE7FEE709
:10020000FEE7FEE7FEE7FEE704480549054A064B20
:1002100070470000B9200008310100087005002077
:10022000700B00207007002070070020704700004E
:100230000FB4044910B503AA029800F033FB10BCB8
:100240005DF814FB2C0000202DE9F0410646002447
:1002500010687529314616A510D0AFF3008000282C
:1002600002DA404213A507E031688A0701D512A5DA
:1002700002E0490704D511A5012401E0AFF3008095
:1002800000210A2206F1240709E0B0FBF2FCB0FBD2
:10029000F2F302FB1C00303078541846491C002849
:1002A000F3D123462A463046BDE8F04100F093B82A
:1002B000000000002D0000002B00000020000000C6
:1002C0002DE9F0474FF0000A89460446C0F820A007
:1002D0002046E1688847002876D0252806D0D4E952
:1002E00001219047206A401C2062F1E7E168204626
:1002F00000258847C4F81CA006460027C4F818A0AB
:100300002A2E09D0304602F0D2FB38B304EB87081E
:10031000303EC8F8186019E059F8041B204604EB79
:1003200087029161E1688847012F064618D1E0698C
:10033000002820DA25F020051DE0D8F8180000EB91
:10034000800006EB40003038C8F818002046E1680D
:100350008847064602F0ABFB0028EED1012F0AD0F9
:100360002E2E08D12046E16888477F1C0646022FC2
:1003700045F02005C4DBA069002803DA404245F0BF
:100380000105A061E80701D025F01005B6B1A6F17E
:100390004100192802D8203645F400654A46314606
:1003A000204625604D46FFF7FDFE58B1012806D0D6
:1003B000ED1D25F0070000F1080989E704E005F1CB
:1003C000040985E730468AE7206ABDE8F087704770
:1003D0007047704770472DE9F0470D4699469246A1
:1003E000044600F124080168880604D5E06921F07C
:1003F0001001216000E00120A84201DD471B00E060
:100400000027A1697A1902EB0900081AA061207877
:10041000C00602D42046AFF30080002608E0D4E9ED
:1004200001211AF806009047206A401C761C2062C1
:100430004E45F4DB2078C0060AD52046AFF3008095
:1004400006E0D4E9012130209047206A401C206258
:10045000381EA7F10107F4DC07E0D4E9012118F800
:1004600005009047206A401C2062281EA5F1010566
:10047000F3DC2046AFF300802078000602D502208E
:10048000BDE8F0870120FBE770472DE9FF4F0C46E0
:100490001E464FF0FF378BB0D2E90001DDF86080D7
:1004A0000A908A46C1F30A5505B93D46002108461F
:1004B0004FF00000BAF1000F00F4400005DA00EB45
:1004C00080004FF4400101EA50004FEA9059B9F121
:1004D000010F00DDB9460A9850EA4A000ED044F6F2
:1004E0001050A5F2FF3545432F14B8F1000F1ED070
:1004F0007542291E1EDDC9F100021CE0B8F1010F92
:100500004FF0000001D0302103E0F24305E0215418
:10051000401CB042FBDB30460022002121540B99E5
:10052000C1F80880C1E900200FB0BDE8F08FBD1B05
:100530006D1CDEE74A4600DA694206A800F066FA5A
:1005400006AB93E8070003AB83E8070050460A991F
:1005500000F03EFB8DE80700A0F500501F3800902A
:100560000398002D09DD42F21F014A46084403A901
:100570000390684600F09DFD08E0A0F500504A4653
:100580001F3803A90390684600F0A7FD8DE8070017
:100590000004000C03D04FF0FF30410800E010468B
:1005A000B8F1000F03D00022009215461EE0751E20
:1005B00005D400F08DF9303262556D1EF9D5B34681
:1005C0000122084302D000227F1C04E0207830285A
:1005D00001D100227F1E002A099786D01DE0112D2F
:1005E00007DA00F075F9303262556D1C50EA0102ED
:1005F000F5D1084302D00098C8B10EE00021681E72
:1006000005E0235C625C63542254401E491C814215
:10061000F7DBAB46A81B401E0990002004F80B0036
:100620000B98099AC0F80880C0E9002B7CE71126D6
:100630004FF0000859E72DE9F04F88460446D21DD7
:1006400022F0070191B0D1E90001CDE90A0102F0E1
:100650001AFA02460B98C00F01D02D2007E020683F
:10066000810701D52B2002E0202101EAC000032AE6
:10067000099001D0072A05DB03464146204600F0D9
:1006800085F90BE12078800601D5E06900E00620BD
:10069000B8F1650F814606D0B8F1660F18D0B8F1F1
:1006A000670F70D131E00020B9F1110F009001DB2C
:1006B000112301E009F101030AAA01A90CA8FFF71F
:1006C000E4FEDDE90C70002609F10105834647E0F0
:1006D00001204B4600904FF000470AAA01A90CA840
:1006E000FFF7D3FEDDE90DB00C995D46002610B989
:1006F00009F101000D18B9EB050003D4C0F1FF3674
:1007000009F10105A5EB09002BE0B9F1010F01DAB0
:100710004FF001090020B9F1110F0090484601DDAA
:10072000112300E003460AAA01A90CA8FFF7ADFEB9
:10073000DDE90C704D4600268346207800070AD478
:10074000AB4500DA5D4601A8012D04DD411911F821
:10075000011C302907D04F4502DA17F1040F04DAE3
:10076000012082460FE06D1EEEE7002F02DCED1B3C
:100770003E4403E0781CA84200DD7D1CB81B00F15C
:10078000010A4FF000472078000703D4AA4501DB97
:100790004FF0FF3A0021B7F1004F0DF143088DF8FB
:1007A000431024D002202B23002F01DA7F422D2377
:1007B0000A21021EA0F1010000DC5FB197FBF1FCF1
:1007C00097FBF1F201FB1C7C17460CF1300C08F88A
:1007D00001CDEEE7A8F1010003702188090501D5DC
:1007E000452100E06521A0F1010800F8011C0998ED
:1007F0000FA9A1EB0807FF1D00B10120411901EB72
:10080000EA70A1693844081A401EA0612078C00629
:1008100002D42046AFF30080099828B1D4E9012121
:100820009047206A401C20622078C00622D52046CE
:10083000AFF300801EE0002E04DBB34502DD01A80B
:10084000805D00E03020D4E901219047206A401CFF
:100850002062761CAAF101005FEA000A0AD100F0CA
:1008600033F8C0680168405CD4E901219047206AF0
:10087000401C2062281EA5F10105DCDC07E0D4E95C
:10088000012118F8010B9047206A401C2062381E95
:10089000A7F10107F3DC2046AFF30080032011B07D
:1008A00043E60000074B70B50D467B4400F05BF853
:1008B0000446284600F018F910B14FF0FF3070BD23
:1008C000204670BD5B2400000048704730050020C2
:1008D00030B5B0F10A024FEA900E71F100034EEA12
:1008E000817EB0EB0E0061EB91014FEA101E4EEAE3
:1008F000017E10EB0E0041EB11114FEA102E4EEA73
:10090000016E10EB0E0041EB11214FEA104E4EEA42
:10091000014E10EB0E0041EB1141401841F1000176
:100920004FEAD00040EA41704FEAD10110EB800558
:100930004FEA810444EA907444EB01046D1944EBDE
:100940000404521BA3414FF0000348BF0A3200D5F4
:1009500030BD401C41F1000130BD000001694A1C5E
:1009600002610878704700B58FB0CDE901310021F0
:10097000059105497944CDE9031011466846FFF712
:100980009FFC0FB000BD0000E5FFFFFF2DE9F04127
:100990001F46044603260168072A01F4006004DBB1
:1009A00008B116A505E016A503E008B115A500E0FD
:1009B00015A521F010002060A069C01EA0610FB134
:1009C000401EA0612046AFF300804FB1D4E9012161
:1009D00038469047206A401C2062C01C206206E016
:1009E000206AFAE7D4E9012115F8010B9047761E39
:1009F000F8D22046AFF30080BDE8F0814E414E00B2
:100A00006E616E00494E4600696E66002DE9F04742
:100A1000814616468AB0334878440DC88DE80D00EB
:100A200030487844801C03AC0DC884E80D0041F6C2
:100A30009B300844372190FBF1F290FBF1F5A5F1D2
:100A4000800501FB12041B3C02D56442012000E03A
:100A50000020DFF890A080460027FA44AAF1BE0AE1
:100A60000DE0E00709D03246684607EB47010AEB84
:100A7000810100F032FB8DE8070064107F1C002C20
:100A8000EFD1184F7F44AC3F18E0E80714D007EBD4
:100A900004100DF1180A90E80E008AE80E00C068F4
:100AA000F04201D198190890324606A903A800F037
:100AB00014FB03AB83E807006D10641C002DE4D128
:100AC00032466946B8F1000F03A802D000F0F1FAEF
:100AD00001E000F002FBC9E90001C9F808200AB0F2
:100AE000BDE8F087E8570000007B00F08000704709
:100AF00000487047100500207546FFF7F9FFAE4625
:100B000005006946534620F00700854618B020B519
:100B1000FFF77AFBBDE820404FF000064FF00007DA
:100B20004FF000084FF0000B21F00701AC46ACE895
:100B3000C009ACE8C009ACE8C009ACE8C0098D4602
:100B400070470446AFF300802046FFF748FB0000E3
:100B50004FF0013C50F8042B51F8043B9A4221D14C
:100B6000A2EB0C03934313EACC1317D150F8042BD8
:100B700051F8043B9A4215D1A2EB0C03934313EABC
:100B8000CC130BD150F8042B51F8043B9A4209D1F5
:100B9000A2EB0C03934313EACC13DBD04FF000001D
:100BA000704700BFD01A01BAB1FA81F101F0180103
:100BB00022FA01F0CB40C1F12001DBB2C0B2C01A71
:100BC0002CFA01F3D11A914311EAC311E6D170470F
:100BD0005FEA400C08BF91F0000F4FEA8C234FEA08
:100BE000C12243EA51514FEA1C5018BF00F5F040B2
:100BF0004FEA300018BF41F000415FEA6C5C00F042
:100C00002980BCF1FF3F08BF40F080407047130CC3
:100C100006BF12044FF0100C4FF0000C130E04BF6F
:100C200012020CF1080C130F04BF12010CF1040C9A
:100C3000930F04BF92000CF1020CD30F04BF5200BB
:100C40000CF1010C11464FF00002A0F11F00A0EBC7
:100C50000C00704711F0004F08BF704731F00041A1
:100C60003FF4D5AF0B0C06BF09044FF0100C4FF04A
:100C7000000C0B0E04BF09020CF1080C0B0F04BF93
:100C800009010CF1040C8B0F04BF89000CF1020C5C
:100C9000CB0F04BF49000CF1010CCCF12003A0EBF9
:100CA0000C0022FA03F302FA0CF241EA030100F10C
:100CB0000100704720F07F4C80EA030023F07F475B
:100CC000ACEB070303F57C5300F0004003F1FF0396
:100CD0002DE980494FEA154B09B44FEA144325EA40
:100CE0000B4E24EA03480FF2042606EB13274908AB
:100CF0003E785FEA320203FB0667C7F5000707FB91
:100D000006F64FEA54374FEAD64606F1020607FBCD
:100D1000066CCCF1005C4FEA1C472CEA074C07FB41
:100D200006F40CFB06F504EB15464FEA961634BFA5
:100D300000204FF000404FEAD13706FB07FC4FEA96
:100D40001C4C0CFB0BF7D21B03FB0CF761EB0701F0
:100D50000CFB0EF7B0EB074072EB17420CFB08F7E9
:100D600034BFA2EB0742B2EB074261EB17414FEAF7
:100D70000C444FEA910706FB07FC4FEA1C4C0CFBA6
:100D80000BF7B0EBC74072EB573203FB0CF734BFE5
:100D9000A2EBC742B2EBC74261EB57310CFB0EF737
:100DA000B0EBC70072EB57720CFB08F734BFA2EB35
:100DB000C702B2EBC70261EB5771039F4FEA816133
:100DC00041EA921104EBCC044FEAD1374FEA826238
:100DD00006FB07FC42EA90124FEA80604FEA1C4C87
:100DE0000CFB0BF7D21B03FB0CF761EB07010CFBB1
:100DF0000EF7B0EB074072EB17420CFB08F734BF5D
:100E0000A2EB0742B2EB074261EB17414FEA8C5568
:100E10004FEA910704EB9C2406FB07FC4FEA1C4CAD
:100E20000CFB0BF7B0EBC74072EB573203FB0CF730
:100E300034BFA2EBC742B2EBC74261EB57310CFBA8
:100E40000EF7B0EBC70072EB57720CFB08F734BF1C
:100E5000A2EBC702B2EBC70261EB577115EB4C2551
:100E60004FEA816141EA92114FEA82624FEAD1373B
:100E700042EA901206FB07FC44F100044FEA80604E
:100E80004FEA1C4C0CFB0BF7D21B03FB0CF761EB7E
:100E900007010CFB0EF7B0EB074072EB17420CFB9F
:100EA00008F734BFA2EB0742B2EB074261EB1741F0
:100EB00015EB1C154FEA813141EA92414FEA82322B
:100EC00042EA90424FEA80304FEA0C7644F1000447
:100ED00048EA03434EEA0B484FF0000EB2EB080C11
:100EE00071EB030724BF624639464EEB0E0E4FF0FE
:100EF000000B0018524149414BEB0B0BB2EB080CB5
:100F000071EB03077BF1000B24BF624639464EEBC1
:100F10000E0E4FF0000B0018524149414BEB0B0BEA
:100F2000B2EB080C71EB03077BF1000B24BF6246A8
:100F300039464EEB0E0E51EA020718BF46F0010685
:100F400016EB0E7655F1000254F1000103D5BDE811
:100F50008901BDE80088BDE88901BDE80048B619EF
:100F6000524141EB0101A3F10103704780807F7E74
:100F70007D7C7B7A7978777676757473727171700F
:100F80006F6E6E6D6C6C6B6A6A69686867666665C1
:100F90006464636362616160605F5F5E5E5D5D5C4F
:100FA0005C5B5B5A5A5959585857575656555555C0
:100FB0005454535352525251515050504F4F4F4E20
:100FC0004E4D4D4D4C4C4C4B4B4B4A4A4A4949496E
:100FD00048484847474747464646454545444444B0
:100FE000444343434342424242414141002B26D4C1
:100FF000770021D01CB54FEA370703B44FF010003B
:101000004FF010014FF000000FBCBDE810400BF195
:10101000010BBBF1010F08BF5FEA170722BF12F1F6
:10102000010211F101014FF0004143F1000300F012
:10103000004043EA00007047F9D35708DAE746EA70
:10104000064613F1400F4FEA16461FDD13F1200F3D
:10105000DFBF16430A46002120335B42C8D0C3F1EC
:10106000200746EA064602FA07F74FEA164646EA1E
:101070000706C3F1200722FA03F201FA07F721FA63
:1010800003F14FF0000342EA0702B1E746EA020625
:1010900046EA06464FEA164646EA0106BCBF46EA5D
:1010A0000646360C4FF000034FF000024FF00001EF
:1010B0009EE72DE9C048934630B491E8380007C850
:1010C00031EA400C48BF34EA430C03D5FFF7F2FD88
:1010D000FFF78CFFF0BCBDE800882DE9C0489346BF
:1010E00030B491E8380007C810F0804F08BF13F003
:1010F000804F03D100F005F8FFF778FFF0BCBDE8A2
:10110000008820F07F4780EA030023F07F4C07EB44
:101110000C03A3F57C5300F00040A3F1FE0392F012
:10112000000F00F0B38095F0000F00F077802DE9FC
:1011300001494FEA11404FEA144621EA004800FBFA
:1011400006FC24EA064708FB06F607FB08F800FB46
:1011500007F718EB06484CEB164C4FEA124B18EB0E
:1011600007484FEA15464CEB174022EA0B4E0BFBA3
:1011700006FC25EA06470EFB06F607FB0EFE0BFBF8
:1011800007F71EEB064E4CEB164C4FF000061EEB1D
:10119000074E4CEB174B18EB0B0840F1000018EB17
:1011A0000E0B58EB000840F100008F1A4FF00001C1
:1011B0003CBFC943661B14BFB5EB040C00213CBF08
:1011C000C943F61B4FEA17444EEA8E0E27EA044540
:1011D0004FEA1C4704FB07622CEA074C05FB07F7A4
:1011E0000CFB05F604FB0CFC16EB074642EB174222
:1011F00016EB0C4642EB1C421BEB060658EB0202B8
:10120000414146EA9E0601D5BDE80189B619524121
:1012100041EB0101A3F10103BDE801894FEA144547
:101220004FEA114724EA054621EA074C05FB07F47B
:1012300006FB07F70CFB06F105FB0CFC11EB074165
:1012400044EB17444FEA124711EB0C4144EB1C44AA
:1012500022EA074C05FB07F206FB07F70CFB06F634
:1012600005FB0CFC16EB074642EB174216EB0C464F
:1012700042EB1C456A1854F1000148BF7047B6198B
:10128000524141EB0101A3F10103704795F0000FBA
:1012900037D04FEA11424FEA144721EA024624EAC6
:1012A000074C02FB07F106FB07F70CFB06F402FBF9
:1012B0000CFC14EB074441EB17414FEA154714EBC4
:1012C0000C4441EB1C4125EA074C02FB07F506FBE9
:1012D00007F70CFB06F602FB0CFC16EB074645EB8A
:1012E000174516EB0C4645EB1C42121951F1000153
:1012F00048BF7047B619524141EB0101A3F1010308
:1013000070474FEA14454FEA114724EA054621EA9F
:10131000074C05FB07F106FB07F70CFB06F24FF045
:10132000000605FB0CFC12EB074241EB174112EBE8
:101330000C4251EB1C4148BF7047921841EB010130
:10134000A3F10103704700BFFEE770472DE9F041AC
:10135000024600250026002000230024002791F8E3
:1013600003C00CF00F0591F803C00CF0100CBCF199
:10137000000F03D091F802C04CEA050591F800C0B7
:10138000BCF1000F31D0146800202BE04FF0010CAD
:101390000CFA00F3B1F800C00CEA03069E4220D11B
:1013A00083004FF00F0C0CFA03F7BC4305FA03FC63
:1013B0004CEA040491F803C0BCF1280F06D14FF0A9
:1013C000010C0CFA00FCC2F814C00AE091F803C04A
:1013D000BCF1480F05D14FF0010C0CFA00FCC2F82B
:1013E00010C0401C0828D1D31460B1F800C0BCF173
:1013F000FF0F34DD546800202EE000F1080C4FF0A0
:10140000010808FA0CF3B1F800C00CEA03069E428A
:1014100021D183004FF00F0C0CFA03F7BC4305FAFF
:1014200003FC4CEA040491F803C0BCF1280F05D179
:1014300000F1080C08FA0CF8C2F8148091F803C007
:10144000BCF1480F07D100F1080C4FF0010808FA71
:101450000CF8C2F81080401C0828CED35460BDE8B8
:10146000F0810246002093680B400BB1012000E0A0
:1014700000207047416170470161704700BFFEE77F
:1014800008B50121042000F065FC48208DF8030018
:101490000120ADF8000069460148FFF757FF08BD7D
:1014A0000008014010B5044674B101211648FFF749
:1014B000D8FF48B91E2001F025FB01211248FFF793
:1014C000D0FF08B9012010BD1048007888B1012173
:1014D0000D48FFF7C6FF60B90A2001F013FB00209A
:1014E0000A49087001210848FFF7BBFF48B90220EC
:1014F000E9E701210448FFF7B4FF012801D10349BE
:1015000008700020DFE700000008014032000020E2
:1015100008B50121042000F01DFC10208DF8030007
:101520000001ADF8000003208DF802006946044870
:10153000FFF70CFF4FF480710148FFF79DFF08BDD6
:101540000008014000BFFEE7704710B54FF4A060EF
:1015500000F03AF810BD000070B5002100230F2202
:10156000C47804B3154C246804F4E064C4F5E06462
:10157000210AC1F10403CA40447804FA03F18478D3
:101580001440214309010E4C0678A155047804F05B
:101590001F050124AC4005786D11AD0005F1E02573
:1015A000C5F8004109E0047804F01F050124AC40AF
:1015B000044D0678761145F8264070BD0CED00E02C
:1015C00000E400E080E100E002490143024A1160CA
:1015D000704700000000FA050CED00E070B5002433
:1015E0000CE0002506E00020074901EBC501085585
:1015F000681CC5B2802DF6DB601CC4B2082CF0DB81
:1016000000F0DAF870BD000004010020F0B51446C7
:101610000B46CF1701EB5777C7F3C702CF1701EB84
:101620005777FF10A1EBC707FEB20123B340DDB22D
:101630004CB1134B03EBC0039B5C2B43104F07EBE8
:10164000C007BB541AE00E4B03EBC0039B5CDB43AB
:101650000B4F07EBC007BB54094B03EBC0039B5C6C
:101660002B43074F07EBC007BB54054B03EBC003ED
:101670009B5CDB43024F07EBC007BB54F0BD00008F
:101680000401002008B50121102000F063FB402078
:10169000ADF8000010208DF8030003208DF8020043
:1016A00069463E48FFF752FE00F0CEFB0021AE2017
:1016B00000F01AFB0021084600F016FB0021102064
:1016C00000F012FB0021402000F00EFB00218120E1
:1016D00000F00AFB0021CF2000F006FB0021A12032
:1016E00000F002FB0021C82000F0FEFA0021A62035
:1016F00000F0FAFA0021A82000F0F6FA00213F20BD
:1017000000F0F2FA0021D32000F0EEFA00210846A2
:1017100000F0EAFA0021D52000F0E6FA002180204E
:1017200000F0E2FA0021D92000F0DEFA0021F120D9
:1017300000F0DAFA0021DA2000F0D6FA00211220B7
:1017400000F0D2FA0021DB2000F0CEFA0021402088
:1017500000F0CAFA0021202000F0C6FA0021022081
:1017600000F0C2FA00218D2000F0BEFA0021142002
:1017700000F0BAFA0021A42000F0B6FA0021A62059
:1017800000F0B2FA0021AF2000F0AEFA0021AF2045
:1017900000F0AAFAFFF722FF08BD00000010014088
:1017A00010B50246012000E050430B00A1F10104F6
:1017B000E1B2F9D110BD000070B500241CE004F1C5
:1017C000B001C8B2002100F08FFA0021084600F0F5
:1017D0008BFA0021102000F087FA002508E0084964
:1017E00001EBC501085D012100F07EFA681CC5B25D
:1017F000802DF4DB601CC4B2082CE0DB70BD00005F
:10180000040100202DE9FE4F0746884692461C46FB
:101810000197CDF80080082C02D14FF006091FE097
:101820002046E31704EB5373DB1021464FEAE47CB8
:1018300004EB5C7C4FEAEC0CA4EBCC0CBCF1000F8D
:1018400002D04FF0010C01E04FF0000C634422463F
:1018500004EBD27C4FEA6C0C03FB0CF303F0FF09A2
:10186000AAF12000C6B200255EE0082C07D106EBE5
:1018700046002F4901EB400010F805B01DE00C2C8C
:1018800007D106EB46002B4901EB800010F805B0AC
:1018900013E0102C05D1284800EB061010F805B015
:1018A0000BE0182C07D106EBC600244901EB8000A1
:1018B00010F805B001E0BDE8FE8F002002901CE0AA
:1018C0000BF0080028B1414638460C9AFFF79EFEFF
:1018D00009E00C9808B9012000E0002002464146CA
:1018E0003846FFF793FE4FEA6B0B08F1010000F05A
:1018F000FF080298401CC0B2029002980828DFDB63
:10190000781CC7B2082C0BD004EBD4714A10019993
:10191000791A8A4204D1019F00980830C0B2009021
:10192000DDF80080681CC5B24D459EDB00BFC2E7F4
:10193000364100085E430008D2470008C24D000847
:101940002DE9FF4F82B0064691461F46DDE90F4A5A
:101950004FF0000B082C01D14FF0020B002530E0B6
:10196000781B401EC1B20A20FFF71AFFB9FBF0F046
:101970000A21B0FBF1F201FB1208B8F1000F0ED101
:1019800004EBD4710BEB610101FB0561C8B2234686
:101990003022CDE900A40399FFF734FF0FE004EBF8
:1019A000D4710BEB610101FB0561C8B208F1300194
:1019B000CAB22346CDE900A40399FFF723FF681CB0
:1019C000C5B2BD42CCDB06B0BDE8F08F2DE9F841D1
:1019D00006460F4614461D46DDF81C8013E0CDF880
:1019E000008022782B4639463046FFF70BFF082D42
:1019F00002D1B01DC6B205E0284605EBD07106EB5A
:101A00006101CEB2641C2078202802DB20787E2879
:101A1000E5DDBDE8F88100002DE9FC4F05460F46E5
:101A200090461C46A946BA462046E21704EB52727D
:101A3000D2102146E31704EB5373DB10A4EBC3036E
:101A40000BB1012300E000231A4462431FFA82FB1A
:101A5000002635E01C4800EB4810805D0090002017
:101A600001901CE0009800F0010028B1394628469A
:101A70000B9AFFF7CBFD09E00B9808B9012000E0B5
:101A80000020024639462846FFF7C0FD0098401066
:101A90000090781CC7B20198401CC0B20190019818
:101AA0000828DFDB681CC5B2A5EB0900A04204D101
:101AB0004D460AF1080000F0FF0A5746701C86B236
:101AC0005E45C7DBBDE8FC8F866000082DE9FC4F52
:101AD00005460F4690461C46A946BA462046E217E0
:101AE00004EB5272D2102146E31704EB5373DB1060
:101AF000A4EBC3030BB1012300E000231A446243AB
:101B00001FFA82FB002635E01C4800EB4810805D80
:101B10000090002001901CE0009800F0010028B126
:101B2000394628460B9AFFF771FD09E00B9808B972
:101B3000012000E00020024639462846FFF766FDF6
:101B4000009840100090781CC7B20198401CC0B2A9
:101B5000019001980828DFDB681CC5B2A5EB0900DD
:101B6000A04204D14D460AF1080000F0FF0A574692
:101B7000701C86B25E45C7DBBDE8FC8F666100085D
:101B80002DE9FC4F05460F4690461C46A946BA462D
:101B90002046E21704EB5272D2102146E31704EB01
:101BA0005373DB10A4EBC3030BB1012300E000234C
:101BB0001A4462431FFA82FB002635E01C4800EB02
:101BC0004810805D0090002001901CE0009800F01B
:101BD000010028B1394628460B9AFFF717FD09E0A6
:101BE0000B9808B9012000E000200246394628463B
:101BF000FFF70CFD009840100090781CC7B20198C8
:101C0000401CC0B2019001980828DFDB681CC5B2F7
:101C1000A5EB0900A04204D14D460AF1080000F0EE
:101C2000FF0A5746701C86B25E45C7DBBDE8FC8FD5
:101C3000066000082DE9FC4F05460F4690461C46FD
:101C4000A946BA462046E21704EB5272D21021464A
:101C5000E31704EB5373DB10A4EBC3030BB10123B5
:101C600000E000231A4462431FFA82FB002635E09D
:101C70001C4800EB4810805D0090002001901CE0A3
:101C8000009800F0010028B1394628460B9AFFF76A
:101C9000BDFC09E00B9808B9012000E000200246D5
:101CA00039462846FFF7B2FC009840100090781C97
:101CB000C7B20198401CC0B2019001980828DFDB30
:101CC000681CC5B2A5EB0900A04204D14D460AF13B
:101CD000080000F0FF0A5746701C86B25E45C7DB5D
:101CE000BDE8FC8F0661000870B505460C4624B1BE
:101CF00040210D48FFF7C0FB03E040210A48FFF7F1
:101D0000B9FB4FF480510948FFF7B4FB284600F0B7
:101D1000F9F84FF480510548FFF7AEFB4021024827
:101D2000FFF7AAFB70BD000000100140000C01404D
:101D30007047000029B1064AD2690243044BDA61B8
:101D400004E0034AD2698243014BDA617047000024
:101D50000010024029B1064A92690243044B9A617D
:101D600004E0034A92698243014B9A617047000084
:101D70000010024030B500210022002400232D4D28
:101D80006D6805F00C0121B1042905D0082923D183
:101D900005E0294D056022E0274D05601FE0254D37
:101DA0006D6805F47012234D6D6805F480340225CA
:101DB00005EB92421CB9214D554305600BE01D4DCA
:101DC0006D6805F400351DB11C4D5543056002E0FA
:101DD000194D5543056002E0174D056000BF00BF77
:101DE000144D6D6805F0F0010909154D6B5C05682F
:101DF000DD4045600F4D6D6805F4E061090A104D46
:101E00006B5C4568DD4085600A4D6D6805F4605186
:101E1000C90A0B4D6B5C4568DD40C560054D6D68BA
:101E200005F44041890B074D6B5CC568B5FBF3F5C4
:101E3000056130BD0010024000127A0000093D002B
:101E4000140000202400002000B587B00121880381
:101E5000FFF770FF01210820FFF77CFF4FF42040BF
:101E6000ADF8040003208DF8060018208DF8070057
:101E700001A92248FFF76AFA4FF4A040ADF8040028
:101E800003208DF8060010208DF8070001A91B48DB
:101E9000FFF75CFA4FF480411848FFF7EBFA4FF474
:101EA00080411648FFF7E8FA4FF480511348FFF7D6
:101EB000E1FA0020ADF808004FF48270ADF80A0096
:101EC0000020ADF80C000220ADF80E000120ADF8A6
:101ED00010004002ADF812000020ADF81400ADF87B
:101EE00016000720ADF8180002A9054800F03AF8DE
:101EF0000121034800F02AF807B000BD000C0140A2
:101F0000003800400246002105E0491CB1F5FA6F97
:101F100001D9002070470C48008800F0020000281A
:101F2000F3D00948001D0280002105E0491CB1F5ED
:101F3000FA6F01D90020EDE70348008800F00100A6
:101F40000028F3D00020E5E70838004021B10288DE
:101F500042F04002028004E002884FF6BF731A404C
:101F60000280704710B50022028802F441520B88AB
:101F70004C8823438C882343CC8823430C892343F8
:101F80004C8923438C892343CC8923431A43028001
:101F9000838B4FF2FF74234083830B8A038210BD2F
:101FA000704710B500F002F810BD00000CB500201D
:101FB000019000903348006840F480303149086057
:101FC00000BF3048006800F4003000900198401CC9
:101FD0000190009818B90198B0F5A06FF1D1294887
:101FE000006800F4003010B10120009001E00020F2
:101FF00000900098012843D12348006840F0100069
:10200000214908600846006820F00700086008467B
:10201000006840F0020008601A48406819494860AA
:102020000846406848600846406840F48060486060
:102030000846406820F47C1048600846406840F438
:10204000E81048600846006840F08070086000BFF3
:102050000C48006800F000700028F9D0094840687A
:1020600020F00300074948600846406840F002003D
:10207000486000BF0348406800F00C000828F9D110
:102080000CBD00000010024000200240042808D1CE
:102090004FF0E021096941F004014FF0E0221161A5
:1020A00007E04FF0E021096921F004014FF0E02240
:1020B000116170477047000010B51348006840F088
:1020C00001001149086008464068104908400E495F
:1020D0004860084600680E4908400B4908600846F9
:1020E000006820F4802008600846406820F4FE0064
:1020F00048604FF41F008860FFF753FF4FF0006007
:102100000449086010BD0000001002400000FFF804
:10211000FFFFF6FE08ED00E0F0B50C461546002284
:102120000021068C4FF6FE773E400684028B018C20
:102130004FF60C7632407E1C06EA03162E433243DD
:10214000104EB0420ED0104EB0420BD0B0F1804FC6
:1021500008D00E4EB04205D00D4EB04202D00D4E0A
:10216000B04206D14FF6FD76314044F001063143CE
:1021700005E04FF6F576314044F001063143028325
:102180000184F0BD002C01400034014000040040F7
:1021900000080040000C0040F0B50C461546002237
:1021A00000210026078C4FF6EF7C07EA0C07078416
:1021B000028B018C4FF6FF7707EA041640F6FF47C3
:1021C0003A404FF6FF7707EA03373A434FF6FF7777
:1021D00007EA05273A43114FB8420ED0104FB842D4
:1021E0000BD0B0F1804F08D00E4FB84205D00E4F43
:1021F000B84202D00D4FB84206D14FF6DF773940D2
:1022000046F01007394305E04FF65F77394044F058
:102210001007394302830184F0BD0000002C014007
:10222000003401400004004000080040000C004061
:10223000F0B50C461546002200210026078C4FF60B
:10224000FF6C07EA0C070784828B018C4FF6FF773F
:1022500007EA04264FF60C773A404FF6FF7707EA75
:1022600003172F433A43114FB8420ED0104FB842D4
:102270000BD0B0F1804F08D00E4FB84205D00E4FB2
:10228000B84202D00D4FB84206D14FF6FF57394041
:1022900046F48077394305E04FF2FF57394044F464
:1022A0008077394382830184F0BD0000002C014017
:1022B000003401400004004000080040000C0040D1
:1022C000F0B50C461546002200210026078C4EF67C
:1022D000FF7C07EA0C070784828B018C4FF6FF779F
:1022E00007EA043640F6FF473A404FF6FF7707EA21
:1022F00005273A434FF6FF7707EA03373A43114F72
:10230000B8420ED0104FB8420BD0B0F1804F08D079
:102310000E4FB84205D00E4FB84202D00D4FB84212
:1023200006D14DF6FF77394046F48057394305E032
:1023300047F6FF57394044F480573943828301847C
:10234000F0BD0000002C01400034014000040040BA
:1023500000080040000C004030B589B005460C462E
:102360000121C802FFF7F6FC01210420FFF7F2FC6F
:1023700018208DF823004FF48070ADF82000032062
:102380008DF8220008A91B48FEF7E0FF4FF480718A
:102390001848FFF771F8ADF81850ADF81440002058
:1023A000ADF81600ADF81A0005A9134800F006FABA
:1023B0007020ADF804000020ADF80A00ADF80C0064
:1023C0000120ADF8060001A90B4800F069F90121D0
:1023D000094800F0E2F80821074800F0B6F90121A9
:1023E000054800F0BFF80121034800F0CAF809B021
:1023F00030BD000000080140002C014030B585B020
:1024000005460C4601210220FFF794FC012108201B
:10241000FFF7A0FC0120ADF8100028208DF8130074
:1024200004A91D48FEF792FF01211B48FFF722F87F
:10243000ADF80850ADF804400020ADF80A00ADF842
:10244000060001A9154800F0B9F9082014490880D0
:1024500000204880012088800020C88008810F4823
:1024600000F0BEF81D208DF8000002208DF801005C
:1024700000208DF8020001208DF803006846FFF768
:102480006BF801220321054800F000F901210348FF
:1024900000F077F805B030BD000C014000040040AA
:1024A0000405002010B52C48007800F080000028BA
:1024B0004CD10121294800F082F8D0B1264800789B
:1024C00000F04000A8B12448007800F03F003F2809
:1024D0000AD12148007840F080001F4908704FF66B
:1024E000FF701F49088004E01B480078401C1A490F
:1024F00008700221194800F062F838B316480078D5
:1025000000F0400078B11448007840F08000124993
:102510000870124800F050F81149088000210F4857
:1025200000F00AF912E000200B4908700C490880FD
:1025300000210A4800F014F90748007840F04000F4
:10254000054908700221054800F0F6F80321034808
:1025500000F014F810BD000034000020000400401A
:102560003600002021B1028842F08002028004E09F
:1025700002884FF67F731A4002807047CA43028276
:10258000704721B1028842F00102028004E0028813
:102590004FF6FE731A400280704731B1B0F8442004
:1025A00042F40042A0F8442005E0B0F84420C2F311
:1025B0000E02A0F8442070470146888E704730B55F
:1025C0000246002000230024158A05EA01039589AC
:1025D00005EA010413B10CB1012000E0002030BD78
:1025E00070B505460C46244885420ED023488542E6
:1025F0000BD0B5F1804F08D02148854205D0214845
:10260000854202D02048854200D100E000BF2088EA
:1026100050B92389A28861882846FFF77DFDE188AB
:10262000284600F09FF825E0208804280AD1238955
:10263000A28861882846FFF7AFFDE188284600F0B0
:102640009AF817E0208808280AD12389A28861888F
:102650002846FFF7EDFDE188284600F099F809E0EB
:102660002389A28861882846FFF72AFEE188284648
:1026700000F097F870BD0000002C014000340140CC
:102680000004004000080040000C00401AB183899B
:102690000B43838102E083898B4383817047000071
:1026A00070B5002400220023058C4FF6FE763540DD
:1026B0000584028C8388048B4FF68F752C40B51EE1
:1026C0002C400D882C43751E2A400D892A434D88C5
:1026D0002A43144DA8420BD0134DA84208D0134DE5
:1026E000A84205D0124DA84202D0124DA84213D1E3
:1026F0004FF6F7752A404D892A434FF6FB752A405D
:102700008D882A434FF6FF652B404FF6FF552B402F
:102710008D892B43CD892B4383800483CD88858687
:10272000028470BD002C0140003401400040014093
:1027300000440140004801400A460021018C4FF648
:10274000FD7319401143018470470A460021018B33
:102750004FF6F77319401143018370478186704724
:1027600081847047028B4FF6F3731A400283028B09
:102770000A4302837047028B4FF2FF331A400283F1
:10278000028B4FF6FF7303EA01231A43028370475B
:10279000828B4FF6F3731A408283828B0A438283C3
:1027A0007047828B4FF2FF331A408283828B4FF641
:1027B000FF7303EA01231A438283704700220288D1
:1027C0001D4B98420ED01D4B98420BD0B0F1804F5C
:1027D00008D01B4B984205D01A4B984202D01A4B96
:1027E000984204D14FF68F731A404B881A43174B07
:1027F000984207D0164B984204D04FF6FF431A4038
:10280000CB881A4302808B8883850B8803850A4B0B
:1028100098420BD0094B984208D00E4B984205D0F5
:102820000D4B984202D00D4B984201D10B7A038692
:102830000123838270470000002C014000340140D6
:102840000004004000080040000C00400010004060
:102850000014004000400140004401400048014095
:1028600010B540F225511D4800F04AF810B31B483E
:1028700000F002F9C4B21A48008800F40040C8B958
:102880001748008800F4804060B10A2C03D0002073
:102890001349088020E01248008840F400401049A5
:1028A000088019E00D2C06D10D48008840F48040C6
:1028B0000B49088010E00A480088C0F30D00094960
:1028C0000C5407480088401C0549088008460088C9
:1028D000C72801DD0020088010BD0000003801403D
:1028E000300000203C00002021B1828942F40052D7
:1028F000828104E082894DF6FF731A40828170471D
:1029000070B50246002400230025002040F66A1618
:10291000B14200D100BFC1F3421501F01F030126EF
:1029200006FA03F3012D02D19689334006E0022D09
:1029300002D1168A334001E0968A33400C120126F8
:1029400006FA04F41688344013B10CB1012000E0FB
:10295000002070BDF0B503460024002600250020AD
:1029600040F66A17B94200D100BF1846C1F34214BD
:1029700001F01F06012707FA06F5012C01D10C30E2
:1029800004E0022C01D1103000E014301AB10768C5
:102990002F43076002E00768AF430760F0BD000007
:1029A0002DE9F04786B005460E460024A24600BF3A
:1029B000A1460027B08900B100BF2F462C8A4CF6F3
:1029C000FF700440F08804432C82AC894EF6F3106B
:1029D0000440B08831890843718908430443AC81BD
:1029E000AC8A4FF6FF400440B0890443AC8201A892
:1029F000FFF7C0F91F48874202D1DDF810A001E0BF
:102A0000DDF80CA0A88900F4004040B10AEBCA0030
:102A100000EB0A1031684900B0FBF1F807E00AEB5F
:102A2000CA0000EB0A1031688900B0FBF1F864209D
:102A3000B8FBF0F004012009642101FB1089A8898A
:102A400000F4004040B1322000EBC900B0FBF1F0CF
:102A500000F00700044308E0322000EB0910642175
:102A6000B0FBF1F000F00F0004432C8106B0BDE88C
:102A7000F08700000038014001468888C0F3080054
:102A8000704700BFFEE7490050EAC12018BF04208C
:102A90004A0D18BF40F0010040F2FF72B2EB515FE7
:102AA00008BF40F00200012808BF052070473038F9
:102AB0000A2801D2012070470020704700BF7047EC
:102AC00010B56FF00400FFF7E1FA0A4800680A4900
:102AD000B0FBF1F0094908700846007800EB4001AE
:102AE000C1EBC0104FF6FF7101EAC0000449088035
:102AF00010BD00000000002000127A002800002015
:102B00002A0000200146114A12884A434FF0E02370
:102B10005A6100229A611A46126942F001021A6152
:102B200000BF4FF0E022106900F001021AB100F47A
:102B30008032002AF5D04FF0E022126922F0010223
:102B40004FF0E0231A6100229A6170472A000020AA
:102B50002DE9FC4105460E4690461F46089C6848F4
:102B60000078032803D1642C01D0FEF737FD6448B8
:102B70000078022803D10A2C01DAFEF72FFD01208C
:102B800010230022194600901046FEF7F9FF01209D
:102B900010230246194600901846FEF7F1FF012067
:102BA00010230222194600902020FEF7E9FF0120A1
:102BB00010230322194600903020FEF7E1FF012088
:102BC00010230022202100901046FEF725FF01204F
:102BD00010230246202100901846FEF71DFF012019
:102BE00010230222202100900846FEF715FF012045
:102BF00010230322202100903020FEF70DFF01203A
:102C000010230022302100901046FFF713F8012016
:102C100010230246302100901846FFF70BF80120E0
:102C200010230222302100902020FFF703F801201A
:102C3000102103462A46CDE900104120FEF780FE10
:102C40000120102102233246CDE900105020FEF76A
:102C500077FE01221B214B20FEF7D8FC0120102318
:102C60000022194600905F20FEF730FF012010215E
:102C700003464246CDE9001020214120FEF760FEC8
:102C80000120102102233A46CDE9001020215020D6
:102C9000FEF756FE01222B214B20FEF7B7FC012048
:102CA00010230022202100905F20FEF70FFF642CEC
:102CB00002D10320124908700A2C04DB632C02DCC9
:102CC00002200F490870092C02DC01200C49087011
:102CD00001201021CDE90010094803782246302157
:102CE0003720FEF72DFE0120102306A23021009090
:102CF0005020FEF76BFEFEF75FFDBDE8FC81000093
:102D0000380000202500000000BF054A128802F0AC
:102D10004002002AF9D0C2B2014B1B1D1A80704735
:102D20000038014070B50446254608E00020FEF753
:102D3000B9FB022803D1B92C01DA601C84B201204E
:102D4000FEF7B0FB0128F1D10020FEF7ABFB022813
:102D500001D1204670BD2846FCE770B504462546E3
:102D600008E00020FEF79EFB022803D10A2C01DDBB
:102D7000601E84B20120FEF795FB0128F1D10020EE
:102D8000FEF790FB022801D1204670BD2846FCE7E3
:102D900094B042F210754FF0000900201290002606
:102DA00005271190192010904FF0000AFFF788FEB8
:102DB000FEF7AEFBFEF764FBFEF764FCFEF7C5FB17
:102DC0004FF4165000F0A8F9272140F28330FFF7A6
:102DD000C3FA47214FF6FF70FFF710FB66E10120B1
:102DE000B34908606420FFF78DFE0020B149C1F8A7
:102DF00094010A20FFF786FE4946AF48FFF7AEFC74
:102E0000AE48007800F0800000287CD0AB48007805
:102E100000F03F052D04AA48008805440020A7497A
:102E200008702946A7A0FDF703FA284600F045FCE4
:102E3000A74AA84BCDE90C0100F08EFCCDE90E01AC
:102E400000F0D0F980464FF07E51404600F030FF50
:102E5000834600F0EFFFC0B21190119801F00AF81C
:102E600041460E9001F0E6F89B490F9001F016F8EC
:102E7000834600F0DFFFC0B21090404600F08AFEAB
:102E800002460B46CDE90E0194A0FDF7D1F9384674
:102E900000F013FC964A974BCDE9060100F05CFC6C
:102EA000CDE90A01304600F008FCCDE90801DDE972
:102EB0000A2300F0C9F9CDE90E01404600F06AFE90
:102EC000CDE90C01DDE90E2300F00AFC01D200205F
:102ED0001290384600F0F1FB854A864BCDE904019B
:102EE00000F03AFCCDE90801304600F0E6FBCDE900
:102EF0000601DDE9082300F0A7F94FF033327E4BDD
:102F0000CDE90A0100E093E000F09EF9CDE90E0161
:102F1000404600F03FFECDE90C01DDE90E2300F054
:102F2000DFFB51D2384600F0C8FB714A714BCDE946
:102F3000060100F011FCCDE90A01304600F0BDFBAE
:102F4000CDE90801DDE90A2300F07EF9CDE90E01A3
:102F5000404600F01FFECDE90C01DDE90E2300F034
:102F6000F9FC31D2384600F0A8FB614A614BCDE94B
:102F7000000100F0F1FBCDE90401304600F09DFBBB
:102F8000CDE90201DDE9042300F05EF9CDE9080195
:102F9000404600F0FFFDCDE90601DDE9082300F021
:102FA0000FFD4FF03332544BCDE90A0100F000FA27
:102FB0000022524BCDE90C0100F0CEFBCDE90E0111
:102FC00000F04EFB80B21290384600F076FB484A83
:102FD000484BCDE9040100F0BFFBCDE908013046C4
:102FE00000F06BFBCDE90601DDE9082300F02CF9C8
:102FF0004FF03332404BCDE90A0100F025F9CDE91D
:103000000E01404600F0C6FDCDE90C01DDE90E23BE
:1030100000F0A0FC01D2642012901298C0F164006C
:1030200000EBC0001FFA80F9494635A0FDF700F912
:1030300009F0FF003B4632460090DDE91010FFF733
:1030400087FD06EBC60000EB061007EB80040120AD
:10305000FEF728FA012809D103E00AF1010000F087
:10306000FF0A0120FEF71EFA0228F6D0214627A00B
:10307000FDF7DEF8BAF1010F03D0BAF1020F0AD161
:1030800004E02046FFF74EFE044604E02046FFF72A
:1030900064FE044600BF00BF642094FBF0F0C6B29B
:1030A000642094FBF0F100FB1140C7B297E60000EA
:1030B0009401214200002142002C014034000020F4
:1030C0003600002074656D703A25640A0000000027
:1030D000809F71E14048263F0000C842CAB5BCCA83
:1030E000BEE0C0EBA3BA252E32666D0D0A000000CB
:1030F0007B14AE47E17A843F3333C33F000059402D
:10310000636E743A25640D0A000000006469733030
:103110003D25640A0000000010B586B00446012178
:1031200044F20400FEF716FE4FF40070ADF81400F0
:1031300003208DF8160018208DF8170005A91C48EB
:10314000FEF704F94FF48060ADF8140004208DF808
:10315000170005A91648FEF7F9F825208DF800009C
:1031600003208DF801008DF8020001208DF8030086
:103170006846FEF7F1F901940020ADF80800ADF8BB
:103180000A00ADF80C00ADF810000C20ADF80E00F0
:1031900001A90848FFF704FC012240F22551054827
:1031A000FFF7D8FB01210348FFF79EFB06B010BDD7
:1031B000000801400038014010B500290AD0087805
:1031C000002807D005487844FDF7C2FC002801D04C
:1031D000002010BD0248784410BD00007630000089
:1031E0006E30000021F00042A2F16052B2F5801F63
:1031F00001F0004328BFD2F17F6C0BD95FEA001CBD
:1032000043EAC20242EB507018BF704728BF20F05B
:1032100001007047B2F5801FBCBF184670474FEAE7
:10322000410C1CF5001F02D2084600F0FEBE70B52E
:1032300000F03CFB00000089FFF7F6BF4FF00040B4
:10324000A0F580007047000010B591EA030F48BF59
:1032500083F0004300F1BC83841A71EB030C05D2A8
:10326000121943EB0C03001B61EB0C01DFF824E1A6
:103270004FEA1154A4EB135C1EEA430F18BF9EEAF9
:10328000445F73D023EA0E03DCF1200E21EA0451DF
:1032900043F4801332D322FA0CFE10EB0E0023FA13
:1032A0000CFE41EB0E01CCF1200E03FA0EFE10EBEA
:1032B0000E0051F10001B1F5801FCCF1200E32D289
:1032C00001EB045112FA0EF2BDE8104058BF7047EE
:1032D000401C38BF5FEA420218BF7047002814BF85
:1032E00020F0010041F100014FEA410313F5001FF6
:1032F00038BF7047A1F1C04100F026BB012A43EB63
:103300000302ACF1200CDCF11F0E32BF4FF0000EB7
:1033100023FA0CF310EB030041EB0451B4EB115F03
:10332000D0D0A1EB045101F5801149085FEA3000CB
:1033300001EB04510ED350F1000038BF12FA0EFE1B
:1033400008D1BDE81040C9E7401C38BF5FEA42021F
:10335000CAD1C3E7BDE810404FEA410313F5001F8F
:1033600038BF7047A1F1C04100F0EEBA9EEA445F59
:1033700008D011EA5E0FBDE8104004BF01F0004123
:1033800000207047BDE8104070B500F08FFA00BF14
:1033900064FBBE3E0000E0FF491058BFC1F1404150
:1033A0005B1058BFC3F140438B42EFF3008070477E
:1033B0002DE9C04130B4DFF8A0C23CEA111418BFB7
:1033C0003CEA131400F0EC8081EA03051CEA1114B6
:1033D00044EAD57418BF1CEA131500F0C780A4EBAB
:1033E00005044FF0004545EAC12145EAC32341EAFF
:1033F000505143EA525304F17F74994204F500346A
:103400004FEAC0204FEAC22208BF904200F09C80E1
:103410004FEA13650FF24016765D4FEA134506FB3F
:1034200005F7C7F1807706FB07F74FEAD737A7FB09
:1034300003687642C8F58038A7FB06CE38BFA8F1EE
:10344000010807FB08E64FF0000EA6FB028CE6FB26
:1034500003CEDCF1000CCEF1004E38BFAEF1010E10
:10346000A6FB0C584FF000074FF00005E6FB0E8757
:10347000A1FB08C6A0FB07CE16EB0E0645F1000522
:10348000E1FB076515F1E04E7EBFA4F580345FEAED
:1034900046066D4116F1800745F100054FEA1727F2
:1034A0004FEA066647EA0567A6F1DE46B6F1805F99
:1034B0004FEA15251FD9384624F0010C05EBC471DD
:1034C000BCF1FE6F01EB0C1102D8F0BCBDE800812D
:1034D00024425CBF01F5801E9EEAC47F02D4F0BC8A
:1034E000BDE80081244238D4F0BCA1F1C041BDE860
:1034F000004100F029BA4FEAD22242EA43524FEA91
:10350000D323A7FB02864FEAD02040EA415007FBB5
:1035100003661EEA0E0F4FEAD12105FB026658BF73
:10352000A6EB0056B6EB00564FEA520E4EEAC37EAB
:1035300018EB0E0E56EB530EBDD518EB02085E418C
:103540007F1C55F10005B6E74FF480154FF00007DA
:103550004FF000064FF00008ADE7F0BC4FF0000060
:1035600001F1C04101F00041BDE8008111EA0C1FEA
:103570000CEA131500D00CE013EA0C1F00F02580B4
:103580004FF00000F0BC81EA030101F00041BDE80A
:103590000081F0BCBDE8004181EA030100F0D4B92C
:1035A000F0BCBDE8004170B500F080F9097EFC3E3A
:1035B00000F007B881EA03014FF0000001F000417C
:1035C000704781EA030100F0BFB9F0BCBDE80041DB
:1035D0004FF0000021497047FFFDFBF9F7F5F4F2C9
:1035E000F0EEEDEBE9E8E6E4E3E1E0DEDDDBDAD89E
:1035F000D7D5D4D3D1D0CFCDCCCBCAC8C7C6C5C4FC
:10360000C2C1C0BFBEBDBCBBBAB9B8B7B6B5B4B312
:10361000B2B1B0AFAEADACABAAA9A8A8A7A6A5A4FD
:10362000A3A3A2A1A09F9F9E9D9C9C9B9A999998C1
:103630009797969595949393929191908F8F8E8E64
:103640008D8C8C8B8B8A89898888878786858584F1
:1036500084838382828181800000FF070000F87FDD
:103660004FEA1153A3F58063D3F11E03A8BFD3F132
:10367000200C08DB4FF0004242EAC12252EA5052CD
:1036800032FA03F0704709420BD4102BC4BF00205C
:10369000704703F5787CBCF1FF3F05D04FF0FF3059
:1036A00070474FF00000704770B500F0FFF800BFA2
:1036B0004992248000207047F0E7B0FA80F310FAB6
:1036C00003F10AD0C3F11D0303F580634FEA4150B3
:1036D0004FEA035202EBD12170474FF000007047D0
:1036E00051EA030C17D41CF5801F58BFBCF5801F8E
:1036F00000F10680994218BF704708BF904270479A
:1037000007D711F5801F58BF13F5801F19D49942B0
:103710007047894270471CF5801F08D5BCF5801F93
:10372000F7D58B4218BF704708BF824270474FF4ED
:10373000001C1CEB410F38BF1CEB430F01D28B4226
:10374000704770B500F0B2F8922449004FF0005174
:103750004FF08053FFF720BEDFF848C170B51CEA78
:10376000111E1EBF1CEA13159EEA0C0F95EA0C0FE2
:1037700000F06F8081EA030423EA4C134EEAD47E02
:1037800021EA4C1141F4801143F48013AE44A1FBB3
:10379000024CA0FB0365AEF17F7E361955EB0C059C
:1037A000A1FB034C4CF10003A0FB021C16EB0C0622
:1037B000654153F10003094218BF46F0010613F4B6
:1037C000007F0BD14FEA03314FEA0530340341EA61
:1037D000155140EA16506FF003020AE04FEAC32188
:1037E0004FEAC520F40241EA555140EA56506FF0C5
:1037F000020202EB2E4201EB025585EACE710AD09D
:103800005FEA440C18BF24F0004450F1000041F17D
:10381000000120EAD47040F2FE7C624500D270BD07
:10382000A84214BF4FF080444FF04044002E08BF20
:103830000024BEF1806FA8BFA1F1C041BDE8704077
:1038400080F282804FF0000001F1C04101F00041A0
:1038500070479EEA0C0F0CEA131518BF95EA0C0F7F
:1038600006D04FF0000081EA030E0EF0004170BD5B
:1038700000F01CF88900013E00F007B800F009B81C
:103880004FEA430C5FEA5C5C08D081EA030100F078
:103890005BB84FEA410C5FEA5C5CF6D14FF0000088
:1038A000014970470000FF070000F87F0EF1020E8B
:1038B0002EF0030E5EF8046B364205D4012A43EB6A
:1038C000030515F5001F12D8012841EB010C1CF56A
:1038D000001F0CD80ED14FEAD17C15F5001F0CEB60
:1038E0004C0C0CF1020C08BF4CEBD37C04E04FF005
:1038F000080C01E04FEAD37C0CEB4C0526FA05F6E8
:1039000006F00706B6F1040C06D20EEB860CBDE8F5
:1039100070404CF0010C6047DFE80CF0090B02022C
:103920004FF000414FF00000A1F5002170BD194695
:103930001046012851EB010418BFD4F5001484BFD0
:10394000002001F0004170BD0808A0F500114FEA09
:103950003101704753EA010C17D41CF5801F58BF82
:10396000BCF5801F00F106808B4218BF704708BF6E
:103970008242704707D713F5801F58BF11F5801F8B
:1039800019D48B4270479B4270471CF5801F08D5A5
:10399000BCF5801FF7D5994218BF704708BF904209
:1039A00070474FF4001C1CEB430F38BF1CEB410F5A
:1039B00001D2994270470FB40CBC03BCFFF7C1BEE3
:1039C00010B591EA030F48BF83F000433FF544ACC4
:1039D000841A71EB030C07D212198CF0004C43EBE4
:1039E0000C03001B61EB0C01DFF8A4E14FEA11545A
:1039F000A4EB135C1EEA430F18BF9EEA445F00F07D
:103A0000B08023EA6E03524221EA0451C3EB6E03F5
:103A100038BF5B1EDCF1200E25D322FA0CFE10EB22
:103A20000E0043FA0CFE41EB0E01CCF1200E03FA1E
:103A30000EFE10EB0E0051F10001CCF1200E29D446
:103A400012FA0EF201EB0451BDE8104058BF704766
:103A5000401C1CBFB2F1004F704700280CBF491C2E
:103A600020F00100704712EB020E43EB030218BF77
:103A70004FF0010E4EEA4202ACF1200CDCF11E0EBA
:103A800054D943FA0CFE10EB0E0051F1FF31CCF18A
:103A90001E0ED5D50EF1010E12FA0EFE404141EB7D
:103AA000010101EB445C5FEA5C5C10D910EBDE7055
:103AB00001EB045138BFBEF1004FBDE8104018BF04
:103AC000704700280CBF491C20F00100704730D21D
:103AD0004FEAD42C11F5001124F400641BD0B1FA84
:103AE00081F20B3AA41AA41ED2F12003914030FABD
:103AF00003F31943904001EBCC71002C01EB04510E
:103B0000BDE81040A8BF704701F1C0414FF0000070
:103B100001F000417047B0FA80F310FA03F100D1D0
:103B200010BDE41A173C4805C90AE4E701EB04514B
:103B300010BD491001EB0451BDE810404FEA3000C0
:103B400002E04FF0000170474A0008BF0042F8D081
:103B5000B2F5001F28BF704701F000414FF0000090
:103B600070479EEA445F07D011EA5E0FBDE810403F
:103B700004BF002100207047BDE8104070B5FFF77A
:103B800095FE00BF40DFF63E83F0004110467047CF
:103B90000000E0FF43004FEAD30C4FEA3C0C4340E7
:103BA0001FBF40070CF1605113F0FE4F70471CF02F
:103BB000006F03D100200CF0004170470CF000436F
:103BC00043EA507010B540EACC0000F0E8F900BFBD
:103BD000000000924FEA0001FFF7B6BE4FF000412F
:103BE0004FF00000A1F500217047000090EA010F9E
:103BF00048BF81F0004100F12E82421A3CBF801A7A
:103C000089184FEAD0524FF07F4C1CEA410FA2EBCB
:103C1000D15318BF9CEA026F00F03B804FF0004C7C
:103C20004CEA00204CEA012121FA03FC10EB0C0CB9
:103C30001ED202F1FF325FEA1C2040EBC25038BFB7
:103C400070471CF07F0F4FEA400C18BFBCF17F4F4C
:103C500038BF7047C3F12003994008BF20F001002E
:103C6000BCF17F4F38BF7047A0F1C04000F0DDB914
:103C70004FEA3C00000A40EBC25028BF1CF0FF0F87
:103C80004FEA400CE6D018BFBCF17F4F38BF7047F9
:103C9000EAE79CEA026F05D010EA5C0F08BF00F06B
:103CA0000040704710B500F07AF900BF64FBBE3EDB
:103CB0004FF47F0C1CEAD0121EBF1CEAD11392EA0B
:103CC0000C0F93EA0C0F00F0858090EA010F48BFBB
:103CD00042F4807240F4000C41F400002CF07F416B
:103CE00020F07F4000B58142A2EB03020FF2081CD6
:103CF000ACEB504EC0F100009EF800E04FEA4E0ED3
:103D000000FB0EFC38BF49004FEA2C1C02F5FA02FA
:103D10000CFB0EF34FEACE1E4FEA112C4FEAC121E5
:103D20000EEB635E42EB22420EFB0CFC4FEA1C538F
:103D300000FB03114FEA112C4FEA01310EFB0CFC82
:103D40004FEADC4C00FB0C11C14228BF09184CEBB8
:103D500003335DF804EB10EB410143EBC250B2F5C5
:103D60007C0F38BF704729D512F0F00F1CBF00F14F
:103D7000C04000F0004070470081828384858687C0
:103D800088898B8C8D8E8F919293959697999A9C1A
:103D90009D9FA0A2A3A5A7A8AAACAEB0B2B3B5B789
:103DA000B9BCBEC0C2C5C7C9CCCED1D4D7D9DCDF5F
:103DB000E2E6E9ECF0F3F7FAFE0000004FEA400C0F
:103DC0000CF1807CBCF17E4F28BF7047B0F1C04041
:103DD00000F02BB990EA010F0CEAD11348BF42F46E
:103DE0008072624538BF634507D213F47F0F16D047
:103DF00080EA010000F00040704710B500F0CFF8F5
:103E0000097EFC3E00F005B880EA010000F00040A9
:103E1000704780EA010000F0004000F006B912F49B
:103E20007F0F04BF0248704780EA010000F0FDB830
:103E30000000C07FC10DD1F19E0206DB4FEA0023D6
:103E400043F0004323FA02F07047004207D54FEADF
:103E50004001B1F1FE4F02D24FF00000704710B5A3
:103E600000F09DF849922480002070476FEA2000FE
:103E700070470000B0FA80F310FA03F2C3F19D031B
:103E80000AD0D90501EB1220530638BF704700F164
:103E9000010008BF20F00100704700004FF47F0CC4
:103EA0001CEAD0121EBF1CEAD11392EA0C0F93EA4F
:103EB0000C0F00F0478090EA010F48BF42F4807277
:103EC0004FF0004C4CEA00204CEA012102EB0302C7
:103ED000A0FB0113A2F50002002918BF43F0010363
:103EE0005B0028BF4FEA330342EB22425FEA132C08
:103EF0004CEBC2502EBFBCEB436FB2F57C0F70474A
:103F00004FEA036CBCF1004F08BF20F00100B2F58E
:103F10007C0F38BF70470BD582F0FF0212F5803F4F
:103F2000C8BF704700F1C040D8BF00F000407047E4
:103F300000F5000C5FEA4C0C48BF7047B0F1C04080
:103F400000F073B890EA010F0CEAD11348BF42F4B5
:103F50008072624538BF634504D280EA010000F0F8
:103F60000040704710B500F01AF800BF8900013E0C
:103F700000F007B800F009B85FEA410C5FEA1C6C7A
:103F800008D080EA010000F050B85FEA400C5FEA18
:103F90001C6CF6D14FF00040A0F5800070470EF188
:103FA000020E2EF0030E5EF8044B244204D44FEAB6
:103FB0004102B2F17F4F11D84FEA4003B3F17F4F76
:103FC0000CD80ED14FEAD07CB2F17F4F0CEB4C0CE9
:103FD0000CF1020C08BF4CEBD17C04E04FF0080C54
:103FE00001E04FEAD17C0CEB4C0324FA03F404F01B
:103FF0000704B4F1040C06D20EEB840CBDE81040AB
:104000004CF0010C6047DFE80CF0070802024FF0AB
:104010000040A0F5800010BD0846420018BFD2F154
:10402000807288BF00F0004010BDFF2141EAD050EF
:10403000C005704780F0004090EA010F7FF5DDADCC
:1040400081F0004100F007B890EA010F48BF81F00D
:1040500000413FF5D2AD421A04D882F00042A0EBF5
:10406000020011444FEAD0524FF07F4C1CEA410F3E
:10407000A2EBD15318BF9CEA026F4AD04FF0004C1C
:104080004CEA00204CEA012121FA03FCB0EB0C0CB5
:104090000FD412F0FE0F36D05FEA4C001DD500128F
:1040A00040EBC25038BF70471CF03F0F18BF70473D
:1040B0000BE0A2F101025FEA1C2040EBC25038BFC6
:1040C00070471CF07F0F18BF7047C3F12003994061
:1040D00014BF401E20F00100704780084FEA1223F1
:1040E00008BF7047B0FA80FCA2EB0C02CCF1280CA0
:1040F00060FA0CF093EA122F04BF00EBC250704735
:104100004FEAC3707047130A5FEADC1008BF7047BC
:10411000F6E79CEA026F04D010EA5C0F08BF0020AB
:10412000704710B5FFF73BFF40DFF63E81F00040DF
:104130007047FCF780BA0000000000000000002F6C
:10414000000000000700070000147F147F14002403
:104150002A7F2A1200626408132300364955225030
:1041600000000503000000001C2241000000412265
:104170001C000014083E08140008083E080800004F
:1041800000A0600000080808080800006060000047
:10419000002010080402003E5149453E0000427FC5
:1041A0004000004261514946002141454B31001811
:1041B00014127F10002745454539003C4A494930D3
:1041C000000171090503003649494936000649498D
:1041D000291E000036360000000056360000000898
:1041E0001422410000141414141400004122140875
:1041F00000020151090600324959513E007C12115A
:10420000127C007F49494936003E41414122007FEE
:104210004141221C007F49494941007F09090901A8
:10422000003E4149497A007F0808087F0000417F2D
:104230004100002040413F01007F08142241007FDF
:1042400040404040007F020C027F007F0408107F46
:10425000003E4141413E007F09090906003E4151AF
:10426000215E007F0919294600464949493100016C
:10427000017F0101003F4040403F001F2040201FC0
:10428000003F4038403F0063140814630007087083
:10429000080700615149454300007F414100005536
:1042A0002A552A55000041417F0000040201020402
:1042B00000404040404000000102040000205454EF
:1042C0005478007F4844443800384444442000383F
:1042D0004444487F00385454541800087E090102B1
:1042E0000018A4A4A47C007F080404780000447D86
:1042F0004000004080847D00007F102844000000C2
:10430000417F4000007C04180478007C0804047895
:1043100000384444443800FC242424180018242481
:1043200018FC007C0804040800485454542000047D
:104330003F444020003C4040207C001C2040201C8A
:10434000003C4030403C004428102844001CA0A001
:10435000A07C004464544C4414141414141400003D
:10436000000000000000000000000000FC00000051
:10437000000002000000000C020C0200000000001F
:10438000000090D0BCD0BC900003000300001824B3
:10439000FE448C000302070201001824D8B04C80B0
:1043A000000300010201C038E438E000010202010C
:1043B00002020806000000000000000000000000EB
:1043C00000F80402000000010204000204F80000EA
:1043D0000004020100009060F860900000000100FD
:1043E00000002020FC202000000001000000000050
:1043F000000000000806000000002020202020000F
:1044000000000000000000000000000000020000AA
:1044100000000080601C0200040300000000F8049B
:104420000404F8000102020201000008FC00000080
:104430000002030200001884442418000302020250
:10444000020008042424D80001020202010040B046
:1044500088FC80000000000302003C242424C400E7
:10446000010202020100F824242CC0000102020211
:1044700001000C04E41C0400000003000000D82428
:104480002424D80001020202010038444444F80008
:104490000003020201000000100000000000020002
:1044A00000000000200000000000060000000020C6
:1044B000508804020000000001029090909090004B
:1044C00000000000000000020488502000020100EB
:1044D00000001804C4241800000002000000F804C2
:1044E000E494F80001020202020000E09CF0800067
:1044F00002030000030204FC2424D8000203020289
:104500000100F80404040C0001020202010004FC92
:104510000404F80002030202010004FC24740C00ED
:1045200002030202030004FC24740C0002030200D4
:104530000000F0080444CC4000010202010004FC29
:104540002020FC040203000003020404FC04040015
:10455000020203020200000404FC04040604040333
:10456000000004FC24D00C0402030200030204FC3B
:1045700004000000020302020203FC3CC03CFC00F9
:1045800003000300030004FC30C4FC040203020027
:104590000300F8040404F80001020202010004FC14
:1045A00024241800020302000000F8848404F800A8
:1045B00001020207050004FC2464980002030200C3
:1045C0000302182424448C000302020201000C049C
:1045D000FC040C0000020302000004FC0000FC04C8
:1045E000000102020100047C80E01C0400000300C2
:1045F00000001CE03CE01C00000300030000049CE1
:10460000609C0400020300030200041CE01C040080
:104610000002030200000C84641C04000203020276
:1046200003000000FE020200000007040400000E68
:1046300030C00000000000010200000202FE000085
:104640000004040700000004020400000000000051
:10465000000000000000000008080808080800002A
:10466000020000000000000000000040A0A0C00008
:1046700000010202030204FC2020C0000003020229
:10468000010000C02020600000010202020000C002
:104690002024FC0000010202030200C0A0A0C00010
:1046A0000001020202000020F82424040002030298
:1046B00002000040A0A0602000070A0A0A0404FCCF
:1046C0002020C0000203020003020020E4000000DA
:1046D000000203020000000020E4000008080807B0
:1046E000000004FC80E02020020302000302040416
:1046F000FC000000020203020200E020E020C000F3
:1047000003000300030020E02020C0000203020099
:10471000030200C02020C00000010202010020E0CE
:104720002020C000080F0A02010000C02020E00085
:104730000001020A0F0820E04020200002030200CE
:1047400000000060A0A02000000202020300002080
:10475000F820000000000102020020E00020E0003C
:1047600000010202030220E020806020000003011B
:1047700000006080E0806000000300030000206013
:104780008060200002030003020020E020806020FF
:104790000808070100000020A060200000020302BA
:1047A0000200000020DE02000000000704000000FC
:1047B00000FF00000000000F00000002DE200000EB
:1047C00000040700000002010204040200000000CF
:1047D00000000000000000000000000000000000D9
:1047E0000000000000F8000000000000003330006E
:1047F000000000100C06100C060000000000000075
:10480000000040C07840C0784000043F04043F04EA
:104810000400007088FC08300000001820FF211EF2
:104820000000F008F000E018000000211C031E2129
:104830001E0000F00888700000001E2123241927A4
:10484000211010160E000000000000000000000003
:104850000000000000E0180402000000000718201B
:10486000400000020418E00000000040201807008B
:104870000000404080F0804040000202010F010231
:104880000200000000F0000000000101011F010112
:104890000100000000000000000080B07000000077
:1048A0000000000000000000000000010101010103
:1048B0000101000000000000000000303000000096
:1048C000000000000000806018040060180601006D
:1048D000000000E010080810E000000F1020201079
:1048E0000F00001010F8000000000020203F2020E2
:1048F0000000007008080888700000302824222179
:10490000300000300888884830000018202020112E
:104910000E000000C02010F8000000070424243F0F
:10492000240000F8088888080800001921202011B8
:104930000E0000E0108888180000000F11202011E0
:104940000E0000380808C83808000000003F0000CA
:1049500000000070880808887000001C22212122B5
:104960001C0000E010080810E000000031222211B5
:104970000F00000000C0C000000000000030300048
:1049800000000000008000000000000080600000C7
:104990000000000080402010080000010204081000
:1049A000200040404040404040000404040404040F
:1049B00004000008102040800000002010080402BD
:1049C0000100007048080808F000000000303601BF
:1049D0000000C030C828E810E0000718272423147E
:1049E0000B000000C038E0000000203C230202273A
:1049F000382008F8888888700000203F2020201187
:104A00000E00C030080808083800071820202010C1
:104A1000080008F808080810E000203F20202010B7
:104A20000F0008F88888E8081000203F2020232085
:104A3000180008F88888E8081000203F20000300CC
:104A40000000C03008080838000007182020221E87
:104A5000020008F808000008F808203F21010121A1
:104A60003F20000808F8080800000020203F202010
:104A7000000000000808F8080800C08080807F005F
:104A8000000008F888C028180800203F20012638B8
:104A9000200008F8080000000000203F202020200F
:104AA000300008F8F800F8F80800203F003F003F09
:104AB000200008F830C00008F808203F2000071840
:104AC0003F00E01008080810E0000F102020201020
:104AD0000F0008F808080808F000203F2101010134
:104AE0000000E01008080810E0000F1824243850D7
:104AF0004F0008F8888888887000203F2000030C49
:104B00003020007088080808380000382021212251
:104B10001C00180808F8080818000000203F2000B2
:104B2000000008F808000008F808001F20202020D6
:104B30001F000878880000C83808000007380E01F8
:104B40000000F80800F80008F800033C0700073CE4
:104B50000300081868808068180820302C03032C94
:104B600030200838C800C83808000000203F200066
:104B7000000010080808C838080020382621202026
:104B80001800000000FE020202000000007F40400A
:104B90004000000C30C0000000000000000106389A
:104BA000C00000020202FE000000004040407F0002
:104BB00000000000040202020400000000000000E7
:104BC00000000000000000000000808080808080E5
:104BD00080800002020400000000000000000000CD
:104BE0000000000080808080000000192422222222
:104BF0003F2008F8008080000000003F11202011B5
:104C00000E000000008080800000000E1120202097
:104C10001100000000808088F800000E1120201094
:104C20003F200000808080800000001F222222227E
:104C30001300008080F0888888180020203F202002
:104C400000000000808080808000006B949494932A
:104C5000600008F8008080800000203F21000020D4
:104C60003F2000809898000000000020203F202076
:104C70000000000000809898000000C08080807FC5
:104C8000000008F8000080808000203F24022D30C2
:104C90002000000808F8000000000020203F20202D
:104CA00000008080808080808000203F20003F20A6
:104CB000003F8080008080800000203F2100002095
:104CC0003F200000808080800000001F20202020E6
:104CD0001F00808000808000000080FFA120201144
:104CE0000E000000008080808000000E112020A0B7
:104CF000FF80808080008080800020203F21200075
:104D0000010000008080808080000033242424245F
:104D10001900008080E0808000000000001F20203B
:104D200000008080000000808000001F20202010F4
:104D30003F20808080000080808000010E300806C7
:104D4000010080800080008080800F300C030C30D8
:104D50000F0000808000808080000020312E0E3106
:104D60002000808080000080808080818E70180606
:104D7000010000808080808080000021302C222172
:104D8000300000000000807C020200000000003FB4
:104D9000404000000000FF00000000000000FF0095
:104DA00000000002027C800000000040403F000044
:104DB00000000006010102020404000000000000DF
:104DC00000000000000000000000000000000000E3
:104DD00000000000000000000000000000000000D3
:104DE0000000000000000000000000F0F0F00000F3
:104DF00000000000000000017F0100000000000032
:104E00000000001C1C1C0000000000008060301C22
:104E10008C60301C0C00000000000000000000004E
:104E20000000000000000000000000000000000082
:104E300000E00000000000E000000086E69F86869B
:104E40008686E69F860000011F01010101011F0106
:104E50000100000080C06020F820E0C000000000D9
:104E600003070C18FF70E18100000000070F10100D
:104E70007F100F0700008060206080000000E020AD
:104E800000000F3020309F70DC371030C000000071
:104E9000100E03000718101807000000C02020E0C3
:104EA000C0000000000080E01F38E88703C43C0415
:104EB0000000070F1810100B070D101008000080DD
:104EC0008C4C3800000000000000000000000000D2
:104ED00000000000000000000000000000000000D2
:104EE000000000000000000080E030080400000026
:104EF000000000FEFF0100000000000000000000B4
:104F0000030F1820400000040830E080000000007B
:104F100000000000000001FFFE0000000000004053
:104F200020180F0300000000000000000000000037
:104F3000C00000000000004266663C18FF183C6696
:104F400066420000000000000300000000000000B6
:104F50000000000080000000000000101010101081
:104F6000FF101010101000000000000003000000EF
:104F70000000000000000000000000000000000031
:104F80000000000000000000000000808C4C380091
:104F90000000000000000000000000000000000011
:104FA0000000001010101010101010101000000061
:104FB00000000000000000000000000000000000F1
:104FC00000000000000000000000000000000000E1
:104FD000000000001C1C1C0000000000000000007D
:104FE000000000000000E0380C00000000008070AD
:104FF0001C03000000000060380E010000000000EB
:105000000000000080C060202060C080000000FE22
:10501000FF010000000001FFFE000001070E181054
:1050200010180E0701000000808080C0E000000022
:1050300000000000000000FFFF0000000000000072
:105040001010101F1F1010100000008040202020A2
:105050002060C080000000030300804020381F074C
:105060000000001C1A1918181818181F00000080DA
:10507000C020202060C0800000000003030010104A
:10508000182FE780000000070F10101010180F07EE
:105090000000000000000000C0E0F000000000C0C0
:1050A000B088868180FFFF80800000000000001033
:1050B000101F1F1010000000E06060606060606002
:1050C000000000003F1008080818F0E0000000078A
:1050D0000B101010101C0F030000000080C04020B7
:1050E0002020E0C0000000FCFF211008080818F094
:1050F000E0000001070C18101010080F030000005A
:10510000C0E06060606060E06000000003000000DC
:10511000E0180700000000000000001F1F00000052
:1051200000000080C0602020202060C08000008738
:10513000EF2C1818303068CF830000070F081010CC
:105140001010180F07000000C0C020202020C080D1
:105150000000001F3F604040402010FFFE000000A4
:105160000C1C101010080F030000000000000000CD
:1051700000000000000000000000000E0E0E000005
:10518000000000000000001C1C1C000000000000CB
:105190000000000000000000000000000000000C03
:1051A0000C00000000000000000000583800000063
:1051B00000000000000000000080402010000000FF
:1051C00010284482010000000000000000000000E0
:1051D00001020408100000000000000000000000B0
:1051E0000000008484848484848484848400000097
:1051F00000000000000000000000000010204080BF
:1052000000000000000000000000000001824428AF
:10521000100000001008040201000000000000C09F
:1052200020201010101030E0C0000003030000F038
:1052300010080C070300000000001C1C1C000000EC
:105240000000000000C0406020202040C00000FCA2
:10525000FF01F00E03C1FE03807F0001070E08115D
:105260001110110904020000000080E0E0000000BD
:1052700000000000807C4340477FF8800000101849
:105280001F1000000000131F1C1020E0E020202051
:105290002060C080000000FFFF10101010182FE7E2
:1052A0008000101F1F1010101010180F07000000B2
:1052B00080C0402020202060E00000FCFF010000B2
:1052C0000000000001000001070E18101010080473
:1052D000030020E0E02020202040C080000000FFEC
:1052E000FF000000000001FFFE00101F1F10101043
:1052F00018080E07010020E0E02020202020206078
:10530000800000FFFF101010107C00000000101F34
:105310001F10101010101018060020E0E0202020B0
:1053200020206060800000FFFF101010107C000043
:105330000100101F1F10000000000000000000000E
:1053400080C06020202040E0000000FCFF01000041
:105350004040C0C140400001070E181010100F0F50
:10536000000020E0E0200000000020E0E02000FF3E
:10537000FF101010101010FFFF00101F1F10000072
:105380000000101F1F100000202020E0E02020203F
:1053900000000000000000FFFF000000000000000F
:1053A0001010101F1F10101000000000000020201F
:1053B00020E0E020202000000000000000FFFF00AF
:1053C00000000060E0808080C07F3F00000020E09F
:1053D000E020000020A06020200000FFFF30187CAB
:1053E000E3C000000000101F1F10000001131F1C6D
:1053F000181020E0E020000000000000000000FF86
:10540000FF000000000000000000101F1F1010101F
:1054100010101018060020E0E0E000000000E0E0BE
:10542000E02000FF013FFEC0E01E01FFFF00101F53
:105430001000031F0300101F1F1020E0E0C0000039
:1054400000000020E02000FF0003071C78E080003F
:10545000FF00101F100000000000030F1F000000DD
:1054600080C060202060C080000000FEFF010000BE
:10547000000000FFFE000001070E181010180C07B6
:10548000010020E0E0202020202060C0800000FFFC
:10549000FF2020202020301F0F00101F1F100000B1
:1054A000000000000000000080C060202060C0807C
:1054B000000000FEFF010000000000FFFE000001F0
:1054C000070E1111133C7C67210020E0E020202012
:1054D000202060C0800000FFFF101030F0D0080FC7
:1054E0000700101F1F10000000030F1C1010008089
:1054F000C060202020204040E00000070F0C18185A
:10550000303060E08100001F0C0810101010180FE0
:1055100007008060202020E0E02020206080010043
:10552000000000FFFF000000000100000000101F4D
:105530001F100000000020E0E0200000000000201C
:10554000E02000FFFF00000000000000FF00000757
:105550000F1810101010100807002060E0E0200065
:10556000000020E060200000077FF88000807C03BE
:10557000000000000000071F1C070000000020E0E2
:10558000E02000E0E0200020E0200007FFF8E01F1E
:10559000FFFCE01F00000000031F0300011F0300C9
:1055A0000000002060E0A0000020E060200000007B
:1055B00000038F7CF8C6010000000010181E1300C5
:1055C00001171F1810002060E0E02000000020E01C
:1055D0006020000001073EF8E0180700000000000E
:1055E0000010101F1F1010000000008060202020FD
:1055F00020A0E0E0200000000000C0F03E0F03000B
:10560000000000101C1F17101010101806000000DA
:10561000000000FC0404040404000000000000FF7B
:1056200000000000000000000000007F40404040FB
:105630004000000010E0000000000000000000003A
:105640000000031C6080000000000000000000005B
:1056500000030C70800000000404040404FC00003B
:10566000000000000000000000FF0000000000003B
:1056700040404040407F0000000000000010080C47
:10568000040C0810000000000000000000000000F2
:10569000000000000000000000000000000000000A
:1056A00000000000000000000000000000000000FA
:1056B00000000000000080808080808080808080EA
:1056C00080800000000404080800000000000000C2
:1056D00000000000000000000000000000000000CA
:1056E00000000000000000000000000000000000BA
:1056F0000000000098D844642424FCF80000000F47
:105700001F18101010081F1F10180020E0F00000D4
:105710000000000000000000FFFF180804040CF85F
:10572000F00000001F0F18101010180F03000000E9
:105730000000000000000000000000E0F818040471
:10574000043C3800000000030F0C10101010080675
:1057500000000000000000000020E0F0000000E079
:10576000F81C04040408FFFF000000030F181010C9
:1057700010081F0F080000000000000000000000DB
:1057800000000000E0F8484444444C7870000000F9
:10579000030F0C181010100804000000000080C057
:1057A000602020E0C00000040404FFFF040404049F
:1057B0000000000010101F1F10101000000000005B
:1057C00000000000000000000000000070F88C04E1
:1057D000048CF874040C007076CF8D8D8D89C87898
:1057E00070000020E0F00000000000000000000059
:1057F000FFFF08040404FCF8000000101F1F100045
:1058000000101F1F1000000000000060600000007A
:1058100000000000040404FCFC0000000000000084
:105820001010101F1F1010100000000000000000DA
:1058300000606000000000000000040404FCFC00A4
:1058400000000000C0C08080C07F3F00000000203A
:10585000E0F000000000000000000000FFFF80C03A
:10586000F41C0404000000101F1F1100031F1C1073
:1058700010000000202020E0F000000000000000E8
:10588000000000FFFF000000000000001010101FCB
:105890001F101010000000000000000000000000B9
:1058A000000004FCFC0804FCFC0804FCFC00101FC5
:1058B0001F10001F1F10001F1F100000000000001D
:1058C0000000000000000004FCFC08080404FCF8D0
:1058D000000000101F1F100000101F1F100000000C
:1058E0000000000000000000000000E0F0180C04C0
:1058F000040C18F0E00000030F0C101010100C0F37
:105900000300000000000000000000000000000490
:10591000FCFC080404040CF8F0000080FFFF8890F1
:1059200010101C0F03000000000000000000000029
:10593000000000E0F81C04040408F8FC0000000368
:105940000F1810109088FFFF80000000000000007A
:10595000000000000000040404FCFC100804040C17
:105960000C001010101F1F1010100000000000008D
:105970000000000000000000000000003078CCC4EF
:105980008484840C1C0000001E1810101011190FC4
:1059900006000000000000C000000000000000043D
:1059A0000404FFFF040404000000000000000F1FB7
:1059B0001010100C000000000000000000000000AB
:1059C00000000004FCFE00000004FCFE00000000DB
:1059D0000F1F181010081F0F080000000000000023
:1059E00000000000000000040C3CFCC40000C43CAB
:1059F0000C0400000000010F1E0E0100000000005A
:105A000000000000000000000000043CFCC400E4B2
:105A10007CFC84807C040000071F070000071F0730
:105A20000000000000000000000000000000000472
:105A3000041C7CE4C0341C0404000010101C16017B
:105A4000131F1C18100000000000000000000000E0
:105A5000000000040C3CFCC400C43C040400000032
:105A6000C080C1370E0100000000000000000000EF
:105A700000000000000000001C0404C4F47C1C04AE
:105A800000000000101C1F17111010180E0000005D
:105A90000000000000F80C040000000000000010EE
:105AA00028EF00000000000000000000003F604000
:105AB0000000000000000000FF00000000000000E7
:105AC00000000000FF0000000000000000000000D7
:105AD000FF00000000000000040CF80000000000BF
