:020000040800F2
:100000000004002047010008750100087B0100087A
:100010007F0100088301000887010008000000003C
:100020000000000000000000000000008B0100083C
:100030008D010008000000008F01000891010008F8
:1000400067010008670100086701000867010008F0
:100050006701000867010008DD0200086701000869
:1000600067010008670100086701000867010008D0
:1000700067010008670100086701000867010008C0
:1000800067010008670100086701000867010008B0
:1000900067010008670100086701000867010008A0
:1000A0006701000867010008670100086701000890
:1000B0006701000867010008670100086701000880
:1000C0006701000867010008670100086701000870
:1000D0006701000877010008670100086701000850
:1000E0006701000867010008670100086701000850
:1000F0006701000867010008670100086701000840
:10010000670100086701000867010008670100082F
:10011000670100086701000867010008670100081F
:10012000670100086701000867010008670100080F
:10013000DFF80CD000F0D6FF00480047F1010008BE
:1001400030020020704708488047084981F308883A
:1001500007480047FEE7FEE7FEE7FEE7FEE7FEE7AB
:10016000FEE7FEE7FEE7FEE745010008300200205B
:1001700031010008704700BFFEE700BFFEE700BF87
:10018000FEE700BFFEE700BFFEE77047704770471D
:100190007047000002466C48814216D10A2A0AD1F3
:1001A00000BF6A48008800F080000028F9D00D20C8
:1001B000664B1B1D188000BF6448008800F080005B
:1001C0000028F9D0614B1B1D1A800020704710B524
:1001D0005F48006840F002005D490860142000F0AC
:1001E00049FB5B48006820F002005949086010BDD7
:1001F00000F038FF482000F0E9FA00F067F900202D
:1002000000F0C6FA44F60500524988610120C86131
:100210004F48083800684FF6F071884343F2B04108
:1002200008444B4908390860081F006820F0FF00A7
:1002300040F03400091F086041F64C504349083132
:10024000088042F20C00091D088043A000F05CFF0A
:100250004F4800694E4908614E48006840F001006F
:100260004C4908604B480830006840F0010049499B
:1002700008310860081D006840F00100091D086091
:100280004FF6FF704FF08041888547200885012098
:100290008882088006200121002807DA0A07140E48
:1002A0003D4A00F00F031B1FD45403E00A07130E4E
:1002B0003A4A135400BF06200121814042099200AE
:1002C00002F1E022C2F8001100BF00F0FFF80020A8
:1002D00000F05EFA01E0FFF77AFFFCE710B51C487A
:1002E000001F006800F0010040B14FF0804000881E
:1002F00040F001004FF08041088020E04FF0804046
:10030000008820F001004FF08041088001208882A1
:100310008007808C2249086008460068AA2148436B
:1003200042F2107190FBF1F01D4908600846016827
:100330001CA000F0E9FE40F2DC5000F063FA01205E
:1003400014491431086010BD280000200038014015
:100350000C080140001002402A2A2A2A2A2A2A2AA6
:100360002A2A2A2A2A2A2A2A2A2A73746D333266CA
:10037000313033726374362048432D535230342A5F
:100380002A2A2A2A2A2A2A2A2A2A2A2A2A0A000041
:10039000000001400004014018ED00E000E400E02E
:1003A000000000202564636D2020200A000000006A
:1003B00008B50121182000F07FFD4FF20200ADF8D2
:1003C000000003208DF8020010208DF8030069461C
:1003D000F74800F0D5FA4020ADF8000003208DF872
:1003E000020010208DF803006946F24800F0C8FAB8
:1003F00008BD0021082118E000F080022AB14FF466
:100400000042EB4B10331A6004E04FF40042E84B1B
:1004100014331A604FF40052E54B14331A601B1F5B
:100420001A604206100E4A1ED1B20029E4DC704761
:1004300010B504464FF48050DD4914310860402067
:10044000DC4948612046FFF7D4FF4FF48050D8497B
:100450001031086010BD10B504464FF48050D449E7
:10046000143108604020D34908612046FFF7C1FFDE
:100470004FF48050CE491031086010BD10B50446CD
:100480004FF48050CA49143108604020C9490861BE
:100490002012FFF7AEFFE0B2FFF7ABFF4FF4805042
:1004A000C3491031086010BD30B505460C462846DA
:1004B000FFF7BEFF2046FFF7CEFF30BD10B564202A
:1004C00000F0A0F9322000F09DF910BD10B5FFF743
:1004D0006FFFFFF7F3FF1120FFF7AAFF782000F06E
:1004E00091F9B120FFF7A4FF0120FFF7B4FF2C2002
:1004F000FFF7B1FF2D20FFF7AEFFB220FFF798FF07
:100500000120FFF7A8FF2C20FFF7A5FF2D20FFF704
:10051000A2FFB320FFF78CFF0120FFF79CFF2C20E8
:10052000FFF799FF2D20FFF796FF0120FFF793FFBC
:100530002C20FFF790FF2D20FFF78DFFB420FFF751
:1005400077FF0720FFF787FFC020FFF771FFA2208A
:10055000FFF781FF0220FFF77EFF8420FFF77BFF7C
:10056000C120FFF765FFC520FFF775FFC220FFF729
:100570005FFF0A20FFF76FFF0020FFF76CFFC3202B
:10058000FFF756FF8A20FFF766FF2A20FFF763FF79
:10059000C420FFF74DFF8A20FFF75DFFEE20FFF735
:1005A0005AFFC520FFF744FF0E20FFF754FF362007
:1005B000FFF73EFFC820FFF74EFFE020FFF738FFB0
:1005C0000F20FFF748FF1A20FFF745FF0F20FFF726
:1005D00042FF1820FFF73FFF2F20FFF73CFF2820A6
:1005E000FFF739FF2020FFF736FF2220FFF733FF08
:1005F0001F20FFF730FF1B20FFF72DFF2320FFF701
:100600002AFF3720FFF727FF0020FFF724FF0720EE
:10061000FFF721FF0220FFF71EFF1020FFF71BFF4F
:10062000E120FFF705FF0F20FFF715FF1B20FFF765
:1006300012FF0F20FFF70FFF1720FFF70CFF3320EB
:10064000FFF709FF2C20FFF706FF2920FFF703FF24
:100650002E20FFF700FF3020FFF7FDFE3020FFF7D0
:10066000FAFE3920FFF7F7FE3F20FFF7F4FE0020E7
:10067000FFF7F1FE0720FFF7EEFE0320FFF7EBFE8A
:100680001020FFF7E8FE2A20FFF7D2FE0020FFF738
:10069000E2FE0020FFF7DFFE0020FFF7DCFE7F20F8
:1006A000FFF7D9FE2B20FFF7C3FE0020FFF7D3FE94
:1006B0000020FFF7D0FE0020FFF7CDFE9F20FFF7C0
:1006C000CAFEF020FFF7B4FE0120FFF7C4FEF620BB
:1006D000FFF7AEFE0020FFF7BEFE3A20FFF7A8FEB0
:1006E0000520FFF7B8FE2920FFF7A2FE10BDF0B5E8
:1006F00004460D4616461F462A20FFF799FE0020A5
:10070000FFF7A9FEA11CC8B2FFF7A5FE0020FFF766
:10071000A2FEB11CC8B2FFF79EFE2B20FFF788FE99
:100720000020FFF798FEE91CC8B2FFF794FE0020F6
:10073000FFF791FEF91CC8B2FFF78DFE2C20FFF7E2
:1007400077FEF0BD30B504460D462B4622462946BD
:100750002046FFF7CCFF30BD70B504460D46164667
:10076000681C83B2601C82B229462046FFF7BFFF97
:100770003046FFF783FE70BD60B505460E46314634
:100780002846FFF7DFFFE0B2FFF765FE204660BDB9
:1007900070B506467F231A4600210846FFF7A7FFDB
:1007A0002C20FFF745FE00240DE0002508E00000A6
:1007B000000C0140001001403046FFF75FFE6D1C49
:1007C000802DF9D3641C802CEFD370BD4FF0E02155
:1007D000096921F004014FF0E0221161C21700EB1A
:1007E0005272C2F3C7022F4B1A701946097801EBF7
:1007F0004102C2EBC1114FF6FF7202EAC1012A4A5F
:10080000118070470146284A12884A434FF0E0237E
:100810005A6100229A6101221A6100BF4FF0E02262
:10082000106900F001021AB100F48032002AF5D0FC
:1008300000224FF0E0231A619A6170470146194A7D
:1008400012784A434FF0E0235A6100229A61012254
:100850001A6100BF4FF0E022106900F001021AB1E6
:1008600000F48032002AF5D000224FF0E0231A6114
:100870009A617047411E0D4A11804721121F118055
:1008800001210A4A183A11800921084A2C3A11809C
:1008900000BF06492C39098801F001010029F8D16F
:1008A0007047000010000020120000202C2C014096
:1008B00010B50446C649601A8C422FD009DCC548E1
:1008C000204480B1B0F5806F16D0B0F5006F4AD1EA
:1008D0001BE0B0F5806F2AD0B0F5006F30D0B0F5D6
:1008E000406F40D135E00121042000F0FFFA0021E3
:1008F000042000F0FBFA37E00121082000F0F6FAAE
:100900000021082000F0F2FA2EE00121102000F072
:10091000EDFA0021102000F0E9FA25E00121202065
:1009200000F0E4FA0021202000F0E0FA1CE00121B0
:10093000402000F0DBFA0021402000F0D7FA13E05D
:100940000121802000F0D2FA0021802000F0CEFAB0
:100950000AE00121080200F0C9FA00214FF480707A
:1009600000F0C4FA00E000BF00BF10BD10B50121C7
:10097000084600F0BBFA0021012000F0B7FA10BDD4
:100980002DE9F04102460025002600200023002426
:10099000002791F803C00CF00F0591F803C00CF08C
:1009A000100CBCF1000F03D091F802C04CEA050511
:1009B00091F800C0BCF1000F31D0146800202BE08A
:1009C0004FF0010C0CFA00F3B1F800C00CEA03067A
:1009D0009E4220D183004FF00F0C0CFA03F7BC436A
:1009E00005FA03FC4CEA040491F803C0BCF1280F9B
:1009F00006D14FF0010C0CFA00FCC2F814C00AE05A
:100A000091F803C0BCF1480F05D14FF0010C0CFA6E
:100A100000FCC2F810C0401C0828D1D31460B1F803
:100A200000C0BCF1FF0F34DD546800202EE000F15F
:100A3000080C4FF0010808FA0CF3B1F800C00CEAFA
:100A400003069E4221D183004FF00F0C0CFA03F7EE
:100A5000BC4305FA03FC4CEA040491F803C0BCF162
:100A6000280F05D100F1080C08FA0CF8C2F8148020
:100A700091F803C0BCF1480F07D100F1080C4FF00A
:100A8000010808FA0CF8C2F81080401C0828CED3E0
:100A90005460BDE8F0814FF6FF7101800221817042
:100AA0000421C17070470246002093680B400BB1CF
:100AB000012000E0002070470146886880B270473E
:100AC00002460020D3680B400BB1012000E000205B
:100AD00070470146C86880B2704701617047416144
:100AE00070470AB1016100E041617047C160704721
:100AF0004FF480320A438261816182618269826936
:100B0000704702460020344B18684FF68073184037
:100B100040EA02100843304B186070472F49C86103
:100B20007047F0B50A4600230024002100252A4E14
:100B30007168C0F3034583B200F44016B6F5401F58
:100B400008D121F07061244E766826F07066224F3D
:100B50007E6012E000F48016B6F5801F06D10326F1
:100B600006FA05F4A14341F0706106E0460D360136
:100B700003FA06F6B14341F0706122B1460D360129
:100B800003FA06F63143144E7160F0BD30B5002211
:100B90008B071C0F0F2303FA04F20F4B08338C1042
:100BA00053F8243093430C4C08348D1044F825300E
:100BB00023468C1053F824308C07240F00FA04F4D9
:100BC0002343054C08348D1044F8253030BD000017
:100BD0000014014000F8FEBF000001400000204268
:100BE000DE48006840F00100DC49086008464068C3
:100BF000DB490840D949486008460068D94908409F
:100C0000D64908600846006820F48020086008463D
:100C1000406820F4FE004860002088607047CF499B
:100C2000096821F48031CD4A11601146096821F428
:100C300080211160B0F5803F03D0B0F5802F0ED138
:100C400006E0C649096841F48031C44A116007E0F2
:100C5000C249096841F4A021C04A116000E000BF08
:100C600000BF704710B501460022002300204A1142
:100C7000012A02D1B94C236806E0022A02D1B74CFE
:100C8000236A01E0B54C636A01F01F02012494401D
:100C90001C400CB1012000E0002010BD38B5002040
:100CA00000900024002500BF3120FFF7DBFF054640
:100CB0000098401C00901DB90098B0F5A06FF3D1CA
:100CC0003120FFF7CFFF08B1012400E000242046C7
:100CD00038BD01460020A14A106820F0F80040EA23
:100CE000C10010607047A0490860704702460020AC
:100CF0009A4B586820F47C1042EA01031843974B42
:100D00005860704798490866704701460020934A2A
:100D1000506820F003000843506070478F484068D7
:100D200000F00C007047014600208C4A506820F00B
:100D3000F00008435060704701460020874A506821
:100D400020F4E06008435060704701460020834A69
:100D5000506820F4605040EAC1005060704729B1EB
:100D60007E4A527A02437D4B5A7204E07B4A527AA1
:100D700082437A4B5A7270477B49D831086070477A
:100D800001460020754A506820F4404008435060F6
:100D900070470021714A20321170704A82F8201089
:100DA000012802D004280AD104E001216B4A203234
:100DB000117005E00521694A2032117000E000BF82
:100DC00000BF70476949086070476449096A014378
:100DD000624A11627047654944390860704730B50E
:100DE00000210022002400235C4D6D6805F00C01F9
:100DF00021B1042905D0082923D105E05C4D056007
:100E000022E05B4D05601FE0544D6D6805F47012E3
:100E1000022505EB9242514D6D6805F480341CB9F2
:100E2000544D554305600BE04C4D6D6805F400359D
:100E30001DB1504D5543056002E04D4D55430560D1
:100E400002E04B4D056000BF00BF444D6D6805F0EA
:100E5000F0010909484D6B5C0568DD4045603F4D78
:100E60006D6805F4E061090A434D6B5C4568DD403F
:100E700085603A4D6D6805F46051C90A3E4D6B5C62
:100E80004568DD40C560354D6D6805F44041890B0E
:100E90003A4D6B5CC568B5FBF3F5056130BD29B112
:100EA0002E4A526902432D4B5A6104E02B4A526983
:100EB00082432A4B5A61704729B1284A92690243FA
:100EC000264B9A6104E0254A92698243234B9A613A
:100ED000704729B1214AD2690243204BDA6104E00C
:100EE0001E4AD26982431D4BDA61704729B11B4A01
:100EF000D2680243194BDA6004E0184AD268824390
:100F0000164BDA60704729B1144A12690243134B39
:100F10001A6104E0114A12698243104B1A6170474A
:100F200012494039086070470F49C86470470B493F
:100F3000C87170470948406A40F0807007494862AC
:100F4000704701460020054A92680A400AB1012014
:100F500000E000207047014988727047001002408D
:100F60000000FFF8FFFFF6FE00004242800442420C
:100F700000127A0000093D00140000202400002027
:100F80000CB50020019000904748006840F4803084
:100F90004549086000BF4448006800F400300090F4
:100FA0000198401C0190009818B90198B0F5A06F05
:100FB000F1D13D48006800F4003010B101200090EC
:100FC00001E0002000900098012844D137480068D3
:100FD00040F01000354908600846006820F0030022
:100FE00008600846006840F0020008602E4840682B
:100FF0002D4948600846406848600846406840F40B
:10100000806048600846406820F47C1048600846CC
:10101000406840F4E81048600846006840F080707E
:10102000086000BF2048006800F000700028F9D078
:101030001D48406820F003001B494860084640688E
:1010400040F00200486000BF1748406800F00C0004
:101050000828F9D101E000BFFEE70CBD10B5FFF78D
:101060008FFF10BD10B51048006840F001000E4918
:101070000860084640680E4908400B494860084629
:1010800000680C490840084908600846006820F4D8
:10109000802008600846406820F4FE004860002078
:1010A0008860FFF7DBFF10BD001002400020024007
:1010B0000000FFF8FFFFF6FE30B50B4601460020AA
:1010C0002022012409E021FA02F59D4205D303FA0A
:1010D00002F5491B04FA02F52844151EA2F101028B
:1010E000F1DC30BD064C074D06E0E06840F001033E
:1010F00094E8070098471034AC42F6D3FFF71CF889
:101100009C120008BC1200080FB4054B10B503A9CF
:10111000044A029800F018F810BC5DF814FB0000B7
:10112000950100082800002002E008C8121F08C12D
:10113000002AFAD170477047002001E001C1121F58
:10114000002AFBD1704700002DE9FF4F89B09B4674
:101150000446002506E025280BD05A460B999047F7
:10116000641C6D1C20780028F5D10DB02846BDE820
:10117000F08F0027B8460122474900E0074314F8E2
:10118000013F203B02FA03F00842F7D120782E28D5
:1011900019D114F8010F47F004072A280ED06FF078
:1011A0002F022078A0F1300109290CD808EB880122
:1011B00002EB410100EB0108641CF2E70A98641C91
:1011C00050F8048B0A9020780028CED0642808D0EC
:1011D000692806D075281ED05A460B9990476D1C79
:1011E00058E00A994FF00A0901C90A91002802DA69
:1011F00040422D2102E0390504D52B218DF8201025
:10120000012103E0F90704D02021F7E78A4608AE60
:101210000DE00021FAE70A994FF00A0901C90A9185
:10122000F7E74946FFF748FF303106F8011D00286F
:10123000F7D1ADEB060000F12009780701D44FF09B
:101240000108C84502DDA8EB090000E00020804647
:10125000002706E008A85A46C05D0B9990476D1C10
:101260007F1C5745F6DB04E030205A460B99904727
:101270006D1CB8F10001A8F10108F5DC05E016F8D5
:10128000010B5A460B9990476D1CB9F10001A9F169
:101290000109F4DC641C65E709280100BC120008A0
:1012A000000000202C00000028110008E8120008AF
:1012B0002C0000200402000038110008000000008B
:1012C000000000000000000000000000000000001E
:1012D00000000000010203040102030406070809DC
:0812E0000204060800000000F2
:0400000508000131BD
:00000001FF
