:020000040800F2
:10000000A030002045010008590F0008D10D00085C
:10001000550F0008090500087D1A000800000000BF
:100020000000000000000000000000001B16000897
:1000300061050008000000004512000805170008CF
:100040005F0100085F0100085F0100085F01000810
:100050005F0100085F0100085F0100085F01000800
:100060005F0100085F0100085F0100085F010008F0
:100070005F0100085F0100085F0100085F010008E0
:100080005F0100085F0100085F0100085F010008D0
:100090005F0100085F0100085F0100085F010008C0
:1000A0005F0100085F0100085F0100085F010008B0
:1000B0005F0100085F0100085F0100085F010008A0
:1000C0005F0100085F0100085F0100085F01000890
:1000D0005F0100081D1900085F0100085F010008AA
:1000E0005F0100085F0100085F0100085F01000870
:1000F0005F0100085F0100085F0100085F01000860
:100100005F0100085F0100085F0100085F0100084F
:100110005F0100085F0100085F0100085F0100083F
:100120005F0100085F0100085F0100085F0100082F
:10013000DFF80CD000F040F800480047ED1C000844
:10014000A03000200648804706480047FEE7FEE74B
:10015000FEE7FEE7FEE7FEE7FEE7FEE7FEE7FEE777
:100160000917000831010008D2B201E000F8012BA4
:10017000491EFBD270470022F6E710B513460A4627
:1001800004461946FFF7F0FF204610BD30B50B4678
:10019000014600202022012409E021FA02F59D42B7
:1001A00005D303FA02F5491B04FA02F52844151E8B
:1001B000A2F10102F1DC30BD064C074D06E0E0681B
:1001C00040F0010394E8070098471034AC42F6D39E
:1001D000FFF7B2FF202200084022000821B1826808
:1001E00042F00102826003E0826822F00102826034
:1001F0007047000000B591B000F05EF94FF4004088
:1002000001F022F8354800F07BF800200C90012026
:100210008DF834008DF835004FF460200E900020EA
:100220000F9003208DF840000CA92C4800F0AAF88C
:10023000072301220021294800F0CCF807230222DD
:100240000121264800F0C6F8072303220221234893
:1002500000F0C0F801212148FFF7C0FF01211F482D
:1002600000F042F81D4800F011F900BF1B4800F0F3
:100270007FF80028FAD1194800F018F900BF174894
:1002800000F06CF80028FAD10121084600F0E8FFE0
:1002900012484C30019012480290002003901E201A
:1002A0000490002005908020069040000790800078
:1002B00008902020099000020A9000200B9001A9CC
:1002C000084800F02FF90121064800F01FF901212C
:1002D000024800F0E0F811B000BD00000024014029
:1002E000700400200800024021B1826842F480724C
:1002F000826003E0826822F48072826070470000AE
:1003000010B504461248844208D10121401500F07E
:10031000D7FF0021601500F0D3FF17E00D4884429D
:1003200008D10121001500F0CBFF0021201500F0BD
:10033000C7FF0BE00848844208D10121C80300F040
:10034000BFFF00214FF4004000F0BAFF10BD0000D5
:100350000024014000280140003C014001460020EB
:100360008A6802F004020AB1012000E00020704710
:10037000014600208A6802F008020AB1012000E06C
:100380000020704730B502460020002350680F4C13
:1003900020400D790C6844EA0524204350609068A1
:1003A0000B4C2040D1E902542C434D7944EA4504DA
:1003B00020439060D06A20F470000C7C641EE4B28C
:1003C000234340EA0350D06230BD0000FFFEF0FF3F
:1003D000FDF7F1FFF0B504460D4600200021092D80
:1003E00011DDE068A5F10A0606EB4607072606FAC6
:1003F00007F18843A5F10A0606EB460603FA06F163
:100400000843E0600CE0206905EB4507072606FA83
:1004100007F1884305EB450603FA06F1084320611E
:10042000072A0FDA606B561E06EB86071F2606FAB0
:1004300007F18843561E06EB860605FA06F10843C7
:10044000606322E00D2A0FDA206BD61F06EB8607C9
:100450001F2606FA07F18843D61F06EB860605FA23
:1004600006F10843206310E0E06AA2F10D0606EBF6
:1004700086071F2606FA07F18843A2F10D0606EB50
:10048000860605FA06F10843E062F0BD816841F096
:1004900008018160704721B1826842F4A002826045
:1004A00003E0826822F4A00282607047816841F014
:1004B000040181607047000008B501214FF401700C
:1004C00000F0EEFE0420ADF8000000208DF80300DF
:1004D00069460C4800F020FA0120ADF80000002029
:1004E0008DF803006946074800F016FA0220ADF8BF
:1004F000000000208DF803006946024800F00CFA65
:1005000008BD00000008014000BFFEE721B10268FD
:1005100042F00102026004E002684FF6FE731A40E6
:100520000260704710B50022026847F6F0739A43E4
:100530000C6A8B6823430C6923434C6923438C6901
:100540002343CC6923434C6A23438C6A23431A43D5
:100550000260CB6843600B6883604B68C36010BD6A
:100560007047000030B5044604254FF4302000F0F9
:100570006FF80546042D17D10C48006940F00200C1
:100580000A49086108464461006940F0400008617A
:100590004FF4302000F05CF805460448006941F64D
:1005A000FD71084001490861284630BD0020024025
:1005B00004200B49C96801F0010109B101200EE0D6
:1005C0000749C96801F0040109B1022007E00449A4
:1005D000C96801F0100109B1032000E00420704750
:1005E000002002400348006940F080000149086192
:1005F000704700000020024070B504460D460426F6
:10060000F00200F025F80646042E11D109480069D1
:1006100040F00100074908612580F00200F018F859
:1006200006460448006941F6FE7108400149086128
:10063000304670BD0020024002480349486003482C
:10064000486070472301674500200240AB89EFCD29
:1006500000B502460423FFF7ABFF034603E0FFF7B4
:10066000A7FF0346521E012B01D1002AF7D102B980
:100670000523184600BD70B505464FF4F0712846B5
:10068000FFF779FD002406E001202855012105F53A
:10069000E8700155641C102CF6DB002407E00120F3
:1006A00005EB0411087005EB0411C873641C1E2CC3
:1006B000F5DB70BD7CB5044617E001A801F0CEF86B
:1006C000684601F0CBF8019800F00F061E21009853
:1006D000B0FBF1F201FB120504EB0510805D20B9BF
:1006E000022004EB0511885500E0E6E700BF7CBD61
:1006F000F0B5044604270F25276065606D1CE46093
:10070000A460002605E0AA193946204600F022F828
:10071000761C042EF7DB2146014800F00CF8F0BDF2
:10072000AC04002030B5CA680023546800EB041400
:100730001568635530BD30B50246084606E0012312
:10074000446802EB04140568635580688368002BD5
:10075000F5D130BDF0B50446C368154D154E366869
:1007600005EB06152960124D124E366805EB06158D
:100770006A6000250E4E0F4F3F6806EB0716B56006
:100780000B4D0C4E366805EB0615EB60084D094E17
:10079000366805EB0615E560054D064E366805EB37
:1007A00006159D60034D2D686D1C024E3560F0BD31
:1007B0008C060020340000202DE9F05F80460E46B4
:1007C00091461F464FF0010B31464046FFF7AAFF06
:1007D0003446F56806E0E86800682860E868406824
:1007E0006860ED68B542F6D1B9F1010F11D0B9F1E9
:1007F000020F0AD0B9F1030F03D0B9F1040F10D1E1
:100800000BE06068401E60600CE06068401C606047
:1008100008E02068401E206004E02068401C206042
:1008200000E000BF00BF606808EB0010216810F80E
:1008300001A0BAF1000F06D0BAF1010F04D0BAF14D
:10084000020F29D10BE028E001201849086000F0D0
:10085000A3F917A001F026F94FF0000B1DE0304678
:10086000D4E90012FFF776FF4046FFF723FF386810
:10087000401C38601248006812490968884202DD4D
:100880000F48006801E00F4800680D4908600846FD
:10089000006801F0F5F800E000BF00BF31464046B7
:1008A000FFF749FF5846BDE8F09F00002C000020EC
:1008B000D3CECFB7BDE1CAF8A3A10D0A0000000056
:1008C000300000202800002008B501210C2000F095
:1008D000E7FC0121042000F0E3FC0320ADF8000058
:1008E00010208DF8030003208DF8020069460848A7
:1008F00000F012F8A020ADF8000010208DF80300E1
:1009000003208DF802006946024800F005F808BD92
:10091000000C0140000801402DE9F041024600258D
:100920000026002000230024002791F803C00CF0CB
:100930000F0591F803C00CF0100CBCF1000F03D0B0
:1009400091F802C04CEA050591F800C0BCF1000F17
:1009500031D0146800202BE04FF0010C0CFA00F3AA
:10096000B1F800C00CEA03069E4220D183004FF08C
:100970000F0C0CFA03F7BC4305FA03FC4CEA040421
:1009800091F803C0BCF1280F06D14FF0010C0CFA0E
:1009900000FCC2F814C00AE091F803C0BCF1480F93
:1009A00005D14FF0010C0CFA00FCC2F810C0401C3D
:1009B0000828D1D31460B1F800C0BCF1FF0F34DDBA
:1009C000546800202EE000F1080C4FF0010808FAEE
:1009D0000CF3B1F800C00CEA03069E4221D183005B
:1009E0004FF00F0C0CFA03F7BC4305FA03FC4CEA7A
:1009F000040491F803C0BCF1280F05D100F1080CE4
:100A000008FA0CF8C2F8148091F803C0BCF1480F42
:100A100007D100F1080C4FF0010808FA0CF8C2F8F1
:100A20001080401C0828CED35460BDE8F08141619D
:100A300070470161704700002DE9F04F06460F46F0
:100A400090464FF00009A8F120001749082202FB48
:100A5000001A002424E04FF0000900251AE09AF85B
:100A60000000802141FA09F10840002801DD012041
:100A700000E0002083463219C2F13F02D1B27A1958
:100A8000D0B25A4600F002FA09F1010000F0FF0965
:100A9000681CC5B2082DE2DB0AF1010A601CC4B271
:100AA000082CD8DBBDE8F08F201E0008F0B50F231E
:100AB0000024002069E00024082162E0CD1701EB4A
:100AC0009575AD10A1EB850515B9082900D0641CFA
:100AD0002F4A02EB0412D25C4AB3024600EBD275F5
:100AE0006D10A0EB450585B900EBD2756D10294E50
:100AF00006EBC5156D5C45F00F0500EBD276761060
:100B0000244F07EBC61675543AE0024600EBD27547
:100B10006D10204E06EBC5156D5C45F0F00500EB41
:100B2000D27676101B4F07EBC616755428E00246A6
:100B300000EBD2756D10A0EB450585B900EBD275C1
:100B40006D10144E06EBC5156D5C05F0F00500EB5D
:100B5000D27676100F4F07EBC616755410E002469A
:100B600000EBD2756D100B4E06EBC5156D5C05F0F4
:100B70000F0500EBD2767610064F07EBC6167554BC
:100B8000491C80299ADB5B1E401C102893DBF0BDBA
:100B9000AC0400207000002010B54FF480611048B4
:100BA000FFF7E9FA0FA23221002000F019FA10A293
:100BB0004621002000F014FA0F484621026819204F
:100BC00000F0A2FA0DA25021002000F009FA0D4811
:100BD00050210268192000F097FA00F009FB10BDBF
:100BE0007000002047414D45204F564552000000FF
:100BF0005363723A20000000280000204873743AC2
:100C0000200000003000002010B54FF480611A4829
:100C1000FFF7B1FA19A21E21002000F0E1F919A294
:100C20002821002000F0DCF919A23221002000F078
:100C3000D7F91AA23C21002000F0D2F91AA25021C3
:100C4000052000F0CDF91A48502102681E2000F05E
:100C50005BFA00F0CDFA17480068B0F57A7F05D14D
:100C600000F038F900201349086004E011480068DA
:100C7000401C1049086010BD70000020506C656178
:100C800073650000707265737320746865000000FE
:100C90007265736574206B6579000000746F207352
:100CA000746172742E0000003030302D2D00000071
:100CB000300000203C00002070B5044600250026CE
:100CC00037480068012803D1052C01D0002070BDF1
:100CD00034480068C0F10500A04200D1FF24042C74
:100CE0001DD006DC012C19D0022C19D0032C52D1B6
:100CF00017E0052C2FD0FF2C4DD1C8202A490860C1
:100D00004FF4FA71294800F065F828B1274800F03F
:100D1000A5FD2448047800E03EE000BF00BF00BF0E
:100D200000BF21480168224800F054F890B12048E3
:100D300000F094FD96201C4908601A4804601D4B81
:100D400022461D491D48FFF737FD054621461CA0D8
:100D500000F0A8FE20E04FF47A711C4800F03AF849
:100D6000C0B11A4800F07AFD00200D490860114911
:100D7000086003200B4908601048FFF77CFC0E4810
:100D8000FFF7B6FC0D48FFF795FC012521460CA0A6
:100D900000F088FE00E000BF00BF284697E7000093
:100DA0002C0000203800002024000020200000201B
:100DB00018000020280000208C240020AC04002013
:100DC0006576656E743D25640D0A00001C000020E8
:100DD00000BFFEE72DE9F04104460D46064800F04D
:100DE000E7FC06462068371AAF4202D90120BDE869
:100DF000F0810020FBE700000008004070B5FF26EE
:100E000000F052FF1E48006888B91E488088C0F371
:100E100003201D49086008460068401E0860184805
:100E2000006808B9012000E0002015490860154855
:100E30008088C0F30324641E13480068401EA0424B
:100E400001DD012604E010480068844200DD04262C
:100E50000C484088C0F303250B480068401EA84298
:100E600001DD032604E008480068854200DD022613
:100E700004480088FF2800DC0526F0B270BD0000A1
:100E8000100000200800002014000020F0B5012A06
:100E900000DD01220E46CF1701EB5777FF10A1EBC3
:100EA000C707FCB2CF1701EB5777C7F3C705084E4A
:100EB00006EBC516335C0126A640B34302FA04F6DE
:100EC0001E43F3B2024E06EBC5163354F0BD0000CC
:100ED0007000002010B50D48006810B1012812D133
:100EE00008E04FF480710A48FFF7A1FD012007498F
:100EF000086009E04FF480710548FFF79AFD002073
:100F00000249086000E000BF00BF10BD40000020A3
:100F10000008014008B510208DF803000001ADF86D
:100F2000000003208DF8020069460848FFF7F4FC32
:100F30004FF40060ADF8000069460548FFF7ECFC8F
:100F40004FF400610248FFF774FD08BD000801403E
:100F5000000C014000BFFEE77047000070B50021A3
:100F600000230F22C47804B3154C246804F4E06411
:100F7000C4F5E064210AC1F10403CA40447804FACC
:100F800003F184781440214309010E4C0678A155E1
:100F9000047804F01F050124AC4005786D11AD0004
:100FA00005F1E025C5F8004109E0047804F01F05CB
:100FB0000124AC40044D0678761145F8264070BDFA
:100FC0000CED00E000E400E080E100E002490143B4
:100FD000024A1160704700000000FA050CED00E0C5
:100FE00070B504460E4615460AE02A78B1B2A0B2A2
:100FF000FFF722FD6D1CA41D402C01DB00240A36E6
:1010000028780028F1D170BD08B50121082000F032
:1010100047F94FF4487000F028FEFFF755FC022016
:1010200038490860AE2000F08FF8202000F08CF8DE
:10103000102000F089F8B02000F086F8C82000F0F9
:1010400083F8002000F080F8102000F07DF84020A8
:1010500000F07AF8812000F077F8FF2000F074F8B3
:10106000A12000F071F8A62000F06EF8A82000F092
:101070006BF83F2000F068F8A42000F065F8D3205A
:1010800000F062F8002000F05FF8D52000F05CF876
:10109000F02000F059F8D92000F056F8222000F096
:1010A00053F8DA2000F050F8122000F04DF8DB2061
:1010B00000F04AF8202000F047F88D2000F044F8B6
:1010C000142000F041F8AF2000F03EF810208DF819
:1010D00003008001ADF8000003208DF8020069468E
:1010E00008481438FFF718FC4FF48061054814389D
:1010F000FFF79DFC4FF4806102481438FFF799FC1C
:1011000008BD0000140C0140F8B506460F46144611
:101110000CA00068009002250CE00A2094FBF0F17E
:1011200000FB11403030C0B20DF805000A2094FBDE
:10113000F0F46D1E002CF0DC6A4639463046FFF7AD
:101140004FFFF8BD303030000122124B1A600222EE
:101150001A60002114E020220F4B1A6000F0800278
:101160001AB180221B1F1A6002E080220A4B1A600B
:101170002022094B1B1F1A6000BF40004A1CD1B23D
:101180000829E8DB0122034B1B1F1A6002221A60A8
:1011900070470000140C0140140801400122124B5A
:1011A0001A6002221B1D1A60002114E020220F4B3E
:1011B0001A6000F080021AB180221B1F1A6002E040
:1011C00080220A4B1A602022084B1B1F1A6000BFA6
:1011D00040004A1CD1B20829E8DB0122024B1A6008
:1011E00002221A6070470000100C014014080140F0
:1011F00030B5022011490860002417E004F1B00066
:10120000FFF7A2FF0020FFF79FFF1020FFF79CFFD2
:10121000002507E00A4901EBC411485DFFF7BEFF56
:10122000681CC5B2802DF5DB601CC4B2082CE5DB60
:1012300002200249091F086030BD0000140C014063
:10124000700000207047000001460020034A5068EB
:1012500020F44040084350607047000000100240F6
:1012600029B1064A52690243044B5A6104E0034A19
:1012700052698243014B5A617047000000100240DE
:1012800029B1064AD2690243044BDA6104E0034AF9
:10129000D2698243014BDA617047000000100240BE
:1012A00029B1064A92690243044B9A6104E0034A59
:1012B00092698243014B9A6170470000001002401E
:1012C00029B1064AD2680243044BDA6004E0034ABB
:1012D000D2688243014BDA60704700000010024080
:1012E00030B500210022002400232D4D6D6805F04B
:1012F0000C0121B1042905D0082923D105E0294D8D
:10130000056022E0274D05601FE0254D6D6805F45E
:101310007012234D6D6805F48034022505EB92426E
:101320001CB9214D554305600BE01D4D6D6805F45A
:1013300000351DB11C4D5543056002E0194D554364
:10134000056002E0174D056000BF00BF144D6D68D9
:1013500005F0F0010909154D6B5C0568DD4045603D
:101360000F4D6D6805F4E061090A104D6B5C45682E
:10137000DD4085600A4D6D6805F46051C90A0B4D6A
:101380006B5C4568DD40C560054D6D6805F4404106
:10139000890B074D6B5CC568B5FBF3F5056130BD86
:1013A0000010024000127A0000093D0044000020B5
:1013B0005400002001460020034A506820F4E060F9
:1013C0000843506070470000001002402DE9FC41C6
:1013D000054600260027B04640A000680190002086
:1013E00000900024032201A93D4800F07BF800BFD3
:1013F00005E0781C87B208F101001FFA80F801A807
:1014000010F808000028F4D1002436E001A8005D9F
:1014100030380A282ED2DFE800F005090D11151921
:101420001D21252900200DF8040023E001200DF8DE
:1014300004001FE002200DF804001BE003200DF85B
:10144000040017E004200DF8040013E005200DF857
:1014500004000FE006200DF804000BE007200DF853
:10146000040007E008200DF8040003E009200DF84F
:10147000040000BF00BF601CC4B2032CC6DB012FF8
:1014800004D0022F05D0032F1BD10BE09DF8006084
:1014900019E09DF801009DF8001001EB810100EBBF
:1014A000410610E09DF80000642148439DF80110BA
:1014B00001EB810100EB41009DF80210084486B267
:1014C00001E0002600BF00BFB6F5C87F01DC2E603A
:1014D00001E000202860BDE8FC81000030303000D1
:1014E0000000020830B503460C461546002207E00E
:1014F000184600F008F824F812009B1C501C82B219
:10150000AA42F5DB30BD0146088870472DE9F05F3F
:1015100080468A461746B8F1006F02D333488045AB
:1015200001D3BDE8F09FFFF787F8A8F1006B4FEA01
:10153000DB25CBF34909C9F58064A74200DC3C46B2
:101540004DE04FF0006101EBC5204A142849FFF738
:10155000C9FF00260BE009EB0600254931F8100011
:101560004FF6FF71884200D003E0701C86B2A6429D
:10157000F1DB00BFA6421BDA4FF0006101EBC52092
:10158000FEF7F0FF002608E03AF8160006EB090126
:10159000174A22F81100701C86B2A642F4DB4FF005
:1015A000006101EBC5204A14114900F023F804E062
:1015B00022465146404600F01DF8A74200D10FE0F8
:1015C0006D1C4FF000090AEB440AA044381B87B297
:1015D000B7F5806F02DD4FF4806400E03C46B0E771
:1015E00000BFFEF7FFFF00BF9BE7000000000408FC
:1015F0009C2400202DE9F04105460E4617460024A4
:1016000007E036F814102846FEF7F6FFAD1C601C04
:1016100084B2BC42F5DBBDE8F081704710B500F044
:1016200001F810BD0CB5002001900090334800680F
:1016300040F480303149086000BF3048006800F451
:10164000003000900198401C0190009818B9019852
:10165000B0F5A06FF1D12948006800F4003010B156
:101660000120009001E0002000900098012843D163
:101670002348006840F010002149086008460068CF
:1016800020F0030008600846006840F0020008608F
:101690001A4840681949486008464068486008464A
:1016A000406840F4806048600846406820F47C1040
:1016B00048600846406840F4E81048600846006802
:1016C00040F08070086000BF0C48006800F00070B7
:1016D0000028F9D00948406820F003000749486015
:1016E0000846406840F00200486000BF0348406878
:1016F00000F00C000828F9D10CBD000000100240D9
:10170000002002407047000010B51348006840F008
:1017100001001149086008464068104908400E4918
:101720004860084600680E4908400B4908600846B2
:10173000006820F4802008600846406820F4FE001D
:1017400048604FF41F008860FFF768FF4FF00060AB
:101750000449086010BD0000001002400000FFF8BE
:10176000FFFFF6FE08ED00E00EB501210420FFF7B3
:1017700087FD4FF6FF70ADF8040048F69F40ADF8C6
:1017800000006946034800F017F80121014800F005
:1017900003F80EBD0008004021B1028842F00102AA
:1017A000028004E002884FF6FE731A400280704700
:1017B0000146888C70470000002202881D4B984229
:1017C0000ED01D4B98420BD0B0F1804F08D01B4B70
:1017D000984205D01A4B984202D01A4B984204D135
:1017E0004FF68F731A404B881A43174B984207D015
:1017F000164B984204D04FF6FF431A40CB881A4349
:1018000002808B8883850B8803850A4B98420BD016
:10181000094B984208D00E4B984205D00D4B984288
:1018200002D00D4B984201D10B7A038601238382AB
:1018300070470000002C01400034014000040040CB
:1018400000080040000C0040001000400014004060
:1018500000400140004401400048014010B50446EA
:101860000248FFF7A5FF206010BD000000080040FF
:1018700000B587B0012144F20400FFF711FD4FF4D9
:10188000E060FFF7A3FB25208DF8040001208DF810
:10189000050000208DF8060001208DF8070001A842
:1018A000FFF75CFB4FF40070ADF8180018208DF8BE
:1018B0001B0003208DF81A0006A91648FFF72CF824
:1018C0004FF48060ADF8180004208DF81B0006A9C5
:1018D0001048FFF721F84FF4E13002900020ADF8F6
:1018E0000C00ADF80E00ADF81000ADF814000C209F
:1018F000ADF8120002A9084800F050F8012240F2A9
:101900002551054800F024F80121034800F007F8AC
:1019100007B000BD0008014000380140704721B108
:10192000828942F40052828104E082894DF6FF737D
:101930001A408281704702460020B1F5007F00D135
:1019400000BF13880B400BB1012000E0002070475E
:10195000F0B50346002400260025002040F66A1753
:10196000B94200D100BF1846C1F3421401F01F066E
:10197000012707FA06F5012C01D10C3004E0022CF6
:1019800001D1103000E014301AB107682F4307600E
:1019900002E00768AF430760F0BD00002DE9F047A3
:1019A00086B005460E460024A24600BFA146002789
:1019B000B08900B100BF2F462C8A4CF6FF7004405E
:1019C000F08804432C82AC894EF6F3100440B088B2
:1019D00031890843718908430443AC81AC8A4FF6CE
:1019E000FF400440B0890443AC8201A8FFF778FCB3
:1019F0001F48874202D1DDF810A001E0DDF80CA0FD
:101A0000A88900F4004040B10AEBCA0000EB0A10BC
:101A100031684900B0FBF1F807E00AEBCA0000EBBF
:101A20000A1031688900B0FBF1F86420B8FBF0F0CF
:101A300004012009642101FB1089A88900F40040F9
:101A400040B1322000EBC900B0FBF1F000F007001C
:101A5000044308E0322000EB09106421B0FBF1F0F0
:101A600000F00F0004432C8106B0BDE8F0870000B1
:101A700000380140C1F308028280704700BFFEE7D2
:101A800038B50446A5B22A4604A1684600F01AF803
:101A9000032269460248FFF739FD38BD256400007E
:101AA000000002080FB4054B10B503A9044A0298C0
:101AB00000F02CF810BC5DF814FB0000851C000839
:101AC000580000200FB4084B10B504A902AA0398CF
:101AD00000F01CF8044602A9002000F0C1F82046DE
:101AE00010BC5DF814FB0000611C000802E008C88F
:101AF000121F08C1002AFAD170477047002001E088
:101B000001C1121F002AFBD1704700002DE9FF4FD1
:101B100089B09B460446002506E025280BD05A468E
:101B20000B999047641C6D1C20780028F5D10DB0EE
:101B30002846BDE8F08F0027B8460122474900E05B
:101B4000074314F8013F203B02FA03F00842F7D1A3
:101B500020782E2819D114F8010F47F004072A28FD
:101B60000ED06FF02F022078A0F1300109290CD897
:101B700008EB880102EB410100EB0108641CF2E76D
:101B80000A98641C50F8048B0A9020780028CED064
:101B9000642808D0692806D075281ED05A460B99AB
:101BA00090476D1C58E00A994FF00A0901C90A9143
:101BB000002802DA40422D2102E0390504D52B210C
:101BC0008DF82010012103E0F90704D02021F7E768
:101BD0008A4608AE0DE00021FAE70A994FF00A099B
:101BE00001C90A91F7E74946FEF7D0FA303106F805
:101BF000011D0028F7D1ADEB060000F120097807A0
:101C000001D44FF00108C84502DDA8EB090000E04F
:101C100000208046002706E008A85A46C05D0B99C0
:101C200090476D1C7F1C5745F6DB04E030205A4678
:101C30000B9990476D1CB8F10001A8F10108F5DC83
:101C400005E016F8010B5A460B9990476D1CB9F147
:101C50000001A9F10109F4DC641C65E70928010011
:101C60000A68531C0B6010707047002107E00022C7
:101C700000E0521C41F27C539A42FADB491C81423B
:101C8000F5DB704770B504460D46E1B20548FFF735
:101C9000F1FE00BF40210348FFF74DFE0128F9D1B6
:101CA000204670BD0038014010B5002016E000222B
:101CB000002109E001EB41030A4C04EB430333F834
:101CC00010301A444B1CD9B20A29F3DB0A2392FBC9
:101CD000F3F3054C24F81030431CD8B20328E6DB9C
:101CE00010BD0000700400200800002000244FF404
:101CF000A060FFF75FFBFFF7BBFDFFF70BF9FFF7F6
:101D000033FDFEF777FAFFF77FF91948FFF75EFB1F
:101D1000FEF77AFF1748FFF7A1FD28E0FFF76EF8FE
:101D2000154908700846007800F034F81248007829
:101D3000FEF7C2FF114908700846007880B1FEF72F
:101D4000B5FEFFF755FA0A4803680D480DA1026871
:101D50000F48FFF7B7FE0E4A00210846FFF740F98B
:101D6000FA2C03D1FFF7B6F8002400E0641CD5E795
:101D700030000020000000200400002005000020AA
:101D800028000020533D25642C20483D2564000098
:101D90005C00002010B5044616480078042814D0D2
:101DA00006DC01280DD0022807D003281DD110E041
:101DB000052812D0FF2818D113E00FA0FFF772FEFC
:101DC00013E00FA0FFF76EFE0FE00FA0FFF76AFE13
:101DD0000BE00FA0FFF766FE07E00EA0FFF762FE24
:101DE00003E00DA0FFF75EFE00BF00BF0BA0FFF7F2
:101DF00059FE10BD04000020446F776E0000000003
:101E00004C45465400000000524947485400000029
:101E100055500000524553004E4F4E000A0000003E
:101E20000000000000000000FA00000000000000B8
:101E3000E000E0000000000028FE28FE280000006E
:101E40002454FE5448000000C4C810264600000078
:101E50006C92AA440A000000A0C00000000000002C
:101E60003844820000000000824438000000000076
:101E7000105438541000000010107C1010000000A6
:101E800004060000000000001010101010000000F8
:101E900000000606000000000408102040000000BA
:101EA0007C8A92A27C0000000042FE02000000003A
:101EB000468A929262000000448292926C00000076
:101EC000182848FE08000000E4A2A2A29C0000001E
:101ED0003C5292920C000000808E90A0C000000046
:101EE0006C9292926C0000006092929478000000D4
:101EF0006C6C0000000000003436000000000000A0
:101F0000102844820000000028282828280000000B
:101F1000824428100000000040808A906000000089
:101F20004C929E827C0000007E9090907E0000008B
:101F3000FE9292926C0000007C828282440000003B
:101F4000FE82824438000000FE92929282000000DD
:101F5000FE909090800000007C82828A4E000000FB
:101F6000FE101010FE00000082FE82000000000043
:101F7000040282FC80000000FE1028448200000061
:101F8000FE02020202000000FE403040FE0000009F
:101F9000FE201008FE0000007C8282827C0000008F
:101FA000FE909090600000007C828A847A0000009D
:101FB000FE90989462000000649292924C0000009F
:101FC0008080FE8080000000FC020202FC00000015
:101FD000F8040204F8000000FC021C02FC000000EF
:101FE000C6281028C6000000C0201E20C000000027
:101FF000868A92A2C2000000FE82820000000000D9
:1020000040201008040000008282FE000000000052
:102010002040804020000000000000000000000080
:102020008040200000000000042A2A2A1E00000030
:10203000FE1222221C0000001C22221400000000BC
:102040001C222212FE0000001C2A2A2A180000006E
:10205000107E9040000000001825253E0000000082
:10206000FE1020201E000000BE0000000000000046
:102070000020BE0000000000FE0814220000000046
:1020800082FE0200000000003E2010201E00000022
:102090003E10203E000000001C22221C0000000018
:1020A0003E242418000000001824243E00000000F4
:1020B0003E10200000000000122A2A240000000028
:1020C00020FE2204000000003C02023E000000004E
:1020D00038040204380000003C020C023C000000FE
:1020E00022140814220000003804043E00000000FE
:1020F00022262A3222000000106C8200000000001C
:1021000000FE000000000000826C100000000000D3
:10211000408080408000000000F6FE8460D6C00051
:1021200000BEFEA854B21A0000DEFE0208C0120073
:10213000000000000000000000000000000000009F
:10214000000000000000000000000000000000008F
:10215000000000000000000000000000000000007F
:10216000000600C0000000000006080000C040009B
:10217000000608004088C80000060808C04080002B
:10218000000E0000C8008800000E0008C8C008004B
:10219000000E0808C000480008060000C00808003B
:1021A00008060008C800C00008060800C808C800E3
:1021B000080E000000C84000080E0000C8084000DB
:1021C000080E0008C0884800000600C0000000009B
:1021D000808080808080C0003E3E1E0E060200008F
:1021E00008000404000000008A02440022202000AD
:1021F0009810541032001000000000000000000091
:1022000000000000000000000000000000000000CE
:1022100000000000000000000000000000000000BE
:1022200040220008000000205C000000EC1A0008BA
:102230009C2200085C00002044300000FC1A0008CA
:10224000000000000000000000000000000000008E
:10225000000000000000000000000000000000007E
:1022600000000000C80000000000000001000000A5
:10227000000000000000000003000000000000005B
:10228000000000000000000001020304010203043A
:0C22900006070809020406080000000010
:0400000508000131BD
:00000001FF
