:020000040800F2
:10000000000400202B1B0008E11C0008E31C000872
:10001000E71C0008EB1C0008EF1C000800000000B3
:10002000000000000000000000000000F31C0008B9
:10003000F51C000800000000F71C0008F91C00086F
:100040004B1B00084B1B00084B1B00084B1B0008F8
:100050004B1B00084B1B00084B1B00084B1B0008E8
:100060004B1B00084B1B00084B1B00084B1B0008D8
:100070004B1B00084B1B00084B1B00084B1B0008C8
:100080004B1B00084B1B00084B1B00084B1B0008B8
:100090004B1B00084B1B00084B1B00084B1B0008A8
:1000A0004B1B00084B1B00084B1B00084B1B000898
:1000B000611D00084B1B00084B1B00084B1B000870
:1000C0004B1B00084B1B00084B1B00084B1B000878
:1000D0004B1B0008011D00084B1B00084B1B0008B0
:1000E0004B1B00084B1B00084B1B00084B1B000858
:1000F0004B1B00084B1B00084B1B00084B1B000848
:100100004B1B00084B1B00084B1B00084B1B000837
:100110004B1B00084B1B00084B1B00084B1B000827
:100120004B1B00084B1B00084B1B00084B1B000817
:10013000DFF80CD002F018FE00480047911C0008C0
:100140003008002031490143314A1160704770B5D1
:10015000002100230F22C47804B32D4C246804F43A
:10016000E064C4F5E064210AC1F10403CA404478A4
:1001700004FA03F18478144021430901254C0678E0
:10018000A155047804F01F050124AC4005786D11D9
:10019000AD0005F1E025C5F8004109E0047804F060
:1001A0001F050124AC401C4D0678761145F8264009
:1001B00070BD1A4A0A400243154B1B1F1A60704754
:1001C00039B1134A121D12680243114B1B1D1A60EC
:1001D00006E00F4A121D126882430D4B1B1D1A6068
:1001E0007047042808D14FF0E021096941F004016B
:1001F0004FF0E022116107E04FF0E021096921F0A2
:1002000004014FF0E0221161704700000000FA0580
:100210000CED00E000E400E080E100E080FFFF1F63
:1002200010B50446C649601A8C422FD009DCC54877
:10023000204480B1B0F5806F16D0B0F5006F4AD180
:100240001BE0B0F5806F2AD0B0F5006F30D0B0F56C
:10025000406F40D135E00121042000F0FFFA002179
:10026000042000F0FBFA37E00121082000F0F6FA44
:100270000021082000F0F2FA2EE00121102000F009
:10028000EDFA0021102000F0E9FA25E001212020FC
:1002900000F0E4FA0021202000F0E0FA1CE0012147
:1002A000402000F0DBFA0021402000F0D7FA13E0F4
:1002B0000121802000F0D2FA0021802000F0CEFA47
:1002C0000AE00121080200F0C9FA00214FF4807011
:1002D00000F0C4FA00E000BF00BF10BD10B501215E
:1002E000084600F0BBFA0021012000F0B7FA10BD6B
:1002F0002DE9F041024600250026002000230024BD
:10030000002791F803C00CF00F0591F803C00CF022
:10031000100CBCF1000F03D091F802C04CEA0505A7
:1003200091F800C0BCF1000F31D0146800202BE020
:100330004FF0010C0CFA00F3B1F800C00CEA030610
:100340009E4220D183004FF00F0C0CFA03F7BC4300
:1003500005FA03FC4CEA040491F803C0BCF1280F31
:1003600006D14FF0010C0CFA00FCC2F814C00AE0F0
:1003700091F803C0BCF1480F05D14FF0010C0CFA05
:1003800000FCC2F810C0401C0828D1D31460B1F89A
:1003900000C0BCF1FF0F34DD546800202EE000F1F6
:1003A000080C4FF0010808FA0CF3B1F800C00CEA91
:1003B00003069E4221D183004FF00F0C0CFA03F785
:1003C000BC4305FA03FC4CEA040491F803C0BCF1F9
:1003D000280F05D100F1080C08FA0CF8C2F81480B7
:1003E00091F803C0BCF1480F07D100F1080C4FF0A1
:1003F000010808FA0CF8C2F81080401C0828CED377
:100400005460BDE8F0814FF6FF71018002218170D8
:100410000421C17070470246002093680B400BB165
:10042000012000E0002070470146886880B27047D4
:1004300002460020D3680B400BB1012000E00020F1
:1004400070470146C86880B27047016170474161DA
:1004500070470AB1016100E041617047C1607047B7
:100460004FF480320A4382618161826182698269CC
:10047000704702460020344B18684FF680731840CE
:1004800040EA02100843304B186070472F49C8619A
:100490007047F0B50A4600230024002100252A4EAB
:1004A0007168C0F3034583B200F44016B6F5401FEF
:1004B00008D121F07061244E766826F07066224FD4
:1004C0007E6012E000F48016B6F5801F06D1032688
:1004D00006FA05F4A14341F0706106E0460D3601CD
:1004E00003FA06F6B14341F0706122B1460D3601C0
:1004F00003FA06F63143144E7160F0BD30B50022A8
:100500008B071C0F0F2303FA04F20F4B08338C10D8
:1005100053F8243093430C4C08348D1044F82530A4
:1005200023468C1053F824308C07240F00FA04F46F
:100530002343054C08348D1044F8253030BD0000AD
:100540000014014000F8FEBF0000014000002042FE
:10055000DE48006840F00100DC4908600846406859
:10056000DB490840D949486008460068D949084035
:10057000D64908600846006820F4802008600846D4
:10058000406820F4FE004860002088607047CF4932
:10059000096821F48031CD4A11601146096821F4BF
:1005A00080211160B0F5803F03D0B0F5802F0ED1CF
:1005B00006E0C649096841F48031C44A116007E089
:1005C000C249096841F4A021C04A116000E000BF9F
:1005D00000BF704710B501460022002300204A11D9
:1005E000012A02D1B94C236806E0022A02D1B74C95
:1005F000236A01E0B54C636A01F01F0201249440B4
:100600001C400CB1012000E0002010BD38B50020D6
:1006100000900024002500BF3120FFF7DBFF0546D6
:100620000098401C00901DB90098B0F5A06FF3D160
:100630003120FFF7CFFF08B1012400E0002420465D
:1006400038BD01460020A14A106820F0F80040EAB9
:10065000C10010607047A049086070470246002042
:100660009A4B586820F47C1042EA01031843974BD8
:100670005860704798490866704701460020934AC1
:10068000506820F003000843506070478F4840686E
:1006900000F00C007047014600208C4A506820F0A2
:1006A000F00008435060704701460020874A5068B8
:1006B00020F4E06008435060704701460020834A00
:1006C000506820F4605040EAC1005060704729B182
:1006D0007E4A527A02437D4B5A7204E07B4A527A38
:1006E00082437A4B5A7270477B49D8310860704711
:1006F00001460020754A506820F44040084350608D
:1007000070470021714A20321170704A82F820101F
:10071000012802D004280AD104E001216B4A2032CA
:10072000117005E00521694A2032117000E000BF18
:1007300000BF70476949086070476449096A01430E
:10074000624A11627047654944390860704730B5A4
:1007500000210022002400235C4D6D6805F00C018F
:1007600021B1042905D0082923D105E05C4D05609D
:1007700022E05B4D05601FE0544D6D6805F470127A
:10078000022505EB9242514D6D6805F480341CB989
:10079000544D554305600BE04C4D6D6805F4003534
:1007A0001DB1504D5543056002E04D4D5543056068
:1007B00002E04B4D056000BF00BF444D6D6805F081
:1007C000F0010909484D6B5C0568DD4045603F4D0F
:1007D0006D6805F4E061090A434D6B5C4568DD40D6
:1007E00085603A4D6D6805F46051C90A3E4D6B5CF9
:1007F0004568DD40C560354D6D6805F44041890BA5
:100800003A4D6B5CC568B5FBF3F5056130BD29B1A8
:100810002E4A526902432D4B5A6104E02B4A526919
:1008200082432A4B5A61704729B1284A9269024390
:10083000264B9A6104E0254A92698243234B9A61D0
:10084000704729B1214AD2690243204BDA6104E0A2
:100850001E4AD26982431D4BDA61704729B11B4A97
:10086000D2680243194BDA6004E0184AD268824326
:10087000164BDA60704729B1144A12690243134BD0
:100880001A6104E0114A12698243104B1A617047E1
:1008900012494039086070470F49C86470470B49D6
:1008A000C87170470948406A40F080700749486243
:1008B000704701460020054A92680A400AB10120AB
:1008C00000E0002070470149887270470010024024
:1008D0000000FFF8FFFFF6FE0000424280044242A3
:1008E00000127A0000093D000000002010000020E6
:1008F00010B50446BD48204478B1B0F5806F16D0DD
:10090000B0F5784F1DD101210803FFF7A7FF0021A3
:100910004FF48050FFF7A2FF14E001218803FFF796
:10092000AAFF00214FF48040FFF7A5FF0AE0012154
:10093000C803FFF7A0FF00214FF40040FFF79BFF23
:1009400000E000BF00BF10BD10B50022028802F415
:1009500041520B884C8823438C882343CC88234303
:100960000C8923434C8923438C892343CC8923431B
:100970001A430280838B4FF2FF74234083830B8AD8
:10098000038210BD2DE9F04786B005460C464FF0B6
:10099000000902274FF000084FF0010A0026A88B3B
:1009A0004FF240010840A88302202884B5F81C902B
:1009B0002089022801D100BF31E0A08810B94FF092
:1009C000010A01E04FF0020A01A8FFF7C0FEE0882B
:1009D000B0F5007F0AD1019800EB8000400021892A
:1009E0000902B0FBF1F0401D86B20BE04FEA4A105D
:1009F00021894843019901EB81014900B1FBF0F0E5
:100A0000401D86B20A20B6FBF0F606F00108A6EB00
:100A10000800C0F34F074FF6FF7000EA0828022FC6
:100A200001DBFF2F02DD02274FF0000847EA080034
:100A3000E18808432884208840F4006061880843E6
:100A4000A18808436189084340EA0909A5F81C9078
:100A500006B0BDE8F0870021018041808180C1801F
:100A6000018141818181C18107210182704700217B
:100A7000018041808180C18002210181002141816A
:100A8000704721B1028842F04002028004E00288EF
:100A90004FF6BF731A400280704721B1828B42F437
:100AA0008062828304E0828B4FF6FF331A40828398
:100AB000704730B5002400230C110125A540ABB2CE
:100AC0001AB185881D43858002E085889D43858015
:100AD00030BD1AB183880B43838002E083888B4347
:100AE00083807047818170470146888970474FF63F
:100AF000FF62914204D0028842F48072028004E0D6
:100B000002884FF6FF631A400280704721B1828845
:100B100042F00402828004E082884FF6FB731A40A0
:100B20008280704702884FF2FF731A400280028869
:100B30000A4302807047018841F480510180704768
:100B400021B1028842F40052028004E002884DF68E
:100B5000FF731A400280704702460020012901D02D
:100B6000108B00E0908A70470146088A7047B1F503
:100B7000804F04D1028842F48042028004E002885F
:100B80004BF6FF731A40028070470246002013891B
:100B90000B400BB1012000E000207047CA430281E6
:100BA0007047F0B50246002000240023002501F024
:100BB0000F070126BE40B4B20B1101269E40B3B20E
:100BC000968806EA03051689264016B10DB1012064
:100BD00000E00020F0BD10B5002201F00F04012359
:100BE000A3409AB2D343038110BD000000C8FFBFE9
:100BF00010B50446F749601A8C4245D00CDCB4F1BC
:100C0000804F1DD0F448204418B3B0F5806F29D030
:100C1000B0F5006F54D12EE0B0F5806F3DD0B0F547
:100C20008E3F03D0B0F5923F4AD13FE00121C80288
:100C3000FFF714FE00214FF40060FFF70FFE40E0C5
:100C400001210846FFF717FE00210120FFF713FEE0
:100C500037E001210220FFF70EFE00210220FFF7FE
:100C60000AFE2EE001210420FFF705FE00210420EA
:100C7000FFF701FE25E001210820FFF7FCFD002120
:100C80000820FFF7F8FD1CE001211020FFF7F3FD1D
:100C900000211020FFF7EFFD13E001212020FFF7D6
:100CA000EAFD00212020FFF7E6FD0AE001214803CC
:100CB000FFF7D4FD00214FF40050FFF7CFFD00E017
:100CC00000BF00BF10BD028802F08F020280CA88F8
:100CD0004B881A4303881A4302808A8882850A88CF
:100CE0000285BE4A904202D0BD4A904201D10A7AA2
:100CF000028601228282704770B500240022002300
:100D0000058C4FF6FE7635400584028C8388048B73
:100D10004FF68F752C400D882C43751E2A400D8987
:100D20002A434D882A43CD888586AC4DA84202D0FF
:100D3000AB4DA84213D14FF6F7752A404D892A438F
:100D40004FF6FB752A408D882A4347F6FF652B40F6
:100D500047F6FF552B408D892B43CD892B4383804C
:100D60000483028470BD70B5002400220023058C2A
:100D70004FF6EF7635400584028C8388048B48F665
:100D8000FF752C400D884FF6FF7606EA05252C43AB
:100D90004FF6DF752A400D8906EA05152A434D886E
:100DA00006EA05152A43CD8805878C4DA84202D056
:100DB0008B4DA8421DD14FF67F752A404D894FF6C5
:100DC000FF7606EA05152A434FF6BF752A408D883F
:100DD00006EA05152A4347F6FF352B4047F2FF7513
:100DE0002B408D8906EA85052B43CD8906EA8505CA
:100DF0002B4383800483028470BD70B500240022DD
:100E00000023058C4FF6FF6635400584028C8388ED
:100E1000848B4FF68F752C400D882C434FF6FF5571
:100E20002A400D894FF6FF7606EA05252A434D88AC
:100E300006EA05252A43CD888587684DA84202D059
:100E4000674DA8421DD14FF2FF752A404D894FF6DC
:100E5000FF7606EA05252A434FF6FF352A408D889E
:100E600006EA05252A4346F6FF752B4045F6FF7531
:100E70002B408D8906EA05152B43CD8906EA051519
:100E80002B4383808483028470BD70B500240022CC
:100E90000023058C4EF6FF7635400584028C83884E
:100EA000848B48F6FF752C400D884FF6FF7606EAD6
:100EB00005252C434DF6FF752A400D8906EA0535B8
:100EC0002A434D8806EA05352A43CD88A0F84050CC
:100ED000424DA84202D0424DA84207D1C3F30D03B0
:100EE0008D894FF6FF7606EA85152B438380848330
:100EF000028470BD828B4FF2FF331A408283828B53
:100F00004FF6FF7303EA01231A4382837047F0B55B
:100F10000C461546002100220026078C4EF6FF7C69
:100F200007EA0C070784818B028C4FF6FF7707EAEC
:100F3000043640F6FF4739404FF6FF7707EA0527AA
:100F40004FF6FF7C0CEA033C47EA0C0739434DF6A9
:100F5000FF773A4046F480573A4381830284F0BDDC
:100F6000828B4FF6F3731A408283828B0A4382830B
:100F70007047F0B50C461546002100220026078C6C
:100F80004FF6FF6C07EA0C070784818B028C4FF643
:100F9000FF7707EA04264FF60C7739404FF6FF77C4
:100FA00007EA03172F4339434FF6FF573A4046F4F9
:100FB00080773A4381830284F0BD028B4FF2FF3386
:100FC0001A400283028B4FF6FF7303EA01231A4390
:100FD000028370470010004000FCFFBF002C01405E
:100FE00000340140F0B50C461546002100220026D1
:100FF000078C4FF6EF7C07EA0C070784018B028C05
:101000004FF6FF7707EA041640F6FF4739404FF6E0
:10101000FF7707EA033739434FF6FF7707EA0527DB
:1010200039434FF6DF773A4046F010073A430183E1
:101030000284F0BD028B4FF6F3731A400283028BD9
:101040000A4302837047F0B50C4615460021002282
:10105000068C4FF6FE773E400684018B028C4FF6DD
:101060000C7631407E1C06EA03162E4331437E1E69
:10107000324044F00106324301830284F0BD70B572
:1010800005460C46208850B92389A28861882846E5
:10109000FFF7D9FFE1882846FFF7CCFF25E020883D
:1010A00004280AD12389A28861882846FFF79AFF7D
:1010B000E1882846FFF781FF17E0208808280AD139
:1010C0002389A28861882846FFF753FFE1882846D4
:1010D000FFF746FF09E02389A28861882846FFF7C9
:1010E00016FFE1882846FFF705FF70BD2DE9F041A6
:1010F00005460C4600260127608808B9022600E054
:101100000026A088012801D1022700E001272088BD
:10111000A0B92389A28861882846FFF794FFE18857
:101120002846FFF787FF23893A4631462846FFF7CE
:1011300059FFE1882846FFF740FF13E02389A28882
:1011400061882846FFF74EFFE1882846FFF735FF04
:1011500023893A4631462846FFF775FFE18828463D
:10116000FFF768FFBDE8F0810A884B881A438B8837
:101170001A43CB881A430B891A434B891A438B892C
:101180001A43A0F8442070474FF6FF718180002178
:101190000180C1804180017270470021018041803F
:1011A0008180C180018141818181C181704700219D
:1011B00001804180012181800021C180018170472F
:1011C0000021018041808180C18001814181818134
:1011D000704721B1028842F00102028004E00288D7
:1011E00040F2FE331A400280704731B1B0F844201B
:1011F00042F40042A0F8442005E0B0F84420C2F3D5
:101200000E02A0F8442070471AB183890B438381F2
:1012100002E083898B43838170478182704741EA72
:101220000203A0F8483070471AB183890B438381C9
:1012300002E083898B438381704701894FF6F872FE
:101240001140018170470A46002101894FF68F73D2
:10125000194011430181704730B504460D462946B7
:101260002046FFF7F0FF208940F00700208130BDC5
:101270002DE9F04104460D4616461F46602D06D165
:101280003B46012231462046FFF7ACFE05E03B46D7
:10129000012231462046FFF7D6FE29462046FFF7B9
:1012A000D2FF208940F007002081BDE8F08170B5B1
:1012B0000C4600210189C9B244EA02054FF6FF76C7
:1012C00006EA032635432943018170BD2DE9F0412B
:1012D00005460E4617469846002443463A46314690
:1012E0002846FFF7E4FF2C894FF6F870044044F0DD
:1012F00007044FF68F70044044F070042C81BDE861
:10130000F081F0B504460D4616461F463B46324670
:1013100029462046FFF7CBFF208940F480402081FA
:10132000F0BD0185828270470A460021018840F2A3
:101330008F331940114301807047F0B50C461546B4
:101340001E460021002200230189028B038C4FF6E8
:10135000F877394021434FF6FC473A4040F20117F5
:101360003A434FF6DD773B404FF6FF7707EA061723
:101370002F433B43018102830384F0BD0A460021D1
:10138000018B4FF68F7319401143018370470A4652
:101390000021018B48F6FF7319404FF6FF7303EAF3
:1013A00002231943018370470A460021818B4FF6BF
:1013B0008F7319401143818370470A460021818B46
:1013C00048F6FF7319404FF6FF7303EA02231943EF
:1013D0008183704721B1028842F08002028004E0DC
:1013E000028840F27F331A400280704721B1828820
:1013F00042F00402828004E082884FF6FB731A40B8
:101400008280704721B1828842F00802828004E025
:1014100082884FF6F7731A408280704721B1828824
:1014200042F00102828004E082884FF6FE731A4087
:10143000828070470A460021018B4FF6F7731940EE
:101440001143018370470A460021018B4FF2FF735D
:1014500019404FF6FF7303EA0223194301837047D3
:101460000A460021818B4FF6F7731940114381839F
:1014700070470A460021818B4FF2FF7319404FF6E7
:10148000FF7303EA02231943818370470A46002150
:10149000018B4FF6FB7319401143018370470A46D5
:1014A0000021018B4FF6FF3319404FF6FF7303EA1B
:1014B00002231943018370470A460021818B4FF6AE
:1014C000FB7319401143818370470A460021818BC9
:1014D0004FF6FF3319404FF6FF7303EA0223194317
:1014E000818370470A460021018B4FF67F731940B4
:1014F0001143018370470A460021018BC1F30E019D
:101500004FF6FF7303EA02231943018370470A462B
:101510000021818B4FF67F731940114381837047FF
:101520000A460021818BC1F30E014FF6FF7303EAD7
:1015300002231943818370470A460021018C4FF62C
:10154000FD7319401143018470470A460021018C44
:101550004FF6F77319401143018470470A46002182
:10156000018C4FF6DF7319404FF6FF7303EA021345
:101570001943018470470A460021018C4FF67F739E
:1015800019404FF6FF7303EA0213194301847047B1
:101590000A460021018C4FF6FF5319404FF6FF73A6
:1015A00003EA02231943018470470A460021018C93
:1015B0004FF2FF7319404FF6FF7303EA02231943FA
:1015C000018470470A460021018C4DF6FF731940D3
:1015D0004FF6FF7303EA023319430184704710B5D5
:1015E000038C01248C40A3430384038C02FA01F48E
:1015F000A4B22343038410BD10B5038C04248C4093
:10160000A3430384038C02FA01F4A4B223430384AA
:1016100010BD30B5038C01248C40A343038409B171
:10162000082918D100F1180303EB61031B684FF67A
:101630008F74234000F1180404EB6104236000F16F
:10164000180303EB61031B68134300F1180404EB58
:10165000610423601FE00B1FC3F34E0400F1180365
:101660001B5948F6FF7423400C1FC4F34E0500F1CC
:10167000180463510B1FC3F34E0400F118031B59E8
:101680004FF6FF7404EA022423430C1FC4F34E05F3
:1016900000F11804635130BD21B1028842F002020A
:1016A000028004E0028840F2FD331A400280704755
:1016B00021B1028842F00402028004E0028840F274
:1016C000FB331A400280704721B1828842F08002C9
:1016D000828004E082884FF67F731A4082807047D0
:1016E000028840F2F7331A40028002880A430280DF
:1016F000704782884FF68F731A40828082880A432F
:101700008280704702894FF6F8731A40028102897D
:101710000A430281704702894FF67F731A400281A3
:1017200002890A430281704781847047818570472E
:10173000818670470187704781877047A0F8401005
:1017400070470288D2B2028002880A430280704742
:101750000146888E70470146088F70470146888F82
:1017600070470146B1F8400070470146888C7047C9
:101770000146088D704702460020138A0B400BB1CA
:10178000012000E000207047CA430282704730B554
:101790000246002000230024158A05EA01039589EA
:1017A00005EA010413B10CB1012000E0002030BDB6
:1017B000CA4302827047000010B50446D749601A38
:1017C0008C422BD006DCD648204498B1B0F5806F0F
:1017D00038D119E0B0F5806F2AD0B0F56C4F31D117
:1017E00001218803FFF73AF800214FF48040FFF70A
:1017F00035F828E001214804FFF73DF800214FF4B7
:101800000030FFF738F81EE001218804FFF733F8B5
:1018100000214FF48020FFF72EF814E00121C804C6
:10182000FFF729F800214FF40020FFF724F80AE021
:1018300001210805FFF71FF800214FF48010FFF782
:101840001AF800E000BF00BF10BD2DE9F04786B0D8
:1018500005460E460024A24600BF00BF00272F46C3
:101860002C8A4CF6FF700440F08804432C82AC892B
:101870004EF6F3100440B08831890843718908435B
:101880000443AC81AC8A4FF6FF400440B089044366
:10189000AC8201A8FEF75BFFA248874202D1DDF8C7
:1018A00010A001E0DDF80CA00AEBCA0000EB0A1062
:1018B00031688900B0FBF1F86420B8FBF0F0040156
:1018C0002009642101FB1089322000EB0910B0FBD4
:1018D000F1F000F00F0004432C8106B0BDE8F08762
:1018E0004FF41651016000218180C18001810C21DB
:1018F000418100218181704710B502460020108A85
:101900004FF2FF0318400B884C8823438C882343F5
:10191000CC8823431843108210BD002101804180F0
:101920008180C180704721B1828942F40052828156
:1019300004E082894DF6FF731A4082817047F0B54A
:10194000034600240026002500201846C1F3421457
:1019500001F01F06012707FA06F5012C01D10C3012
:1019600004E0022C01D1103000E014301AB10768F5
:101970002F43076002E00768AF430760F0BD1AB16C
:10198000838A0B43838202E0838A8B43838270477E
:10199000028A4FF6F0731A400282028A0A430282D8
:1019A000704782894FF2FF731A40828182890A430D
:1019B0008281704721B1828942F00202828104E073
:1019C00082894FF6FD731A4082817047028A4FF672
:1019D000DF731A400282028A0A430282704721B1F1
:1019E000028A42F48042028204E0028A4BF6FF73CC
:1019F0001A4002827047C1F3080282807047014694
:101A00008888C0F308007047818941F00101818115
:101A10007047028BD2B20283028B42EA0122028318
:101A20007047028B02F47F420283028B0A430283D7
:101A3000704721B1828A42F02002828204E0828AC9
:101A40004FF6DF731A408282704721B1828A42F0DA
:101A50001002828204E0828A4FF6EF731A4082827B
:101A6000704721B1828A42F00802828204E0828AB1
:101A70004FF6F7731A4082827047828A4FF6FB73E3
:101A80001A408282828A0A438282704721B1828A06
:101A900042F00202828204E0828A4FF6FD731A400D
:101AA000828270470246002013880B400BB1012050
:101AB00000E000207047CA430280704770B50246BC
:101AC0000B460024002100250020C3F3421503F03B
:101AD0001F01012606FA01F1012D02D1968931403C
:101AE00006E0022D02D1168A314001E0968A31408B
:101AF0001C12012606FA04F41688344011B10CB108
:101B0000012000E0002070BD10B5002200230A1261
:101B100001249440A3B2DC43048010BD004C00407B
:101B200000BCFFBF003801407047084880470849A3
:101B300081F3088807480047FEE7FEE7FEE7FEE777
:101B4000FEE7FEE7FEE7FEE7FEE7FEE7291B0008EB
:101B500030080020310100080CB5002001900090F1
:101B60004748006840F480304549086000BF444859
:101B7000006800F4003000900198401C019000982B
:101B800018B90198B0F5A06FF1D13D48006800F494
:101B9000003010B10120009001E00020009000987A
:101BA000012844D13748006840F0100035490860EA
:101BB0000846006820F0030008600846006840F00E
:101BC000020008602E4840682D4948600846406879
:101BD00048600846406840F48060486008464068B5
:101BE00020F47C1048600846406840F4E8104860E3
:101BF0000846006840F08070086000BF2048006818
:101C000000F000700028F9D01D48406820F0030063
:101C10001B4948600846406840F00200486000BF29
:101C20001748406800F00C000828F9D101E000BF17
:101C3000FEE70CBD10B5FFF78FFF10BD10B51048C3
:101C4000006840F001000E490860084640680E49EF
:101C500008400B494860084600680C49084008499C
:101C600008600846006820F4802008600846406844
:101C700020F4FE00486000208860FFF7DBFF10BD05
:101C800000100240002002400000FFF8FFFFF6FEB7
:101C9000FFF7D4FF00F0FEF800F00AF900F0B2F808
:101CA00000F02CFA00F0DAF909480A49086000F05F
:101CB00026F900F043F900F073FD00F03BFD06E06B
:101CC000012105A001F08EF8642000F041FAF7E749
:101CD00030010020140000200D0AC4E361256400D7
:101CE000704700BFFEE700BFFEE700BFFEE700BF92
:101CF000FEE770477047704710B500F031FA10BD2D
:101D000010B501213648FEF786FB012804D10421D5
:101D10003448FEF79CFB03E004213248FEF795FBB4
:101D200040F225513048FFF7C9FEC0B12E48FFF7F9
:101D300066FE2E49096808702C480068401C2B4933
:101D400008602B480068401C294908600846006864
:101D5000FF2804D30020086026482449086010BDED
:101D600010B502214807FFF712FDA0B10221480774
:101D7000FFF71EFD4FF08040FFF7EAFC1E49088088
:101D8000084600881D4A1288104481B24FF08040F6
:101D9000FFF7CEFC18E004210807FFF7F8FC98B124
:101DA00004210807FFF704FD4FF08040FFF7D3FC44
:101DB0001149088008460088114A1288104481B2EF
:101DC0004FF08040FFF7B6FC4FF08040FFF7CDFCAE
:101DD0000949088000214FF08040FFF7A5FC10BDA5
:101DE000000C0140001401400038014014000020A4
:101DF00018000020300100202001002024010020D4
:101E00002601002008B501213C20FEF70DFD4FF40E
:101E10008070ADF8000010208DF8030003208DF8CD
:101E200002006946F848FEF763FA0420ADF80000A6
:101E300010208DF8030003208DF802006946F34856
:101E4000FEF756FA42F20200ADF8000048208DF885
:101E5000030003208DF802006946ED48FEF748FABA
:101E60004FF48060ADF8000004208DF8030069464F
:101E7000E548FEF73DFA4FF40070ADF8000003208E
:101E80008DF8020018208DF803006946DE48FEF741
:101E90002FFA08BD10B501210846FEF7B8FC012154
:101EA0008803FEF7C1FC01210846FEF7CAFC10BDFD
:101EB00008B500214FF00060FEF77BF94FF4E060B9
:101EC000FEF740F925208DF8000000208DF8010074
:101ED0008DF8020001208DF803006846FEF737F9FF
:101EE0001C208DF8000000208DF8010001208DF8E5
:101EF00002008DF803006846FEF729F908BD1FB5FA
:101F00004FF4165000900020ADF80400ADF8060024
:101F1000ADF80800ADF80C000C20ADF80A006946D9
:101F2000BC48FFF792FC012240F22551B948FFF767
:101F300006FD0121B748FFF7F6FC1FBD00B587B0CD
:101F40004FF6FF70ADF814000020ADF81000ADF8AA
:101F50001600ADF8120004A94FF08040FEF7B3FE62
:101F6000012204210807FFF7DCF90020ADF800008A
:101F70000120ADF80200A8480088ADF80600002056
:101F8000ADF8080069464FF08040FEF7B5FE00212D
:101F90004FF08040FFF74EFA0120ADF802009F4855
:101FA0000088ADF8060069464FF08040FEF7DBFE82
:101FB00000214FF08040FFF746FA012206219007EA
:101FC000FFF722F901218807FFF703F907B000BDE9
:101FD00000B587B0012141F20400FEF725FCE020A6
:101FE000ADF8040003208DF8060018208DF80700D6
:101FF00001A98548FEF77CF91020ADF80400032004
:102000008DF8060010208DF8070001A97E48FEF724
:102010006FF90020ADF808004FF48270ADF80A00A7
:102020000020ADF80C000220ADF80E000120ADF844
:1020300010004002ADF812000020ADF81400ADF819
:1020400016000720ADF8180002A97548FEF77CFCC1
:1020500001217348FEF715FD07B000BD00B587B03C
:1020600001218803FEF7EDFB01210820FEF7DCFBD0
:102070004FF46040ADF8040003208DF806001820EE
:102080008DF8070001A96748FEF732F94FF4805038
:10209000ADF8040003208DF8060010208DF807002D
:1020A00001A96048FEF724F94FF480515D48FEF71E
:1020B000CEF90020ADF808004FF48270ADF80A00A8
:1020C0000020ADF80C000220ADF80E000120ADF8A4
:1020D00010004002ADF812000020ADF81400ADF879
:1020E00016000720ADF8180002A94F48FEF72CFC97
:1020F00001214D48FEF7C5FC07B000BD30B54B4887
:1021000000684FF47A72B0FBF2F1B1F1807F00D336
:102110001DE021F07F40401E4FF0E022506150173B
:102120000F22002807DA13071D0E414B00F00F04A1
:10213000241F1D5503E013071C0E3E4B1C5400BF0B
:1021400000204FF0E02290610720106100BF30BDF9
:102150003949086000BF384909680029FBD1704738
:102160003548006820B134480068401E3249086094
:1021700070470246002105E0491CB1F5FA6F01D90C
:10218000002070472648008900F002000028F3D0A4
:1021900023488281002105E0491CB1F5FA6F01D97D
:1021A0000020EEE71E48008900F001000028F3D06F
:1021B0001B488089C0B2E4E70246002105E0491CC3
:1021C000B1F5FA6F01D90020704717480830008830
:1021D00000F002000028F2D013480C3002800021E9
:1021E00005E0491CB1F5FA6F01D90020ECE70E4873
:1021F0000830008800F001000028F2D00A480C30B6
:102200000088C0B2E0E7000000080140001401406F
:102210000010014000380140240100202601002068
:1022200000300140000C0140003800408C2F0008B5
:1022300018ED00E000E400E02801002070B505463C
:102240000C4624B14021F948FEF7FFF803E0402195
:10225000F648FEF7FCF84FF48051F548FEF7F7F822
:102260002846FFF7A9FF4FF48051F148FEF7EDF83B
:102270004021EE48FEF7E9F870BD70B500241CE07F
:1022800004F1B001C8B20021FFF7D8FF00210220FD
:10229000FFF7D4FF00211020FFF7D0FF002508E052
:1022A000E44901EBC501085D0121FFF7C7FF681C88
:1022B000C5B2802DF4DB601CC4B2082CE0DB70BD1D
:1022C00010B500218D20FFF7B9FF00211420FFF782
:1022D000B5FF0021AF20FFF7B1FF10BD10B5002101
:1022E0008D20FFF7ABFF00211020FFF7A7FF002193
:1022F000AE20FFF7A3FF10BD70B500240CE0002551
:1023000006E00020CB4901EBC5010855681CC5B2A9
:10231000802DF6DB601CC4B2082CF0DBFFF7ADFFAC
:1023200070BD70B505460C462646E11704EB5171A9
:10233000C910C1F1B701C8B20021FFF77FFF10211A
:1023400041EA15100021FFF779FF05F00F00002189
:10235000FFF774FF70BD2DE9F04705460C461746A0
:102360004FF0000921462846FFF7DBFF7F2D01DCF7
:10237000402C01DDBDE8F0872046E11704EB5171E8
:10238000C910C1F10701CEB2E11704EB5171C910B8
:10239000A4EBC10101F0FF08C8F10701012088404A
:1023A00000F0FF0957B1A34800EBC500805D40EA8B
:1023B0000900A04901EBC501885509E09D4800EBE3
:1023C000C500805D20EA09009A4901EBC5018855E6
:1023D000984901EBC501885D0121FFF72FFF00BF80
:1023E000C8E72DE9F04706460F4690469946DDF8C6
:1023F00020A034460CE03D4606E0524629462046E1
:10240000FFF7A9FF681CC5B24D45F6DD601CC4B2DC
:102410004445F0DDFFF731FFBDE8F0872DE9F05FBF
:1024200080460C4615461E46A346A5F12000C5B2BF
:1024300000273EE00C2E07D105EB45007E4901EB5D
:10244000800010F8079004E07C4800EB051010F8BD
:1024500007904FF0000A26E009F0800028B12146DD
:1024600040460A9AFFF777FF09E00A9808B9012069
:1024700000E00020024621464046FFF76CFF4FEA8D
:1024800049604FEA1069601CC4B2A4EB0B00B04273
:1024900005D15C4608F1010000F0FF0806E00AF1F2
:1024A000010000F0FF0ABAF1080FD5DB00BF781C6D
:1024B000C7B2B742BEDBBDE8F09F2DE9F05F06462C
:1024C0000C461746A2464FF0010B002533E05C484E
:1024D00000EB471010F805804FF0000925E008F0E8
:1024E000800028B15A4621463046FFF734FF0AE003
:1024F000BBF1000F01D1012000E00020024621467F
:102500003046FFF728FF4FEA48604FEA1068601C2A
:10251000C4B2A4EB0A00102803D15446701CC6B202
:1025200006E009F1010000F0FF09B9F1080FD6DB60
:1025300000BF681CC5B2202DC9DBBDE8F09F10B5F7
:102540000246012000E050430B00A1F10104E1B27A
:10255000F9D110BD2DE9FF4F81B0074691461E46C7
:102560000E9D4FF0000A002439E0301B401EC1B21E
:102570000A20FFF7E4FFB9FBF0F00A21B0FBF1F20B
:1025800001FB1208BAF1000F16D1701EA04213DD34
:10259000B8F1000F0ED10120AB4605EBDB714910FD
:1025A00001FB04710090C8B22B4620220299FFF76C
:1025B00035FF12E04FF0010A0120AB4605EBDB715D
:1025C000491001FB04710090C8B208F13001CAB291
:1025D0002B460299FFF722FF00BF601CC4B2B44231
:1025E000C3DB05B0BDE8F08FF8B505460E461446CE
:1025F00018E07F2D03DD002506F11000C6B23F2E46
:1026000004DD002005460646FFF776FE0120009017
:102610002278102331462846FFF700FF05F1080015
:10262000C5B2641C20780028E3D1F8BD0010014039
:10263000000C014030020020A02F000814340008D4
:10264000043A0008FEB505460E46144600200190E7
:102650000290632C00DB63240A2094FBF0F00190CD
:102660000A2094FBF0F000EB8000A4EB4000029005
:102670001020009005F11001C8B201233146019AE3
:10268000FFF768FF1020009005F11801C8B2012380
:102690003146029AFFF75EFFFEBD2DE9F04F87B08D
:1026A00081468B4615461E464FF0000A0024002046
:1026B000049005900022774B2846314600F011FA2D
:1026C000074600F08EFA8246504600F079FA2A4614
:1026D0003346CDE9000100F08FF900226E4BCDE9C1
:1026E000020100F08CF9074600F07BFA04460A204C
:1026F00094FBF0F004900A21049801FB104005902F
:10270000102001235246594600904846FFF722FF09
:10271000012009F108010090C8B210232E22594669
:10272000FFF77CFE224659464846FFF78BFF07B06D
:10273000BDE8F08F10B559A203210520FFF754FF23
:1027400058A214210520FFF74FFF10BD2DE9F05FBF
:1027500005460E4617469846DDF828B04FF010099A
:102760004FF0010A012409EB890000F1010A00BFC2
:1027700021460AF0FF002A463346FFF78EFF4C44FD
:1027800021460AF0FF003A464346FFF786FF4C44D5
:1027900021460AF0FF005A46FFF754FFBDE8F09FBC
:1027A00008B501211820FEF73FF84020ADF80000E1
:1027B00010208DF8030003208DF8020069463B4885
:1027C000FDF796FD0021AE20FFF738FD0021D52052
:1027D000FFF734FD00215020FFF730FD0021A82035
:1027E000FFF72CFD00213F20FFF728FD0021D3201B
:1027F000FFF724FD00210846FFF720FD00214020BF
:10280000FFF71CFD00218D20FFF718FD002114208B
:10281000FFF714FD00212020FFF710FD002102200A
:10282000FFF70CFD0021A120FFF708FD0021C020CB
:10283000FFF704FD0021DA20FFF700FD0021122040
:10284000FFF7FCFC00218120FFF7F8FC0021EF20BE
:10285000FFF7F4FC0021D920FFF7F0FC0021F12064
:10286000FFF7ECFC0021DB20FFF7E8FC0021302023
:10287000FFF7E4FC0021A420FFF7E0FC0021A620E4
:10288000FFF7DCFC0021AF20FFF7D8FCFFF734FD99
:1028900008BD00000000F03F000059404320563AB8
:1028A000200000005420563A200000000010014093
:1028B0002DE9FE4F804681EA0300C00F0C460090D0
:1028C00021F0004123F00045B8EB0200A94105D2F8
:1028D0004046214690461C460B46024623F00040E7
:1028E000104347D0270DC7F30A00C3F30A510290E3
:1028F000401A019040286BDAC3F3130040F4801BA8
:102900000098924620B10023D2EB030A63EB0B0B35
:1029100001985946C0F14002504600F097F906462A
:102920000D4650465946019A00F0AFF910EB0800E9
:102930006141002487EA115284EAE7731A4340D0C8
:10294000009A62B3019A012A4FEA075215DC001B74
:1029500061EB02014FF0004202EA0752CDE900426A
:10296000001C41F5801132462B4600F0AFF903B050
:10297000BDE8F08F40462146F9E7001B61EB0201FC
:10298000001C41F5801300185B412018A2F50017C8
:1029900047EB030140EAD570B6196D4111E06D08AF
:1029A0004FEA360645EAC0754FEA0752001B61EB55
:1029B0000201001C41F5801149084FEA300000195E
:1029C000514132462B4603B0BDE8F04F00F06FB9DD
:1029D0000098012240000023D0EB020263EBE07379
:1029E000009821464FEAE074B8EB000061EB040167
:1029F000E9E783F000435BE781F0004158E72DE908
:102A0000FE4F81EA030404F0004421F000410094E9
:102A10004FF0000B23F0004350EA01045ED052EA6D
:102A200003045BD0C3F30A54C1F30A552C44A4F247
:102A3000F3340194A0FB0254C1F3130141F480115B
:102A4000C3F3130343F4801301FB024400FB034E62
:102A5000840A970A44EA815447EA8357A4FB07682B
:102A600002958D0A05FB07854FEA932C04FB0C5455
:102A70002705029D4FEA065847EA1637B5EB0805C9
:102A80006EEB070C870E920E47EA811742EA83121B
:102A9000A7FB0201B6EB0B0164EB00042B0D43EA2C
:102AA0000C335E1844EB1C50DA465146E7FB02013A
:102AB000C5F313044FEA0B3343EA14534FEA0432CD
:102AC000019C43EA0603A4F10C040294009CCDE9A6
:102AD00000B400F0FBF803B0BDE8F08F0020014621
:102AE000F9E72DE9F04D81EA030404F0004B21F0F1
:102AF000004514464FF0000A23F0004150EA050259
:102B000020D054EA01021DD0C5F30A570246C5F38E
:102B10001303C1F31300C1F30A5640F4801543F4C4
:102B20008013A7EB0608101BD64608F2FD3873EB9E
:102B3000050002D308F1010801E092185B41B8F1E9
:102B4000000F03DA00200146BDE8F08D00204FF4AD
:102B50008011064684460EE0171B73EB050705D36C
:102B6000121B63EB050306434CEA010C49084FEACC
:102B7000300092185B4150EA0107EDD152EA0300A0
:102B800012D082EA040083EA0501084305D0101B35
:102B9000AB4106D20122002306E000224FF00043A1
:102BA00002E06FF0010253101AEB06004CEB0851E3
:102BB00010EB0A0041EB0B01BDE8F04D00F077B8D7
:102BC0000EB5C10F80EAE0700844CA07002140F248
:102BD00033438DE80E000A460B4600F077F803B049
:102BE00000BD70B5C1F30A5201F000450024C1F3E5
:102BF000130140F2FF3341F480119A4201DA0020C0
:102C000070BD40F233439A42A2F2334203DC524297
:102C100000F02BF800E090402C43F1D0404270BD12
:102C200030B50B46014600202022012409E021FA9C
:102C300002F59D4205D303FA02F5491B04FA02F599
:102C40002844151EA2F10102F1DC30BD202A04DB6C
:102C5000203A00FA02F1002070479140C2F12003AF
:102C600020FA03F3194390407047202A04DB203AEE
:102C700021FA02F00021704721FA02F3D040C2F19C
:102C800020029140084319467047202A06DBCB17E3
:102C9000203A41FA02F043EAE07306E041FA02F317
:102CA000D040C2F12002914008431946704710B548
:102CB000141E73F1000408DA401C41F1000192185F
:102CC0005B411A4301D120F0010010BD2DE9F04D08
:102CD00092469B4611B1B1FA81F202E0B0FA80F25D
:102CE00020329046FFF7B2FF04460F4640EA0A0042
:102CF00041EA0B0153465A46084313D0114653EAA2
:102D0000010019D0C8F140025046FFF7AEFF05465A
:102D10000E46504659464246FFF798FF084305D0F5
:102D2000012004E020463946BDE8F08D002005432F
:102D300046EAE0762C4337430A986305E40AA0EBA1
:102D400008000022FD0A44EA47540A3002D5002058
:102D50000146E9E7010510196941DDE90845001957
:102D60006941BDE8F04DA2E7064C074D06E0E0687A
:102D700040F0010394E8070098471034AC42F6D3C2
:102D8000FDF7DAF9A43B0008C43B000870B58C18C5
:102D900010F8015B15F0070301D110F8013B2A116F
:102DA00006D110F8012B03E010F8016B01F8016B5C
:102DB0005B1EF9D12B0705D40023521E0DD401F858
:102DC000013BFAE710F8013BCB1A921C03E013F821
:102DD000015B01F8015B521EF9D5A142D8D3002056
:102DE00070BD00000FB4054B10B503A9044A02984A
:102DF00000F018F810BC5DF814FB0000792F0008F3
:102E00002C01002002E008C8121F08C1002AFAD1D4
:102E100070477047002001E001C1121F002AFBD15A
:102E2000704700002DE9FF4F89B09B4604460025FE
:102E300006E025280BD05A460B999047641C6D1C60
:102E400020780028F5D10DB02846BDE8F08F002786
:102E5000B8460122474900E0074314F8013F203BF0
:102E600002FA03F00842F7D120782E2819D114F87D
:102E7000010F47F004072A280ED06FF02F022078A8
:102E8000A0F1300109290CD808EB880102EB4101BF
:102E900000EB0108641CF2E70A98641C50F8048BEC
:102EA0000A9020780028CED0642808D0692806D05F
:102EB00075281ED05A460B9990476D1C58E00A9908
:102EC0004FF00A0901C90A91002802DA40422D2177
:102ED00002E0390504D52B218DF82010012103E0F3
:102EE000F90704D02021F7E78A4608AE0DE000215B
:102EF000FAE70A994FF00A0901C90A91F7E749462A
:102F0000FFF78EFE303106F8011D0028F7D1ADEB3A
:102F1000060000F12009780701D44FF00108C845E8
:102F200002DDA8EB090000E000208046002706E053
:102F300008A85A46C05D0B9990476D1C7F1C5745E9
:102F4000F6DB04E030205A460B9990476D1CB8F12F
:102F50000001A8F10108F5DC05E016F8010B5A465E
:102F60000B9990476D1CB9F10001A9F10109F4DC3E
:102F7000641C65E70928010038B504468DF8000097
:102F800069460320ABBE204638BD000000A24A04BB
:102F900000A24A0400A24A040051250200A24A04E9
:102FA0000000000000000000000000000000000021
:102FB0003F400000000000000000300040003000F2
:102FC0004000000009000BC03D000BC03D0009009F
:102FD00018C024407FE0224031800000180024C047
:102FE0001B000D803240018003801C4027401C8064
:102FF00007400040100060000000000000000000DA
:103000000000000000001F80204040200000402001
:1030100020401F8000000000090006001F800600FD
:1030200009000000040004003F80040004000000C8
:103030000010006000000000000000000400040018
:103040000400040004000000000000400000000034
:1030500000000000002001C0060038004000000011
:103060001F802040204020401F80000000001040B2
:103070003FC000400000000018C021402240244012
:103080001840000010802040244024401B80000095
:1030900002000D0011003FC0014000003C802440B0
:1030A00024402440238000001F80244024403440DA
:1030B000038000003000200027C0380020000000FE
:1030C0001B802440244024401B8000001C0022C0A0
:1030D000224022401F800000000000000840000045
:1030E000000000000000000004600000000000007C
:1030F000000004000A00110020804040090009007F
:103100000900090009000000000040402080110073
:103110000A000400180020002340240018000000CA
:103120001F802040274029401F400000004007C06A
:1031300039000F0001C0004020403FC0244024401F
:103140001B8000001F802040204020403080000075
:1031500020403FC0204020401F80000020403FC052
:1031600024402E4030C0000020403FC024402E00AC
:10317000300000000F001080204022403380020009
:1031800020403FC0040004003FC0204020402040B9
:103190003FC02040204000000060202020203FC091
:1031A0002000200020403FC024400B0030C02040C1
:1031B00020403FC020400040004000C03FC03C00D5
:1031C00003C03C003FC0000020403FC00C40230033
:1031D0003FC020001F802040204020401F80000072
:1031E00020403FC024402400180000001F802140E0
:1031F000214020E01FA0000020403FC024402600C6
:1032000019C0004018C024402440224031800000F2
:10321000300020403FC020403000000020003F80B0
:10322000004000403F80200020003E0001C0070019
:1032300038002000380007C03C0007C038000000FC
:10324000204039C0060039C020400000200038402E
:1032500007C0384020000000304021C026403840E0
:1032600020C00000000000007FE04020402000005F
:10327000000070000C0003800040000000004020AF
:1032800040207FE0000000000000200040002000FF
:1032900000000000001000100010001000100010CE
:1032A000000000004000000000000000000002805C
:1032B0000540054003C0004020003FC004400440DA
:1032C000038000000000038004400440064000002A
:1032D00000000380044024403FC000400000038001
:1032E0000540054003400000000004401FC024408A
:1032F00024402000000002E0055005500650042044
:1033000020403FC00440040003C0004000000440CF
:1033100027C000400000000000100010041027E04B
:103320000000000020403FC00140070004C00440EE
:10333000204020403FC000400040000007C0040083
:1033400007C0040003C00000044007C0044004009C
:1033500003C00040000003800440044003800000DC
:10336000041007F0045004400380000000000380B4
:103370000440045007F00010044007C0024004005D
:1033800004000000000006400540054004C00000A5
:10339000000004001F80044000400000040007807B
:1033A0000040044007C000400400070004C0018042
:1033B00006000400060001C0070001C0060000006E
:1033C000044006C0010006C00440000004100710BD
:1033D00004E00180060004000000044005C006402F
:1033E000044000000000000004007BE040200000DA
:1033F000000000000000FFF000000000000040207E
:103400007BE004000000000040008000400020003D
:10341000200040000000000000000000000000004C
:10342000000000000000000000001FCC000C0000A5
:1034300000000000000008003000600008003000BC
:1034400060000000022003FC1E20022003FC1E205E
:103450000220000000000E1811043FFF10840C78B9
:10346000000000000F0010840F3800C00778188497
:103470000078000000780F8410C411240E9800E436
:1034800000840008080068007000000000000000D0
:103490000000000000000000000007E018182004F1
:1034A00040020000000040022004181807E000005D
:1034B000000000000240024001800FF00180024045
:1034C000024000000080008000800FF80080008033
:1034D000008000000001000D000E00000000000050
:1034E000000000000000008000800080008000805C
:1034F000008000800000000C000C000000000000B4
:1035000000000000000000060018006001800600B6
:1035100018002000000007F0080810041004080834
:1035200007F000000000080408041FFC0004000469
:103530000000000000000E0C101410241044118430
:103540000E0C000000000C18100411041104128865
:103550000C700000000000E00320042408241FFC7D
:103560000024000000001F9810841104110410882A
:1035700010700000000007F008881104110418887A
:103580000070000000001C00100010FC13001C0064
:103590001000000000000E38114410841084114403
:1035A0000E38000000000700088C10441044088802
:1035B00007F00000000000000000030C030C0000F6
:1035C00000000000000000000001010600000000F3
:1035D00000000000000000800140022004100808E4
:1035E00010040000022002200220022002200220FB
:1035F000022000000000100408080410022001400E
:103600000080000000000E001200100C106C1080F2
:103610000F00000003E00C1813E4142417C408285A
:1036200007D000000004003C03C41C40074000E435
:10363000001C000410041FFC1104110411040E8866
:103640000070000003E00C181004100410041008AF
:103650001C10000010041FFC1004100410040808C3
:1036600007F0000010041FFC1104110417C410041B
:103670000818000010041FFC1104110017C01000EE
:103680000800000003E00C181004100410441C781B
:103690000040000010041FFC108400800080108493
:1036A0001FFC10040000100410041FFC1004100480
:1036B0000000000000030001100110011FFE1000B7
:1036C0001000000010041FFC110403801464181C77
:1036D0001004000010041FFC100400040004000487
:1036E000000C000010041FFC1F0000FC1F001FFC4A
:1036F0001004000010041FFC0C04030000E010186C
:103700001FFC100007F0080810041004100408083B
:1037100007F0000010041FFC10841080108010803F
:103720000F00000007F0081810241024101C080ACD
:1037300007F2000010041FFC1104110011C0113029
:103740000E0C000400000E1C1104108410841044A0
:103750001C3800001800100010041FFC100410009A
:103760001800000010001FF81004000400041004EA
:103770001FF8100010001E0011E0001C00701380E4
:103780001C0010001FC0103C00E01F0000E0103CB7
:103790001FC000001004180C163401C001C01634FC
:1037A000180C100410001C00130400FC13041C006F
:1037B000100000000804101C1064108413041C0482
:1037C000101800000000000000007FFE40024002D0
:1037D00040020000000030000C0003800060001C6C
:1037E0000003000000004002400240027FFE000093
:1037F00000000000000000002000400040004000E9
:103800002000000000010001000100010001000192
:103810000001000100004000400020000000000006
:10382000000000000000009801240144014401440C
:1038300000FC000410001FFC008801040104008843
:103840000070000000000070008801040104010401
:1038500000880000000000700088010401041108C5
:103860001FFC0004000000F801440144014401442D
:1038700000C800000000010401040FFC1104110441
:1038800011001800000000D601290129012901C9F1
:103890000106000010041FFC008401000100010467
:1038A00000FC000400000104190419FC00040004D9
:1038B000000000000000000300010101190119FED1
:1038C0000000000010041FFC0024004001B4010CA3
:1038D000010400000000100410041FFC0004000498
:1038E00000000000010401FC0104010001FC0104CE
:1038F000010000FC010401FC00840100010001043E
:1039000000FC0004000000F80104010401040104AB
:1039100000F80000010101FF008501040104008896
:10392000007000000000007000880104010401051F
:1039300001FF00010104010401FC008401040100F5
:1039400001800000000000CC012401240124012496
:103950000198000000000100010007F801040104C3
:1039600000000000010001F8000400040004010848
:1039700001FC0004010001800170000C00100160D6
:103980000180010001F0010C003001C00030010C89
:1039900001F0010000000104018C00740170018C31
:1039A00001040000010101810171000E0018016095
:1039B0000180010000000184010C013401440184F4
:1039C000010C0000000000000000000001003EFCAF
:1039D000400240020000000000000000FFFF000065
:1039E000000000000000400240023EFC0100000018
:1039F00000000000000060008000800040004000E7
:103A00002000200008200620407E318000017FE257
:103A1000400C4FF040087FE400001FE20001FFFE71
:103A2000000000000400040104017DF555555555C2
:103A3000555555FF5555555555557DF5040104010E
:103A40000400000000047CFC440447F844887C889F
:103A500000007FFE4422442244224422442247E2C2
:103A6000400200002000207F20402F4021482B5C96
:103A7000A56865C825482B58214C2F422041207E3F
:103A80002000000048405740F55755555755F0D590
:103A90005F5540D511553155EA5524552A573140C7
:103AA00021400000082008220841FFFE088009008C
:103AB00000007FFF410141C241344908453479C2C9
:103AC000000100000000000000FF00820082008270
:103AD0000082FF82108210821082108210FF10007C
:103AE0001000000008003002220224822882208276
:103AF000A08260FE20822082288224822202280264
:103B000030000000000000007FFE020402040208F2
:103B100002080000FFFC0102020204020802100277
:103B2000001E000000000000006C006C000000009F
:103B30000000000000000000000000000000000085
:103B40000000000000000000000008000FF004006A
:103B5000080007F00800080007F00000000000005F
:103B600000000000000000043E08411041203E40DB
:103B700000800100027C04820882107C200040004A
:103B80000000000000000000000000000000000035
:103B90000000000000000000000000000000000025
:103BA00000000000C43B00080000002030010000BD
:103BB0008C2D0008E03B00083001002000070000C9
:103BC000142E0008412D0102030404900906070881
:103BD000090204060803FD020373010112C082807A
:0400000508000131BD
:00000001FF
