:020000040800F2
:10000000A806002035020008511D0008EF1C00085A
:100010004D1D0008C91A0008BF2E0008000000008E
:10002000000000000000000000000000CD230008D8
:10003000CD1A000800000000B5220008D1250008F4
:100040004F0200084F0200084F0200084F0200084C
:100050004F0200084F0200084F0200084F0200083C
:100060004F0200084F0200084F0200084F0200082C
:100070004F0200084F0200084F0200084F0200081C
:100080004F0200084F0200084F0200084F0200080C
:100090004F0200084F0200084F0200084F020008FC
:1000A0004F0200084F0200084F0200084F020008EC
:1000B000752800084F0200084F0200084F02000890
:1000C0004F0200084F0200084F0200084F020008CC
:1000D0004F020008AD2C00084F0200084F02000834
:1000E0004F0200084F0200084F02000800F002F81B
:1000F00000F090F80AA090E8000C82448344AAF132
:100100000107DA4501D100F085F8AFF2090EBAE82F
:100110000F0013F0010F18BFFB1A43F0010318473B
:10012000E83C0000083D0000103A24BF78C878C1C0
:10013000FAD8520724BF30C830C144BF04680C60ED
:10014000704700000023002400250026103A28BF35
:1001500078C1FBD8520728BF30C148BF0B60704739
:100160006E2900F03B81702900F07D82662903F042
:10017000BC81652903F0B981672903F0B681612943
:1001800003F0B58103681B0A28BF41F0800169298B
:1001900000F0E880642900F0E580752900F0E28035
:1001A0006F2900F00B82782900F04982E92900F0DC
:1001B000A581E42900F0A281F52900F09F81EF29B3
:1001C00000F00882F82900F048820368DB0928BFA4
:1001D00041F08001632900F04987732900F04E87C0
:1001E000E32900F05987F32900F05E87002070476B
:1001F0001FB500F0ABFF04000020002102F016FF45
:10020000401C60600020002102F0FAFEE0601FBD8B
:1002100010B510BD00F06CFF1146FFF7E9FF02F0CA
:100220006BFE01F045F803B4FFF7F2FF03BC01F0E9
:1002300089F800000948804709480047FEE7FEE7C3
:10024000FEE7FEE7FEE7FEE7FEE7FEE7FEE7FEE786
:1002500004480549054A064B70470000D5250008AB
:10026000ED000008A8000020A8060020A802002039
:10027000A80200201CB50C46064B7B446946009042
:10028000204600F0C4F804460020694600F0D2F889
:1002900020461CBDB701000070477047704770B51D
:1002A000044685690068C10601D5302600E0202695
:1002B000C00707D070BDD4E9012130469047206ABD
:1002C000401C20626D1EF6D570BD70B50446856970
:1002D0000078C00707D170BDD4E9012120209047E4
:1002E000206A401C20626D1EF6D570BD09684A0563
:1002F00001D540B27047C905FCD500B27047096806
:100300004A0501D5C0B27047C905FCD580B2704717
:1003100070B50C460546012A05D02878800600D520
:10032000EA69002302E0012305E05B1C934202D24C
:10033000E05C0028F9D1A869E618C01AA861286A0B
:10034000184428622846FFF7AAFF04E0D5E90121F6
:1003500014F8010B9047B442F8D32846FFF7B5FFD5
:1003600070BD00002DE9F041064600241068752993
:10037000314616A510D0FFF7B9FF002802DA404237
:1003800013A507E031688A0701D512A502E04907E5
:1003900004D511A5012401E0FFF7B1FF00210A22D5
:1003A00006F1240709E0B0FBF2FCB0FBF2F302FB1C
:1003B0001C00303078541846491C0028F3D12346DD
:1003C0002A463046BDE8F04100F061BA0000000066
:1003D0002D0000002B0000002000000011680268C2
:1003E000006A530501D508700AE0D30501D50880DD
:1003F00006E0130603D5C217C1E9000200E0086059
:100400000120704701694A1C02610878704700B5F5
:100410008FB0CDE901310021059105497944CDE93D
:1004200003101146684600F029F90FB000BD000026
:10043000E5FFFFFF0A6802F8010B0A607047000041
:100440002DE9FF5F15468A460446DFF8AC80F84484
:100450000027D8E900103E46CDE9001010E03AF838
:1004600016106A4602A800F023FE411C07D021782E
:10047000890603D5E269391891420DD80744761CE4
:100480002078800602D5E069B84205DDAE42E6DBA1
:100490003AF816000028E2D1A069C01BA0612046EE
:1004A000FFF7FDFED8E90010CDE90010002017E0AD
:1004B0003AF818106A4602A800F0FAFDB0F1FF3FC2
:1004C00081460BD000250DF1080B05E0D4E9012190
:1004D0001BF8050090476D1C4D45F7D308F101004E
:1004E000B0428046E4DB206A384420622046FFF7B1
:1004F000ECFEBDE8FF9F0000BA3800002DE9F04196
:100500008046D21D22F007020025D2E90002F5291B
:1005100015A614D0011E72F1000106DA0023D0EBFB
:10052000030063EB020211A608E0D8F800108B0765
:1005300001D50FA602E0490701D50EA601251146F7
:10054000002408F1240704E000F05CF930323A5549
:10055000641C50EA0102F7D12B4632462146404640
:10056000BDE8F04100F093B9000000002D0000004C
:100570002B0000002000000030B4002100F1240412
:1005800008E002F00705D208303542EA4372DB0882
:100590006554491C52EA0305F3D10468002310A2F4
:1005A000250708D504F020040C4304D0C4690123B6
:1005B0000CA2641EC46130BC00F069B910B50446D9
:1005C00021461068FFF79BFE02462046BDE810401A
:1005D0000023D1E7D21D22F00701D1E90023CBE7A8
:1005E0000000000030000000F0B40D46018809054D
:1005F00002D5214C7C4402E01F4C7C440E34002187
:1006000000F1240608E002F00F071209E75D42EA54
:1006100003721B097754491C52EA0307F3D102788D
:100620000023120704D5702D06D009B1022311341E
:100630002246F0BC00F02BB901231034F8E770B566
:1006400004460D4621461068FFF759FE024629462A
:100650002046BDE870400023C6E7D21D22F0070304
:10066000D3E90023C0E70368126843F02003036066
:100670000823C3610023B7E71C3700002DE9F05FB2
:10068000894604464FF0000ADFF874B1FB44C0F815
:1006900020A02046E1688847002874D0252806D08D
:1006A000D4E901219047206A401C2062F1E700262E
:1006B0005F462046E16888472028054607DB312D44
:1006C00005D2781910F8200C08B10643F1E7B007FD
:1006D00001D526F00406C4F81CA00027C4F818A011
:1006E0002A2D09D0284602F000FC38B304EB870815
:1006F000303DC8F8185019E059F8041B204604EBA7
:1007000087029161E1688847012F054618D1E069A9
:10071000002820DA26F020061DE0D8F8180000EBAB
:10072000800005EB40003038C8F818002046E1682A
:100730008847054602F0D9FB0028EED1012F0AD0E8
:100740002E2D08D12046E16888477F1C0546022FE0
:1007500046F02006C4DBA069002803DA404246F0D8
:100760000106A061F00701D026F010066C2D0BD019
:10077000682D09D04C2D39D06A2D35D0742D35D047
:100780007A2D33D016E038E0E1682F4620468847BE
:10079000B842054609D16C2F26D04FF48060E1683D
:1007A000064320468847054604E06C2F1AD04FF4D4
:1007B000807006430DB3A5F14100192802D82035F9
:1007C00046F400664A462946204626604E46FFF714
:1007D000C7FC80B101280BD0F61D26F0070000F100
:1007E000080956E74020E4E78020D8E70020D6E754
:1007F00006F104094DE7284652E7206ABDE8F09F5C
:10080000AC36000030B5B0F10A024FEA900E71F13B
:1008100000034EEA817EB0EB0E0061EB91014FEADE
:10082000101E4EEA017E10EB0E0041EB11114FEA53
:10083000102E4EEA016E10EB0E0041EB11214FEA33
:10084000104E4EEA014E10EB0E0041EB11414018E4
:1008500041F100014FEAD00040EA41704FEAD10176
:1008600010EB80054FEA810444EA907444EB0104E4
:100870006D1944EB0404521BA3414FF0000348BF21
:100880000A3200D530BD401C41F1000130BD2DE9D8
:10089000F0470D4699469246044600F12408016847
:1008A000880604D5E06921F01001216000E00120F4
:1008B000A84201DD471B00E00027A1697A1902EB7D
:1008C0000900081AA0612078C00602D42046FFF76C
:1008D000E6FC002608E0D4E901211AF8060090475A
:1008E000206A401C761C20624E45F4DB2078C0064E
:1008F0000AD52046FFF7D3FC06E0D4E901213020D9
:100900009047206A401C2062381EA7F10107F4DCE2
:1009100007E0D4E9012118F805009047206A401C3F
:100920002062281EA5F10105F3DC2046FFF7CDFC6F
:100930002078000602D50220BDE8F0870120FBE701
:1009400070472DE9FF4F0C461E464FF0FF378BB026
:10095000D2E90001DDF860800A908A46C1F30A55A9
:1009600005B93D46002108464FF00000BAF1000FDE
:1009700000F4400005DA00EB80004FF4400101EA8A
:1009800050004FEA9059B9F1010F00DDB9460A98BD
:1009900050EA4A000ED044F61050A5F2FF35454308
:1009A0002F14B8F1000F1ED07542291E1EDDC9F1AB
:1009B00000021CE0B8F1010F4FF0000001D030211F
:1009C00003E0F24305E02154401CB042FBDB30461B
:1009D0000022002121540B99C1F80880C1E90020B0
:1009E0000FB0BDE8F08FBD1B6D1CDEE74A4600DA94
:1009F000694206A800F0EEFB06AB93E8070003ABE4
:100A000083E8070050460A9900F0A3FC8DE8070030
:100A1000A0F500501F3800900398002D09DD42F228
:100A20001F014A46084403A90390684600F002FFEC
:100A300008E0A0F500504A461F3803A90390684615
:100A400000F00CFF8DE807000004000C03D04FF00D
:100A5000FF30410800E01046B8F1000F03D000223B
:100A6000009215461EE0751E05D4FFF7CBFE30320E
:100A700062556D1EF9D5B3460122084302D000220B
:100A80007F1C04E02078302801D100227F1E002A3C
:100A9000099786D01DE0112D07DAFFF7B3FE30323B
:100AA00062556D1C50EA0102F5D1084302D000984E
:100AB000C8B10EE00021681E05E0235C625C63544F
:100AC0002254401E491C8142F7DBAB46A81B401E46
:100AD0000990002004F80B000B98099AC0F80880D0
:100AE000C0E9002B7CE711264FF0000859E72DE9FB
:100AF000F04F88460446D21D22F0070191B0D1E99B
:100B00000001CDE90A0102F0DCF902460B98C00FA2
:100B100001D02D2007E02068810701D52B2002E0BD
:100B2000202101EAC000032A099001D0072A05DB31
:100B300003464146204600F00DFB0BE1207880067D
:100B400001D5E06900E00620B8F1650F814606D0C6
:100B5000B8F1660F18D0B8F1670F70D131E00020FE
:100B6000B9F1110F009001DB112301E009F101033C
:100B70000AAA01A90CA8FFF7E4FEDDE90C70002623
:100B800009F10105834647E001204B4600904FF0F4
:100B900000470AAA01A90CA8FFF7D3FEDDE90DB0B2
:100BA0000C995D46002610B909F101000D18B9EB4A
:100BB000050003D4C0F1FF3609F10105A5EB0900DA
:100BC0002BE0B9F1010F01DA4FF001090020B9F172
:100BD000110F0090484601DD112300E003460AAAE8
:100BE00001A90CA8FFF7ADFEDDE90C704D4600260B
:100BF0008346207800070AD4AB4500DA5D4601A899
:100C0000012D04DD411911F8011C302907D04F4591
:100C100002DA17F1040F04DA012082460FE06D1E9C
:100C2000EEE7002F02DCED1B3E4403E0781CA842F7
:100C300000DD7D1CB81B00F1010A4FF00047207851
:100C4000000703D4AA4501DB4FF0FF3A0021B7F1BA
:100C5000004F0DF143088DF8431024D002202B23C0
:100C6000002F01DA7F422D230A21021EA0F101008C
:100C700000DC5FB197FBF1FC97FBF1F201FB1C7C00
:100C800017460CF1300C08F801CDEEE7A8F1010091
:100C900003702188090501D5452100E06521A0F1F7
:100CA000010800F8011C09980FA9A1EB0807FF1D16
:100CB00000B10120411901EBEA70A1693844081A1A
:100CC000401EA0612078C00602D42046FFF7E7FA54
:100CD000099828B1D4E901219047206A401C20627C
:100CE0002078C00622D52046FFF7D9FA1EE0002E54
:100CF00004DBB34502DD01A8805D00E03020D4E9CB
:100D000001219047206A401C2062761CAAF1010054
:100D10005FEA000A0AD100F019FAC0680168405C75
:100D2000D4E901219047206A401C2062281EA5F1C9
:100D30000105DCDC07E0D4E9012118F8010B90473C
:100D4000206A401C2062381EA7F10107F3DC204610
:100D5000FFF7BBFA032011B043E600002DE9F04F86
:100D600004460D46D21D22F0070089B0D0E900925A
:100D700048461746394602F0A4F80246F80F01D05B
:100D80002D2307E02068810701D52B2302E02021D5
:100D900001EAC0038DF820300BB1012000E00020F3
:100DA000032A824601D0072A04DB2946204600F0A8
:100DB000D1F93DE12078800601D40D2500E0E569F8
:100DC000C7F30A560D2D49DA00214FEA175B084692
:100DD0004FF00000002F00F4400007DA00EB800025
:100DE0004FF4400100EBD07001EA60008115012949
:100DF00001DD4FF0FF3100224FEA850CBCF1180FE6
:100E000006D31346ACF118004FF08052C24003E005
:100E10004FF4801323FA0CF30CF10C0CBCF1200FEF
:100E200004D3ACF1200C09FA0CF001E007FA0CF045
:100E300000294FF0004801DD18B90FE00ED1404500
:100E40000CD319EB02095F4121B9404502D19F4300
:100E500029EA0209BBEB175F00D0761C2088000549
:100E600002D57B48784402E079487844193808AACA
:100E7000302302F80A30037C0AF10101002E0AF146
:100E8000020A53546A4602DC4FF0300101E04FF091
:100E900031014FF001088DF8001002D0A6F2FF36A4
:100EA00003E059EA470100D06A4E002D02DC2178A8
:100EB000090704D54FF002082E218DF80110C44611
:100EC00000210BE0C7F303433F01C35C491C6D1EC7
:100ED00002F80830052908F1010801DA002DF1DCDB
:100EE00000210CE000EB1973491C1B786D1E0829CA
:100EF00002F808304FEA091908F1010801DA002D5B
:100F0000F0DC2178890602D514E0A8F10108E0455B
:100F100005DD02EB080111F8011C3029F5D0B8F10C
:100F2000000F07DD02EB080111F8011C2E2901D189
:100F3000A8F10108002D05DD3E2102F808106D1E04
:100F400008F10108407C002E02F8080008F10108B1
:100F500004DA2D20764202F8080002E02B2002F885
:100F600008000A214FF47A70864208F101080BDB71
:100F700096FBF0F3303302F8083096FBF0F308F1FB
:100F8000010800FB136601E0642E0CDB642096FB75
:100F9000F0F3303302F8083096FBF0F308F1010863
:100FA00000FB136601E00A2E06DB96FBF1F0303001
:100FB00002F8080008F1010896FBF1F001FB10604F
:100FC000303002F80800A16908F1010808EB0502B9
:100FD00002EB0A00081AA0612078C00602D420465D
:100FE000FFF75DF9216A08AE01EB0A00206204E018
:100FF000D4E9012116F8010B9047BAF1010AF7D2A2
:101000002078C00602D52046FFF749F96E4609E070
:1010100016F8010B3E280FD0D4E901219047206A31
:10102000401C2062B8F10108F2D22046FFF74DF9CA
:1010300009B00320BDE8F08F206A2844206203E055
:10104000D4E90121302090476D1EEBD3F8E7000072
:10105000F82E000002FCFFFF10B5436913B1AFF397
:10106000008001E0FFF754F9012010BD127800F173
:1010700024010A7000224A700122EDE711684FF046
:10108000FF32E9E710B5436913B1AFF3008001E027
:10109000FFF7D6F9012010BD128800F124018284E7
:1010A0000022C2840122EDE711684FF0FF32E9E728
:1010B00070B516460C46054600F040F8036893F8F4
:1010C0000101012806D0FF2C0FD8185D68B101205E
:1010D0002C7070BDD3F807013246214603F2071386
:1010E00003442846BDE8704018474FF0FF3070BDFC
:1010F000754600F0E3F8AE4605006946534620F019
:101100000700854618B020B5FFF7A2F8BDE82040DB
:101110004FF000064FF000074FF000084FF0000BB3
:1011200021F00701AC46ACE8C009ACE8C009ACE866
:10113000C009ACE8C0098D467047000010B500F04A
:1011400005F8001D10BD00BFE51E000000487047F7
:10115000680000202DE9F0411F460446032601687F
:10116000072A01F4006004DB08B116A505E016A506
:1011700003E008B115A500E015A521F010002060DE
:10118000A069C01EA0610FB1401EA0612046FFF7FC
:1011900086F84FB1D4E9012138469047206A401CB7
:1011A0002062C01C206206E0206AFAE7D4E901212F
:1011B00015F8010B9047761EF8D22046FFF785F808
:1011C000BDE8F0814E414E006E616E00494E460012
:1011D000696E66002DE9F047814616468AB03348AD
:1011E00078440DC88DE80D0030487844801C03AC6D
:1011F0000DC884E80D0041F69B300844372190FB70
:10120000F1F290FBF1F5A5F1800501FB12041B3C06
:1012100002D56442012000E00020DFF890A0804663
:101220000027FA44AAF1BE0A0DE0E00709D03246D1
:10123000684607EB47010AEB810100F00FFB8DE8E0
:10124000070064107F1C002CEFD1184F7F44AC3F87
:1012500018E0E80714D007EB04100DF1180A90E825
:101260000E008AE80E00C068F04201D1981908907B
:10127000324606A903A800F0F1FA03AB83E80700A1
:101280006D10641C002DE4D132466946B8F1000FA0
:1012900003A802D000F0CEFA01E000F0DFFAC9E9BD
:1012A0000001C9F808200AB0BDE8F0870C2C000046
:1012B0000446AFF300802046FEF7B5FF00487047B4
:1012C000480000204FF0013C50F8042B51F8043B3B
:1012D0009A4221D1A2EB0C03934313EACC1317D10A
:1012E00050F8042B51F8043B9A4215D1A2EB0C03A1
:1012F000934313EACC130BD150F8042B51F8043B61
:101300009A4209D1A2EB0C03934313EACC13DBD02E
:101310004FF00000704700BFD01A01BAB1FA81F156
:1013200001F0180122FA01F0CB40C1F12001DBB23B
:10133000C0B2C01A2CFA01F3D11A914311EAC311B9
:10134000E6D1704701491820ABBEFEE72600020037
:1013500070475FEA400C08BF91F0000F4FEA8C2302
:101360004FEAC12243EA51514FEA1C5018BF00F521
:10137000F0404FEA300018BF41F000415FEA6C5C7A
:1013800000F02980BCF1FF3F08BF40F0804070476B
:10139000130C06BF12044FF0100C4FF0000C130E8C
:1013A00004BF12020CF1080C130F04BF12010CF160
:1013B000040C930F04BF92000CF1020CD30F04BF76
:1013C00052000CF1010C11464FF00002A0F11F0079
:1013D000A0EB0C00704711F0004F08BF704731F0D0
:1013E00000413FF4D5AF0B0C06BF09044FF0100CC1
:1013F0004FF0000C0B0E04BF09020CF1080C0B0F90
:1014000004BF09010CF1040C8B0F04BF89000CF11F
:10141000020CCB0F04BF49000CF1010CCCF12003EE
:10142000A0EB0C0022FA03F302FA0CF241EA0301EA
:1014300000F10100704720F07F4C80EA030023F0A8
:101440007F47ACEB070303F57C5300F0004003F14A
:10145000FF032DE980494FEA154B09B44FEA1443C5
:1014600025EA0B4E24EA03480FF2042606EB132765
:1014700049083E785FEA320203FB0667C7F50007BA
:1014800007FB06F64FEA54374FEAD64606F1020646
:1014900007FB066CCCF1005C4FEA1C472CEA074CBA
:1014A00007FB06F40CFB06F504EB15464FEA96160F
:1014B00034BF00204FF000404FEAD13706FB07FC55
:1014C0004FEA1C4C0CFB0BF7D21B03FB0CF761EB38
:1014D00007010CFB0EF7B0EB074072EB17420CFB59
:1014E00008F734BFA2EB0742B2EB074261EB1741AA
:1014F0004FEA0C444FEA910706FB07FC4FEA1C4CED
:101500000CFB0BF7B0EBC74072EB573203FB0CF749
:1015100034BFA2EBC742B2EBC74261EB57310CFBC1
:101520000EF7B0EBC70072EB57720CFB08F734BF35
:10153000A2EBC702B2EBC70261EB5771039F4FEA00
:10154000816141EA921104EBCC044FEAD1374FEAB2
:10155000826206FB07FC42EA90124FEA80604FEA83
:101560001C4C0CFB0BF7D21B03FB0CF761EB0701C8
:101570000CFB0EF7B0EB074072EB17420CFB08F7C1
:1015800034BFA2EB0742B2EB074261EB17414FEACF
:101590008C554FEA910704EB9C2406FB07FC4FEAAD
:1015A0001C4C0CFB0BF7B0EBC74072EB573203FB44
:1015B0000CF734BFA2EBC742B2EBC74261EB573125
:1015C0000CFB0EF7B0EBC70072EB57720CFB08F781
:1015D00034BFA2EBC702B2EBC70261EB577115EB48
:1015E0004C254FEA816141EA92114FEA82624FEA4B
:1015F000D13742EA901206FB07FC44F100044FEA9F
:1016000080604FEA1C4C0CFB0BF7D21B03FB0CF762
:1016100061EB07010CFB0EF7B0EB074072EB1742D2
:101620000CFB08F734BFA2EB0742B2EB074261EBB9
:10163000174115EB1C154FEA813141EA92414FEAFF
:10164000823242EA90424FEA80304FEA0C7644F10F
:10165000000448EA03434EEA0B484FF0000EB2EB99
:10166000080C71EB030724BF624639464EEB0E0EA1
:101670004FF0000B0018524149414BEB0B0BB2EB02
:10168000080C71EB03077BF1000B24BF624639465F
:101690004EEB0E0E4FF0000B0018524149414BEB40
:1016A0000B0BB2EB080C71EB03077BF1000B24BFB3
:1016B000624639464EEB0E0E51EA020718BF46F05D
:1016C000010616EB0E7655F1000254F1000103D528
:1016D000BDE88901BDE80088BDE88901BDE8004892
:1016E000B619524141EB0101A3F10103704780801B
:1016F0007F7E7D7C7B7A797877767675747372716C
:1017000071706F6E6E6D6C6C6B6A6A696868676623
:1017100066656464636362616160605F5F5E5E5DB5
:101720005D5C5C5B5B5A5A59595858575756565529
:1017300055555454535352525251515050504F4F8B
:101740004F4E4E4D4D4D4C4C4C4B4B4B4A4A4A49DB
:10175000494948484847474747464646454545441E
:101760004444444343434342424242414141002BAB
:1017700026D4770021D01CB54FEA370703B44FF0C9
:1017800010004FF010014FF000000FBCBDE81040FA
:101790000BF1010BBBF1010F08BF5FEA170722BF76
:1017A00012F1010211F101014FF0004143F1000378
:1017B00000F0004043EA00007047F9D35708DAE729
:1017C00046EA064613F1400F4FEA16461FDD13F1B5
:1017D000200FDFBF16430A46002120335B42C8D0EA
:1017E000C3F1200746EA064602FA07F74FEA164613
:1017F00046EA0706C3F1200722FA03F201FA07F7C7
:1018000021FA03F14FF0000342EA0702B1E746EA8A
:10181000020646EA06464FEA164646EA0106BCBFFD
:1018200046EA0646360C4FF000034FF000024FF038
:1018300000019EE72DE9C048934630B491E8380096
:1018400007C831EA400C48BF34EA430C03D5FFF720
:10185000F2FDFFF78CFFF0BCBDE800882DE9C04821
:10186000934630B491E8380007C810F0804F08BFA5
:1018700013F0804F03D100F005F8FFF778FFF0BCBC
:10188000BDE8008820F07F4780EA030023F07F4C0A
:1018900007EB0C03A3F57C5300F00040A3F1FE031B
:1018A00092F0000F00F0B38095F0000F00F0778009
:1018B0002DE901494FEA11404FEA144621EA004858
:1018C00000FB06FC24EA064708FB06F607FB08F8BF
:1018D00000FB07F718EB06484CEB164C4FEA124B8F
:1018E00018EB07484FEA15464CEB174022EA0B4E1F
:1018F0000BFB06FC25EA06470EFB06F607FB0EFE71
:101900000BFB07F71EEB064E4CEB164C4FF0000698
:101910001EEB074E4CEB174B18EB0B0840F1000089
:1019200018EB0E0B58EB000840F100008F1A4FF037
:1019300000013CBFC943661B14BFB5EB040C00217A
:101940003CBFC943F61B4FEA17444EEA8E0E27EA06
:1019500004454FEA1C4704FB07622CEA074C05FBD1
:1019600007F70CFB05F604FB0CFC16EB074642EBF5
:10197000174216EB0C4642EB1C421BEB060658EBDB
:101980000202414146EA9E0601D5BDE80189B61929
:10199000524141EB0101A3F10103BDE801894FEA86
:1019A00014454FEA114724EA054621EA074C05FB96
:1019B00007F406FB07F70CFB06F105FB0CFC11EB2B
:1019C000074144EB17444FEA124711EB0C4144EB3B
:1019D0001C4422EA074C05FB07F206FB07F70CFB49
:1019E00006F605FB0CFC16EB074642EB174216EB1E
:1019F0000C4642EB1C456A1854F1000148BF704781
:101A0000B619524141EB0101A3F10103704795F072
:101A1000000F37D04FEA11424FEA144721EA02463D
:101A200024EA074C02FB07F106FB07F70CFB06F460
:101A300002FB0CFC14EB074441EB17414FEA15473E
:101A400014EB0C4441EB1C4125EA074C02FB07F563
:101A500006FB07F70CFB06F602FB0CFC16EB074631
:101A600045EB174516EB0C4645EB1C42121951F19C
:101A7000000148BF7047B619524141EB0101A3F183
:101A8000010370474FEA14454FEA114724EA05461F
:101A900021EA074C05FB07F106FB07F70CFB06F2F2
:101AA0004FF0000605FB0CFC12EB074241EB17411F
:101AB00012EB0C4251EB1C4148BF7047921841EBAE
:101AC0000101A3F10103704700BFFEE7704700B5B5
:101AD000034603E04FF47A7000F005F81800A3F114
:101AE0000103F7D100BD00EBC001C9004FF0E022B7
:101AF0005161002191610521116100BF4FF0E0218A
:101B0000096901F480310029F8D004214FF0E02266
:101B10001161704710B5054800F02EFF04B2002196
:101B2000024801F003F8204610BD00000004004008
:101B300000B587B00121022000F0BEFB0121042086
:101B400000F0CAFB48208DF81B00C020ADF818003B
:101B500003208DF81A0006A91B4800F039F8002070
:101B6000ADF81200ADF80E004FF6FF70ADF81000A2
:101B70000020ADF80C008DF8140003A9134801F003
:101B800003F8684600F062FF0020ADF800000F2067
:101B9000ADF8080069460D4800F002FF0420ADF8DA
:101BA00000000F20ADF808006946084800F0F8FE74
:101BB00000231A460321054800F0BDFE0121034819
:101BC00000F09EFE07B000BD000801400004004088
:101BD0002DE9F041024600250026002000230024C4
:101BE000002791F803C00CF00F0591F803C00CF02A
:101BF000100CBCF1000F03D091F802C04CEA0505AF
:101C000091F800C0BCF1000F31D0146800202BE027
:101C10004FF0010C0CFA00F3B1F800C00CEA030617
:101C20009E4220D183004FF00F0C0CFA03F7BC4307
:101C300005FA03FC4CEA040491F803C0BCF1280F38
:101C400006D14FF0010C0CFA00FCC2F814C00AE0F7
:101C500091F803C0BCF1480F05D14FF0010C0CFA0C
:101C600000FCC2F810C0401C0828D1D31460B1F8A1
:101C700000C0BCF1FF0F34DD546800202EE000F1FD
:101C8000080C4FF0010808FA0CF3B1F800C00CEA98
:101C900003069E4221D183004FF00F0C0CFA03F78C
:101CA000BC4305FA03FC4CEA040491F803C0BCF100
:101CB000280F05D100F1080C08FA0CF8C2F81480BE
:101CC00091F803C0BCF1480F07D100F1080C4FF0A8
:101CD000010808FA0CF8C2F81080401C0828CED37E
:101CE0005460BDE8F081416170470161704700BFF9
:101CF000FEE7000008B50121102000F0EDFA0220F7
:101D0000ADF8000048208DF8030069460948FFF748
:101D10005FFF0121102000F0DFFA4FF40050ADF812
:101D2000000048208DF8030069460248FFF750FF85
:101D300008BD000000100140014611B10120024A17
:101D400010700020704700003200002000BFFEE746
:101D50007047000070B5002100230F22C47804B33F
:101D6000154C246804F4E064C4F5E064210AC1F170
:101D70000403CA40447804FA03F1847814402143F0
:101D800009010E4C0678A155047804F01F050124C2
:101D9000AC4005786D11AD0005F1E025C5F80041B6
:101DA00009E0047804F01F050124AC40044D0678D6
:101DB000761145F8264070BD0CED00E000E400E02F
:101DC00080E100E002490143024A116070470000CF
:101DD0000000FA050CED00E070B5002419E004F1F4
:101DE000B001C8B2002100F069F90021084600F0F6
:101DF00065F90021102000F061F9002505E00121BE
:101E0000002000F05BF9681CC5B2802DF7DB601C78
:101E1000C4B2082CE3DB70BD08B50121182000F026
:101E20005BFA4020ADF8000010208DF8030003207D
:101E30008DF8020069464848FFF7CAFE4FF470402B
:101E4000ADF8000010208DF8030003208DF802008B
:101E500069464248FFF7BCFE4FF470413F48FFF728
:101E600044FF0021AE2000F029F90021084600F0CF
:101E700025F90021102000F021F90021402000F078
:101E80001DF90021812000F019F90021CF2000F078
:101E900015F90021A12000F011F90021C82000F05F
:101EA0000DF90021A62000F009F90021A82000F07A
:101EB00005F900213F2000F001F90021D32000F0B6
:101EC000FDF80021084600F0F9F80021D52000F0C7
:101ED000F5F80021802000F0F1F80021D92000F071
:101EE000EDF80021F12000F0E9F80021DA2000F0FF
:101EF000E5F80021122000F0E1F80021DB2000F0DD
:101F0000DDF80021402000F0D9F80021202000F069
:101F1000D5F80021022000F0D1F800218D2000F03A
:101F2000CDF80021142000F0C9F80021A42000F011
:101F3000C5F80021A62000F0C1F80021AF2000F074
:101F4000BDF80021AF2000F0B9F8FFF745FF0021F0
:101F5000084600F005F808BD00100140000C0140E3
:101F600070B504460D4605F1B001C8B2002100F07D
:101F7000A5F8102141EA1410002100F09FF804F0A8
:101F80000F0141F00100002100F098F870BD000041
:101F90002DE9F04107460E46904600250024A8F1A1
:101FA0002000C5B27F2F02DD0027B01CC6B231462B
:101FB0003846FFF7D5FF002408E004EB05110F4A6F
:101FC000505C012100F07AF8601CC4B2082CF4DBEC
:101FD000701CC1B23846FFF7C3FF002409E004EBD0
:101FE00005110831054A505C012100F067F8601CBA
:101FF000C4B2082CF3DBBDE8F08100001A370008FA
:102000002DE9FF5F074691461D460E9E4FF0000AE0
:10201000002433E0281B401EC1B20A2000F0E4FF78
:10202000B9FBF0F00A21B0FBF1F201FB1208BAF1A2
:10203000000F13D1681EA04210DDB8F1000F0BD1C4
:10204000B34606EBDB71491001FB0471C8B22022D4
:102050000199FFF79DFF0FE04FF0010AB34606EB31
:10206000DB71491001FB0471C8B208F13001CAB23A
:102070000199FFF78DFF00BF601CC4B2AC42C9DB01
:10208000BDE8FF9F2DE9F04104460F4615460026A6
:102090000EE0AA5D39462046FFF77AFF04F10800FA
:1020A000C4B2782C02DD0024B81CC7B2701CC6B2C2
:1020B000A85D0028EDD1BDE8F081000070B50446B0
:1020C0000E4626B140211B48FFF70FFE03E04021DA
:1020D0001848FFF708FE4FF480511748FFF703FE3A
:1020E00000251BE04FF400511348FFF7FCFD04F0FE
:1020F000800028B14FF400410F48FFF7F6FD04E0DF
:102100004FF400410C48FFF7EEFD4FF400510A4830
:10211000FFF7EBFD6006040E681CC5B2082DE1DB7D
:102120004FF480510448FFF7E0FD40210148FFF7DC
:10213000DCFD70BD00100140000C01402DE9F047AE
:1021400005460C46204600F0F5FF074600F044FF28
:10215000064601F00BF804462146284601F050F9E6
:10216000254908610A461169506900F075FF224946
:1021700048614869214901F011F902D21F481E49FE
:1021800048611D4A9169106901F03AF980461A4880
:102190008168404601F036F80646174A5169506892
:1021A00001F030F88046144A1169106801F02AF8ED
:1021B0008146414600F050FF0746314600F04CFF93
:1021C0000D49C860084600698861C8680B4901F07C
:1021D000E5F803D209480849C86008E00649C8681C
:1021E000074900F0DBFF02D205480349C8600248F6
:1021F000C068BDE8F08700001400002000004842DD
:10220000000048C200B589B00121C80200F064F89E
:102210000121042000F060F818208DF823004FF40D
:102220008070ADF8200003208DF8220008A91A481C
:10223000FFF7CEFC194800F01BFC0020ADF81A0097
:10224000ADF816006320ADF818004720ADF8140073
:1022500000208DF81C0005A9104800F095FC01A88D
:1022600000F058FC6020ADF804000020ADF80C0030
:102270000120ADF806000020ADF80A0001A90748CA
:1022800000F0FCFB0121054800F03AFB0121034866
:1022900000F042FB09B000BD00080140002C0140E5
:1022A00010B504462146024800F03EFC10BD000077
:1022B000002C01407047000029B1064AD269024350
:1022C000044BDA6104E0034AD2698243014BDA61CC
:1022D000704700000010024029B1064A926902438B
:1022E000044B9A6104E0034A92698243014B9A616C
:1022F000704700000010024030B500210022002489
:1023000000232D4D6D6805F00C0121B1042905D085
:10231000082923D105E0294D056022E0274D0560FD
:102320001FE0254D6D6805F47012234D6D6805F4AE
:102330008034022505EB92421CB9214D55430560BE
:102340000BE01D4D6D6805F400351DB11C4D554366
:10235000056002E0194D5543056002E0174D056028
:1023600000BF00BF144D6D6805F0F0010909154D5F
:102370006B5C0568DD4045600F4D6D6805F4E061FC
:10238000090A104D6B5C4568DD4085600A4D6D683B
:1023900005F46051C90A0B4D6B5C4568DD40C560B2
:1023A000054D6D6805F44041890B074D6B5CC568B0
:1023B000B5FBF3F5056130BD0010024000127A0054
:1023C00000093D00000000201000002070470000C0
:1023D00000B587B001218803FFF77EFF01210420AB
:1023E000FFF77AFF18208DF81B004FF40070ADF84E
:1023F000180003208DF81A0006A92148FFF7E8FB12
:1024000048208DF81B004FF48060ADF818000320C1
:102410008DF81A0006A91A48FFF7DAFB4FF4165098
:1024200002900020ADF814000C20ADF8120000203E
:10243000ADF81000ADF80E00ADF80C0002A911487F
:1024400000F0C8FC012240F225510E4800F09CFC2F
:102450004FF4A060FFF7B6FC25208DF804000120A2
:102460008DF807008DF805008DF8060001A8FFF72C
:1024700071FC0121034800F044FC07B000BD0000DE
:1024800000080140003801400FB400B59BB01DA802
:10249000019002A8019A1C99FDF7ECFE0020019022
:1024A00002A800F013F81BB05DF814FB10B5044649
:1024B0002146054800F0FFFC00BF8021024800F0E3
:1024C0002CFC0028F9D010BD0038014070B504463E
:1024D000002504E0605DFFF7E9FF681CC5B2605DA0
:1024E0000028F7D170BD10B500F002F810BD000053
:1024F0000CB50020019000903348006840F4803013
:102500003149086000BF3048006800F40030009096
:102510000198401C0190009818B90198B0F5A06F7F
:10252000F1D12948006800F4003010B1012000907A
:1025300001E0002000900098012843D12348006862
:1025400040F01000214908600846006820F00300B0
:1025500008600846006840F0020008601A484068B9
:10256000194948600846406848600846406840F499
:10257000806048600846406820F47C104860084647
:10258000406840F4E81048600846006840F08070F9
:10259000086000BF0C48006800F000700028F9D007
:1025A0000948406820F00300074948600846406831
:1025B00040F00200486000BF0348406800F00C0093
:1025C0000828F9D10CBD0000001002400020024094
:1025D0007047000010B51348006840F00100114931
:1025E000086008464068104908400E49486008469F
:1025F00000680E4908400B4908600846006820F44E
:10260000802008600846406820F4FE0048604FF4CF
:102610001F008860FFF767FF4FF000600449086003
:1026200010BD0000001002400000FFF8FFFFF6FEA2
:1026300008ED00E0F0B50C46154600220021068C9E
:102640004FF6FE773E400684028B018C4FF60C76E7
:1026500032407E1C06EA03162E433243104EB0422F
:102660000ED0104EB0420BD0B0F1804F08D00E4EBD
:10267000B04205D00D4EB04202D00D4EB04206D150
:102680004FF6FD76314044F00106314305E04FF648
:10269000F576314044F00106314302830184F0BDF8
:1026A000002C0140003401400004004000080040BC
:1026B000000C0040F0B50C46154600220021002613
:1026C000078C4FF6EF7C07EA0C070784028B018C1E
:1026D0004FF6FF7707EA041640F6FF473A404FF6F9
:1026E000FF7707EA03373A434FF6FF7707EA0527F4
:1026F0003A43114FB8420ED0104FB8420BD0B0F150
:10270000804F08D00E4FB84205D00E4FB84202D0CD
:102710000D4FB84206D14FF6DF77394046F010072B
:10272000394305E04FF65F77394044F010073943ED
:1027300002830184F0BD0000002C01400034014000
:102740000004004000080040000C0040F0B50C46BA
:102750001546002200210026078C4FF6FF6C07EA81
:102760000C070784828B018C4FF6FF7707EA04265B
:102770004FF60C773A404FF6FF7707EA03172F43DF
:102780003A43114FB8420ED0104FB8420BD0B0F1BF
:10279000804F08D00E4FB84205D00E4FB84202D03D
:1027A0000D4FB84206D14FF6FF57394046F48077B7
:1027B000394305E04FF2FF57394044F480773943FD
:1027C00082830184F0BD0000002C014000340140F0
:1027D0000004004000080040000C0040F0B50C462A
:1027E0001546002200210026078C4EF6FF7C07EAE2
:1027F0000C070784828B018C4FF6FF7707EA0436BB
:1028000040F6FF473A404FF6FF7707EA05273A437D
:102810004FF6FF7707EA03373A43114FB8420ED01D
:10282000104FB8420BD0B0F1804F08D00E4FB842D5
:1028300005D00E4FB84202D00D4FB84206D14DF62A
:10284000FF77394046F48057394305E047F6FF5794
:10285000394044F48057394382830184F0BD00003D
:10286000002C0140003401400004004000080040FA
:10287000000C00402DE9F0410121880700F07FF8AD
:1028800001282ED1FFF746F917490860174800784C
:10289000401C164908700846007802281DD11248CD
:1028A000006800F063FC06461148006800F05EFC1A
:1028B00007463146FFF742FC054600F03BFC32304C
:1028C00084B22046FFF7ECFC0849087800EBD07191
:1028D0004910A0EB4101054A11700121880700F061
:1028E0000CF8BDE8F0810000340000203C0000201E
:1028F00038000020CA4302827047CA4302827047F0
:1029000021B1028842F00102028004E002884FF601
:10291000FE731A400280704731B1B0F8442042F48F
:102920000042A0F8442005E0B0F84420C2F30E02B3
:10293000A0F844207047F0B50C4615461E4600210D
:10294000002200230189028B038C4FF6F87739406F
:1029500021434FF6FC473A4040F201173A434FF605
:10296000DD773B404FF6FF7707EA06172F433B43DF
:10297000018102830384F0BD0146888C704730B525
:102980000246002000230024158A05EA01039589E8
:1029900005EA010413B10CB1012000E0002030BDB4
:1029A00070B505460C46244885420ED02348854222
:1029B0000BD0B5F1804F08D02148854205D0214881
:1029C000854202D02048854200D100E000BF208827
:1029D00050B92389A28861882846FFF72BFEE18839
:1029E000284600F0A5F825E0208804280AD123898C
:1029F000A28861882846FFF75DFEE188284600F03E
:102A0000A0F817E0208808280AD12389A2886188C5
:102A10002846FFF79BFEE188284600F09FF809E072
:102A20002389A28861882846FFF7D8FEE1882846D6
:102A300000F09DF870BD0000002C01400034014002
:102A40000004004000080040000C0040002101800C
:102A50004180012181800021C180018170471AB12C
:102A600083890B43838102E083898B438381704791
:102A700001894FF6F87211400181704770B500244A
:102A800000220023058C4FF6FE7635400584028C2B
:102A90008388048B4FF68F752C40B51E2C400D8813
:102AA0002C43751E2A400D892A434D882A43144D14
:102AB000A8420BD0134DA84208D0134DA84205D010
:102AC000124DA84202D0124DA84213D14FF6F7750D
:102AD0002A404D892A434FF6FB752A408D882A43A8
:102AE0004FF6FF652B404FF6FF552B408D892B434A
:102AF000CD892B4383800483CD888586028470BD75
:102B0000002C0140003401400040014000440140DD
:102B1000004801400021018041808180C180018105
:102B200041818181C181704781867047818470476E
:102B3000028B4FF6F3731A400283028B0A4302831F
:102B40007047028B4FF2FF331A400283028B4FF61D
:102B5000FF7303EA01231A4302837047828B4FF607
:102B6000F3731A408283828B0A4382837047828B7D
:102B70004FF2FF331A408283828B4FF6FF7303EAD2
:102B800001231A4382837047002202881D4B98421A
:102B90000ED01D4B98420BD0B0F1804F08D01B4B8C
:102BA000984205D01A4B984202D01A4B984204D151
:102BB0004FF68F731A404B881A43174B984207D031
:102BC000164B984204D04FF6FF431A40CB881A4365
:102BD00002808B8883850B8803850A4B98420BD033
:102BE000094B984208D00E4B984205D00D4B9842A5
:102BF00002D00D4B984201D10B7A038601238382C8
:102C000070470000002C01400034014000040040E7
:102C100000080040000C004000100040001400407C
:102C20000040014000440140004801401FB501211F
:102C30000846FFF741FB4FF08040FFF719FF0020E7
:102C4000ADF80A00ADF8060040F2E730ADF8080034
:102C500040F2CF20ADF8040000208DF80C0001A94F
:102C60004FF08040FFF790FF01218807FFF742FEF9
:102C7000012211469007FFF7F2FE4FF4A060FFF724
:102C8000A1F81C208DF8000001208DF8030002201F
:102C90008DF8010001208DF802006846FFF75AF810
:102CA00001218807FFF72CFE1FBD000010B540F280
:102CB0002551094800F03EF801280CD1064800F0E3
:102CC000F5F80649087001200549087040F22551C1
:102CD000014800F007F810BD003801403000002026
:102CE0003100002010B50022002340F66A14A142F2
:102CF00000D100BF0A1201249440A3B2DC43048037
:102D000010BD21B1828942F40052828104E082899F
:102D10004DF6FF731A408281704702460020B1F5DC
:102D2000007F00D100BF13880B400BB1012000E0F1
:102D30000020704770B502460024002300250020C3
:102D400040F66A16B14200D100BFC1F3421501F04E
:102D50001F03012606FA03F3012D02D196893340A1
:102D600006E0022D02D1168A334001E0968A3340F4
:102D70000C12012606FA04F41688344013B10CB183
:102D8000012000E0002070BDF0B5034600240026BD
:102D90000025002040F66A17B94200D100BF18464E
:102DA000C1F3421401F01F06012707FA06F5012CB2
:102DB00001D10C3004E0022C01D1103000E01430BD
:102DC0001AB107682F43076002E00768AF43076046
:102DD000F0BD00002DE9F04786B005460E46002400
:102DE000A24600BFA1460027B08900B100BF2F4610
:102DF0002C8A4CF6FF700440F08804432C82AC8986
:102E00004EF6F3100440B0883189084371890843B5
:102E10000443AC81AC8A4FF6FF400440B0890443C0
:102E2000AC8201A8FFF768FA1F48874202D1DDF89B
:102E300010A001E0DDF80CA0A88900F4004040B12A
:102E40000AEBCA0000EB0A1031684900B0FBF1F848
:102E500007E00AEBCA0000EB0A1031688900B0FBFA
:102E6000F1F86420B8FBF0F004012009642101FBB3
:102E70001089A88900F4004040B1322000EBC9005D
:102E8000B0FBF1F000F00700044308E0322000EB53
:102E900009106421B0FBF1F000F00F0004432C8115
:102EA00006B0BDE8F0870000003801400146888880
:102EB000C0F308007047C1F308028280704700BF6A
:102EC000FEE7490050EAC12018BF04204A0D18BF90
:102ED00040F0010040F2FF72B2EB515F08BF40F0DA
:102EE0000200012808BF0520704730380A2801D2A7
:102EF000012070470020704708B5FFF797FEFFF7E5
:102F000081F9FEF789FFFEF713FEFEF7F3FEFEF7E9
:102F1000F1FEFFF75DFA4BE00120FEF70DFF0128FF
:102F200002D002280CD105E022480068801C21490B
:102F3000086006E01F480068801E1E49086000E027
:102F400000BF00BF1CA200210846FFF79BF810201D
:102F5000052300901A48002102682D20FFF750F841
:102F600018A202210020FFF78DF810200523009001
:102F70001048022102682D20FFF742F8104800682F
:102F800000F0F4F805460B48006800F0EFF806463C
:102F90002946FFF7D3F8044600F0CCF80B49086047
:102FA000074801680AA0FFF76FFA6420FEF78FFD5B
:102FB000B2E700003800002043726E743A0000004F
:102FC00034000020546167743A0000004000002083
:102FD0000D0A2564000000000146002901DA4A427A
:102FE00000E00A4610B2704710B50246012000E02A
:102FF00050430B00A1F10104E1B2F9D110BD000072
:1030000010B500290AD00878002807D00548784470
:10301000FEF758F9002801D0002010BD024878447E
:1030200010BD00001A0E0000120E000010B500299D
:103030000AD00878002807D005487844FEF742F9FE
:10304000002801D0002010BD0248784410BD0000C7
:103050000A0E0000020E000090EA010F48BF81F046
:10306000004100F1D481421A3CBF801A89184FEA0E
:10307000D0524FF07F4C1CEA410FA2EBD15318BF46
:103080009CEA026F00F03B804FF0004C4CEA0020BD
:103090004CEA012121FA03FC10EB0C0C1ED202F1C8
:1030A000FF325FEA1C2040EBC25038BF70471CF073
:1030B0007F0F4FEA400C18BFBCF17F4F38BF7047FD
:1030C000C3F12003994008BF20F00100BCF17F4FFD
:1030D00038BF7047A0F1C04000F05BB94FEA3C0038
:1030E000000A40EBC25028BF1CF0FF0F4FEA400C13
:1030F000E6D018BFBCF17F4F38BF7047EAE79CEAC3
:10310000026F05D010EA5C0F08BF00F00040704766
:1031100010B500F0F8F800BF64FBBE3E401058BF89
:10312000C0F14040491058BFC1F140418142EFF326
:103130000080704741000B0ED3F19E0208D950F475
:1031400000034FEA032323FA02F048BF40427047CE
:1031500010B500F0D8F800BF4992248000207047D5
:103160006FF0004282EA20007047000010F000413A
:1031700048BF4042B0FA80F310FA03F2C3F19D0356
:103180000BD051EAC35101EB1220530638BF7047F0
:1031900000F1010008BF20F00100704750EA010C67
:1031A00000F113801CF5000F58BFBCF5000F01D4CF
:1031B0008842704707D710F5000F58BF11F5000F70
:1031C00015D488427047894270471CF5000F04D51A
:1031D000BCF5000FF7D5814270474FF0807C1CEBA7
:1031E000400F38BF1CEB410F01D28142704710B530
:1031F00000F089F8922449004FF000504FF08051C0
:10320000FFF78CBF4FF47F0C1CEAD0121EBF1CEAE4
:10321000D11392EA0C0F93EA0C0F00F0478090EA6A
:10322000010F48BF42F480724FF0004C4CEA00207E
:103230004CEA012102EB0302A0FB0113A2F50002FC
:10324000002918BF43F001035B0028BF4FEA330396
:1032500042EB22425FEA132C4CEBC2502EBFBCEB78
:10326000436FB2F57C0F70474FEA036CBCF1004F1F
:1032700008BF20F00100B2F57C0F38BF70470BD5B6
:1032800082F0FF0212F5803FC8BF704700F1C040D6
:10329000D8BF00F00040704700F5000C5FEA4C0C0E
:1032A00048BF7047B0F1C04000F073B890EA010F1A
:1032B0000CEAD11348BF42F48072624538BF6345BF
:1032C00004D280EA010000F00040704710B500F021
:1032D0001AF800BF8900013E00F007B800F009B8F5
:1032E0005FEA410C5FEA1C6C08D080EA010000F044
:1032F00050B85FEA400C5FEA1C6CF6D14FF000401A
:10330000A0F5800070470EF1020E2EF0030E5EF85D
:10331000044B244204D44FEA4102B2F17F4F11D84A
:103320004FEA4003B3F17F4F0CD80ED14FEAD07C67
:10333000B2F17F4F0CEB4C0C0CF1020C08BF4CEBC4
:10334000D17C04E04FF0080C01E04FEAD17C0CEB9B
:103350004C0324FA03F404F00704B4F1040C06D27D
:103360000EEB840CBDE810404CF0010C6047DFE828
:103370000CF0070802024FF00040A0F5800010BDDD
:103380000846420018BFD2F1807288BF00F00040AA
:1033900010BDFF2141EAD050C005704751EA000C32
:1033A00000F113801CF5000F58BFBCF5000F01D4CD
:1033B0008142704707D711F5000F58BF10F5000F75
:1033C00015D481427047894270471CF5000F04D51F
:1033D000BCF5000FF7D5884270474FF0807C1CEB9E
:1033E000410F38BF1CEB400F01D28842704780EA82
:1033F000010081EA000180EA0100FFF7F8BE000049
:1034000090EA010F48BF81F000413FF52CAE421A0F
:1034100004D882F00042A0EB020011444FEAD052DF
:103420004FF07F4C1CEA410FA2EBD15318BF9CEA2E
:10343000026F4AD04FF0004C4CEA00204CEA0121C8
:1034400021FA03FCB0EB0C0C0FD412F0FE0F36D0B7
:103450005FEA4C001DD5001240EBC25038BF7047E8
:103460001CF03F0F18BF70470BE0A2F101025FEAAA
:103470001C2040EBC25038BF70471CF07F0F18BFB4
:103480007047C3F12003994014BF401E20F0010093
:10349000704780084FEA122308BF7047B0FA80FCDB
:1034A000A2EB0C02CCF1280C60FA0CF093EA122F7C
:1034B00004BF00EBC25070474FEAC3707047130A55
:1034C0005FEADC1008BF7047F6E79CEA026F04D0A1
:1034D00010EA5C0F08BF0020704710B5FFF713FF1C
:1034E00040DFF63E81F000407047FDF700BBFDF77E
:1034F00035BC0000000000000000002F00000000AC
:103500000700070000147F147F1400242A7F2A126A
:103510000062640813230036495522500000050359
:10352000000000001C224100000041221C00001489
:10353000083E08140008083E0808000000A06000CB
:10354000000808080808000060600000002010085B
:103550000402003E5149453E0000427F40000042C7
:1035600061514946002141454B31001814127F102A
:10357000002745454539003C4A4949300001710959
:10358000050300364949493600064949291E00000D
:1035900036360000000056360000000814224100B4
:1035A00000141414141400004122140800020151E4
:1035B000090600324959513E007C1211127C007FED
:1035C00049494936003E41414122007F4141221C88
:1035D000007F49494941007F09090901003E4149ED
:1035E000497A007F0808087F0000417F41000020E1
:1035F00040413F01007F08142241007F404040408D
:10360000007F020C027F007F0408107F003E4141D2
:10361000413E007F09090906003E4151215E007FBD
:10362000091929460046494949310001017F010134
:10363000003F4040403F001F2040201F003F4038D7
:10364000403F006314081463000708700807006116
:103650005149454300007F41410000552A552A55F4
:10366000000041417F00000402010204004040408C
:103670004040000001020400002054545478007FB0
:103680004844443800384444442000384444487F87
:1036900000385454541800087E0901020018A4A4EC
:1036A000A47C007F080404780000447D40000040B2
:1036B00080847D00007F102844000000417F40008E
:1036C000007C04180478007C080404780038444422
:1036D000443800FC242424180018242418FC007CFE
:1036E0000804040800485454542000043F44402077
:1036F000003C4040207C001C2040201C003C40300E
:10370000403C004428102844001CA0A0A07C004499
:1037100064544C44141414141414000000000000E9
:1037200000000000000000000000000000F80000A1
:103730000000000000333000000000100C06100CE8
:103740000600000000000000000040C07840C07883
:103750004000043F04043F040400007088FC08306B
:103760000000001820FF211E0000F008F000E01803
:10377000000000211C031E211E0000F008887000BC
:1037800000001E2123241927211010160E0000000E
:1037900000000000000000000000000000E018042D
:1037A0000200000000071820400000020418E0009A
:1037B00000000040201807000000404080F08040DA
:1037C00040000202010F01020200000000F00000B0
:1037D00000000101011F01010100000000000000C4
:1037E000000080B070000000000000000000000039
:1037F00000000001010101010101000000000000C2
:103800000000003030000000000000000000806078
:103810001804006018060100000000E010080810FD
:10382000E000000F102020100F00001010F8000022
:1038300000000020203F20200000007008080888B9
:103840007000003028242221300000300888884889
:1038500030000018202020110E000000C02010F8B9
:10386000000000070424243F240000F8088888088A
:1038700008000019212020110E0000E0108888188F
:103880000000000F112020110E0000380808C83871
:1038900008000000003F0000000000708808088851
:1038A0007000001C222121221C0000E010080810DA
:1038B000E0000000312222110F00000000C0C00013
:1038C0000000000000303000000000000080000018
:1038D0000000000080600000000000008040201018
:1038E0000800000102040810200040404040404011
:1038F0004000040404040404040000081020408074
:1039000000000020100804020100007048080808A8
:10391000F0000000003036010000C030C828E81078
:10392000E0000718272423140B000000C038E00033
:103930000000203C23020227382008F8888888707D
:103940000000203F202020110E00C0300808080889
:103950003800071820202010080008F80808081070
:10396000E000203F202020100F0008F88888E80899
:103970001000203F20202320180008F88888E8083D
:103980001000203F200003000000C0300808083865
:10399000000007182020221E020008F80800000876
:1039A000F808203F210101213F20000808F80808FD
:1039B00000000020203F2020000000000808F80838
:1039C0000800C08080807F00000008F888C02818A8
:1039D0000800203F20012638200008F808000000D9
:1039E0000000203F20202020300008F8F800F8F8E0
:1039F0000800203F003F003F200008F830C00008CA
:103A0000F808203F200007183F00E01008080810C1
:103A1000E0000F10202020100F0008F80808080808
:103A2000F000203F210101010000E010080808100B
:103A3000E0000F18242438504F0008F88888888840
:103A40007000203F2000030C302000708808080818
:103A500038000038202121221C00180808F8080826
:103A600018000000203F2000000008F808000008AF
:103A7000F808001F202020201F000878880000C8B8
:103A80003808000007380E010000F80800F80008A8
:103A9000F800033C0700073C0300081868808068B2
:103AA000180820302C03032C30200838C800C838F0
:103AB00008000000203F2000000010080808C83857
:103AC00008002038262120201800000000FE0202F5
:103AD00002000000007F40404000000C30C00000A9
:103AE0000000000000010638C00000020202FE00D3
:103AF0000000004040407F0000000000040202027D
:103B000004000000000000000000000000000000B1
:103B1000000080808080808080800002020400009D
:103B20000000000000000000000000008080808095
:103B300000000019242222223F2008F80080800083
:103B40000000003F112020110E0000000080808046
:103B50000000000E1120202011000000008080884D
:103B6000F800000E112020103F200000808080808F
:103B70000000001F222222221300008080F088888B
:103B800088180020203F20200000000080808080D6
:103B90008000006B94949493600008F8008080800B
:103BA0000000203F210000203F2000809898000066
:103BB00000000020203F2020000000000080989896
:103BC000000000C08080807F000008F80000808036
:103BD0008000203F24022D302000000808F800005B
:103BE00000000020203F2020000080808080808016
:103BF0008000203F20003F20003F808000808080A8
:103C00000000203F210000203F20000080808080B5
:103C10000000001F202020201F00808000808000E6
:103C2000000080FFA12020110E0000000080808095
:103C30008000000E112020A0FF8080808000808006
:103C4000800020203F212000010000008080808033
:103C500080000033242424241900008080E0808028
:103C600000000000001F2020000080800000008075
:103C70008000001F202020103F20808080000080D6
:103C8000808000010E3008060100808000800080E6
:103C900080800F300C030C300F000080800080808B
:103CA00080000020312E0E312000808080000080B6
:103CB000808080818E701806010000808080808066
:103CC00080000021302C2221300000000000807C88
:103CD000020200000000003F404000000000FF0022
:103CE000000000000000FF0000000002027C8000D5
:103CF00000000040403F00000000000601010202F9
:103D000004040000000000000000000000000000AB
:103D10000000000030313233343536373839414213
:103D2000434445464030580030313233343536371D
:103D300038396162636465664030780004000008C9
:103D400000000000000000020001000010303132CD
:103D500033343536373839616263646566787000AC
:103D600030313233343536373839414243444546B1
:103D70005850000002400000000000A000000000B9
:103D800005400000000000C8000000000C400000DA
:103D90000000409C00000000194000000020BCBE54
:103DA0000000000034400000BFC91B8E000000046A
:103DB000B5400000504BCFD06607E2CF01000000B5
:103DC0006C4100003E8251AADFEEA73401000000E2
:103DD000D9420000DCB5A0E23A301F97FFFFFFFF99
:103DE000B4450000FD25A0C8E9A3C14FFFFFFFFFB8
:103DF000FF3F00000000008000000000FF3F0000C7
:103E00000000008000000000543F00080000002077
:103E100048000000280100089C3F000848000020DE
:103E200060060000440100081C0000004300000080
:103E3000F8FFFFFF0C0000000E0000000F00000064
:103E40002E0000001001000043000000F8FFFFFFFB
:103E5000004040404040404040404141414141409D
:103E60004040404040404040404040404040404052
:103E700040050202020202020202020202020202E1
:103E800002202020202020202020200202020202E6
:103E9000020290909090909010101010101010103E
:103EA000101010101010101010101010020202024A
:103EB000020288888888888808080808080808088E
:103EC000080808080808080808080808020202028A
:103ED00040000000000000000000000000000000A2
:103EE00000000000000000000000000000000000D2
:103EF00000000000000000000000000000000000C2
:103F000000000000000000000000000000000000B1
:103F100000000000000000000000000000000000A1
:103F20000000000000000000000000000000000091
:103F30000000000000000000000000000000000081
:103F40000000000000000000000000000000000071
:103F5000000000000000000001020304010203044D
:103F6000060708090204060800002041EC51383F0A
:103F70003333333F00000000000000000000000069
:103F80000000000000000100000000002800000008
:0C3F9000000000000000000040000020C5
:04000005080000ED02
:00000001FF
